:10000000F8C0000026C1000024C1000022C1000089
:1000100020C100001EC100001CC100001AC1000068
:1000200018C1000016C1000014C1000012C1000078
:1000300010C100000EC100000CC100000AC1000088
:1000400008C1000006C1000004C1000002C1000098
:1000500000C10000FEC00000FCC00000C3C60000DC
:10006000F8C000000C946B0A0C94A10AF2C00000C6
:10007000F0C00000EEC00000ECC00000EAC00000CC
:10008000E8C00000E6C00000E4C00000E2C00000DC
:100090000C94F70A0C942D0BDCC00000DAC00000B1
:1000A000D8C00000D6C00000D4C00000D2C00000FC
:1000B000D0C00000CEC00000CCC00000CAC000000C
:1000C000C8C00000C6C000006AC500000C94830BC5
:1000D0000C94B90BBEC000000C940F0C0C94450C92
:1000E000B8C0000000000A0B02090C0D0E0807033F
:1000F00004010000000000000000000000000000FB
:1001000000000000000000000000000000000000EF
:1001100012111000000000000000000000000000AC
:100120000000000000000000000001021020200874
:100130000810204010204080020102010804020142
:1001400001020408102040808040201008040201B1
:10015000800402018040201008040201080402010A
:100160000102040810204080010204081020408091
:1001700005050505070508080808020202020A0A23
:100180000808040404040101010101010101030341
:10019000030303030303040707070C0C0C0C0C0CEC
:1001A0000C0C0202020206060606060606060B0BE9
:1001B0000B0B0B0B0B0B00002200250028002B0063
:1001C0002E003100340002010000050108010B017E
:1001D00000002100240027002A002D0030003300F9
:1001E00001010000040107010A01CA0A560BE20BD3
:1001F0006E0C11241FBECFEFD1E2DEBFCDBF00E0F9
:100200000CBF12E0A0E0B2E0E8EEF9E100E00BBFC5
:1002100002C007900D92AC33B107D9F724E0ACE3EC
:10022000B2E001C01D92AD3EB207E1F710E0C9EFA8
:10023000D0E000E006C021970109802FFE010E9456
:10024000EA0CC53FD10780E00807A9F70ED50C944A
:10025000F20CD6CECF92DF92EF92FF92CF9388230B
:1002600031F16A017B01CFEFC80F20E030E0A90136
:10027000CB01B60131D5181684F0C701B6019058EC
:1002800034D59B01AC016C2F70E090E080E0CF9101
:10029000FF90EF90DF90CF90ACC0C701B60120D5A2
:1002A0008C2FCF91FF90EF90DF90CF9047C6CF91EA
:1002B000FF90EF90DF90CF9008950F931F938B01E5
:1002C0009C0183E036952795179507958A95D1F778
:1002D000045C1D4F462F477021E030E0F90102C059
:1002E000EE0FFF1F4A95E2F7AF01F80120812423AA
:1002F000CB010196211102C090E080E01F910F9187
:1003000008950F931F938B019C0183E036952795E9
:10031000179507958A95D1F7677081E090E001C045
:10032000880F6A95EAF7F801E45CFD4F2081452BC0
:1003300031F48095822380831F910F910895822B41
:10034000FACF2F923F924F925F926F927F928F924D
:100350009F92AF92BF92CF92DF92EF92FF920F9354
:100360001F93CF93DF93D62EC72E782E692E490187
:100370005A01280161E08D2D1BD7CD2DDC2D8E017A
:100380000F5F1F4FA8016D2D7C2D872D962DB9DF96
:1003900020E030E0A901C201B70120D5181654F4BD
:1003A000C201B701A2D42B01C501B4019ED4A201A0
:1003B000CE0122D0C801DF91CF911F910F91FF9004
:1003C000EF90DF90CF90BF90AF909F908F907F90F5
:1003D0006F905F904F903F902F900895882341F049
:1003E0008150682F70E090E080E050E040E089CFDD
:1003F0000895862FB901A2C59C01FC01EC51FF4F65
:10040000E491E150E231E0F4F0E08827E55FFD4F50
:100410008F4F0C94EA0C1D02230226023D02520269
:1004200020026702730277028E02A302B802CF0293
:10043000E4022002F9021003250384B5806884BD1C
:1004400060E0822FF1C684B58062F9CF8091800090
:100450008C7F82608093800080918100807E8061AB
:10046000682B6093810050938700409386008091B1
:100470008000806880938000E3CF809180008C7F33
:1004800082608093800080918100807E8061682BF3
:100490006093810050938700409386008091800094
:1004A0008062E8CF809180008C7F826080938000A2
:1004B00080918100807E8061682B609381005093E1
:1004C000870040938600809180008860D3CF809120
:1004D000B00080688093B0008091B100887F682B65
:1004E0006093B100ADCF8091B0008062F3CF809176
:1004F00090008C7F82608093900080919100807E3C
:100500008061682B60939100509397004093960010
:100510008091900080688093900092CF80919000AD
:100520008C7F82608093900080919100807E8061BA
:10053000682B6093910050939700409396008091B0
:1005400090008062E8CF809190008C7F82608093E1
:10055000900080919100807E8061682B6093910073
:100560005093970040939600809190008860D3CF7D
:100570008091A0008C7F82608093A0008091A10078
:10058000807E8061682B6093A1005093A700409308
:10059000A6008091A00080688093A00051CF809138
:1005A000A0008C7F82608093A0008091A100807E5B
:1005B0008061682B6093A1005093A7004093A60030
:1005C0008091A0008062E8CF8091A0008C7F826043
:1005D0008093A0008091A100807E8061682B609351
:1005E000A1005093A7004093A6008091A0008860CE
:1005F000D3CF809120018C7F8260809320018091F5
:100600002101807E8061682B609321015093270136
:10061000409326018091200180688093200110CFB3
:10062000809120018C7F8260809320018091210144
:10063000807E8061682B6093210150932701409355
:100640002601809120018062E8CF809120018C7F7B
:1006500082608093200180912101807E8061682BDF
:10066000609321015093270140932601809120013E
:100670008860D3CFAF92BF92CF92DF92EF92FF927A
:100680000F931F93CF93DF9369E070E080E090E0D9
:1006900014DE8C019093E6048093E504A09004029C
:1006A000B0900502C0900602D0900702E0900802C8
:1006B000F0900902D0910A02C0910B0297014D2FD0
:1006C0005C2FB501C6018AD318169CF0E0900C028D
:1006D000F0900D02D0910E02C0910F0297014D2FA4
:1006E0005C2FB501C601F8D287FD03C07501DC2D72
:1006F000CD2D20E030E04FE753E4B7018D2F9C2F44
:10070000EBD218160CF4FCC020E030E0A901B701D0
:100710008D2F9C2F63D387FF04C0E12CF12CD0E0F8
:10072000C0E0A7016D2F7C2FC80194DD6BE070E065
:1007300080E090E0C2DD8C019093DE048093DD04C4
:10074000A0900002B0900102C0900202D09003027B
:10075000E0901002F0901102D0911202C0911302A9
:1007600097014D2F5C2FB501C60138D318169CF0A8
:10077000E0901402F0901502D0911602C091170279
:1007800097014D2F5C2FB501C601A6D287FD03C08E
:100790007501DC2DCD2D20E030E04FE753E4B701AB
:1007A0008D2F9C2F99D218160CF4AFC020E030E0AA
:1007B000A901B7018D2F9C2F11D387FF04C0E12C15
:1007C000F12CD0E0C0E0A7016D2F7C2FC80142DDE5
:1007D00068E070E080E090E070DDEC019093D6047A
:1007E0008093D504A0900402B09005020091060207
:1007F00010910702C0901802D0901902E0901A02DE
:10080000F0901B02A7019601B501C801E7D21816A6
:100810008CF0C0901C02D0901D02E0901E02F0905F
:100820001F02A7019601B501C80156D287FD02C07B
:1008300065017801E894F7F820E030E04FE753E4F1
:10084000C701B60149D2181634F4C12CD12C9FE748
:10085000E92E93E4F92EB701A601CE01FBDC6AE094
:1008600070E080E090E029DDEC019093CE0480936D
:10087000CD04A0900002B0900102009102021091FC
:100880000302C0902002D0902102E0902202F0905A
:100890002302A7019601B501C801A0D218168CF059
:1008A000C0902402D0902502E0902602F09027020A
:1008B000A7019601B501C8010FD287FD02C06501ED
:1008C0007801E894F7F820E030E04FE753E4C701FF
:1008D000B60102D2181634F4C12CD12C8FE7E82EC1
:1008E00083E4F82EB701A601CE01DF91CF911F91CD
:1008F0000F91FF90EF90DF90CF90BF90AF90AACC78
:10090000E12CF12CDFE7C3E40CCFE12CF12CDFE785
:10091000C3E459CF8F929F92AF92BF92DF92EF9232
:10092000FF920F931F93CF93DF9310924602109282
:100930004502C7ECD4E084E2FE0111928A95E9F702
:10094000DD24D394DBA2812C912C54018394898ED5
:100950009A8EAB8EBC8EE12CF12C8701A8019701F9
:1009600069E070E080E090E0ECDC9F8F8E8FDD8EA0
:10097000188ADAA2898A9A8AAB8ABC8AA801970166
:100980006BE070E080E090E0DCDC9F8B8E8BDD8A9A
:100990001886D9A289869A86AB86BC86A80197015B
:1009A00068E070E080E090E0CCDC9F878E87DD8699
:1009B0001882D8A289829A82AB82BC82A801970150
:1009C0006AE070E080E090E0BCDC9F838E83DD8293
:1009D000DF91CF911F910F91FF90EF90DF90BF902B
:1009E000AF909F908F9008958091DF0481112AC06D
:1009F00081E08093DF048091E0049091E104A09174
:100A0000E204B091E3040197A105B105D9F4809106
:100A1000E4048823B9F069E070E080E090E04DDC08
:100A20009093E6048093E50440E050E0BA0112DCC4
:100A300069E070E080E090E040DC9093E604809311
:100A4000E504CCDC8091D70481112AC081E0809339
:100A5000D7048091D8049091D904A091DA04B09180
:100A6000DB040197A105B105D9F48091DC0488234A
:100A7000B9F06BE070E080E090E01FDC9093DE0462
:100A80008093DD0440E050E0BA01E4DB6BE070E00D
:100A900080E090E012DC9093DE048093DD049EDC25
:100AA0008091CF0481112AC081E08093CF0480918E
:100AB000D0049091D104A091D204B091D3040197B5
:100AC000A105B105D9F48091D4048823B9F068E078
:100AD00070E080E090E0F1DB9093D6048093D50441
:100AE00040E050E0BA01B6DB68E070E080E090E002
:100AF000E4DB9093D6048093D50470DC8091C70426
:100B000081112AC081E08093C7048091C80490912C
:100B1000C904A091CA04B091CB040197A105B10505
:100B2000D9F48091CC048823B9F06AE070E080E0C9
:100B300090E0C3DB9093CE048093CD0440E050E07E
:100B4000BA0188DB6AE070E080E090E0B6DB909369
:100B5000CE048093CD0442CC089526E030E040E8F6
:100B600055E260E070E090E080E000C081309105E7
:100B700069F01CF4892B39F008958230910549F011
:100B8000039751F0089583E592E045C480EF92E029
:100B9000FCCF8DE893E0F9CF8AE294E0F6CF1F9284
:100BA0000F920FB60F9211240BB60F922F933F9313
:100BB0004F935F936F937F938F939F93AF93BF9365
:100BC000EF93FF938BEC93EF909325018093240197
:100BD00034D0FF91EF91BF91AF919F918F917F9111
:100BE0006F915F914F913F912F910F900BBE0F909E
:100BF0000FBE0F901F9018958BEC93EF90932501EB
:100C000080932401A3E7B0E08C918E7F8C93E0E287
:100C1000F1E080818C7F8083E1E2F1E08081877E5A
:100C2000808380818560808380818D7F80838C91AB
:100C300081608C93089581E008958091470291E04E
:100C4000980F90934702882349F021E030E03093D9
:100C500049022093480280934702089578940ADD60
:100C6000F894809147028150F6CFCF93DF93109292
:100C7000EC041092EB0400D170DFC0912802D091F7
:100C800029021982188246DEF894B6DF81E02881B5
:100C90003981232B09F080E08093EB0478947894D9
:100CA0008091EB04811107C09FDEF89490E080E012
:100CB000DF91CF91089581E028813981232B09F4B8
:100CC00080E08093EC049091EC0481E0911180E04D
:100CD0008093EB04B0DFE4CF34D008F481E00895D2
:100CE00004D06894B11174C0089557D088F09F570C
:100CF00090F0B92F9927B751A0F0D1F0660F771F68
:100D0000881F991F1AF0BA95C9F712C0B13081F047
:100D10005ED0B1E008955BC0672F782F8827B85F59
:100D200039F0B93FCCF3869577956795B395D9F7A8
:100D30003EF490958095709561957F4F8F4F9F4FB2
:100D40000895990F0008550FAA0BE0E8FEEF16165C
:100D50001706E807F907C0F012161306E407F507AF
:100D600098F0621B730B840B950B39F40A2661F023
:100D7000232B242B252B21F408950A2609F4A140C6
:100D8000A6958FEF811D811D089557FD9058440F42
:100D9000551F59F05F3F71F04795880F97FB991FDA
:100DA00061F09F3F79F08795089512161306140697
:100DB000551FF2CF4695F1DF08C016161706180624
:100DC000991FF1CF86957105610508940895E894FF
:100DD000BB2766277727CB0197F90895B2DF08F480
:100DE0008FEF08951F920F920FB60F9211242F9339
:100DF0003F938F939F93AF93BF9380914B029091BA
:100E00004C02A0914D02B0914E0230914A0223E073
:100E1000230F2D3758F50196A11DB11D20934A02CD
:100E200080934B0290934C02A0934D02B0934E02DC
:100E300080914F0290915002A0915102B0915202C4
:100E40000196A11DB11D80934F0290935002A09373
:100E50005102B0935202BF91AF919F918F913F91F8
:100E60002F910F900FBE0F901F90189526E8230F1B
:100E70000296A11DB11DD2CF789484B5826084BD45
:100E800084B5816084BD85B5826085BD85B581608E
:100E900085BDEEE6F0E0808181608083E1E8F0E0EE
:100EA0001082808182608083808181608083E0E81D
:100EB000F0E0808181608083E1EBF0E080818460FC
:100EC0008083E0EBF0E0808181608083E1E9F0E005
:100ED000808182608083808181608083E0E9F0E0AE
:100EE000808181608083E1EAF0E08081826080839C
:100EF000808181608083E0EAF0E08081816080838E
:100F0000E1E2F1E080818260808380818160808382
:100F1000E0E2F1E0808181608083EAE7F0E08081B7
:100F2000846080838081826080838081816080830F
:100F30008081806880831092C10008951F93CF93B1
:100F4000DF93182FEB0161E033D1209731F460E09B
:100F5000812FDF91CF911F9167C1CF3FD10511F450
:100F600061E0F6CFE12FF0E0EC51FF4FE491E1506A
:100F7000E23108F0B2C0F0E08827EF53F84F8F4F0E
:100F800029C5D307DB07E007EA07F4076D08FE076A
:100F900006080E08180822082C083B0845086D08AA
:100FA0004F085908630884B5806884BDC7BDDF91C8
:100FB000CF911F91089584B5806284BDC8BDF7CFDD
:100FC00080918000806880938000D0938900C093D6
:100FD0008800EDCF80918000806280938000D09364
:100FE0008B00C0938A00E3CF80918000886080935B
:100FF0008000D0938D00C0938C00D9CF8091B00039
:1010000080688093B000C093B300D1CF8091B000CE
:1010100080628093B000C093B400C9CF80919000EB
:10102000806880939000D0939900C0939800BFCFC0
:1010300080919000806280939000D0939B00C09339
:101040009A00B5CF80919000886080939000D093F3
:101050009D00C0939C00ABCF8091A00080688093DE
:10106000A0008091A0008F7B8093A000D093A90066
:10107000C093A8009CCF8091A00080628093A000C4
:10108000D093AB00C093AA0092CF8091A00088605B
:101090008093A000D093AD00C093AC0088CF809126
:1010A0002001806880932001D0932901C0932801FA
:1010B0007ECF80912001806280932001D0932B010C
:1010C000C0932A0174CF8091200188608093200111
:1010D000D0932D01C0932C016ACFC038D1050CF0FC
:1010E0003FCF35CF8150823108F059C0E82FF0E072
:1010F0008827E358F74F8F4F6DC49D08A1088F08CC
:1011000095089908CF08A408AA08AE08B408B8083A
:10111000BC08C208C608CF08CA08D008D408809105
:1011200080008F77809380000895809180008F7D6C
:10113000F9CF80918000877FF5CF84B58F7784BD0C
:10114000089584B58F7DFBCF8091B0008F77809319
:10115000B00008958091B0008F7DF9CF809190000C
:101160008F77809390000895809190008F7DF9CFC4
:1011700080919000877FF5CF8091A0008F7780933A
:10118000A00008958091A0008F7DF9CF8091A000EC
:10119000877FF5CF809120018F778093200108957C
:1011A000809120018F7DF9CF80912001877FF5CF3D
:1011B000CF93DF9390E0FC01E65DFE4F24918059D0
:1011C0009E4FFC0184918823C9F090E0880F991FFD
:1011D000FC01E053FE4FA591B491FC01EA54FE4F8F
:1011E000C591D49161110DC09FB7F8948C91209551
:1011F00082238C938881282328839FBFDF91CF91FE
:101200000895623051F49FB7F8943C91822F8095F5
:1012100083238C93E8812E2BEFCF8FB7F894EC913A
:101220002E2B2C938FBFEACF1F93CF93DF93282FC2
:1012300030E0F901EC51FF4F8491F901E65DFE4F7A
:10124000D491F901E059FE4FC491CC23A1F0162F9F
:10125000811148DFEC2FF0E0EE0FFF1FEA54FE4F44
:10126000A591B4918FB7F894EC91111108C0D09565
:10127000DE23DC938FBFDF91CF911F910895DE2B8A
:10128000F8CFFC01918D228D892F90E0805C9F4FDB
:10129000821B91098F7399270895FC01918D828D8E
:1012A000981731F0828DE80FF11D858D90E008953B
:1012B0008FEF9FEF0895FC01918D828D981761F05B
:1012C000A28DAE0FBF2FB11D5D968C91928D9F5F49
:1012D0009F73928F90E008958FEF9FEF0895FC0128
:1012E000538D448D252F30E0842F90E0821B930B8B
:1012F000541710F0CF96089501970895FC01A48D1E
:10130000A80FB92FB11DA35ABF4F2C91848D90E027
:1013100001968F739927848FA689B7892C93A0890A
:10132000B1898C91837080648C93938D848D981394
:1013300006C00288F389E02D80818F7D8083089527
:10134000CF93DF93EC01888D8823B1F0AA89BB8904
:10135000E889F9898C9185FD03C0808186FD0CC0E8
:101360000FB607FCF7CF8C9185FFF2CF808185FF08
:10137000EDCFCE01C3DFEACFDF91CF910895EF9299
:10138000FF920F931F93CF93DF93EC0181E0888F3F
:101390009B8D8C8D98131AC0E889F989808185FF0F
:1013A00015C09FB7F894EE89FF896083E889F989B1
:1013B00080818370806480839FBF81E090E0DF91B3
:1013C000CF911F910F91FF90EF900895F62E0B8D06
:1013D00010E00F5F1F4F0F731127E02E8C8D8E11C1
:1013E0000BC00FB607FCFACFE889F989808185FF29
:1013F000F5CFCE0183DFF2CFEB8DEC0FFD2FF11D8A
:10140000E35AFF4FF0829FB7F8940B8FEA89FB896C
:1014100080818062D0CFCF92DF92EF92FF921F93B4
:10142000CF93DF93EC016A017B01122FE889F989E0
:1014300082E08083C11481EED806E104F10499F0C2
:1014400060E079E08DE390E0A7019601A1D2215000
:101450003109410951095695479537952795211529
:1014600080E1380790F0E889F989108260E874E833
:101470008EE190E0A70196018BD2215031094109FC
:1014800051095695479537952795EC85FD8530830D
:10149000EE85FF852083188EEC89FD891083EA890B
:1014A000FB89808180618083EA89FB8980818860F3
:1014B0008083EA89FB89808180688083EA89FB894F
:1014C00080818F7D8083DF91CF911F91FF90EF907E
:1014D000DF90CF9008951F920F920FB60F921124B4
:1014E0000BB60F922F938F939F93EF93FF93E091FF
:1014F0006302F09164028081E0916902F0916A02D6
:1015000082FD1DC0908180916C028F5F8F7320914E
:101510006D02821741F0E0916C02F0E0ED5AFD4F50
:10152000958F80936C02FF91EF919F918F912F91F6
:101530000F900BBE0F900FBE0F901F9018958081DB
:10154000F2CF1F920F920FB60F9211240BB60F928B
:101550002F933F934F935F936F937F938F939F93BB
:10156000AF93BF93EF93FF9383E592E0C7DEFF91C4
:10157000EF91BF91AF919F918F917F916F915F910B
:101580004F913F912F910F900BBE0F900FBE0F9078
:101590001F901895E3E5F2E01382128288EE93E043
:1015A000A0E0B0E084839583A683B7838EE292E0C7
:1015B0009183808385EC90E09587848784EC90E02C
:1015C0009787868780EC90E0918B808B81EC90E010
:1015D000938B828B82EC90E0958B848B86EC90E0F1
:1015E000978B868B118E128E138E148E08951F92F8
:1015F0000F920FB60F9211240BB60F922F938F9369
:101600009F93EF93FF93E0910003F091010380819A
:10161000E0910603F091070382FD1DC09081809147
:1016200009038F5F8F7320910A03821741F0E091C5
:101630000903F0E0E051FD4F958F80930903FF917E
:10164000EF919F918F912F910F900BBE0F900FBE36
:101650000F901F9018958081F2CF1F920F920FB6B6
:101660000F9211240BB60F922F933F934F935F93DA
:101670006F937F938F939F93AF93BF93EF93FF935A
:1016800080EF92E03BDEFF91EF91BF91AF919F9190
:101690008F917F916F915F914F913F912F910F901B
:1016A0000BBE0F900FBE0F901F901895E0EFF2E069
:1016B0001382128288EE93E0A0E0B0E084839583E9
:1016C000A683B7838EE292E0918380838DEC90E0D5
:1016D000958784878CEC90E09787868788EC90E0EC
:1016E000918B808B89EC90E0938B828B8AEC90E0DD
:1016F000958B848B8EEC90E0978B868B118E128E5F
:10170000138E148E08951F920F920FB60F9211240C
:101710000BB60F922F938F939F93EF93FF93E091CC
:101720009D03F0919E038081E091A303F091A403B7
:1017300082FD1DC090818091A6038F5F8F732091E1
:10174000A703821741F0E091A603F0E0E357FC4FB6
:10175000958F8093A603FF91EF919F918F912F9189
:101760000F900BBE0F900FBE0F901F9018958081A9
:10177000F2CF1F920F920FB60F9211240BB60F9259
:101780002F933F934F935F936F937F938F939F9389
:10179000AF93BF93EF93FF938DE893E0AFDDFF919D
:1017A000EF91BF91AF919F918F917F916F915F91D9
:1017B0004F913F912F910F900BBE0F900FBE0F9046
:1017C0001F901895EDE8F3E01382128288EE93E003
:1017D000A0E0B0E084839583A683B7838EE292E095
:1017E0009183808385ED90E09587848784ED90E0F8
:1017F0009787868780ED90E0918B808B81ED90E0DC
:10180000938B828B82ED90E0958B848B86ED90E0BC
:10181000978B868B118E128E138E148E08951F92C5
:101820000F920FB60F9211240BB60F922F938F9336
:101830009F93EF93FF93E0913A04F0913B048081F2
:10184000E0914004F091410482FD1DC0908180919F
:1018500043048F5F8F7320914404821741F0E0911D
:101860004304F0E0E65DFB4F958F80934304FF91C6
:10187000EF919F918F912F910F900BBE0F900FBE04
:101880000F901F9018958081F2CF1F920F920FB684
:101890000F9211240BB60F922F933F934F935F93A8
:1018A0006F937F938F939F93AF93BF93EF93FF9328
:1018B0008AE294E023DDFF91EF91BF91AF919F9178
:1018C0008F917F916F915F914F913F912F910F90E9
:1018D0000BBE0F900FBE0F901F901895EAE2F4E038
:1018E0001382128288EE93E0A0E0B0E084839583B7
:1018F000A683B7838EE292E09183808385E391E0B3
:101900009587848784E391E09787868780E391E0D9
:10191000918B808B81E391E0938B828B82E391E0CA
:10192000958B848B86E391E0978B868B118E128E3C
:10193000138E148E0895AF92BF92CF92DF92EF92E2
:10194000FF920F931F93CF93DF936C017B018B0169
:10195000040F151FEB015E01AE18BF08C017D107B9
:1019600059F06991D601ED91FC910190F081E02D43
:10197000C6011995892B79F7C501DF91CF911F9188
:101980000F91FF90EF90DF90CF90BF90AF900895B0
:10199000A1E21A2EAA1BBB1BFD010DC0AA1FBB1F73
:1019A000EE1FFF1FA217B307E407F50720F0A21BE5
:1019B000B30BE40BF50B661F771F881F991F1A9452
:1019C00069F760957095809590959B01AC01BD017C
:1019D000CF010895EE0FFF1F881F8BBF0790F69170
:0819E000E02D1994F894FFCFEB
:1019E800000034430000344300007F430000803F80
:1019F80000007F430000803F0000000000007FC31C
:101A08000000000000007FC3450200000000BF097D
:0C1A18009B0C6F09A00941095B094D09F6
:00000001FF
