:1000000005C1000034C1000032C1000030C1000051
:100010002EC100002CC100002AC1000028C1000030
:1000200026C1000024C1000022C1000020C1000040
:100030001EC100001CC100001AC1000018C1000050
:1000400016C1000014C1000012C1000010C1000060
:100050000EC100000CC100000AC100000C946A2609
:1000600006C100000C9492290C94C82900C100001C
:10007000FEC00000FCC00000FAC00000F8C0000094
:10008000F6C00000F4C00000F2C00000F0C00000A4
:100090000C941E2A0C94542AEAC00000E8C0000008
:1000A000E6C00000E4C00000E2C00000E0C00000C4
:1000B000DEC00000DCC00000DAC00000D8C00000D4
:1000C000D6C00000D4C000000C9419230C94AA2AB6
:1000D0000C94E02ACCC000000C94362B0C946C2BB2
:1000E000C6C0000000000A0B02090C0D0E08070331
:1000F00004010000000000000000000000000000FB
:1001000000000000000000000000000000000000EF
:1001100012111000000000000000000000000000AC
:100120000000000000000000000001021020200874
:100130000810204010204080020102010804020142
:1001400001020408102040808040201008040201B1
:10015000800402018040201008040201080402010A
:100160000102040810204080010204081020408091
:1001700005050505070508080808020202020A0A23
:100180000808040404040101010101010101030341
:10019000030303030303040707070C0C0C0C0C0CEC
:1001A0000C0C0202020206060606060606060B0BE9
:1001B0000B0B0B0B0B0B000020002300260029006B
:1001C0002C002F003200000100000301060109018C
:1001D00000002200250028002B002E0031003400F2
:1001E00002010000050108010B01000021002400AC
:1001F00027002A002D003000330001010000040117
:1002000007010A01F1297D2A092B952B11241FBE14
:10021000CFEFD1E2DEBFCDBF00E00CBF12E0A0E027
:10022000B2E0E0EDF8E500E00BBF02C007900D92F0
:10023000A03CB107D9F727E0A0ECB2E001C01D92C5
:10024000AE3EB207E1F711E0C6E0D1E000E006C043
:1002500021970109802FFE010E94352CC230D10761
:1002600080E00807A9F70E9434240C94662CC8CEBD
:10027000CF92DF92EF92FF920F931F93E82FF92F07
:1002800005C0015011092109310961F190819623BE
:100290009417B9F305C0015011092109310911F171
:1002A000908196239413F7CFC12CD12CE12CF12C03
:1002B0000AC08FEFC81AD80AE80AF80A0C151D05FB
:1002C0002E053F0579F080818623841791F36C2DEC
:1002D0007D2D8E2D9F2D1F910F91FF90EF90DF9020
:1002E000CF90089560E070E080E090E01F910F9162
:1002F000FF90EF90DF90CF9008954F925F926F92B2
:100300007F92AF92BF92CF92DF92EF92FF920F93C4
:100310001F93CF93DF935C01162FC42FD22F61114F
:1003200004C061E0842F0E94D72760E08C2F0E94D8
:1003300013280E94B4262B013C010E94B4266419A4
:100340007509860997096630710581059105A8F33D
:1003500061E08C2F0E9413280E94B4262B013C01DF
:10036000C02ED12CF12CE12C0E94B4266419750901
:1003700086099709C616D706E806F906A8F760E0C9
:100380008C2F0E941328111104C060E08D2F0E9451
:10039000D72720E432E44FE050E061E08D2F0E9447
:1003A0004028F5016083718382839383DF91CF912D
:1003B0001F910F91FF90EF90DF90CF90BF90AF9083
:1003C0007F906F905F904F90089590E080E0089547
:1003D0000F931F93009709F487C06115710509F405
:1003E00083C0009104021091050220910602309111
:1003F00007020E3F1F4F2F4F3F4F09F066C04FEFD0
:100400005FEFBA0140930402509305026093060225
:100410007093070240910402509105026091060218
:1004200070910702DC011296ED91FC91808191811F
:10043000A281B38180932E0390932F03A093300366
:10044000B093310384819581A681B78180932A037B
:1004500090932B03A0932C03B0932D03808591855B
:10046000A285B3858093260390932703A093280346
:10047000B093290384859585A685B785809322034B
:1004800090932303A0932403B093250310921E039B
:1004900010921F031092200310922103B3D487E21D
:1004A00097E09093C1028093C0029093C30280931F
:1004B000C20297D3009731F421E030E03093330348
:1004C000209332031F910F9108950091040210911F
:1004D00005022091060230910702DB010D931D9366
:1004E0002D933C93139796CF8FEF9FEFEBCF8F9287
:1004F0009F92AF92BF92CF92DF92EF92FF921F93A3
:10050000CF93DF934B015C011091350382E090E0C3
:10051000909333038093320381149104A104B104B6
:1005200041F480913503811104C080913403C1E00E
:100530008111C0E0C12CD12C76018091350381114D
:1005400006C080913403811102C0CC23D1F083E036
:1005500090E09093330380933203CC2371F1CCE984
:10056000DFEF111101C0D7D7CE01DF91CF911F91DD
:10057000FF90EF90DF90CF90BF90AF909F908F90C3
:1005800008956AE070E080E090E00E94D92680E162
:10059000C80E87E2D81EE11CF11C8FEF8816980662
:1005A000A806B80631F0C1E08C149D04AE04BF0467
:1005B00008F0C0E080E049D3C0CFD0E0C0E0D1CFA8
:1005C000CF92DF92EF92FF920F931F93CF93DF931F
:1005D0008F3F910511F008F050C020913203309107
:1005E00033032330310539F0209132033091330346
:1005F0002130310531F424E030E03093330320938F
:1006000032036A017B01EC0182309105A0F011E018
:10061000AE01C701B601E4D2AB01BC01CE0111238A
:10062000F9F0DF91CF911F910F91FF90EF90DF9044
:10063000CF900C94B40C8C01000F111F00541D4F6F
:10064000D8018D919C91892B11F30E94BE0C0297C9
:10065000F1F6D801ED91FC91CE011995182FD8CF64
:100660000E94D60C90E080E0DF91CF911F910F9116
:10067000FF90EF90DF90CF9008958FEF9FEFF4CF32
:1006800080E0E3C2CF93DF9386E090E09093330362
:100690008093320333D3EC01E0ECF2E084E0DF013D
:1006A0001D928A95E9F7CFD6109233031092320348
:1006B000CE01DF91CF910895809134030895809108
:1006C0001D0308956093040270930502809306024F
:1006D0009093070290E080E008954F925F926F92AE
:1006E0007F928F929F92AF92BF92CF92DF92EF92C2
:1006F000FF920F93CF93DF9300D000D01F921F92F1
:10070000CDB7DEB78091E90781111092E90705E0C6
:1007100022E042E060E0CE010596EFDD8091E40743
:1007200081111092E40705E023E043E060E0CE0190
:100730000196E3DD8090000290900102A0900202F9
:10074000B09003026D817E818F8198850E94512532
:100750002EEA34ED43EB59E30E94072620E030E017
:1007600040E05FE30E940726A50194010E9407264E
:100770006B017C01C092D807D092D907E092DA07CA
:10078000F092DB0769817A818B819C810E945125DF
:100790002EEA34ED43EB59E30E94072620E030E0D7
:1007A00040E05FE30E940726A50194010E9407260E
:1007B0006093DC077093DD078093DE079093DF077B
:1007C000C092D007D092D107E092D207F092D3071F
:1007D0006093D4077093D5078093D6079093D7077B
:1007E000C090F002D090F102E090F202F090F3029B
:1007F0008FEFC81AD80AE80AF80AC092F002D0921D
:10080000F102E092F202F092F302C114D104E10489
:10081000F10499F48091F4029091F502A091F6020E
:10082000B091F7020196A11DB11D8093F40290933F
:10083000F502A093F602B093F7028090F802909030
:10084000F902A090FA02B090FB026091F40270915C
:10085000F5028091F6029091F7020E945125A501C0
:1008600094010E94072620E030E040E85FE40E9407
:1008700007262B013C01C701B6010E945125A501A5
:1008800094010E9407269B01AC01C301B2010E94A2
:10089000BD246093EC027093ED028093EE0290937E
:1008A000EF0228960FB6F894DEBF0FBECDBFDF91E2
:1008B000CF910F91FF90EF90DF90CF90BF90AF90CE
:1008C0009F908F907F906F905F904F900895E6ED8E
:1008D000F2E08BE2DF011D928A95E9F780E090E07B
:1008E000A0E8BFEB86A397A3A0A7B1A78DEC9CECD3
:1008F000ACECBDE382A393A3A4A3B5A385E69AE0E1
:10090000A1E5B1E184839583A683B78389ED99E35B
:10091000A1E5BDE480879187A287B38780E39DEA44
:10092000A2EABBE784879587A687B7878DE49BE813
:10093000A5E9B9E1808B918BA28BB38BAAECB2E0D5
:10094000B383A283E4ECF2E01196FC93EE938DE284
:1009500092E09183808393838283958384838AEE5C
:1009600092E015969C938E9314978AED92E01396DD
:100970009C938E9312978CEE92E017969C938E9395
:10098000169788E0E8EDF7E0DF01982F1D929A9521
:10099000E9F7E4EEF7E096E0DF011D929A95E9F7BA
:1009A000E0EDF7E0DF011D928A95E9F7E0EEF7E070
:1009B00021E0238781E090E0A0E0B0E0858396838A
:1009C000A783B087228780839183A283B38308950E
:1009D00008954F925F926F927F928F929F92AF9203
:1009E000BF92CF92DF92EF92FF920F931F93F894F2
:1009F00040900D0350900E0360900F037090100311
:100A0000C0900103D0900203E0900303F090040330
:100A1000452B09F0A6C09B01AC01241935094609F4
:100A2000570929013A010091090310910A03209105
:100A30000B0330910C0348015901840C951CA61C32
:100A4000B71C80169106A206B306A0F40091050318
:100A50001091060320910703309108030F5F1F4F89
:100A60002F4F3F4F00930503109306032093070376
:100A7000309308038092090390920A03A0920B031B
:100A8000B0920C0300910503109106032091070317
:100A9000309108038092110390921203A0921303E5
:100AA000B0921403009315031093160320931703B9
:100AB0003093180360930D0370930E0380930F031C
:100AC00090931003A301920160EA76E881E090E040
:100AD0000E94F02B6C0D7D1D8E1D9F1D60930103E8
:100AE0007093020380930303909304030091040224
:100AF0001091050220910602309107020F3F1F4F0F
:100B00002F4F3F4FF1F00091040210910502209108
:100B10000602309107020E3F1F4F2F4F3F4F89F0C3
:100B2000C0900402D0900502E0900602F090070207
:100B300021E08C149D04AE04BF0408F420E020934F
:100B40001D0378941F910F91FF90EF90DF90CF904D
:100B5000BF90AF909F908F907F906F905F904F90DD
:100B600008954B015C0184189508A608B708A301F5
:100B70009201261B370B480B590B6415750586052A
:100B80009705E0F082169306A406B50640F420E02F
:100B900030E0A90181149104A104B104A1F460EA38
:100BA00076E881E090E00E94F02BA7019601261BD9
:100BB000370B480B590BCA01B901C3CF82169306F4
:100BC000A406B50660F7A501940160EA76E881E025
:100BD00090E00E94F02B6C0D7D1D8E1D9F1DB1CFEE
:100BE000F8CECF93DF9300D01F92CDB7DEB71C8233
:100BF0001B821A8219821092190310921A03109202
:100C00001B0310921C03BE016F5F7F4FCE01039642
:100C10000E94EA2269817A818B819C810E94DA1B81
:100C2000009761F4BE016F5F7F4FCE0103960E9473
:100C3000F62269817A818B819C812ED50F900F904D
:100C40000F900F90DF91CF910895FF920F931F9314
:100C5000CF93DF93082F60E070E0CB010E94D9268C
:100C6000FF24F3940E94C31AEC01892B89F010E051
:100C7000CE3F8FEFD80769F0002361F160E070E0AC
:100C8000CB010E94D92681E090E0892B59F322C044
:100C900011E025D5EC01892B21F0CE3F8FEFD8074D
:100CA00059F711111EC011E0229609F410E00E94BC
:100CB000731AEC01892B21F0CE3F8FEFD807E1F6B4
:100CC000111111C011E0CE3F8FEFD80709F410E0E9
:100CD00001110BC0CE01DF91CF911F910F91FF90B9
:100CE000089511E0E4CF11E0F3CF60E070E0CB01B4
:100CF0000E94D9261F25812F90E0C7CFCF93DF9385
:100D000080911D03882321F060E070E0CB014CD678
:100D100035D6D0E0C0E0892B71F06AE070E080E069
:100D200090E00E94D92681E090DF28D62196C03D30
:100D300027E0D20781F727D60E942E1C1092350398
:100D40001092340310922E0310922F03109230034E
:100D50001092310310922A0310922B0310922C034D
:100D600010922D031092260310922703109228034D
:100D7000109229031092220310922303109224034D
:100D80001092250310921E0310921F03109220034D
:100D9000109221034EEF5FEF6FEF7FEF409304025D
:100DA00050930502609306027093070210921D0390
:100DB000E1E1F3E028E0DF011D922A95E9F71092C6
:100DC0000D0310920E0310920F0310921003109255
:100DD000090310920A0310920B0310920C03109255
:100DE0000503109206031092070310920803109255
:100DF0000103109202031092030310920403DF9187
:100E0000CF91089510924103109242031092430330
:100E100010924403109240038091490390914A0339
:100E200090933F0380933E0310923D0310923C0346
:100E3000109238031092390310923A0310923B0338
:100E4000109246031092450390E080E00895CF92FF
:100E5000DF92EF92FF920F931F93CF938C01892B18
:100E600009F055C02091490330914A0380913E0317
:100E700090913F034091490350914A0350933F039F
:100E800040933E032817390781F010923D031092DA
:100E90003C03109238031092390310923A031092D7
:100EA0003B031092460310924503809149039091B1
:100EB0004A03019761F58091450390914603892B80
:100EC00021F480910802811112C080914503909114
:100ED00046030197E1F48091380390913903A09182
:100EE0003A03B0913B030197A105B10581F410923B
:100EF00038031092390310923A0310923B03109278
:100F0000080282E090E0909346038093450380912D
:100F1000490390914A03019709F01CC180915F0336
:100F2000909160038017910709F014C180915B03D1
:100F300090915C03A0915D03B0915E03009709F46A
:100F400009C120915A0321110DC040915B035091BA
:100F50005C0360915D0370915E03452B462B472B2C
:100F600009F4F8C020914503309146032230310541
:100F700009F0F0C020913C032111ECC0FC01C080BD
:100F8000D180E280F38080914003882309F4D3C0AC
:100F900080914C0390914D03892B09F4FDC0209161
:100FA0004C0330914D0381E02230310509F080E09F
:100FB00020914C0330914D03C1E02130310549F0BF
:100FC00020914C0330914D03C1E02230310509F0EE
:100FD000C0E0882309F456C020915603309157038E
:100FE0004091580350915903C701B6010E9403264E
:100FF00087FD14C020915603309157034091580348
:1010000050915903609141037091420380914303D1
:10101000909144030E94212587FD22C02091560310
:10102000309157034091580350915903C701B601BD
:101030000E940326181634F5209156033091570369
:1010400040915803509159036091410370914203BC
:1010500080914303909144030E942125811112C085
:1010600080914E0390914F03A0915003B091510392
:10107000892B8A2B8B2B19F481E080933D0381E02F
:1010800080933C03CC2309F456C020915603309141
:1010900057034091580350915903C701B6010E946C
:1010A000212587FF14C020915603309157034091AA
:1010B000580350915903609141037091420380910C
:1010C0004303909144030E94032687FF22C020918E
:1010D0005603309157034091580350915903C7016B
:1010E000B6010E942125811126C02091560330911E
:1010F00057034091580350915903609141037091F7
:10110000420380914303909144030E9403261816E2
:1011100094F480914E0390914F03A0915003B091AD
:101120005103892B8A2B8B2B19F481E080933D038B
:1011300081E080933C0381E090913C03911180E039
:1011400080934003C0924103D0924203E092430354
:10115000F0924403012B09F067C1809145039091FF
:101160004603892BD9F410924B0310923C038091D3
:101170000802882379F082E090E090934603809300
:101180004503109208022091490330914A0381E0FF
:10119000232BE9F080E01BC081E00ACF1092080207
:1011A00080914B03882349F010923D03109246032F
:1011B0001092450310924B03EDCF8091490390911B
:1011C0004A03892BE1F080913C0310923C0320916B
:1011D0004503309146032230310509F45EC088F49E
:1011E0002115310509F448C02130310509F4F3C057
:1011F00010923D0310923C0310924B0338C081E0E3
:10120000E6CF2330310509F4B1C02430310581F730
:10121000409138035091390360913A0370913B0338
:10122000411551056105710561F041505109610990
:101230007109409338035093390360933A037093D4
:101240003B03409138035091390360913A03709108
:101250003B03452B462B472BD9F420914703309174
:1012600048032130310509F046C010923D03109229
:101270004603109245030CC080910802882341F078
:1012800082E090E090934603809345031092080219
:101290001092360380913D03CEC08823C9F380911C
:1012A0004E0390914F03A0915003B0915103181633
:1012B00019061A061B060CF07DC080914903909117
:1012C0004A03019709F076C080914E0390914F0335
:1012D000A0915003B0915103809338039093390348
:1012E000A0933A03B0933B0383E090E090934603CE
:1012F00080934503CDCF40915203509153036091A9
:10130000540370915503452B462B472BA9F010929F
:101310003D038091520390915303A0915403B091E7
:1013200055038093380390933903A0933A03B09305
:101330003B0381E090E0DACF882399F080910902A5
:1013400090910A02A0910B02B0910C028093380395
:1013500090933903A0933A03B0933B0384E090E069
:10136000C5CF10923D0382E090E0C0CF809138035A
:1013700090913903A0913A03B0913B030097A105E6
:10138000B10559F00197A109B109809338039093F1
:101390003903A0933A03B0933B03809138039091B3
:1013A0003903A0913A03B0913B03892B8A2B8B2BF5
:1013B00009F06ECF8091090290910A02A0910B0270
:1013C000B0910C02892B8A2B8B2B09F44ECF81E034
:1013D00080933D03B3CF409138035091390360911E
:1013E0003A0370913B03411551056105710561F0A8
:1013F00041505109610971094093380350933903F1
:1014000060933A0370933B03409138035091390342
:1014100060913A0370913B03452B462B472B09F013
:1014200037CF8111C7CF9FCF80913603882309F42E
:1014300031CF80913703CF911F910F91FF90EF90A3
:10144000DF90CF90089510924103109242031092C2
:1014500043031092440310924003109246031092EB
:10146000450310923F0310923E03109260031092C6
:101470005F0310923D0310923C03109238031092C8
:10148000390310923A0310923B03109237031092E3
:10149000360310925B0310925C0310925D0310926E
:1014A0005E0310925A031092560310925703109243
:1014B00058031092590388EE93E0A0E0B0E08093C7
:1014C000090290930A02A0930B02B0930C021092AF
:1014D000520310925303109254031092550310922A
:1014E0004E0310924F03109250031092510310922A
:1014F0004D0310924C0381E08093080210924B033D
:1015000010924A0310924903109248031092470325
:1015100090E080E008958091490390914A03892BDF
:1015200019F580910802882351F080914B038111B5
:1015300006C081E08093370380933603089520919D
:101540004B033091080281E090E0332311F090E0EA
:1015500080E030E082239323892B21F0109237031F
:1015600081E0EACF10923603089582E090E0FA011C
:10157000918380838FEF9FEF0895CF93DF93EA01EC
:10158000009711F00E944E1D1982188290E080E0B1
:10159000DF91CF910895DB01009719F48FEF8C93C1
:1015A00008952EEF2C93FC013F96EF30F10508F0E3
:1015B00034C08827E152F54F8F4F0C94352C0B0B1C
:1015C000090B070B050B030BFF0A010BFD0AFB0AB6
:1015D000F90AF60AF20AEE0AF40A0D0B80E31196F4
:1015E0008C93089589E2FBCF82E2F9CF11961C9289
:1015F000089583E2F4CF81E2F2CF81E1F0CF87E278
:10160000EECF8AE2ECCF80E1EACF84E2E8CF88E255
:10161000E6CF86E2E4CF81E3E2CF80E2E0CF8091C3
:101620006D0390916E03089590936E0380936D0304
:10163000089580916C03089590916C03892B809399
:101640006C030895982F909580916C038923809363
:101650006C03089580916B030895809169039091C4
:101660006A0308956115710559F0FB0130E020E02F
:1016700070E060E02417350719F06115710511F06D
:10168000CB010895A081B181A817B90709F4BF0162
:101690002F5F3F4F3696EECF80916F0381111CC0B4
:1016A00060D266D290936203809361030E944C15CE
:1016B0000E945E1590936603809365030E94DB1978
:1016C0000E94E219909364038093630381E0809306
:1016D0006F0390E080E0089584EF9FEF08958F926C
:1016E0009F92AF92BF92CF92DF92EF92FF920F93B1
:1016F0001F93CF93DF9300D000D000D01F92CDB7BF
:10170000DEB71A86198618861F821E821D821C82E9
:101710001B821A82198280916F0307EF1FEF8823C3
:1017200009F49CC08E010D5F1F4F9E012B5F3F4F40
:10173000AE01495F5F4FBE01675F7F4F90E080E081
:101740000E945F1B8C01009721F00596029708F01C
:10175000DBC029853A852115310509F402C1ED80E8
:10176000FE804B815C81B701640F751F8F81988566
:101770008617970708F4F5C0E20EF31ED7019C9177
:10178000903C09F07FC04230510508F47BC01196AF
:101790008C9140916D0350916E03452B09F49CC0D0
:1017A000913F08F071C02CE1290F2D3008F48BC057
:1017B0002DE2290F203108F489C0903C21F481509A
:1017C000823008F483C088E3890F8B3008F481C02D
:1017D0009BECC92E9AE0D92EE5EBFAE06D817E8173
:1017E000AE014F5F5F4F89859A8519955C01C114E1
:1017F000D104A1F189809A808114910479F18B81BF
:101800009C818815990508F487C010E000E04B81A1
:101810005C8170E060E0C7010E945F2C011511053A
:10182000E9F449815A8169857A858D819E81680FA5
:10183000791FC501F6011995E980FA800D811E8195
:101840002F81388549855A856FEF7FEF81E090E0E1
:101850000E94FA1A8C01892B09F056C0C8012A96F9
:101860000FB6F894DEBF0FBECDBFDF91CF911F91B1
:101870000F91FF90EF90DF90CF90BF90AF909F902F
:101880008F90089580E085CF30E020E0220F331F55
:10189000F901EF59FC4F0190F081E02D309709F4E8
:1018A00097CF892F90E01995009709F491CFDC012B
:1018B0001296ED91FC9113971496CD90DC90309791
:1018C00009F08CCF1FC021E030E0E0CF22E030E013
:1018D000DDCF23E030E0DACFD12CC12CEDEBFAE004
:1018E0009F3F09F07BCFE0916103F0916203309755
:1018F00021F4C90104EF1FEF0CC08FEF90E01995A0
:101900000097A9F604EF1FEF89859A85009709F4DF
:10191000A5CF0E944E1DA2CF0E94291C8C01898553
:101920009A850E944E1D70E060E0C4010E94C21BB7
:1019300098878F830E94F71A9E838D836F817885A5
:101940006115710559F0C8010E94DA1E9A878987CE
:1019500006EF1FEF892B09F058CF59CF08EF1FEF83
:1019600056CF08EF1FEFD0CF20916F03222319F03D
:1019700020E00C94631587EF9FEF089580916D032D
:1019800090916E0308950E94E7190E944119F5D0C5
:10199000E1E6F3E088E0DF011D928A95E9F7109215
:1019A0006F0390E080E008950C949F1721E040E0E1
:1019B00050E0BA010C94631586E090E0FA0191833F
:1019C000808390E080E0089547E050E060E372E0BB
:1019D00049CEDF92EF92FF920F931F93CF93DF9345
:1019E0008A01EC01C60FD71FE0907303F0907403D7
:1019F000D9800E94111CD816190678F082E090E078
:101A0000F801918380838EEF9FEFDF91CF911F913B
:101A10000F91FF90EF90DF900895EF2841F482E05E
:101A200090E0F8019183808384EF9FEFEECF89816E
:101A30008093720390E00196F8019183808390E097
:101A400080E0E3CFCF93DF93EA010E945018882310
:101A500021F00E941E1C0E94511882E090E09983A0
:101A600088838BEF9FEFDF91CF910895CF93DF9322
:101A7000EB0186E0FB0111928A95E9F78FEF8883ED
:101A8000D8DD8983E7DD8A83E8DD9D838C83DF9160
:101A9000CF910895CF93DF93EA010E9453188111EB
:101AA00009C082E090E09983888385EF9FEFDF9102
:101AB000CF91089590E080E0B7DD81E090E09983D8
:101AC000888390E080E0F3CF0F931F93CF93DF9351
:101AD000EA018C01060F171F0E94531881110BC0D9
:101AE00082E090E09983888385EF9FEFDF91CF912B
:101AF0001F910F910895F8018181823038F082E0C2
:101B000090E0998388838EEF9FEFF0CF81E090E0A3
:101B10008BDD88E090E09983888390E080E0E6CFD9
:101B2000CF93DF930097D1F4EB01FB01329686E06F
:101B3000DF011D928A95E9F78FEF888385E089831D
:101B40001A820E94111C8B830E94101C9D838C831F
:101B500081E08E838F83DF91CF910895DF91CF91C4
:101B60001ACD84EE9CE090937103809370030895E6
:101B700080917003909171030895109271031092F7
:101B80007003089580917303909174030895411137
:101B900005C0611571058105910561F060937303BE
:101BA0007093740380937503909376034093770347
:101BB00081E0089580E00895FF920F931F93CF93E3
:101BC000DF938A01EC01C60FD71FF9800E94111C18
:101BD000F816190668F082E090E0F801918380839E
:101BE0008EEF9FEFDF91CF911F910F91FF9008959E
:101BF0006C817D818E819F814B81C9DF811108C0FD
:101C000082E090E0F8019183808384EF9FEFEACF38
:101C100089818093720390E00196F801918380831B
:101C200090E080E0DFCFCF93DF93EA01FC01E60F85
:101C3000F71F64817581868197814381A8DF8111B7
:101C400009C082E090E09983888384EF9FEFDF9161
:101C5000CF91089581E090E09983888390E080E0BF
:101C6000F6CFE3E7F3E04081518162817381480F51
:101C7000511D611D711D40835183628373830895DB
:101C8000CF93C09172034C2F50E060917303709119
:101C9000740301960E94562C8C2FE3DF109272037E
:101CA000CF910895009799F48091730390917403F4
:101CB0002FEFFB012083892B59F02091720330E034
:101CC0002F5F3F4F2417350719F4CB01D9CF63CCD1
:101CD0000895009799F480917303909174032FEF06
:101CE000FB012083892B59F02091720330E02F5F94
:101CF0003F4F2417350719F4CB01C2CF4CCC0895C0
:101D000023E1AC01249FC001259F900D1124E09197
:101D10007C03F0917D03E80FF91F23813481225069
:101D2000310981E02230310508F080E008950F93F9
:101D30001F93CF93DF9300917E0310917F03D0E038
:101D4000C0E080E00C171D0749F491E0811190E09C
:101D5000892FDF91CF911F910F9108958111F5CFB8
:101D6000CE01CEDF2196EECFA0917C03B0917D0312
:101D7000109729F120917E0330917F0382179307FA
:101D8000F0F453E1589F9001599F300D1124A20F98
:101D9000B31FED91FC911197309789F012968C91B9
:101DA000681768F48DE0689FE00DF11D11248081B3
:101DB0009181892B21F081E09281491708F080E020
:101DC00008959C0143E1429FC001439F900D11245F
:101DD000E0917C03F0917D03E80FF91F8385823049
:101DE00091F481E090E06581768140910D025091FF
:101DF0000E026417750711F490E080E0892B19F04A
:101E000081E0232B09F080E00895FC01A081B181DD
:101E10008DE0689FA00DB11D112413964D915C912A
:101E200085859685489F9001499F300D589F300DBC
:101E30001124C9010196611103C0478144FD049634
:101E40000895EF92FF920F931F93CF93DF93EA01D0
:101E5000FC01E60FF71F02811381E480F5804F2D0E
:101E60006E2DC80181DF81110DC082E090E0998361
:101E700088838EEF9FEFDF91CF911F910F91FF909D
:101E8000EF900895C8013CDF882339F082E090E0AC
:101E90009983888388EF9FEFEECF1093140200930D
:101EA0001302E0921502F092160281E090E099830D
:101EB000888390E080E0DFCFCF92DF92EF92FF92B5
:101EC0000F931F93CF93DF937A01EC01C60FD71FB7
:101ED000C0901302D09014020091150210911602C6
:101EE000412F602FC60140DF811110C082E090E0D9
:101EF000F701918380838AEF9FEFDF91CF911F914C
:101F00000F91FF90EF90DF90CF900895C601F8DE1B
:101F1000882341F082E090E0F7019183808388EF8D
:101F20009FEFEBCF4C815D816E817F819A818981AA
:101F30008F3F41F082E090E0F701918380838EEF44
:101F40009FEFDBCFE3E1EC9D9001ED9D300D11247F
:101F5000E0917C03F0917D03E20FF31F0190F0818B
:101F6000E02D2DE0029FE00DF11D11240190F08184
:101F7000E02D27E0129FE00DF11D11248083918355
:101F80008B81828343835483658376831F5F1093A1
:101F9000160281E090E0F7019183808390E080E079
:101FA000ACCFEF92FF920F931F93CF93DF937A0101
:101FB0008C01060F171FC0917C03D0917D032097E1
:101FC00081F021E030E0F8018281938140917E032D
:101FD00050917F038417950710F030E020E0232B09
:101FE00071F482E090E0F701918380838EEF9FEFA0
:101FF000DF91CF911F910F91FF90EF90089543E1F2
:10200000489F9001499F300D1124C20FD31F78DEE5
:10201000882341F082E090E0F7019183808388EF8C
:102020009FEFE6CFF8012481358120383105C8F6CD
:1020300087818111D6CF4181842F90E08F7E0097D8
:1020400041F082E090E0F7019183808386EF9FEF7B
:10205000CFCF4F833E832D83268128871986223058
:1020600010F421E0288721E030E0F701318320835C
:10207000BFCF88E090E0FA019183808390E080E018
:102080000895FB018FEF808381E181838FEF9FEFC4
:102090009383828380E890E09583848316821782FD
:1020A0000895FB018FEF808391E091838283938376
:1020B000848384E3858381E090E097838683089519
:1020C000DF92EF92FF920F931F93CF93DF93EA017A
:1020D000FC01E60FF71F8181813071F082E090E012
:1020E000998388838FEF9FEFDF91CF911F910F919D
:1020F000FF90EF90DF90089582819381D4802581B5
:10210000E680F78000917C0310917D030115110595
:1021100039F482E090E0998388838CEF9FEFE4CFDD
:1021200040917E0350917F038417950738F082E039
:1021300090E0998388838EEF9FEFD6CF892B39F07B
:1021400082E090E09983888386EF9FEFCDCF8D2D3D
:102150008D7FB1F72130A1F781E0D11006C091E069
:10216000E916F10431F080E004C0E2E0EE16F1047B
:10217000D0F3882329F390E080E0C2DD882339F092
:1021800082E090E09983888388EF9FEFADCFF801DC
:10219000D38681E08487F686E586108A178681E0FB
:1021A00090E09983888390E080E09ECF4CE050E0FF
:1021B0006AE572E057CA8F929F92BF92CF92DF92E8
:1021C000EF92FF920F931F93CF93DF93EA01FC01ED
:1021D000E60FF71F828193810481B580E0917C0333
:1021E000F0917D03309791F482E090E099838883A9
:1021F0008CEF9FEFDF91CF911F910F91FF90EF90A8
:10220000DF90CF90BF909F908F90089520917E0394
:1022100030917F038217930738F082E090E0998332
:1022200088838EEF9FEFE6CF23E1289F6001299FEF
:10223000D00C1124EC0DFD1DE080F180E114F104BF
:1022400099F28281081748F78DE0089F80011124D8
:10225000E00EF11EF70180819181892B29F6BB20C8
:10226000E1F2F7E0BF9E40011124C4010E94151D58
:10227000F70191838083E0917C03F0917D03EC0D65
:10228000FD1D0190F081E02DE00FF11F8081918113
:10229000009739F482E090E0998388838DEF9FEF77
:1022A000A9CFA40170E060E00E945F2C80917C03C4
:1022B00090917D03C80ED91EF60180819181080F8F
:1022C000191FF801B28281E090E09983888390E041
:1022D00080E090CFAF92BF92CF92DF92FF920F93A8
:1022E0001F93CF93DF93EA01FC01E60FF71F828172
:1022F0009381F48000917C0310917D0301151105F9
:1023000081F482E090E0998388838CEF9FEFDF91E6
:10231000CF911F910F91FF90DF90CF90BF90AF9022
:10232000089520917E0330917F038217930738F040
:1023300082E090E0998388838EEF9FEFE8CF2FEFC4
:102340002F0D2C3FA8F723E1289F6001299FD00C77
:1023500011240C0D1D1DF80180819181892B89F6B6
:10236000FDE0FF9E50011124C5010E94151DF801DA
:1023700091838083E0917C03F0917D03EC0DFD1D42
:1023800080819181009739F482E090E0998388837D
:102390008DEF9FEFBCCFA50170E060E00E945F2C45
:1023A000E0917C03F0917D03EC0DFD1DF28281E054
:1023B00090E09983888390E080E0A9CFCF92DF926C
:1023C000EF92FF920F931F93CF93DF93860F971F88
:1023D000FC010281138180917C0390917D03892B04
:1023E00081F082E090E0FA01918380838CEF9FEF8F
:1023F000DF91CF911F910F91FF90EF90DF90CF90E1
:102400000895C801B0E0A0E00197A109B1098F3F8C
:102410009F4FA105B10540F082E090E0FA01918361
:1024200080838EEF9FEFE4CF7A0183E1809F60018C
:10243000819FD00C1124C6010E94151DEC0100974C
:1024400041F482E090E0F701918380838DEF9FEF6C
:10245000CFCFA60170E060E00E945F2CD0937D0397
:10246000C0937C0310937F0300937E0390E080E091
:102470002FEF3FEF41E061E070E08017910741F4FA
:1024800081E090E0F7019183808390E080E0B0CF1D
:102490003A8B298B1B864C877E876D87188A1F860F
:1024A00001966396EACFEF92FF921F93CF93DF934B
:1024B000EC0110E0F12CE12C6A811617B0F083E0FA
:1024C000689FB0011124AE014F5E5F4FC7010E94AB
:1024D0007A1D009721F02FEF3FEF3A8B298BDF9188
:1024E000CF911F91FF90EF900895612FCE018DDC69
:1024F00061E070E00E94C21BE816F90608F47C0156
:102500001F5FDACFF89420917A0330917B0381E04A
:102510002115310509F080E0232B09F07894089506
:102520002F923F924F925F926F927F928F929F92E3
:10253000AF92BF92CF92DF92EF92FF920F931F93D1
:10254000CF93DF933C01660E771EF3018281938166
:102550004C01B12CA12CC0917C03D0917D0320971C
:1025600069F021E030E060917E0370917F0386176F
:10257000970710F030E020E0232BD1F482E090E0C8
:10258000FA01918380838EEF9FEFDF91CF911F91AE
:102590000F91FF90EF90DF90CF90BF90AF909F9002
:1025A0008F907F906F905F904F903F902F90089505
:1025B0008092170290921802A0921902B0921A0209
:1025C00063E1689F9001699F300D1124C20FD31FF2
:1025D000F3018181833040F082E090E0FA01918341
:1025E000808386EF9FEFD1CF2A012B813C81232B63
:1025F000F1F4288139819F8191FF2EC0232B09F4AA
:102600006FC0209181039A81422F490F5527551F92
:10261000BA0141E050E06138710514F050E040E04B
:10262000452B09F45DC02A87920F90938103815056
:10263000823008F481C066DF882309F4D8C0F30132
:102640008181813009F48DC008F47BC0823009F4A7
:10265000C6C090E080E0ADC0232B09F441C02091BA
:1026600080039A81E22FE90FFF27FF1F41E050E02E
:10267000ED3FF10514F050E040E0452B89F12A8749
:10268000920F90938003D3CFA081B181A20FB31F8B
:1026900011966C91060F111D0196295F3F4F84170B
:1026A000950794F38D859E85089F1001099F300C36
:1026B000189F300C1124C114D104D1F48F8184FFF0
:1026C00017C00E94101CF5E02F0E311C21E082156E
:1026D000930508F420E0A701435F5F4F21110EC06E
:1026E00082E090E0F2019183808387EF9FEF4DCFEE
:1026F0000E94101C2FEF221A320AE8CF888199819C
:10270000E80EF91EF70114830383FFEFCF1ADF0AE7
:102710007A018A818C151D0409F00CF48CCFE881B4
:10272000F981EE0DFF1D428150E030E020E010E025
:1027300000E090E080E0B3CFF12CE12CD12CC12C53
:10274000E8CF81E090E09C838B83F1DA882309F461
:1027500080CF81E090E00E94140B80E40E94220B65
:1027600078CF89899A89019661F083E090E09C8313
:102770008B8382E090E00E94140B80E40E941C0B8B
:1027800068CF8D819E8120910D0230910E028217BB
:102790009307D1F46091110270911202AE014F5E65
:1027A0005F4F80910F02909110020E94991E009736
:1027B000E1F2789422E030E0F20131832083892B2A
:1027C00099F08DEF9FEFE1CE89288A288B2869F652
:1027D000892B59F6CE0167DE188A1F86E8CF82E082
:1027E00090E09C838B8335CF90E080E0CECE82E07A
:1027F00090E0F2019183808385EF9FEFC6CE8F92A8
:102800009F92AF92BF92CF92DF92EF92FF920F937F
:102810001F93CF93DF93EA018C01060F171FF80176
:102820008181833098F082E090E09983888386EFFD
:102830009FEFDF91CF911F910F91FF90EF90DF906D
:10284000CF90BF90AF909F908F90089580917C0320
:1028500090917D03892B61F081E090E020917E03CF
:1028600030917F03232B11F490E080E0892B39F421
:1028700082E090E0998388838EEF9FEFDACF42DE8B
:10288000882309F4DFC0F8018181813009F495C003
:10289000E8F0823099F420917E0330917F03E0913B
:1028A0007C03F0917D0390E080E041E050E0281748
:1028B000390709F0BDC03BDA811117C0789481E077
:1028C00090E09983888390E080E0B3CF20917E03ED
:1028D00030917F03E0917C03F0917D0390E080E0F4
:1028E00041E050E02817390741F481E090E00E9470
:1028F000140B80E40E94220BE1CF63817481672B6B
:1029000011F05483438301967396ECCFE0917C03DE
:10291000F0917D03E00FF11F2381348122303105D6
:10292000D9F4218932892F3F3F4FB1F42581368177
:1029300040910D0250910E022417350761F5AF0149
:102940004F5E5F4F609111027091120280910F02F1
:10295000909110020E94991EEFEFCE1ADE0AEE0A45
:10296000FE0A0D5E1F4F40917E0350917F0370E081
:1029700060E0C416D506E606F7063CF5009731F28E
:102980007894892B09F49BCF82E090E09983888327
:102990008DEF9FEF4ECFC114D104E104F104E1F6B5
:1029A000232BD1F6CF017FDDE0917C03F0917D03F5
:1029B000E00FF11F108A1786CFCF10E000E090E003
:1029C00080E0C12CD12C7601CECF0097C9F610E063
:1029D00000E0812C912C540183E0E82EF12C1AC0E8
:1029E000E0917C03F0917D03E00FF11F83819481DE
:1029F000029749F4F482E38282E090E00E94140B93
:102A000080E40E941C0BFFEF8F1A9F0AAF0ABF0AD7
:102A10000D5E1F4F80917E0390917F03B0E0A0E098
:102A200088169906AA06BB06DCF290E080E0A8CFE3
:102A3000638174816230710511F45483438301967C
:102A4000739635CF82E090E09983888385EF9FEF7E
:102A5000F0CE0097B9F48FEFFB018083209117022D
:102A60003091180243E1429FC001439F900D112411
:102A7000E0917C03F0917D03E80FF91F8285FB0153
:102A8000818308950C94CB0A88E090E0FA01918349
:102A9000808390E080E0089510927B0310927A0387
:102AA000ECE7F3E086E0DF011D928A95E9F786ED19
:102AB00090E190937903809378030895809178034F
:102AC0009091790308952F923F924F925F926F9267
:102AD0007F928F929F92AF92BF92CF92DF92EF92AE
:102AE000FF920F931F93CF93DF93CDB7DEB72F974E
:102AF0000FB6F894DEBF0FBECDBFF894E0917A0315
:102B0000F0917B033196F0937B03E0937A03789402
:102B100040907C0350907D034114510409F40CC291
:102B2000E0917E03F0917F03EF2B09F405C22D871E
:102B300049875A876B877C8798878F831201B12CCE
:102B4000A12C10E000E080917E0390917F03A816F5
:102B5000B90618F40115110529F1F89480917A034A
:102B600090917B03019790937B0380937A037894F1
:102B7000C8012F960FB6F894DEBF0FBECDBFDF9110
:102B8000CF911F910F91FF90EF90DF90CF90BF906A
:102B9000AF909F908F907F906F905F904F903F90FD
:102BA0002F9008957101E418F508D10117968C91C2
:102BB000179781FD54C013968D919C91149703979C
:102BC00009F04DC015968D919C91EF81F8858E1777
:102BD0009F0709F044C0B50190E080E07FD48A836C
:102BE00020917C0330917D033D832C833D853323ED
:102BF00009F44CC04C815D81452B09F49AC1809148
:102C00007E0390917F03A816B90608F092C1C50112
:102C1000D8D88823E9F06C817D816E0D7F1D7D837E
:102C20006C83DB011F968D919C91892B89F0D12CAF
:102C3000C12CF12CE12CAC81BD8112968C911297A4
:102C40008E151F0409F094F450961C921E921F9743
:102C50002A81222321F0B50190E080E041D43FEFAA
:102C6000A31AB30A43E1240E311C6DCFAC81BD81A0
:102C7000ED91FC91EC0DFD1D858196810FD7BFEF85
:102C8000EB1AFB0AEDE0CE0ED11CD5CFEC81FD8115
:102C9000309709F44EC180917E0390917F03A8166E
:102CA000B90608F046C1EE0DFF1DFF87EE87C5018E
:102CB00088D88B83882339F1AE85BF851F968D9187
:102CC0009C915097019621E01D964D915C9184173F
:102CD000950709F020E02E831982712C10E000E0A6
:102CE000AE85BF8512968C91781608F45DC0EE858E
:102CF000FF85878590890196658576850E94FF2BE3
:102D0000908B8787A5CFB1E0BE83E6CF99249394BB
:102D10006BC08BD6F6019683858382C0D601ED9079
:102D2000FC90B7E06B9EE00CF11C1124F70163816D
:102D3000748180818F3F61F121E030E002C0220F79
:102D4000331F8A95E2F7C901092E000CAA0BBB0BB1
:102D5000FB01408151816281738184239523A623E5
:102D6000B72321E0892B8A2B8B2B09F420E0D40197
:102D70002C93D70111968C91F60123853485820F0F
:102D8000932F911D880E991E1486138663949BC001
:102D9000418150E0C4010E94562CEBCF998206EF8E
:102DA0001FEFC5C01982C3C0F981F111A0CFEDE0BA
:102DB0007E9E70011124AE85BF85CD90DC90CE0C37
:102DC000DF1C15D49D838C83BB81BB2309F49ECF6C
:102DD00081E0EE85FF8527853089232B09F080E08F
:102DE000982E882309F458C0672D8E859F850DD8AD
:102DF000D60118969C938E93179761E070E0C2D429
:102E0000EE85FF85218932892F3F320709F481CF72
:102E1000BC01C901CFD7D60116969C938E93159706
:102E2000D60115968D919C911697009709F4B6CF0F
:102E3000EC81FD818E0F9F1F1A969C938E9319979C
:102E4000AE85BF85ED91FC911197EE0EFF1EF70147
:102E500021853285148613861A968C91870DD901A7
:102E60008D93711016C0EE85FF85878184FF11C098
:102E700049855A856B857C85F9014183528363833B
:102E80007483F701838594850496A80FB91F14866F
:102E90001386F701B287A187D60115968D919C9173
:102EA0001697892B09F443C0EE85FF85258136816D
:102EB00080910D0290910E022817390779F019962A
:102EC0008D909C90612CD60112968C911297681669
:102ED00008F424CF1A969C928E921997BE81BB2338
:102EE00009F460CF61E070E0F601878190854AD4F3
:102EF000D6011796ED90FC90189715964D915C9120
:102F0000E1E0F0E0BA81BB2311F0F0E0E0E00C81F9
:102F10001D819C01B501882799278E1B9F0B6AD3C1
:102F20008C01892B21F0F60185819681B7D57394A8
:102F3000D7CE0FEF1FEF8CCE10E000E00ECE2F9219
:102F40003F924F925F926F927F928F929F92AF9239
:102F5000BF92CF92DF92EF92FF920F931F93CF9386
:102F6000DF9380917C0390917D0310E000E0892B3A
:102F7000A9F0C8DA0AEF1FEF882381F020907E03C2
:102F800030907F03C0917C03D0917D03D12CC12C64
:102F900010E000E02C143D04A9F47894C801DF91FE
:102FA000CF911F910F91FF90EF90DF90CF90BF9046
:102FB000AF909F908F907F906F905F904F903F90D9
:102FC0002F900895C6010E94E10E882309F18B819C
:102FD0009C810397E9F48F859889892BC9F0B60104
:102FE00090E080E07BD221E030E0882311F030E0F7
:102FF00020E044245524421A530AB12CA12C912CD0
:10300000812C8A818815190409F038F4188A1F86E2
:103010004FEFC41AD40A6396BDCFE881F981EA0D57
:10302000FB1D85819681892BA1F161E070E087818C
:103030009085A8D33C01DBD28C01E881F981EA0DAF
:10304000FB1D8185928525813681200F311FAC01C2
:10305000421B530B9A0147815085421B530B70E072
:1030600060E00E945F2CE881F981EA0DFB1DE7809A
:10307000F084458156819301B601C201BBD28C0117
:10308000892B39F0E881F981EA0DFB1D8581968154
:1030900005D55FEF851A950A8DE0A80EB11CB1CF5A
:1030A00031CA789408952F923F924F925F926F9217
:1030B0007F929F92AF92BF92CF92DF92EF92FF9258
:1030C0000F931F93CF93DF9300D000D0CDB7DEB71F
:1030D00000917C0310917D039924939401151105AF
:1030E00009F43EC0A0907E03B0907F030BDA982EC7
:1030F0008823B1F110927D0310927C0310927F031C
:1031000010927E0310928003109281038FEF9FEF45
:10311000DC018093170290931802A0931902B093D8
:103120001A0278947FD31E830D83C12CD12C760193
:10313000C501B0E0A0E089839A83AB83BC832224DD
:103140002A94322C89819A81AB81BC81C816D90618
:10315000EA06FB06F4F0C801A1D480E40E94220B29
:10316000892D26960FB6F894DEBF0FBECDBFDF9136
:10317000CF911F910F91FF90EF90DF90CF90BF9074
:10318000AF909F907F906F905F904F903F902F9067
:103190000895AD81BE8115968D919C9116972091D1
:1031A0000D0230910E0282179307D1F451968D9142
:1031B0009C91EED5ED81FE8180819181B12CA12C75
:1031C000412C512C3201892B89F5BFEFCB1ADB0A38
:1031D000EB0AFB0AED81FE817396FE83ED83B2CF8D
:1031E000C114D104E104F10429F7892B19F7ED8109
:1031F000FE81818992898F3F980709F029D5AD8199
:10320000BE8152963C922E925197D4CF8A0D9B1D2F
:10321000DC018D919C91009709F040D4BFEF4B1ACF
:103220005B0A6B0A7B0AEDE0AE0EB11CAD81BE817C
:103230008D919C91119712964C9150E070E060E056
:1032400044165506660677060CF328D4BECFCF93F6
:10325000DF93EA0128DF811109C082E090E09983C1
:10326000888385EF9FEFDF91CF91089581E090E013
:103270000E94140B81E090E09983888390E080E0C5
:10328000F2CF11DF1092790310927803089542E093
:1032900050E062EA72E00C94320BFF920F931F939E
:1032A000CF93DF938A01EC01C60FD71FF980B9D203
:1032B0000897F816190671F068F082E090E0F801BE
:1032C000918380838EEF9FEFDF91CF911F910F91BC
:1032D000FF9008956C817D818E819F814B810E943A
:1032E000C70D811108C082E090E0F80191838083CE
:1032F00084EF9FEFE9CFF9800E94C20D4F2D50E07F
:10330000BE01685F7F4F0E94562C89810E94310E5A
:1033100081E090E0F8019183808390E080E0D4CF59
:10332000DF92EF92FF920F931F93CF93DF938A0167
:10333000EC01C60FD71F0E94C20D7C01D98071D24B
:10334000DD2059F0029721E030E0D816190619F077
:1033500010F030E020E0232B79F482E090E0F801D7
:10336000918380838EEF9FEFDF91CF911F910F911B
:10337000FF90EF90DF900895EF2841F482E090E015
:10338000F8019183808384EF9FEFEECFF9800E9454
:10339000C20D4F2D50E0BE016E5F7F4F0E94562C34
:1033A00089810E94310E81E090E0F8019183808351
:1033B00090E080E0D9CF87E499E1909383038093F4
:1033C0008203089580918203909183030895089564
:1033D000FC0111821082938382830895DB011D9288
:1033E0001C92DC011296ED91FC911397718360831E
:1033F00013967C936E9312970895FC0180819181BE
:10340000DB018D939C93A081B181109741F08D9148
:103410009C9191838083892B11F4F383E283089537
:10342000FC0180819181DB018D939C93892B11F4A8
:1034300073836283718360830895FC01118210821B
:10344000938382830895CF93DF931F921F92CDB70A
:10345000DEB71A821982F894BE016F5F7F4F89E848
:1034600093E0CBDF89819A81009709F017D3898196
:103470009A81892B89F7BE016F5F7F4F8DE893E0BA
:10348000BCDF89819A81009709F008D389819A81EC
:10349000892B89F778940F900F90DF91CF91089541
:1034A000CF93DF931F921F92CDB7DEB71A82198296
:1034B000F894BE016F5F7F4F85E893E09EDF8981BE
:1034C0009A81009709F0EAD289819A81892B89F73C
:1034D00078940F900F90DF91CF91089581E0089537
:1034E00090E080E00895EF92FF920F931F93CF93A7
:1034F000DF931F921F92CDB7DEB71A821982809197
:10350000840307EF1FEF8823A1F1F894BE016F5FDA
:103510007F4F8DE893E071DF789489819A81EE2462
:10352000E394F12C892B51F4F894BE016F5F7F4F27
:1035300089E893E062DF7894F12CE12C89819A810B
:103540000EEF1FEF0097A9F0FC014281538164E068
:1035500070E074D68C01892B61F0F89469817A81CE
:10356000C701880F991F880F991F87579C4F58DFF5
:103570007894C8010F900F90DF91CF911F910F9118
:10358000FF90EF9008950F931F93CF93DF9300D098
:103590001F92CDB7DEB71C821B821A8219828091DE
:1035A000840307EF1FEF8823C1F0AE014D5F5F4F2B
:1035B00064E070E0CE010196B4D68C01892B69F4E9
:1035C000E981FA818B819C8193838283F89469815C
:1035D0007A8185E893E002DF7894C8010F900F901C
:1035E0000F900F90DF91CF911F910F910895B9D750
:1035F000049608958F929F92AF92BF92CF92DF92DE
:10360000EF92FF920F931F93CF93DF931F921F921E
:10361000CDB7DEB71A821982BC016F5F7F4F63306E
:10362000710598F0AA24AA94BA2CC5010F900F90A6
:10363000DF91CF911F910F91FF90EF90DF90CF908E
:10364000BF90AF909F908F9008954115510551F311
:10365000480159018A016C01CADF8815990511F7E3
:10366000E114F104F9F28E0D9F1DA816B906D0F2EF
:10367000809184038823F1F0F894B50164507109B6
:103680009701AE014F5F5F4FC8010496DFD65C0122
:10369000892B71F489819A81F80193838283C60111
:1036A000880F991F880F991FB80187579C4F96DE86
:1036B0007894BBCF87EFA82EBB24BA94B6CFAF9235
:1036C000BF92CF92DF92EF92FF920F931F93CF930F
:1036D000DF931F921F92CDB7DEB71A821982892B12
:1036E00009F047C06115710509F443C04115510542
:1036F00009F43FC02115310509F43BC0011511053E
:10370000C1F1809184038823B9F179016A015B01D9
:10371000F894BE016F5F7F4F85E893E06EDE78948A
:1037200089819A81009759F1DC0112966D917C9103
:10373000A8010496A4D68C01E981FA81D501ED9304
:10374000FC93828193810496F601918380834FDFFD
:10375000D7018D939C93C8010F900F90DF91CF916B
:103760001F910F91FF90EF90DF90CF90BF90AF909F
:1037700008950FEF1FEFEFCF07EF1FEFECCF0EEF26
:103780001FEFE9CFCF93DF93EC01672B71F4F2D6F3
:103790008C179D0760F0E5D62496C80FD91FE4D694
:1037A0008C0F9D1FDF91CF910895E1D6F1CF90E06E
:1037B00080E0F8CF0F931F93CF93DF932091840382
:1037C00021112BC08B01EC0189E893E001DE8DE82B
:1037D00093E0FEDD85E893E0FBDD97D00097C1F430
:1037E000C9D670E060E0CEDF4BE152E062E070E00D
:1037F00081D1009769F480911B0290911C02CCD674
:10380000B801CE0101D5009719F421E0209384037B
:10381000DF91CF911F910F91089584EF9FEFF8CF23
:10382000A6C6A8C6CF93DF93A8D6EC01892B11F4C6
:103830000ADE36DECE01DF91CF910895CF93DF937C
:103840009CD6EC01892B09F4FEDDCE01DF91CF91EE
:10385000089580911B0290911C020895CF93DF93ED
:1038600080918403D0E0C0E08823D1F09AD6EC01A7
:10387000892BB1F4E8DD14DE80911B0290911C02CB
:10388000E7D1E8D2EC01892B59F489E893E0D5DD42
:103890008DE893E0D2DD85E893E0CFDD10928403DC
:1038A000CE01DF91CF910895EF92FF920F931F9376
:1038B000CF93DF93EC017A018B010F5F1F4F0E9DB9
:1038C000A0010F9D500D1E9D500D112470E060E071
:1038D0000E945F2C90E080E0F0E0E0E02FEFE8163F
:1038E000F90639F4DF91CF911F910F91FF90EF907E
:1038F00008951A8219822883309711F0D283C183E8
:103900000196FE01C00FD11FEACFCF92DF92EF9256
:10391000FF920F931F93CF93DF930EEA14E00C7F77
:1039200043E050E06DE172E083E292E01AD48DE171
:10393000E82E82E0F82E93E2C92E92E0D92EC5E15E
:10394000D5E0D7014D915D917D01F60161917191B5
:103950006F01198308835D834C835B834A837F8374
:103960006E839B012F5F3F4F249FC001259F900DC9
:10397000349F900D1124998788870115110511F046
:10398000C80192DF88859985080F191F2A96F3E2EE
:10399000EF16F2E0FF06A9F6E3E9F3E088E191E033
:1039A000DF019C011D9221503040E1F710929203FB
:1039B000109291031092340510923305109238053D
:1039C00010923705109236051092350510923A057F
:1039D0001092390510923C0510923B0510923E055D
:1039E00010923D051092420510924105109240053B
:1039F00010923F051092440510924305109246051F
:103A0000109245051092120510921105109214059E
:103A10001092130590E080E0DF91CF911F910F91FC
:103A2000FF90EF90DF90CF9008950097F1F0F89419
:103A3000A3E2B2E0E5E1F5E030E020E04D915D91F8
:103A400048175907A8F0428153814115510581F06B
:103A50008AE0829FF001839FF00D1124EB5EFA4F04
:103A600080819181009759F4789490E080E00895E6
:103A70002F5F3F4F3A962330310501F7F5CFDC0138
:103A800011966D917C9171836083415051095383EC
:103A90004283FC012193CF0178940895009749F166
:103AA000DC018E91853041F4E0911305F09114050D
:103AB0003097F9F0CD0119948530D8F4282F30E0F3
:103AC000F8948FEF8C938AE0829FF001839FF00D32
:103AD0001124EB5EFA4F8081918112969C938E9314
:103AE0001197B183A083828193810196938382830E
:103AF00078940895CF92DF92EF92FF920F931F93E5
:103B0000CF93DF939C0186E993E08C7F41155105AB
:103B100009F49BC02115310509F497C061157105A1
:103B200009F493C07A01AB01B9016D5F7F4F6C7FDF
:103B30009B012F5F3F4F249F8001259F100D349FD5
:103B4000100D1124F8942091330530913405232B66
:103B500059F420913B0530913C052115310569F15F
:103B60002017310708F058C020913D0530913E05DF
:103B7000232B91F420913B0530913C05820F931F3C
:103B800020914505309146052115310509F441C0C4
:103B90002017310708F056C07894CFEFDFEF86EF9B
:103BA0009FEFF701D183C083DF91CF911F910F91D8
:103BB000FF90EF90DF90CF900895C3E0D0E0C090E9
:103BC0009103D090920325E131E02C193D09201793
:103BD000310710F32AE02C9FF0012D9FF00D1124E6
:103BE000EB5EFA4F918380835583448353834283F2
:103BF0007783668311870087009709F055DE0C0DE7
:103C00001D1D1093920300939103789490E080E03F
:103C1000C8CFC4E0D0E0D3CFC3E0D0E02AE02C9FEF
:103C2000F0012D9FF00D1124EB5EFA4F91838083FC
:103C3000558344835383428377836683009729F3B4
:103C400033DEE3CFC4E0D0E0E9CF8FEF9FEFACCF1E
:103C50009C010397029708F069C0F89484E09AE009
:103C6000482F50E0241735070CF44DC091E08AE04E
:103C7000829FF001839FF00D1124EB5EFA4F1182B9
:103C8000108215821482138212821782168299235F
:103C9000B1F18091330590913405892BA9F42091DD
:103CA0003B0530913C052115310571F08091910360
:103CB00090919203821B930B9093920380939103B4
:103CC00010923C0510923B0580913D0590913E0578
:103CD000892BA9F420914505309146052115310520
:103CE00071F08091910390919203821B930B9093BA
:103CF00092038093910310924605109245057894A3
:103D000090E080E00895949FF001959FF00D1124BC
:103D1000EB5EFA4F40815181452B31F4408551854E
:103D2000452B11F481509CCF90E0A1CF8FEF9FEFF6
:103D300008954115510549F1009739F16115710553
:103D400021F1F8942091110530911205232BB9F43B
:103D50002091130530911405232B89F490931205BB
:103D6000809311057093140560931305789425E0F2
:103D700030E090E080E0FA01318320830895789468
:103D80002FEF3FEF86EF9FEFF6CF8FEF9FEF089576
:103D9000059769F4F894109212051092110510928B
:103DA000140510921305789490E080E008958FEF49
:103DB0009FEF08956115710519F4F0E0E0E011C07E
:103DC0008530910581F4E0911105F091120530974D
:103DD000A1F3CB0101961995009779F3FC0185E0D9
:103DE0008193CF0108959C01235031092230310580
:103DF00020F72AE0289FD001299FB00D1124AB5E47
:103E0000BA4F2D913C911197232BB9F216962D9113
:103E10003C9117972617370780F2F89412962D9148
:103E20003C9113972115310529F0ED91FC911197E3
:103E3000309711F47894C1CF4181528111965C93EF
:103E40004E932150310913963C932E9312978193F0
:103E50007894C7CFEBEAF4E086E6DF011D928A95FD
:103E6000E9F7E3E9F3E088E191E0DF019C011D92CD
:103E700021503040E1F71092920310929103E5E156
:103E8000F5E082E3DF011D928A95E9F7E1E1F5E0D3
:103E900084E0DF011D928A95E9F790E080E00895C3
:103EA000CF93DF93C0912902D0912A02CF3FDC0744
:103EB00059F420D490932A028093290297FF09C0D5
:103EC000D0932A02C093290284EF9FEFDF91CF9114
:103ED000089590E080E0FACF8230910528F4809335
:103EE000470590E080E008958FEF9FEF08954F928F
:103EF0005F926F927F92AF92BF92CF92DF92EF92DA
:103F0000FF920F931F93CF93DF931F921F92CDB712
:103F1000DEB71A821982009709F478C0611571051D
:103F200009F474C02091290230912A0207EF1FEF93
:103F30002F3F3F4F09F444C06B015C01412C512CD1
:103F40003201F12CE12C10E000E09E012F5F3F4F89
:103F5000A6014E195F09B5016E0D7F1D80912902E2
:103F600090912A0226D4892B09F04AC089819A812E
:103F7000009741F4E114F10429F42091470522232C
:103F800009F441C0E80EF91EEC14FD04C8F480E801
:103F9000481684E858068EE16806710418F560E05A
:103FA00070E0CB0106D72AE0420E511C611C711C47
:103FB0000A3F4FEF140721F0043F8FEF1807A1F4D9
:103FC000C8010F900F90DF91CF911F910F91FF903B
:103FD000EF90DF90CF90BF90AF907F906F905F9009
:103FE0004F90089501EF1FEF81E090E0013F2FEF28
:103FF000120711F090E080E0892B09F4A6CFE0CF02
:1040000004EF1FEFDDCF0AEF1FEFDACF0FEF1FEF47
:10401000D7CF4F925F926F927F92AF92BF92CF9223
:10402000DF92EF92FF920F931F93CF93DF931F9234
:104030001F92CDB7DEB71A821982009709F478C0B3
:104040006115710509F474C02091290230912A028A
:1040500007EF1FEF2F3F3F4F09F444C06B015C0196
:10406000412C512C3201F12CE12C10E000E09E019A
:104070002F5F3F4FA6014E195F09B5016E0D7F1DE1
:104080008091290290912A024AD3892B09F04AC0D3
:1040900089819A81009741F4E114F10429F4209177
:1040A0004705222309F441C0E80EF91EEC14FD0473
:1040B000C8F480E4481682E458068FE0680671046C
:1040C00018F560E070E0CB0174D62AE0420E511C76
:1040D000611C711C0E3F4FEF140721F0043F8FEF5E
:1040E0001807A1F4C8010F900F90DF91CF911F9195
:1040F0000F91FF90EF90DF90CF90BF90AF907F90A7
:104100006F905F904F90089502EF1FEF81E090E075
:10411000023F2FEF120711F090E080E0892B09F4A5
:10412000A6CFE0CF04EF1FEFDDCF0EEF1FEFDACF0A
:104130000FEF1FEFD7CF8091290290912A028F3F76
:10414000980749F0CFD2892B49F48FEF9FEF9093D6
:104150002A028093290290E080E0089584EF9FEF87
:104160000895CF92DF92EF92FF920F931F93CF9318
:10417000DF9321E04115510509F020E0415051093C
:1041800021112CC0DC01FB01D12CC12C21E022C06B
:104190003FEFC31AD30A7D010D911D91E701EA801B
:1041A000FB80E016F106A8F420813181E280F380E3
:1041B000F182E08233832283ED90FC9011979D0180
:1041C00022503109E901F982E88211961C930E937D
:1041D00020E03296C416D506D8F2D2CFDF91CF9127
:1041E0001F910F91FF90EF90DF90CF900895FC0109
:1041F000680F791F90E080E0E617F70709F408954B
:104200002191820F911DF8CF20914805211113C0F3
:1042100047DE009791F410924E0510924D051092D2
:104220004C0510924B0510924A051092490521E069
:1042300020934805089584EF9FEF0895AF92BF92B1
:10424000CF92DF92EF92FF920F931F93CF93DF9362
:10425000009709F460C04630510508F45CC0209115
:104260004805C7EFDFEF222309F449C08C01060F90
:10427000171FF801C080D180C114D10409F44EC0C9
:1042800096012A5F3F4F4217530708F447C07C014D
:1042900080914D0590914E0593838283B6016C5FAA
:1042A0007F4F5801A60EB71EC801A1DFF50191830B
:1042B000808364E070E0C8011ADEEC01892BF9F418
:1042C00081E090E009DEB601C801049610DEEC0141
:1042D000892B91F462E070E0C50109DEEC01892BC5
:1042E00059F4C701DBDB80914D0590914E05019695
:1042F00090934E0580934D0590E080E0EDDDCE017A
:10430000DF91CF911F910F91FF90EF90DF90CF90B1
:10431000BF90AF900895CFEFDFEFF1CFC9EFDFEFA0
:10432000EECF6F927F928F929F92AF92BF92CF9279
:10433000DF92EF92FF920F931F93CF93DF9300D002
:104340001F92CDB7DEB7009709F47AC04115510529
:1043500009F476C02091480507EF1FEF222309F4E6
:104360004DC03A017B015C0164E070E0CE01019632
:1043700050DE8C01892B09F041C009811A81011599
:10438000110509F45AC0480186E0880E911CB70156
:10439000680D791D80912B0290912C020BDD6C0130
:1043A000009709F450C0A70170E060E00E945F2C04
:1043B00089819A81AB81BC81EC0CFD1CF701819352
:1043C0009193A193B1937F0181E090E085DDB801E5
:1043D000C7011FDE892B31F562E070E0C701800F55
:1043E000911F17DE8C01892BE9F490E080E074DDE9
:1043F000F501D182C082F30191828082C8010F90C1
:104400000F900F900F90DF91CF911F910F91FF9020
:10441000EF90DF90CF90BF90AF909F908F907F9064
:104420006F90089590E080E057DDF50111821082D1
:10443000F30111821082C60131DB09EF1FEFDECFDD
:104440000FEF1FEFDBCF06EF1FEFD8CF0097A1F0E4
:104450004115510589F02115310571F0F9013696A4
:104460006E177F0748F0DC012D933C93DA01ED9342
:10447000FC9390E080E008958FEF9FEF0895AF9256
:10448000BF92CF92DF92EF92FF920F931F93CF9341
:10449000DF93009709F45FC04115510509F45BC033
:1044A0006530710508F457C020914805C7EFDFEF6C
:1044B000222391F1DC01CD90DC9011971296ED91C1
:1044C000FC9196012A5F3F4FC9EFDFEF26173707B0
:1044D00019F5C0914905D0914A05209749F521E089
:1044E00030E030934A05209349057A018C01F0931E
:1044F0004C05E0934B055601B4E0AB0EB11CB50181
:1045000076DE0A0D1B1DF801208131818217930789
:1045100029F5D701CD92DC92CE01DF91CF911F9189
:104520000F91FF90EF90DF90CF90BF90AF900895E4
:1045300020914B0530914C052F5F3F4FCCEFDFEFC3
:10454000E217F30790F2CBEFDFEF2E173F0768F289
:10455000D0E0C0E0CACFCFEFDFEFDECFC3EFDFEFB9
:10456000DBCF84E090E0089582E090E008958CEF46
:104570009FEF089580E290E0089510924E0510920A
:104580004D0510924C0510924B0510924A05109261
:10459000490590E080E0089590932C0280932B02CF
:1045A000089580914805882391F0C5DD009789F42E
:1045B00010924E0510924D0510924C0510924B052D
:1045C00010924A051092490510924805089590E00E
:1045D00080E00895009749F06115710531F0FC0104
:1045E00011821082FB01118210820895F3CF26E020
:1045F00030E040E855E260E070E090E080E000C02C
:104600008130910569F01CF4892B39F008958230CE
:10461000910549F0039751F008958CE595E022C685
:1046200089EF95E0FCCF86E996E0F9CF83E397E048
:10463000F6CF1F920F920FB60F9211240BB60F9266
:104640002F933F934F935F936F937F938F939F939A
:10465000AF93BF93EF93FF9386E997EE9093250175
:1046600080932401B9D0FF91EF91BF91AF919F91B9
:104670008F917F916F915F914F913F912F910F900B
:104680000BBE0F900FBE0F901F90189586E997EE06
:104690009093250180932401A3E7B0E08C918E7F55
:1046A0008C93E0E2F1E080818C7F8083E1E2F1E0B5
:1046B0008081877E808380818460808380818C7FFD
:1046C00080838C9181608C930895E3E7F0E0808192
:1046D00090819E7F90838170089581E0089510926B
:1046E0004F05089568EE73E080E090E062D390E0BB
:1046F00080E0089526E030E040E050E16EE070E0B8
:1047000090E080E07DDF8CE595E0E2D4892B21F01C
:104710008CE595E0F7D4F7CF90E080E00895CF9254
:10472000DF92EF92FF920F931F93CF93DF936B0172
:104730007A01E901198218828CE595E0C9D4892BA8
:1047400069F18601CC24C39482E0D82E80914F0574
:10475000811110C08CE595E0D5D40297B9F7C092CD
:104760004F05F801D1928F01888199810196998333
:104770008883ECCF888199818E159F0578F48CE52C
:1047800095E0C0D48F3F9807A9F3F80181938F017A
:1047900088819981019699838883ECCF90E080E0AD
:1047A000DF91CF911F910F91FF90EF90DF90CF900D
:1047B00008950F931F93CF93DF93EA0189018CE54E
:1047C00095E0E0D7F801D183C08390E080E0DF91ED
:1047D000CF911F910F910895CF92DF92EF92FF92A8
:1047E000CF93DF938091500591E0980F90935005FF
:1047F000882379F021E030E0309352052093510571
:1048000080935005DF91CF91FF90EF90DF90CF9094
:1048100008957894C0912E02D0912F026E8D7F8DD5
:1048200088A199A13ED120E030E040E85FE4EFD1DB
:104830006B017C016A8D7B8D8C8D9D8D32D19B01AE
:10484000AC01C701B60199D000D16B017C010E9477
:104850006D03B701A60190E080E00E94E002F894A9
:10486000809150058150CCCF0F931F93CF93DF934E
:104870001092ED071092EC07D2D2B9DEC0912E0251
:10488000D0912F02198218826FEF7FEFCB010E9427
:10489000620370E060E090E080E00E94E501009734
:1048A00009F03AC00E946704F8947894BE016A5DEA
:1048B0007F4F8A819B810E94E801892B59F46FEF19
:1048C0007FEFCB010E9477020E945C03882311F0E6
:1048D00081E08AA7F894DADE0E945F03882311F052
:1048E00080E008C00E945C038111FACF81E09AA5A4
:1048F0009111F6CF8093EC0778940E940F0B8C01F6
:1049000078948091EC0781110CC00E94E8040E9409
:104910004203F89490E080E0DF91CF911F910F91D6
:1049200008950E9440030E945F038823D9F081E02C
:104930008093ED079091ED0781E0911180E08093E5
:10494000EC078091ED078111C0DE0130110529F4DB
:104950000E940F0B892B09F4C2DE0E940F0B8C0101
:10496000BCDECFCF0E945C038111E1CF81E09AA52C
:104970009111DECF80E0DCCF5058BB27AA270ED0A4
:1049800008C1F9D030F0FED020F031F49F3F11F48F
:104990001EF4EEC00EF4E095E7FBE4C0E92F0AD167
:1049A00080F3BA17620773078407950718F071F44C
:1049B0009EF522C10EF4E0950B2EBA2FA02D0B010F
:1049C000B90190010C01CA01A0011124FF27591B54
:1049D00099F0593F50F4503E68F11A16F040A22F5A
:1049E000232F342F4427585FF3CF469537952795CB
:1049F000A795F0405395C9F77EF41F16BA0B620BCA
:104A0000730B840BBAF09150A1F0FF0FBB1F661F10
:104A1000771F881FC2F70EC0BA0F621F731F841F53
:104A200048F4879577956795B795F7959E3F08F079
:104A3000B3CF9395880F08F09927EE0F9795879538
:104A400008956CD008F481E00895BCD088F09F5799
:104A500090F0B92F9927B751A0F0D1F0660F771FCA
:104A6000881F991F1AF0BA95C9F712C0B13081F0AA
:104A7000C3D0B1E00895C0C0672F782F8827B85FF2
:104A800039F0B93FCCF3869577956795B395D9F70B
:104A90003EF490958095709561957F4F8F4F9F4F15
:104AA0000895E89409C097FB3EF490958095709521
:104AB00061957F4F8F4F9F4F9923A9F0F92F96E96A
:104AC000BB279395F695879577956795B795F111DF
:104AD000F8CFFAF4BB0F11F460FF1BC06F5F7F4F7C
:104AE0008F4F9F4F16C0882311F096E911C077238E
:104AF00021F09EE8872F762F05C0662371F096E897
:104B0000862F70E060E02AF09A95660F771F881F65
:104B1000DAF7880F9695879597F90895990F000809
:104B2000550FAA0BE0E8FEEF16161706E807F9077F
:104B3000C0F012161306E407F50798F0621B730B1A
:104B4000840B950B39F40A2661F0232B242B252B9B
:104B500021F408950A2609F4A140A6958FEF811D3E
:104B6000811D089597F99F6780E870E060E00895DF
:104B70009FEF80EC089500240A9416161706180675
:104B80000906089500240A94121613061406050651
:104B90000895092E0394000C11F4882352F0BB0FE2
:104BA00040F4BF2B11F460FF04C06F5F7F4F8F4F45
:104BB0009F4F089557FD9058440F551F59F05F3F80
:104BC00071F04795880F97FB991F61F09F3F79F02F
:104BD00087950895121613061406551FF2CF4695B1
:104BE000F1DF08C0161617061806991FF1CF869533
:104BF0007105610508940895E894BB276627772717
:104C0000CB0197F908958ADF08F48FEF08950BD050
:104C1000C0CFB1DF28F0B6DF18F0952309F0A2CF9E
:104C2000A7CF1124EACFC6DFA0F3959FD1F3950F4C
:104C300050E0551F629FF001729FBB27F00DB11D20
:104C4000639FAA27F00DB11DAA1F649F6627B00DB0
:104C5000A11D661F829F2227B00DA11D621F739F99
:104C6000B00DA11D621F839FA00D611D221F749FA7
:104C70003327A00D611D231F849F600D211D822FEE
:104C8000762F6A2F11249F5750408AF0E1F0882335
:104C90004AF0EE0FFF1FBB1F661F771F881F915042
:104CA0005040A9F79E3F510570F05CCFA6CF5F3F03
:104CB000ECF3983EDCF3869577956795B795F79575
:104CC000E7959F5FC1F7FE2B880F911D96958795FD
:104CD00097F908951F920F920FB60F9211242F93F8
:104CE0003F938F939F93AF93BF938091540590917F
:104CF0005505A0915605B09157053091530523E015
:104D0000230F2D3758F50196A11DB11D2093530592
:104D10008093540590935505A0935605B09357057D
:104D20008091580590915905A0915A05B0915B0565
:104D30000196A11DB11D8093580590935905A0932C
:104D40005A05B0935B05BF91AF919F918F913F91B1
:104D50002F910F900FBE0F901F90189526E8230FEC
:104D60000296A11DB11DD2CF3FB7F894809158058E
:104D700090915905A0915A05B0915B0526B5A89B65
:104D800005C02F3F19F00196A11DB11D3FBFBA2FDD
:104D9000A92F982F8827BC01CD01620F711D811D9D
:104DA000911D42E0660F771F881F991F4A95D1F722
:104DB00008958F929F92AF92BF92CF92DF92EF921F
:104DC000FF926B017C01D0DF4B015C01C114D10467
:104DD000E104F104D9F003D5C7DF681979098A091C
:104DE0009B09683E73408105910580F321E0C21A5A
:104DF000D108E108F10888EE880E83E0981EA11C16
:104E0000B11CC114D104E104F10431F7FF90EF901B
:104E1000DF90CF90BF90AF909F908F90089578943F
:104E200084B5826084BD84B5816084BD85B58260AF
:104E300085BD85B5816085BDEEE6F0E0808181604D
:104E40008083E1E8F0E0108280818260808380814D
:104E500081608083E0E8F0E0808181608083E1EB25
:104E6000F0E0808184608083E0EBF0E0808181600D
:104E70008083E1E9F0E080818260808380818160CD
:104E80008083E0E9F0E0808181608083E1EAF0E006
:104E9000808182608083808181608083E0EAF0E0AD
:104EA000808181608083E1E2F1E0808182608083A3
:104EB000808181608083E0E2F1E080818160808395
:104EC000EAE7F0E080818460808380818260808373
:104ED0008081816080838081806880831092C1009E
:104EE00008958150823108F059C0E82FF0E08827FA
:104EF000E458F84D8F4FB9C49C27A0278E279427DC
:104F00009827CE27A327A927AD27B327B727BB27E5
:104F1000C127C527CE27C927CF27D3278091800057
:104F20008F77809380000895809180008F7DF9CFE6
:104F300080918000877FF5CF84B58F7784BD0895F9
:104F400084B58F7DFBCF8091B0008F778093B000C8
:104F500008958091B0008F7DF9CF809190008F7778
:104F6000809390000895809190008F7DF9CF80917B
:104F70009000877FF5CF8091A0008F778093A0006D
:104F800008958091A0008F7DF9CF8091A000877F48
:104F9000F5CF809120018F77809320010895809133
:104FA00020018F7DF9CF80912001877FF5CFCF93AE
:104FB000DF9390E0FC01E65DFE4F249180599E4F07
:104FC000FC0184918823C9F090E0880F991FFC01AF
:104FD000E651FE4FA591B491FC01E053FE4FC591FF
:104FE000D49161110DC09FB7F8948C9120958223C4
:104FF0008C938881282328839FBFDF91CF910895C8
:10500000623051F49FB7F8943C91822F80958323AE
:105010008C93E8812E2BEFCF8FB7F894EC912E2B49
:105020002C938FBFEACF1F93CF93DF93282F30E0CD
:10503000F901EC51FF4F8491F901E65DFE4FD491E7
:10504000F901E059FE4FC491CC23A1F0162F811134
:1050500048DFEC2FF0E0EE0FFF1FE053FE4FA5916D
:10506000B4918FB7F894EC91111108C0D095DE235C
:10507000DC938FBFDF91CF911F910895DE2BF8CF86
:105080000F931F9390E0FC01E65DFE4F7491FC01CD
:10509000E059FE4FE4916111672FF0E0EE0FFF1F22
:1050A000EA54FE4F8591949189019A013F70462FF1
:1050B000672F0E943801611571058105910529F05E
:1050C0006F5F7F4F8F4F9F4F9F701F910F9108957C
:1050D000FC01918D228D892F90E0805C9F4F821B77
:1050E00091098F7399270895FC01918D828D9817EE
:1050F00031F0828DE80FF11D858D90E008958FEFDE
:105100009FEF0895FC01918D828D981761F0A28D1B
:10511000AE0FBF2FB11D5D968C91928D9F5F9F73D7
:10512000928F90E008958FEF9FEF0895FC01538DCB
:10513000448D252F30E0842F90E0821B930B541771
:1051400010F0CF96089501970895FC01A48DA80F43
:10515000B92FB11DA35ABF4F2C91848D90E00196B9
:105160008F739927848FA689B7892C93A089B189D9
:105170008C91837080648C93938D848D981306C07A
:105180000288F389E02D80818F7D80830895CF93FD
:10519000DF93EC01888D8823B1F0AA89BB89E88967
:1051A000F9898C9185FD03C0808186FD0CC00FB606
:1051B00007FCF7CF8C9185FFF2CF808185FFEDCF83
:1051C000CE01C3DFEACFDF91CF910895EF92FF9236
:1051D0000F931F93CF93DF93EC0181E0888F9B8D1A
:1051E0008C8D98131AC0E889F989808185FF15C0D4
:1051F0009FB7F894EE89FF896083E889F9898081F7
:105200008370806480839FBF81E090E0DF91CF91C5
:105210001F910F91FF90EF900895F62E0B8D10E0E7
:105220000F5F1F4F0F731127E02E8C8D8E110BC057
:105230000FB607FCFACFE889F989808185FFF5CFA1
:10524000CE0183DFF2CFEB8DEC0FFD2FF11DE35A82
:10525000FF4FF0829FB7F8940B8FEA89FB8980811A
:105260008062D0CFCF92DF92EF92FF921F93CF93C5
:10527000DF93EC016A017B01122FE889F98982E052
:105280008083C11481EED806E104F10499F060E056
:1052900079E08DE390E0A7019601C5D22150310954
:1052A000410951095695479537952795211580E174
:1052B000380790F0E889F989108260E874E88EE197
:1052C00090E0A7019601AFD221503109410951095F
:1052D0005695479537952795EC85FD853083EE8566
:1052E000FF852083188EEC89FD891083EA89FB896C
:1052F000808180618083EA89FB89808188608083E6
:10530000EA89FB89808180688083EA89FB898081C2
:105310008F7D8083DF91CF911F91FF90EF90DF9081
:10532000CF9008951F920F920FB60F9211240BB6D3
:105330000F922F938F939F93EF93FF93E0916C05C0
:10534000F0916D058081E0917205F091730582FD09
:105350001DC09081809175058F5F8F7320917605B8
:10536000821741F0E0917505F0E0E45AFA4F958F0D
:1053700080937505FF91EF919F918F912F910F90E1
:105380000BBE0F900FBE0F901F9018958081F2CF2B
:105390001F920F920FB60F9211240BB60F922F93FC
:1053A0003F934F935F936F937F938F939F93AF93AD
:1053B000BF93EF93FF938CE595E0C7DEFF91EF91EC
:1053C000BF91AF919F918F917F916F915F914F911D
:1053D0003F912F910F900BBE0F900FBE0F901F901B
:1053E0001895ECE5F5E01382128288EE93E0A0E0D8
:1053F000B0E084839583A683B78382EB92E09183A8
:10540000808385EC90E09587848784EC90E0978793
:10541000868780EC90E0918B808B81EC90E0938B81
:10542000828B82EC90E0958B848B86EC90E0978B5E
:10543000868B118E128E138E148E08951F920F92EA
:105440000FB60F9211240BB60F922F938F939F9349
:10545000EF93FF93E0910906F0910A068081E091B5
:105460000F06F091100682FD1DC0908180911206FA
:105470008F5F8F7320911306821741F0E09112061F
:10548000F0E0E750FA4F958F80931206FF91EF916D
:105490009F918F912F910F900BBE0F900FBE0F9089
:1054A0001F9018958081F2CF1F920F920FB60F9226
:1054B00011240BB60F922F933F934F935F936F93EB
:1054C0007F938F939F93AF93BF93EF93FF9389EF56
:1054D00095E03BDEFF91EF91BF91AF919F918F914E
:1054E0007F916F915F914F913F912F910F900BBEE4
:1054F0000F900FBE0F901F901895E9EFF5E0138203
:10550000128288EE93E0A0E0B0E084839583A683C6
:10551000B78382EB92E0918380838DEC90E0958756
:1055200084878CEC90E09787868788EC90E0918B5D
:10553000808B89EC90E0938B828B8AEC90E0958B4A
:10554000848B8EEC90E0978B868B118E128E138E4F
:10555000148E08951F920F920FB60F9211240BB65E
:105560000F922F938F939F93EF93FF93E091A60653
:10557000F091A7068081E091AC06F091AD0682FD26
:105580001DC090818091AF068F5F8F732091B00610
:10559000821741F0E091AF06F0E0EA56F94F958F9F
:1055A0008093AF06FF91EF919F918F912F910F9074
:1055B0000BBE0F900FBE0F901F9018958081F2CFF9
:1055C0001F920F920FB60F9211240BB60F922F93CA
:1055D0003F934F935F936F937F938F939F93AF937B
:1055E000BF93EF93FF9386E996E0AFDDFF91EF91D4
:1055F000BF91AF919F918F917F916F915F914F91EB
:105600003F912F910F900BBE0F900FBE0F901F90E8
:105610001895E6E9F6E01382128288EE93E0A0E0A6
:10562000B0E084839583A683B78382EB92E0918375
:10563000808385ED90E09587848784ED90E097875F
:10564000868780ED90E0918B808B81ED90E0938B4D
:10565000828B82ED90E0958B848B86ED90E0978B2A
:10566000868B118E128E138E148E08951F920F92B8
:105670000FB60F9211240BB60F922F938F939F9317
:10568000EF93FF93E0914307F09144078081E0910D
:105690004907F0914A0782FD1DC0908180914C0717
:1056A0008F5F8F7320914D07821741F0E0914C0777
:1056B000F0E0ED5CF84F958F80934C07FF91EF91F0
:1056C0009F918F912F910F900BBE0F900FBE0F9057
:1056D0001F9018958081F2CF1F920F920FB60F92F4
:1056E00011240BB60F922F933F934F935F936F93B9
:1056F0007F938F939F93AF93BF93EF93FF9383E336
:1057000097E023DDFF91EF91BF91AF919F918F9132
:105710007F916F915F914F913F912F910F900BBEB1
:105720000F900FBE0F901F901895E3E3F7E01382E0
:10573000128288EE93E0A0E0B0E084839583A68394
:10574000B78382EB92E09183808385E391E0958734
:10575000848784E391E09787868780E391E0918B4B
:10576000808B81E391E0938B828B82E391E0958B38
:10577000848B86E391E0978B868B118E128E138E2D
:10578000148E0895AF92BF92CF92DF92EF92FF9264
:105790000F931F93CF93DF936C017B018B01040F59
:1057A000151FEB015E01AE18BF08C017D10759F0F5
:1057B0006991D601ED91FC910190F081E02DC60137
:1057C0001995892B79F7C501DF91CF911F910F9121
:1057D000FF90EF90DF90CF90BF90AF900895089525
:1057E000DB018F939F9349D0BF91AF91A29F800D12
:1057F000911DA39F900DB29F900D11240895AA1B97
:10580000BB1B51E107C0AA1FBB1FA617B70710F0AB
:10581000A61BB70B881F991F5A95A9F780959095DD
:10582000BC01CD010895A1E21A2EAA1BBB1BFD01EC
:105830000DC0AA1FBB1FEE1FFF1FA217B307E4076F
:10584000F50720F0A21BB30BE40BF50B661F771FC7
:10585000881F991F1A9469F76095709580959095A7
:105860009B01AC01BD01CF010895EE0FFF1F881F02
:105870008BBF0790F691E02D199409D0A59F900D4C
:10588000B49F900DA49F800D911D11240895A29F97
:10589000B001B39FC001A39F700D811D1124911D04
:1058A000B29F700D811D1124911D0895FB01DC0133
:1058B00002C001900D9241505040D8F70895DC018C
:1058C00001C06D9341505040E0F70895F894FFCF28
:1058D0000000C83DFEFFFFFF01E8030000FFFF00DE
:1058E000000000FFFFFFFFFFFFFFFFFFFF010001C0
:1058F000000100200038000800FFFFFFFF01D60272
:10590000FF00640D900DFE004A0DCB0AFD00DC0C7B
:10591000360DFC00220DCB0AF600130ECB0AF50063
:10592000E90C520EF400DC0D690EDE009012291510
:10593000DD00FF13CB0ADA0039104110D9004415FD
:105940005110E200210FCB0AE1005C0FCB0AE0000E
:10595000D10FCB0AD6002719CB0AD500DE11CB0A0E
:10596000D4006A11CB0AD300DB10CB0AC000601050
:10597000CB0AF0009019CB0AED004D19CB0A0000BC
:105980000000E628C22B9628C72868288228742899
:00000001FF
