:1000000005C1000034C1000032C1000030C1000051
:100010002EC100002CC100002AC1000028C1000030
:1000200026C1000024C1000022C1000020C1000040
:100030001EC100001CC100001AC1000018C1000050
:1000400016C1000014C1000012C1000010C1000060
:100050000EC100000CC100000AC100000C946D0D1F
:1000600006C100000C9431110C94671100C100000E
:10007000FEC00000FCC00000FAC00000F8C0000094
:10008000F6C00000F4C00000F2C00000F0C00000A4
:100090000C94BD110C94F311EAC00000E8C00000FC
:1000A000E6C00000E4C00000E2C00000E0C00000C4
:1000B000DEC00000DCC00000DAC00000D8C00000D4
:1000C000D6C00000D4C000000C947C0A0C944912E5
:1000D0000C947F12CCC000000C94D5120C940B131E
:1000E000C6C0000000000A0B02090C0D0E08070331
:1000F00004010000000000000000000000000000FB
:1001000000000000000000000000000000000000EF
:1001100012111000000000000000000000000000AC
:100120000000000000000000000001021020200874
:100130000810204010204080020102010804020142
:1001400001020408102040808040201008040201B1
:10015000800402018040201008040201080402010A
:100160000102040810204080010204081020408091
:1001700005050505070508080808020202020A0A23
:100180000808040404040101010101010101030341
:10019000030303030303040707070C0C0C0C0C0CEC
:1001A0000C0C0202020206060606060606060B0BE9
:1001B0000B0B0B0B0B0B000020002300260029006B
:1001C0002C002F003200000100000301060109018C
:1001D00000002200250028002B002E0031003400F2
:1001E00002010000050108010B01000021002400AC
:1001F00027002A002D003000330001010000040117
:1002000007010A0190111C12A812341311241FBEF9
:10021000CFEFD1E2DEBFCDBF00E00CBF12E0A0E027
:10022000B2E0E2E9F7E200E00BBF02C007900D92F6
:10023000A837B107D9F725E0A8E7B2E001C01D92C1
:10024000AC38B207E1F711E0C6E0D1E000E006C04B
:1002500021970109802FFE010E94B013C230D107FF
:1002600080E00807A9F70E94E20A0C94C713C8CEE1
:10027000611102C00C94760F6130E1F362E0FACFB5
:10028000662319F061E00C94B20F60E0FCCF0E948D
:10029000DF0F21E0019709F020E0822F0895CF922F
:1002A000DF92EF92FF92CF93882351F16A017B0195
:1002B000CFEFC80F20E030E0A901CB01B6010E94CA
:1002C0007E0B18168CF0C701B60190580E94870B60
:1002D0009B01AC016C2F70E090E080E0CF91FF902B
:1002E000EF90DF90CF90B2C0C701B6010E94820BA1
:1002F0008C2FCF91FF90EF90DF90CF900C943C0E1D
:10030000CF91FF90EF90DF90CF9008950F931F93C0
:100310008B019C0183E036952795179507958A9563
:10032000D1F708581D4F462F477021E030E0F90102
:1003300002C0EE0FFF1F4A95E2F7AF01F8012081DE
:100340002423CB010196211102C090E080E01F918F
:100350000F9108950F931F938B019C0183E03695B5
:100360002795179507958A95D1F7677081E090E0FA
:1003700001C0880F6A95EAF7F801E858FD4F20811F
:10038000452B31F48095822380831F910F9108952E
:10039000822BFACF2F923F924F925F926F927F9271
:1003A0008F929F92AF92BF92CF92DF92EF92FF9285
:1003B0000F931F93CF93DF93D62EC72E782E692EDF
:1003C00049015A01280161E08D2D0E94760FCD2D43
:1003D000DC2D8E010F5F1F4FA8016D2D7C2D872D09
:1003E000962DB8DF20E030E0A901C201B7010E94DC
:1003F000060D181664F4C201B7010E94870B2B0189
:10040000C501B4010E94870BA201CE0123D0C8010F
:10041000DF91CF911F910F91FF90EF90DF90CF90E0
:10042000BF90AF909F908F907F906F905F904F9014
:100430003F902F900895882341F08150682F70E0FD
:1004400090E080E050E040E085CF0895862FB9012C
:100450000C943C0E9C01FC01EC51FF4FE491E150E7
:10046000E231E0F4F0E08827E75CFD4F8F4F0C9419
:10047000B0134B02520255026C0281024E029602E8
:10048000A202A602BD02D202E702FE0213034E023E
:1004900028033F03540384B5806884BD60E0822F45
:1004A0000C94B20F84B58062F8CF809180008C7F6D
:1004B00082608093800080918100807E8061682BC3
:1004C0006093810050938700409386008091800064
:1004D000806880938000E2CF809180008C7F826072
:1004E0008093800080918100807E8061682B609382
:1004F0008100509387004093860080918000806245
:10050000E8CF809180008C7F826080938000809112
:100510008100807E8061682B60938100509387000A
:1005200040938600809180008860D3CF8091B00096
:1005300080688093B0008091B100887F682B6093C1
:10054000B100ACCF8091B0008062F3CF8091900079
:100550008C7F82608093900080919100807E80618A
:10056000682B609391005093970040939600809180
:10057000900080688093900091CF809190008C7F54
:1005800082608093900080919100807E8061682BD2
:100590006093910050939700409396008091900053
:1005A0008062E8CF809190008C7F82608093900081
:1005B00080919100807E8061682B609391005093C0
:1005C000970040939600809190008860D3CF8091EF
:1005D000A0008C7F82608093A0008091A100807E2B
:1005E0008061682B6093A1005093A7004093A60000
:1005F0008091A00080688093A00050CF8091A000DF
:100600008C7F82608093A0008091A100807E8061B9
:10061000682B6093A1005093A7004093A60080919F
:10062000A0008062E8CF8091A0008C7F82608093E0
:10063000A0008091A100807E8061682B6093A10062
:100640005093A7004093A6008091A0008860D3CF6C
:10065000809120018C7F8260809320018091210114
:10066000807E8061682B6093210150932701409325
:100670002601809120018068809320010FCF809116
:1006800020018C7F82608093200180912101807EF7
:100690008061682B609321015093270140932601CC
:1006A000809120018062E8CF809120018C7F826060
:1006B0008093200180912101807E8061682B60936E
:1006C00021015093270140932601809120018860E9
:1006D000D3CFCF93DF93882349F0EB0181500E9461
:1006E000190E99838883DF91CF910895FB011182C0
:1006F0001082F9CF0F931F938B019C0183E03695F5
:100700002795179507958A95D1F70F571D4F462FB7
:10071000477021E030E0F90102C0EE0FFF1F4A955B
:10072000E2F7AF01F80120812423CB0101962111CA
:1007300002C090E080E01F910F9108950F931F93E6
:100740008B019C0183E036952795179507958A952F
:10075000D1F7677081E090E001C0880F6A95EAF7F1
:10076000F801EF57FD4F2081452B31F4809582230E
:1007700080831F910F910895822BFACFCF92DF9241
:10078000EF92FF92CF93DF936B017C0160E086E3F1
:10079000C816D104E104F10490F486E38C0D0E94A4
:1007A000760FE6012196AE01C701B601C7DFCE0183
:1007B000DF91CF91FF90EF90DF90CF9008958C2D37
:1007C000EECF882341F08150682F70E090E080E008
:1007D00050E040E0B3CF08952F923F924F925F9246
:1007E0006F927F928F929F92AF92BF92CF92DF9241
:1007F000EF92FF920F931F93CF93DF93CDB7DEB7A6
:10080000A7970FB6F894DEBF0FBECDBFC0900C0205
:10081000D0900D02E0900E02F0900F02A701960119
:1008200060912C0570912D0580912E0590912F05DA
:1008300065D7882341F0C0922C05D0922D05E09217
:100840002E05F0922F0567E370E080E090E052DF24
:1008500090932B0580932A0543E050E0BE016D5F25
:100860007F4F37DFC0901002D0901102E09012024B
:10087000F0901302A7019601609120057091210567
:10088000809122059091230539D7882341F0C092A9
:100890002005D0922105E0922205F092230568E31D
:1008A00070E080E090E026DF90931F0580931E05A6
:1008B00043E050E0BE016F5F7F4F0BDF409160026D
:1008C00050916102AB81BC819A010E94B8136D8383
:1008D0007E838F839887E0900002F0900102009160
:1008E000020210910302E986FA860B871C87A98110
:1008F000BA810E94B8136D877E878F87988BE090AE
:100900000402F09005020091060210910702E98AA4
:10091000FA8A0B8B1C8BED80FE800F811885298550
:100920003A854B855C85E216F3060407150708F047
:10093000F3C181E0ED84FE840F85188929893A8905
:100940004B895C89E216F3060407150708F080E07E
:100950008D8BED80FE800F81188529853A854B852A
:100960005C85312CE216F3060407150780F481E05C
:10097000ED84FE840F85188929893A894B895C8921
:10098000E216F3060407150708F480E0382EED8020
:10099000FE800F81188529853A854B855C85212C41
:1009A000E216F3060407150780F081E0ED84FE846B
:1009B0000F85188929893A894B895C89E216F306E3
:1009C0000407150708F080E0282EED886E2D70E0F2
:1009D00090E080E0C8D62B013C01632D70E090E0F0
:1009E00080E0C1D64B015C01622D70E090E080E0B8
:1009F000BAD6688F798F8A8F9B8F11E0632D61271C
:100A0000617070E090E080E0AED66C8F7D8F8E8F4D
:100A10009F8F622D6127617070E090E080E0A3D627
:100A200068A379A38AA39BA31E251170612F70E090
:100A300090E080E098D66CA37DA38EA39FA3209125
:100A400018023091190240911A0250911B02C30101
:100A5000B201E0D76B017C0120912002309121028C
:100A60004091220250912302C501B401D3D79B01CA
:100A7000AC01C701B601DED56B017C0120912802D3
:100A80003091290240912A0250912B02688D798D74
:100A90008A8D9B8DBFD79B01AC01C701B601CAD51A
:100AA0006B017C0120913002309131024091320281
:100AB000509133026C8D7D8D8E8D9F8DABD728A18B
:100AC00039A14AA15BA1A6D72CA13DA14EA15FA14E
:100AD000A1D79B01AC01C701B601ACD5209134026E
:100AE00030913502409136025091370293D7162F3C
:100AF000072F8E8B9F8B6091380270913902809105
:100B00003A0290913B0231D66B017C01212F302FAC
:100B10004E895F89F3D587FD16C060913C027091C4
:100B20003D0280913E0290913F021FD66B017C01F5
:100B3000212F302F4E895F8969D7181624F0C12ED6
:100B4000D02EEE88FF88B601C7014AD66B017C0122
:100B5000B0D48111E3C020E030E040E85FE4C70199
:100B6000B60158D6CFD56B017C01F7FE0AC0FDD582
:100B70009058CDD5CC24DD247601C61AD70AE80AD0
:100B8000F90A2091140230911502409116025091F9
:100B90001702C301B2013ED72B013C0120911C0278
:100BA00030911D0240911E0250911F02C501B401F7
:100BB00031D79B01AC01C301B2013CD54B015C01B3
:100BC0002091240230912502409126025091270263
:100BD000688D798D8A8D9B8D1DD79B01AC01C501D8
:100BE000B40128D54B015C0120912C0230912D02DB
:100BF00040912E0250912F026C8D7D8D8E8D9F8D98
:100C000009D728A139A14AA15BA104D72CA13DA1F4
:100C10004EA15FA1FFD69B01AC01C501B4010AD56D
:100C200020913402309135024091360250913702C2
:100C3000F1D63B014C0160913802709139028091EC
:100C40003A0290913B0291D55B018C019301A40182
:100C500055D587FD12C060913C0270913D02809194
:100C60003E0290913F0281D55B018C019301A4016A
:100C7000CDD6181614F053018401B501C801B0D5C2
:100C80004B015C0116D481114DC020E030E040E8FA
:100C90005FE4C501B401BED535D54B015C01B7FE9B
:100CA0000AC063D5905833D5882499245401861AF4
:100CB000970AA80AB90A69E070E080E090E026DBB4
:100CC0008C01909367058093660580914002909116
:100CD0004102A0914202B091430288159905AA05EC
:100CE000BB057CF08091440290914502A0914602A0
:100CF000B091470288159905AA05BB0514F4D501E2
:100D0000C4018F3F9105A105B10509F07CF4B7FF3F
:100D100011C090E080E00EC01D8A1BCEC12CD12CEA
:100D200076012FCF812C912C5401C5CF8FEF90E00D
:100D3000A0E0B0E0BC01990F880B990B16D5AB0170
:100D4000BC01C801ACDA6BE070E080E090E0DEDA74
:100D50008C0190935F0580935E058091480290918D
:100D60004902A0914A02B0914B028C159D05AE0537
:100D7000BF057CF080914C0290914D02A0914E02F3
:100D8000B0914F028C159D05AE05BF0514F4D70137
:100D9000C6018F3F9105A105B10509F02CF4B7FFFD
:100DA00007C090E080E004C08FEF90E0A0E0B0E0EA
:100DB000BC01990F880B990BD8D4AB01BC01C801B9
:100DC0006EDA68E070E080E090E0A0DA8C01909349
:100DD0005705809356058091500290915102A09141
:100DE0005202B091530288159905AA05BB057CF003
:100DF0008091540290915502A0915602B0915702F1
:100E000088159905AA05BB0514F4D501C401B7FFDF
:100E100007C0B095A095909581959F4FAF4FBF4F5C
:100E20008F3F9105A105B10529F024F08FEF90E0E7
:100E3000A0E0B0E0BC01990F880B990B96D4AB01F0
:100E4000BC01C8012CDA6AE070E080E090E05EDA74
:100E50008C0190934F0580934E058091580290919C
:100E60005902A0915A02B0915B028C159D05AE0506
:100E7000BF057CF080915C0290915D02A0915E02C2
:100E8000B0915F028C159D05AE05BF0514F4D70126
:100E9000C601B7FF07C0B095A095909581959F4F6B
:100EA000AF4FBF4F8F3F9105A105B10529F024F049
:100EB0008FEF90E0A0E0B0E0BC01990F880B990B98
:100EC00054D4AB01BC01C801EAD9C0900802D0904B
:100ED0000902E0900A02F0900B02A70196016091CE
:100EE000140570911505809116059091170506D48B
:100EF000882341F0C0921405D0921505E0921605A2
:100F0000F092170587E0C3D9FD8811E0FF2011F0AA
:100F1000811110E0012F60E02110612F85E3B0D92D
:100F2000311001C010E0612F81E3AAD92D813E81EB
:100F30004F81588589859A85AB85BC8528173907E7
:100F40004A075B0780F02D853E854F855889898942
:100F50009A89AB89BC89281739074A075B0718F0BB
:100F600061E0011101C060E083E38AD9A7960FB662
:100F7000F894DEBF0FBECDBFDF91CF911F910F91CF
:100F8000FF90EF90DF90CF90BF90AF909F908F90A9
:100F90007F906F905F904F903F902F9008954F9269
:100FA0005F926F927F92AF92BF92DF92EF92FF9229
:100FB0000F931F93CF93DF9384E090E029D2109298
:100FC0008B0210928A02CCE0D5E086E6FE011192F7
:100FD0008A95E9F7DD24D394D092690580E0A82EA4
:100FE00082E0B82EF50184859585A685B78588A30E
:100FF00099A3AAA3BBA3412C512C32014394498E3F
:101000005A8E6B8E7C8E67E370E080E090E0B6DBFA
:101010009F8F8E8FDD8E1C86D0926805F5018089AA
:101020009189A289B3898C8B9D8BAE8BBF8B4D86AA
:101030005E866F86788A68E370E080E090E09EDBF1
:101040009B8B8A8BD98A10926005D0926D05409255
:101050006105509262056092630570926405E12C0F
:10106000F12C8701A801970169E070E080E090E031
:1010700091D99093670580936605D092650510928B
:101080005805D0926C054092590550925A056092CD
:101090005B0570925C05A80197016BE070E080E051
:1010A00090E078D990935F0580935E05D0925D05BE
:1010B00010925005D0926B05409251055092520506
:1010C0006092530570925405A801970168E070E0A2
:1010D00080E090E05FD99093570580935605D092B9
:1010E00055051CAED0926A054092490550924A05BA
:1010F00060924B0570924C05A80197016AE070E080
:1011000080E090E047D990934F0580934E05D092B0
:101110004D051882D0927105F50180859185A285D3
:10112000B38588879987AA87BB8749825A826B8251
:101130007C8260E087E09CD8DD821CA2D0926E05A4
:101140004DA25EA26FA278A661E085E391D8D9A6F0
:101150001CAAD09270054DAA5EAA6FAA78AE61E073
:1011600081E386D8D9AE1CA6D0926F054DA65EA6A7
:101170006FA678AA61E083E37BD8D9AADF91CF91EB
:101180001F910F91FF90EF90DF90BF90AF907F90F5
:101190006F905F904F9008958091240581111DC03C
:1011A00081E0809324058091250590912605A091EA
:1011B0002705B09128050197A105B10571F480912B
:1011C0002905882351F067E370E080E090E092DA2F
:1011D00090932B0580932A05F4DA809118058111EC
:1011E0001DC081E0809318058091190590911A0522
:1011F000A0911B05B0911C050197A105B10571F4E3
:1012000080911D05882351F068E370E080E090E054
:1012100071DA90931F0580931E05D3DA80916005E3
:1012200081112AC081E080936005809161059091D1
:101230006205A0916305B09164050197A105B10510
:10124000D9F4809165058823B9F069E070E080E009
:1012500090E05CD8909367058093660540E050E08D
:10126000BA011DD869E070E080E090E04FD890931B
:10127000670580936605DFD88091580581112BC0E2
:1012800081E0809358058091590590915A05A0916D
:101290005B05B0915C050197A105B105E1F4809172
:1012A0005D058823C1F06BE070E080E090E02ED80F
:1012B00090935F0580935E0540E050E0BA010E9484
:1012C0004F016BE070E080E090E020D890935F05E4
:1012D00080935E05B0D88091500581112DC081E0CA
:1012E000809350058091510590915205A09153052E
:1012F000B09154050197A105B105F1F48091550510
:101300008823D1F068E070E080E090E00E948601E0
:10131000909357058093560540E050E0BA010E9433
:101320004F0168E070E080E090E00E9486019093B9
:101330005705809356057FD88091480581112DC0AF
:1013400081E0809348058091490590914A05A091DC
:101350004B05B0914C050197A105B105F1F48091C1
:101360004D058823D1F06AE070E080E090E00E94B3
:10137000860190934F0580934E0540E050E0BA01FE
:101380000E944F016AE070E080E090E00E948601D8
:1013900090934F0580934E054ED880910C05811196
:1013A00003C081E080930C0580913005811103C05A
:1013B00081E08093300580914005811103C081E078
:1013C0008093400580913805811103C081E08093AE
:1013D0003805089560E070E080E89FE7089560E0D8
:1013E00070E080E89FE7089560E070E080E89FEF9C
:1013F000089560E070E080E89FEF089560E070E09D
:1014000080EC9FEF089560E070E080EC9FEF08951E
:10141000F5DF60937E0570937F0580938005909340
:101420008105F1DF609372057093730580937405F5
:1014300090937505CFDF60937A0570937B05809359
:101440007C0590937D05CBDF6093760570937705DF
:101450008093780590937905C7DF60938205709338
:1014600083058093840590938505C3DF609386058B
:1014700070938705809388059093890508950F934D
:101480001F938B019C010027112720783F770115BE
:10149000110520483F4749F4AB01BC016F7777271E
:1014A00081E0452B462B472B09F480E01F910F91DB
:1014B0000895E5CF26E030E040E855E260E070E0D6
:1014C00090E080E000C08130910569F01CF4892B28
:1014D00039F008958230910549F0039751F008954D
:1014E00088E992E05EC685E393E0FCCF82ED93E06D
:1014F000F9CF8FE694E0F6CF1F920F920FB60F92BE
:1015000011240BB60F922F933F934F935F936F93DA
:101510007F938F939F93AF93BF93EF93FF9386E94E
:1015200097EE909325018093240134D0FF91EF91A1
:10153000BF91AF919F918F917F916F915F914F91EB
:101540003F912F910F900BBE0F900FBE0F901F90E9
:10155000189586E997EE9093250180932401A3E7DF
:10156000B0E08C918E7F8C93E0E2F1E080818C7F03
:101570008083E1E2F1E08081877E808380818460E6
:10158000808380818C7F80838C9181608C9308958F
:1015900081E0089580918C0291E0980F90938C02E5
:1015A000882349F021E030E030938E0220938D02B1
:1015B00080938C02089578940FD9F89480918C02CE
:1015C0008150F6CFCF93DF9310928B0510928A054E
:1015D000CED270DFC0916302D0916402198218826A
:1015E000DEDCF894B6DF81E028813981232B09F015
:1015F00080E080938A057894789480918A0581119F
:1016000007C0CADDF89490E080E0DF91CF910895A3
:1016100081E028813981232B09F480E080938B05B8
:1016200090918B0581E0911180E080938A05B0DF75
:10163000E4CF5058BB27AA270ED097C188D130F0ED
:101640008DD120F031F49F3F11F41EF47DC10EF4D2
:10165000E095E7FB4AC1E92F99D180F3BA176207F9
:1016600073078407950718F071F49EF5C8C10EF44E
:10167000E0950B2EBA2FA02D0B01B90190010C01A2
:10168000CA01A0011124FF27591B99F0593F50F4BA
:10169000503E68F11A16F040A22F232F342F442712
:1016A000585FF3CF469537952795A795F04053950A
:1016B000C9F77EF41F16BA0B620B730B840BBAF0DA
:1016C0009150A1F0FF0FBB1F661F771F881FC2F745
:1016D0000EC0BA0F621F731F841F48F48795779559
:1016E0006795B795F7959E3F08F0B3CF9395880F10
:1016F00008F09927EE0F979587950895D2D008F4B2
:1017000081E0089504D06894B1117AC1089546D15A
:1017100088F09F5790F0B92F9927B751A0F0D1F0DA
:10172000660F771F881F991F1AF0BA95C9F712C064
:10173000B13081F064D1B1E0089561C1672F782F95
:101740008827B85F39F0B93FCCF3869577956795D0
:10175000B395D9F73EF490958095709561957F4F3C
:101760008F4F9F4F0895E89409C097FB3EF49095E2
:101770008095709561957F4F8F4F9F4F9923A9F06A
:10178000F92F96E9BB279395F695879577956795F9
:10179000B795F111F8CFFAF4BB0F11F460FF1BC03D
:1017A0006F5F7F4F8F4F9F4F16C0882311F096E9D0
:1017B00011C0772321F09EE8872F762F05C066237E
:1017C00071F096E8862F70E060E02AF09A95660F37
:1017D000771F881FDAF7880F9695879597F90895F0
:1017E000F7D080F09F3740F491110EF009C160E00E
:1017F00070E080E89FEB089526F41B16611D711DB3
:10180000811D79C093C0A3D018F011F0A7D038F48F
:101810009BC0F6C0E92FBAD0B0F35523C9F3E7FB5C
:101820006217730784079507A8F199F3E92FFF273B
:1018300088232AF03197660F771F881FDAF7952FD4
:101840005527442332F091505040220F331F441F3C
:10185000D2F7BB27E91BF50B621B730B840BB10995
:10186000C1F222F4620F731F841FB11D31972AF059
:10187000660F771F881FBB1FEFCF915050405AF063
:1018800041F0882332F0660F771F881F9150504037
:10189000C1F793954BC08695779567959F5FD9F76C
:1018A000F8CF990F0008550FAA0BE0E8FEEF1616C7
:1018B0001706E807F907C0F012161306E407F50744
:1018C00098F0621B730B840B950B39F40A2661F0B8
:1018D000232B242B252B21F408950A2609F4A1405B
:1018E000A6958FEF811D811D089597F99F6780E868
:1018F00070E060E00895882371F4772321F0985018
:10190000872B762F07C0662311F499270DC09051BD
:10191000862B70E060E02AF09A95660F771F881F8B
:10192000DAF7880F9695879597F908959F3F31F0DC
:10193000915020F4879577956795B795880F911DFD
:101940009695879597F908959FEF80EC0895002468
:101950000A941616170618060906089500240A9414
:1019600012161306140605060895092E0394000C9A
:1019700011F4882352F0BB0F40F4BF2B11F460FF29
:1019800004C06F5F7F4F8F4F9F4F089557FD905852
:10199000440F551F59F05F3F71F04795880F97FB33
:1019A000991F61F09F3F79F08795089512161306ED
:1019B0001406551FF2CF4695F1DF08C0161617061C
:1019C0001806991FF1CF8695710561050894089551
:1019D000E5DFA0F0BEE7B91788F4BB279F3860F4B5
:1019E0001616B11D672F782F8827985FF7CF869539
:1019F00077956795B11D93959639C8F30895E89446
:101A0000BB2766277727CB0197F908954ADF08F4AB
:101A10008FEF08950BD0A9CF9ADF28F09FDF18F041
:101A2000952309F062CF90CF1124EACFAFDFA0F366
:101A3000959FD1F3950F50E0551F629FF001729F63
:101A4000BB27F00DB11D639FAA27F00DB11DAA1F82
:101A5000649F6627B00DA11D661F829F2227B00DCF
:101A6000A11D621F739FB00DA11D621F839FA00D5A
:101A7000611D221F749F3327A00D611D231F849FAA
:101A8000600D211D822F762F6A2F11249F57504001
:101A90008AF0E1F088234AF0EE0FFF1FBB1F661F9C
:101AA000771F881F91505040A9F79E3F510570F055
:101AB0001CCFA6CF5F3FECF3983EDCF3869577957D
:101AC0006795B795F795E7959F5FC1F7FE2B880F50
:101AD000911D9695879597F908951F920F920FB6CD
:101AE0000F9211242F933F938F939F93AF93BF93A4
:101AF0008091900290919102A0919202B0919302F4
:101B000030918F0223E0230F2D3758F50196A11D48
:101B1000B11D20938F028093900290939102A09325
:101B20009202B09393028091940290919502A091B9
:101B30009602B09197020196A11DB11D8093940267
:101B400090939502A0939602B0939702BF91AF91A4
:101B50009F918F913F912F910F900FBE0F901F90EB
:101B6000189526E8230F0296A11DB11DD2CF7894B7
:101B700084B5826084BD84B5816084BD85B5826092
:101B800085BD85B5816085BDEEE6F0E08081816030
:101B90008083E1E8F0E01082808182608083808130
:101BA00081608083E0E8F0E0808181608083E1EB08
:101BB000F0E0808184608083E0EBF0E080818160F0
:101BC0008083E1E9F0E080818260808380818160B0
:101BD0008083E0E9F0E0808181608083E1EAF0E0E9
:101BE000808182608083808181608083E0EAF0E090
:101BF000808181608083E1E2F1E080818260808386
:101C0000808181608083E0E2F1E080818160808377
:101C1000EAE7F0E080818460808380818260808355
:101C20008081816080838081806880831092C10080
:101C30000895863308F0865320917B00982F987082
:101C4000277F922B90937B002091620290E4299F42
:101C5000900111248770822B80937C0080917A0000
:101C6000806480937A0080917A0086FDFCCF809119
:101C700078009091790008951F93CF93DF93182FE8
:101C8000EB0161E033D1209731F460E0812FDF91E7
:101C9000CF911F9167C1CF3FD10511F461E0F6CF1D
:101CA000E12FF0E0EC51FF4FE491E150E23108F018
:101CB000B2C0F0E08827E15AF14F8F4F51C5710E45
:101CC000790E7E0E880E920E0B0F9C0EA40EAC0E9B
:101CD000B60EC00ECA0ED90EE30E0B0FED0EF70EA8
:101CE000010F84B5806884BDC7BDDF91CF911F917E
:101CF000089584B5806284BDC8BDF7CF809180000F
:101D0000806880938000D0938900C0938800EDCFD5
:101D100080918000806280938000D0938B00C0937C
:101D20008A00E3CF80918000886080938000D09308
:101D30008D00C0938C00D9CF8091B00080688093D3
:101D4000B000C093B300D1CF8091B0008062809387
:101D5000B000C093B400C9CF809190008068809398
:101D60009000D0939900C0939800BFCF80919000CD
:101D7000806280939000D0939B00C0939A00B5CF6F
:101D800080919000886080939000D0939D00C093D4
:101D90009C00ABCF8091A00080688093A0008091D0
:101DA000A0008F7B8093A000D093A900C093A800CF
:101DB0009CCF8091A00080628093A000D093AB0064
:101DC000C093AA0092CF8091A00088608093A00069
:101DD000D093AD00C093AC0088CF80912001806883
:101DE00080932001D0932901C09328017ECF809158
:101DF0002001806280932001D0932B01C0932A019F
:101E000074CF80912001886080932001D0932D01B0
:101E1000C0932C016ACFC038D1050CF03FCF35CF2D
:101E20008150823108F059C0E82FF0E08827E55E44
:101E3000F04F8F4F95C43B0F3F0F2D0F330F370FD0
:101E40006D0F420F480F4C0F520F560F5A0F600F75
:101E5000640F6D0F680F6E0F720F809180008F7787
:101E6000809380000895809180008F7DF9CF8091CC
:101E70008000877FF5CF84B58F7784BD089584B5C2
:101E80008F7DFBCF8091B0008F778093B000089555
:101E90008091B0008F7DF9CF809190008F778093F3
:101EA00090000895809190008F7DF9CF80919000EF
:101EB000877FF5CF8091A0008F778093A000089551
:101EC0008091A0008F7DF9CF8091A000877FF5CF12
:101ED000809120018F7780932001089580912001C7
:101EE0008F7DF9CF80912001877FF5CFCF93DF934E
:101EF00090E0FC01E65DFE4F249180599E4FFC016D
:101F000084918823C9F090E0880F991FFC01E65165
:101F1000FE4FA591B491FC01E053FE4FC591D491C1
:101F200061110DC09FB7F8948C91209582238C93FA
:101F30008881282328839FBFDF91CF910895623045
:101F400051F49FB7F8943C91822F809583238C9312
:101F5000E8812E2BEFCF8FB7F894EC912E2B2C939A
:101F60008FBFEACF1F93CF93DF93282F30E0F90183
:101F7000EC51FF4F8491F901E65DFE4FD491F901D8
:101F8000E059FE4FC491CC23A1F0162F811148DFF8
:101F9000EC2FF0E0EE0FFF1FE053FE4FA591B49140
:101FA0008FB7F894EC91111108C0D095DE23DC9323
:101FB0008FBFDF91CF911F910895DE2BF8CFCF9384
:101FC000DF93282F30E0F901EC51FF4F8491F901A4
:101FD000E65DFE4FD491F901E059FE4FC491CC2348
:101FE00099F081111DDFEC2FF0E0EE0FFF1FEA5496
:101FF000FE4FA591B491EC91ED2381E090E009F4BE
:1020000080E0DF91CF91089580E090E0FACFFC016D
:10201000918D228D892F90E0805C9F4F821B9109CA
:102020008F7399270895FC01918D828D981731F057
:10203000828DE80FF11D858D90E008958FEF9FEF61
:102040000895FC01918D828D981761F0A28DAE0FDD
:10205000BF2FB11D5D968C91928D9F5F9F73928F64
:1020600090E008958FEF9FEF0895FC01538D448D0C
:10207000252F30E0842F90E0821B930B541710F033
:10208000CF96089501970895FC01A48DA80FB92F4C
:10209000B11DA35ABF4F2C91848D90E001968F7390
:1020A0009927848FA689B7892C93A089B1898C91AF
:1020B000837080648C93938D848D981306C00288FE
:1020C000F389E02D80818F7D80830895CF93DF9306
:1020D000EC01888D8823B1F0AA89BB89E889F98948
:1020E0008C9185FD03C0808186FD0CC00FB607FC76
:1020F000F7CF8C9185FFF2CF808185FFEDCFCE01A8
:10210000C3DFEACFDF91CF910895EF92FF920F9353
:102110001F93CF93DF93EC0181E0888F9B8D8C8D93
:1021200098131AC0E889F989808185FF15C09FB787
:10213000F894EE89FF896083E889F989808183704A
:10214000806480839FBF81E090E0DF91CF911F91F9
:102150000F91FF90EF900895F62E0B8D10E00F5F1A
:102160001F4F0F731127E02E8C8D8E110BC00FB6F1
:1021700007FCFACFE889F989808185FFF5CFCE0188
:1021800083DFF2CFEB8DEC0FFD2FF11DE35AFF4FF4
:10219000F0829FB7F8940B8FEA89FB898081806277
:1021A000D0CFCF92DF92EF92FF921F93CF93DF9326
:1021B000EC016A017B01122FE889F98982E08083B2
:1021C000C11481EED806E104F10499F060E079E0F1
:1021D0008DE390E0A7019601A1D221503109410978
:1021E00051095695479537952795211580E1380770
:1021F00090F0E889F989108260E874E88EE190E057
:10220000A70196018BD221503109410951095695F8
:10221000479537952795EC85FD853083EE85FF85BD
:102220002083188EEC89FD891083EA89FB898081DF
:1022300080618083EA89FB89808188608083EA8964
:10224000FB89808180688083EA89FB8980818F7D1A
:102250008083DF91CF911F91FF90EF90DF90CF901F
:1022600008951F920F920FB60F9211240BB60F9282
:102270002F938F939F93EF93FF93E091A802F09198
:10228000A9028081E091AE02F091AF0282FD1DC0F3
:1022900090818091B1028F5F8F732091B20282177B
:1022A00041F0E091B102F0E0E856FD4F958F809348
:1022B000B102FF91EF919F918F912F910F900BBEE3
:1022C0000F900FBE0F901F9018958081F2CF1F9234
:1022D0000F920FB60F9211240BB60F922F933F93CC
:1022E0004F935F936F937F938F939F93AF93BF931E
:1022F000EF93FF9388E992E0C7DEFF91EF91BF91E2
:10230000AF919F918F917F916F915F914F913F918D
:102310002F910F900BBE0F900FBE0F901F9018952E
:10232000E8E9F2E01382128288EE93E0A0E0B0E0E8
:1023300084839583A683B78389E692E09183808323
:1023400085EC90E09587848784EC90E0978786877A
:1023500080EC90E0918B808B81EC90E0938B828B72
:1023600082EC90E0958B848B86EC90E0978B868B4B
:10237000118E128E138E148E08951F920F920FB627
:102380000F9211240BB60F922F938F939F93EF937D
:10239000FF93E0914503F09146038081E0914B0368
:1023A000F0914C0382FD1DC0908180914E038F5FA0
:1023B0008F7320914F03821741F0E0914E03F0E0BC
:1023C000EB5CFC4F958F80934E03FF91EF919F91B3
:1023D0008F912F910F900BBE0F900FBE0F901F90FB
:1023E00018958081F2CF1F920F920FB60F92112491
:1023F0000BB60F922F933F934F935F936F937F93FF
:102400008F939F93AF93BF93EF93FF9385E393E0F5
:102410003BDEFF91EF91BF91AF919F918F917F91A3
:102420006F915F914F913F912F910F900BBE0F9045
:102430000FBE0F901F901895E5E3F3E01382128210
:1024400088EE93E0A0E0B0E084839583A683B78311
:1024500089E692E0918380838DEC90E09587848774
:102460008CEC90E09787868788EC90E0918B808B4E
:1024700089EC90E0938B828B8AEC90E0958B848B37
:102480008EEC90E0978B868B118E128E138E148EAD
:1024900008951F920F920FB60F9211240BB60F9250
:1024A0002F938F939F93EF93FF93E091E203F0912B
:1024B000E3038081E091E803F091E90382FD1DC010
:1024C00090818091EB038F5F8F732091EC038217D3
:1024D00041F0E091EB03F0E0EE52FC4F958F8093DA
:1024E000EB03FF91EF919F918F912F910F900BBE76
:1024F0000F900FBE0F901F9018958081F2CF1F9202
:102500000F920FB60F9211240BB60F922F933F9399
:102510004F935F936F937F938F939F93AF93BF93EB
:10252000EF93FF9382ED93E0AFDDFF91EF91BF91C9
:10253000AF919F918F917F916F915F914F913F915B
:102540002F910F900BBE0F900FBE0F901F901895FC
:10255000E2EDF3E01382128288EE93E0A0E0B0E0B7
:1025600084839583A683B78389E692E091838083F1
:1025700085ED90E09587848784ED90E09787868746
:1025800080ED90E0918B808B81ED90E0938B828B3E
:1025900082ED90E0958B848B86ED90E0978B868B17
:1025A000118E128E138E148E08951F920F920FB6F5
:1025B0000F9211240BB60F922F938F939F93EF934B
:1025C000FF93E0917F04F09180048081E091850485
:1025D000F091860482FD1DC09081809188048F5FF8
:1025E0008F7320918904821741F0E0918804F0E014
:1025F000E159FB4F958F80938804FF91EF919F9154
:102600008F912F910F900BBE0F900FBE0F901F90C8
:1026100018958081F2CF1F920F920FB60F9211245E
:102620000BB60F922F933F934F935F936F937F93CC
:102630008F939F93AF93BF93EF93FF938FE694E0B5
:1026400023DDFF91EF91BF91AF919F918F917F918A
:102650006F915F914F913F912F910F900BBE0F9013
:102660000FBE0F901F901895EFE6F4E013821282D0
:1026700088EE93E0A0E0B0E084839583A683B783DF
:1026800089E692E09183808385E391E09587848752
:1026900084E391E09787868780E391E0918B808B3C
:1026A00081E391E0938B828B82E391E0958B848B25
:1026B00086E391E0978B868B118E128E138E148E8B
:1026C0000895AF92BF92CF92DF92EF92FF920F9355
:1026D0001F93CF93DF936C017B018B01040F151FB8
:1026E000EB015E01AE18BF08C017D10759F0699120
:1026F000D601ED91FC910190F081E02DC601199574
:10270000892B79F7C501DF91CF911F910F91FF9030
:10271000EF90DF90CF90BF90AF900895A1E21A2E76
:10272000AA1BBB1BFD010DC0AA1FBB1FEE1FFF1F75
:10273000A217B307E407F50720F0A21BB30BE40BC5
:10274000F50B661F771F881F991F1A9469F760950C
:102750007095809590959B01AC01BD01CF010895C6
:10276000EE0FFF1F881F8BBF0790F691E02D199485
:10277000A29FB001B39FC001A39F700D811D1124C2
:10278000911DB29F700D811D1124911D0895F89423
:02279000FFCF79
:102792000000500000005000CDCCCC3D000080BFB6
:1027A200000080BF00002AC300002AC3000000000E
:1027B2000000C8420000C842000000000000C842F9
:1027C2000000C8420000803FFF00000001FFFFFF41
:1027D200FF00000001000000FF00000001000000F7
:1027E2000000000001FFFFFF0000000001FFFFFFEB
:1027F20000C8018A020000000085106113351066CE
:08280200100710211013100053
:00000001FF
