:10000000E2C000000C94782B0C94A32B0C94CE2B04
:100010000C94F92B0C94242C0C944F2C0C947A2CCB
:100020000C94A52C01C10000FFC00000FDC0000021
:10003000FBC00000F9C00000F7C00000F5C00000E0
:10004000F3C00000F1C00000EFC00000EDC00000F0
:10005000EBC00000E9C00000E7C000000C94D02C09
:10006000E3C000000C943D2F0C94732FDDC0000002
:10007000DBC00000D9C00000D7C00000D5C0000020
:10008000D3C00000D1C00000CFC00000CDC0000030
:100090000C94C92F0C94FF2FC7C00000C5C00000EE
:1000A000C3C00000C1C00000BFC00000BDC0000050
:1000B000BBC00000B9C00000B7C00000B5C0000060
:1000C000B3C00000B1C000000C94AC270C945530B4
:1000D0000C948B30A9C000000C94E1300C941731C3
:1000E000A3C00000010210202008081020401020AA
:1000F00040800201020108040201010204081020EC
:1001000040808040201008040201800402018040E9
:100110002010080402010804020101020408102052
:1001200040800102040810204080050505050705F0
:1001300008080808020202020A0A08080404040463
:10014000010101010101010103030303030303038F
:10015000040707070C0C0C0C0C0C0C0C020202021E
:1001600006060606060606060B0B0B0B0B0B0B0B07
:10017000000020002300260029002C002F00320060
:100180000001000003010601090100002200250012
:1001900028002B002E003100340002010000050170
:1001A00008010B0100002100240027002A002D0077
:1001B0003000330001010000040107010A019C2FF7
:1001C0002830B430403111241FBECFEFD1E2DEBF62
:1001D000CDBF00E00CBF12E0A0E0B2E0E6E2F4E642
:1001E00000E00BBF02C007900D92A03EB107D9F707
:1001F00029E0A0EEB2E001C01D92A934B207E1F7F8
:1002000010E0C3EED0E000E006C021970109802F86
:10021000FE010E94E031CF3DD10780E00807A9F739
:100220000E94C8280C941132EBCEFC01A781B08546
:100230008C9191858923A481B5819C9140815181C4
:10024000628173812681922359F081110BC04F5F27
:100250005F4F6F4F7F4F4083518362837383089555
:100260008111F5CF4150510961097109F4CF81EE37
:1002700092E0DBCF8CEE92E0D8CF87EF92E0D5CF43
:1002800082E093E0D2CFFC01A481B5818C9196816C
:100290008923A781B0859C914081518162817381BE
:1002A0002185922359F0882359F04F5F5F4F6F4F9C
:1002B0007F4F408351836283738308958823A9F31A
:1002C0004150510961097109F4CF81EE92E0DBCF11
:1002D0008CEE92E0D8CF87EF92E0D5CF82E093E02A
:1002E000D2CF0F931F93CF93DF93D82FC62F8A01BE
:1002F000A091E0028BE0A89FD0011124AF51BD4F27
:100300001D921D921D921C92139781E01A968C9358
:100310001A978D2F90E0FC01EC51FF4FE491169657
:10032000EC931697FC01E65DFE4FE491F0E0EE0FD2
:10033000FF1FE059FE4F8591949115969C938E93E3
:100340001497862F90E0FC01EC51FF4FE491199631
:10035000EC931997FC01E65DFE4FE491F0E0EE0F9F
:10036000FF1FE059FE4F8591949118969C938E93B0
:10037000179760E08D2F0E94D72D60E08C2F0E9490
:10038000D72D8091E002813009F43FC0A8F082307F
:1003900009F462C0833009F486C08091E00291E0E4
:1003A000980F9093E002F801808390E080E0DF9165
:1003B000CF911F910F91089580E0D23049F081E0F4
:1003C000D33031F08EEE8D0F8430D8F487E18D1B61
:1003D00041E050E067E371E00E94FF2A80E0C23014
:1003E00049F081E0C33031F08EEE8C0F843058F448
:1003F00087E18C1B41E050E065E671E00E94FF2A36
:10040000CCCF8FEFE5CF8FEFF5CF80E0D23049F042
:1004100081E0D33031F08EEE8D0F8430C8F487E167
:100420008D1B41E050E06AE371E00E94FF2A80E00A
:10043000C23049F081E0C33031F08EEE8C0F843051
:1004400048F487E18C1B41E050E068E671E0D6CFCC
:100450008FEFE7CF8FEFF7CF80E0D23049F081E028
:10046000D33031F08EEE8D0F8430C8F487E18D1BD0
:1004700041E050E06DE371E00E94FF2A80E0C2306D
:1004800049F081E0C33031F08EEE8C0F843048F4B7
:1004900087E18C1B41E050E06BE671E0AFCF8FEF5E
:1004A000E7CF8FEFF7CF80E0D23049F081E0D33053
:1004B00031F08EEE8D0F8430C8F487E18D1B41E062
:1004C00050E060E471E00E94FF2A80E0C23049F011
:1004D00081E0C33031F08EEE8C0F843048F487E138
:1004E0008C1B41E050E06EE671E088CF8FEFE7CFE4
:1004F0008FEFF7CF9BE0899FF0011124EF51FD4F63
:1005000080819181A281B381FB0180839183A28349
:10051000B38390E080E008959BE0899FF00111246F
:10052000EF51FD4F108211821282138290E080E021
:10053000089590E080E0089590E080E008950F93A2
:100540001F93009709F488C06115710509F484C0F0
:100550000091140210911502209116023091170299
:100560000E3F1F4F2F4F3F4F09F067C04FEF5FEF18
:10057000BA014093140250931502609316027093CF
:100580001702409114025091150260911602709169
:100590001702DC011296ED91FC9180819181A2817C
:1005A000B38180937B0390937C03A0937D03B093EE
:1005B0007E0384819581A681B78180937703909390
:1005C0007803A0937903B0937A0380859185A285FF
:1005D000B3858093730390937403A0937503B093D2
:1005E000760384859585A685B78580936F03909360
:1005F0007003A0937103B093720310926B03109277
:100600006C0310926D0310926E030E94930B88EBA3
:100610009BE090930E0380930D03909310038093BF
:100620000F0370D7009731F421E030E0309380035E
:1006300020937F031F910F91089500911402109150
:1006400015022091160230911702DB010D931D93C4
:100650002D933C93139795CF8FEF9FEFEBCF8F9216
:100660009F92AF92BF92CF92DF92EF92FF921F9331
:10067000CF93DF934B015C011091820382E090E005
:100680009093800380937F0381149104A104B104AB
:1006900041F480918203811104C080918103C1E003
:1006A0008111C0E0C12CD12C76018091820381118F
:1006B00006C080918103811102C0CC23D9F083E070
:1006C00090E09093800380937F03CC2379F1CCE971
:1006D000DFEF111102C00E941C0FCE01DF91CF91FC
:1006E0001F91FF90EF90DF90CF90BF90AF909F90C1
:1006F0008F9008956AE070E080E090E00E943F2DC6
:1007000080E1C80E87E2D81EE11CF11C8FEF88162D
:100710009806A806B80631F0C1E08C149D04AE041A
:10072000BF0408F0C0E080E021D7BFCFD0E0C0E038
:10073000D0CFCF92DF92EF92FF920F931F93CF9380
:10074000DF938F3F910511F008F050C020917F0397
:10075000309180032330310539F020917F033091AF
:1007600080032130310531F424E030E03093800300
:1007700020937F036A017B01EC0182309105A0F098
:1007800011E0AE01C701B601BCD6AB01BC01CE0180
:100790001123F9F0DF91CF911F910F91FF90EF900E
:1007A000DF90CF900C9445118C01000F111F035F57
:1007B0001C4FD8018D919C91892B11F30E944F11F0
:1007C0000297F1F6D801ED91FC91CE011995182F01
:1007D000D8CF0E94671190E080E0DF91CF911F9108
:1007E0000F91FF90EF90DF90CF9008958FEF9FEFE4
:1007F000F4CF80E0BBC6CF93DF9386E090E0909388
:10080000800380937F030BD7EC01EDE0F3E084E0FD
:10081000DF011D928A95E9F70E94B40E10928003C1
:1008200010927F03CE01DF91CF91089580918103D3
:10083000089580916A0308956093140270931502DD
:10084000809316029093170290E080E008952F9213
:100850003F924F925F926F927F928F929F92AF9250
:10086000BF92CF92DF92EF92FF920F931F93CF939D
:10087000DF93CDB7DEB7CB54D1090FB6F894DEBF06
:100880000FBECDBF26967FAF6EAF269728965FAF7F
:100890004EAF28973E8B2D8B2C96FFAEEEAE2C974D
:1008A000FB01E150F04CEE0FFF1FEE0FFF1FE80FB2
:1008B000F91F80809180A280B3808F8A988EA98E44
:1008C000BA8EB501A401442777FD439555276627C5
:1008D000772729964FAF2997F901E150F04CEE0F99
:1008E000FF1FEE0FFF1F2896AEACBFAC2897EA0D96
:1008F000FB1DC080D180E280F380CB8EDC8EED8E3C
:10090000FE8EB701A601442777FD4395552766273C
:1009100077272A964FAF2A97188B0F87F80130E078
:1009200020E02C96EEACFFAC2C972E153F050CF476
:100930003FC022969FAF8EAF22971A8B098B312C26
:10094000212C812C912C540183948D829E82AF8224
:10095000B88626968EAC9FAC2697281439047CF175
:1009600029969FAC29972A96AFAC2A9730E020E0D1
:1009700041E050E060E070E09A10F5C1C55BDF4FE8
:100980000FB6F894DEBF0FBECDBFDF91CF911F91A0
:100990000F91FF90EF90DF90CF90BF90AF909F901E
:1009A0008F907F906F905F904F903F902F90089521
:1009B00011921192119211922F5F3F4FB2CF229656
:1009C000EEADFFAD229781919191A191B1912296C7
:1009D000FFAFEEAF22978F88988CA98CBA8CB7FEA8
:1009E00023C04D815E816F81788541505109610935
:1009F00071095A016B01A81AB90ACA0ADB0AD601A1
:100A0000C50121E0CD80DE80EF80F8848C159D0546
:100A1000AE05BF0508F020E0822E912CB12CA12C50
:100A20008D829E82AF82B8865D01CC24DD24A8A28F
:100A3000B9A2CAA2DBA29C01AD01442755272CA371
:100A40003DA34EA35FA32C96EEADFFAD2C97E2190C
:100A5000F3098D889E888E169F060CF4F401289663
:100A6000AEACBFAC28972496BFAEAEAE2497C98873
:100A7000DA88DC8ACB8A1E861D86812C912C540153
:100A8000839489869A86AB86BC86812C912C5401EE
:100A9000CD84DE84CE16DF0604F1F7FF02C0F0E05D
:100AA000E0E0E20DF31D2C96EEACFFAC2C97EE15BA
:100AB000FF0554F4EE0FFF1FEE0FFF1FE00FF11FB5
:100AC00080829182A282B3822FEF221A320AE989B0
:100AD000FA893496FA8BE98B3CCF2496AEADBFAD44
:100AE0002497CD90DD90ED90FD902496BFAFAEAFF2
:100AF00024972B8D3C8D4D8D5E8D57FF22C08985AF
:100B00009A85AB85BC850197A109B109AC01BD01EE
:100B10004C195D096E097F096A017B0181E0298515
:100B20003A854B855C85C216D306E406F50608F0C7
:100B300080E0482F50E070E060E049875A876B877B
:100B40007C87B7018827992768A779A78AA79BA7D9
:100B5000EE24FF2428A139A14AA15BA1C701B60157
:100B60000E949B312B013C012CA13DA14EA15FA114
:100B700068A579A58AA59BA50E949B316CA77DA736
:100B80008EA79FA7AB89BC894D915D916D917D9199
:100B9000BC8BAB8BDB01CA01880D991DAA1DBB1D47
:100BA00089839A83AB83BC8391E09F8F29813A81AB
:100BB0004B815C81281539054A055B0508F01F8EBD
:100BC0002CA13DA14EA15FA1C701B6010E949B319E
:100BD0006B017C0189809A80AB80BC808C0C9D1C51
:100BE000AE1CBF1C89829A82AB82BC8252019924BE
:100BF000882488AA99AAAAAABBAA29813A814B81EA
:100C00005C81280D391D4A1D5B1D2CAB3DAB4EABE5
:100C10005FAB8CA49DA4AEA4BFA4540199248824E6
:100C200088AE99AEAAAEBBAE280D391D4A1D5B1D1C
:100C30002CAF3DAF4EAF5FAFAB89BC8914972D93FE
:100C40003D934D935C93139728A139A14AA15BA1D1
:100C500068A579A58AA59BA50E949B319F8C690DEB
:100C6000711D811D911D230166247724460E571E98
:100C7000681E791E2CA53DA54EA55FA54A01AA2494
:100C8000BB24840C951CA61CB71C81E090E0A0E05E
:100C9000B0E049815A816B817C814C155D056E0500
:100CA0007F0518F080E090E0DC01880D991DAA1DF9
:100CB000BB1D41E050E060E070E088A899A8AAA8B8
:100CC000BBA8CCA8DDA8EEA8FFA8C814D904EA04E4
:100CD000FB0418F040E050E0BA01840F951FA61FF6
:100CE000B71F812C912C54018394C8ACD9ACEAACC9
:100CF000FBAC2CAD3DAD4EAD5FAD2C153D054E05AD
:100D00005F0518F0812C912C5401880E991EAA1EA3
:100D1000BB1E4D855E854F5F5F4F5E874D87B8CEAA
:100D2000EF85F889C190D190E190F190F88BEF8731
:100D3000DB01CA010197A109B1098C199D09AE090E
:100D4000BF09349780839183A283B383E1E0841742
:100D50009507A607B70708F0E0E04E2F50E070E0D7
:100D600060E02F5F3F4F2C968EAC9FAC2C972815E0
:100D70003905B4F203CE2F923F924F925F926F9259
:100D80007F928F929F92AF92BF92CF92DF92EF921B
:100D9000FF920F931F93CF93DF9379011B01DA0129
:100DA000D0E0C0E040E050E0BA01CE15DF059CF095
:100DB000DF91CF911F910F91FF90EF90DF90CF9037
:100DC000BF90AF909F908F907F906F905F904F906B
:100DD0003F902F900895FC0181909190A190B19047
:100DE000CF01F10101911191219131911F01240154
:100DF0003501401A510A620A730A93018201041BE9
:100E0000150B260B370B0D931D932D933D936624E5
:100E10006394712CC12CD12C452B462B472B39F0D8
:100E2000081519052A053B0538F4612C05C0801604
:100E30009106A206B306C8F7A301B6012196B5CF65
:100E40004F925F926F927F928F929F92AF92BF92DA
:100E5000CF92DF92EF92FF920F931F93CF93DF9386
:100E6000CDB7DEB760970FB6F894DEBF0FBECDBF2B
:100E7000C0900802D0900902E0900A02F0900B02A4
:100E8000A701960160910009709101098091020902
:100E9000909103090E94B529882341F0C09200096E
:100EA000D0920109E0920209F09203098091FF08B3
:100EB00081111092FF0863E479E0809104091ADB44
:100EC000C0900C02D0900D02E0900E02F0900F0244
:100ED000A70196016091F4087091F5088091F608D9
:100EE0009091F7080E94B529882341F0C092F40838
:100EF000D092F508E092F608F092F7088091F30896
:100F000081111092F3086FE379E08091F808F2DA2A
:100F10008091430990914409A0914509B0914609F7
:100F20008093370990933809A0933909B0933A090F
:100F300040913F09509140096091410970914209E7
:100F400040933B0950933C0960933D0970933E09DF
:100F5000409110025091110260911202709113029F
:100F600049875A876B877C878D879E87AF87B88B29
:100F700082E0E82EF12C8E010F5F1F4F21E030E060
:100F8000AE01435F5F4F61E070E0CE0109965FDC28
:100F900088E0F801A7E2B9E001900D928A95E1F7A7
:100FA00022E030E047E159E065E079E0C801E3DEA6
:100FB00080913B0990913C09A0913D09B0913E0977
:100FC0008D879E87AF87B88B21E030E0AE01435F0D
:100FD0005F4F61E070E0CE01099639DC88E0F801EE
:100FE000AFE2B9E001900D928A95E1F722E030E09E
:100FF0004FE159E06DE079E0C801BDDE88E0E7E24D
:10100000F9E0A5E0B9E001900D928A95E1F788E05A
:10101000EFE2F9E0ADE0B9E001900D928A95E1F7D9
:10102000C0903D03D0903E03E0903F03F09040031A
:101030008FEFC81AD80AE80AF80AC0923D03D09286
:101040003E03E0923F03F0924003C114D104E10457
:10105000F10499F48091410390914203A0914303DC
:10106000B09144030196A11DB11D8093410390935B
:101070004203A0934303B0934403809045039090B0
:101080004603A0904703B0904803609141037091DC
:10109000420380914303909144030E94E529A501F6
:1010A00094010E949B2A20E030E040E85FE40E9427
:1010B0009B2A2B013C01C701B6010E94E529A5012D
:1010C00094010E949B2A9B01AC01C301B2010E94C2
:1010D00051296093390370933A0380933B039093B3
:1010E0003C0360960FB6F894DEBF0FBECDBFDF9114
:1010F000CF911F910F91FF90EF90DF90CF90BF9015
:10110000AF909F908F907F906F905F904F900895D9
:10111000AF92BF92CF92DF92EF92FF921F93CF9345
:10112000DF93E3E2F3E08BE2DF011D928A95E9F7BA
:1011300080E090E0A0E8BFEB86A397A3A0A7B1A7AB
:101140008DEC9CECACE4BEE382A393A3A4A3B5A373
:1011500082EE9CEAAEE4BBE484839583A683B783E6
:101160008CEF93EEA3ECB1EE80879187A287B387D3
:101170008DEC9CECAAEFB6EC84879587A687B787A1
:1011800088ED95E7A2ECBCEB808B918BA28BB38BA7
:10119000A7E1B3E0B383A283E1E1F3E01196FC930E
:1011A000EE938DE492E09183808393838283958391
:1011B000848387E393E015969C938E93149787E23C
:1011C00093E013969C938E93129789E393E017967E
:1011D0009C938E931697E7E1F9E080E3DF011D927F
:1011E0008A95E9F7CDEED8E08AE2FE0111928A9560
:1011F000E9F711E019A780E0A82E82E0B82EF501EA
:1012000080859185A285B3858B8B9C8BAD8BBE8BA6
:10121000C12CD12C7601C394CD86DE86EF86F88A68
:1012200044E059E063E182E15CD8198B1A8A1B869D
:10123000188218A7F50184859585A685B7858F83C3
:101240009887A987BA87C982DA82EB82FC8248EF45
:1012500058E063E082E045D81D831E8288E0F501F6
:10126000A5E0B9E001900D928A95E1F788E0F501DB
:10127000ADE0B9E001900D928A95E1F78F894CD9E4
:101280008B85DF91CF911F91FF90EF90DF90CF90F2
:10129000BF90AF9041C98091F908811113C081E0DE
:1012A0008093F9088091FA089091FB08A091FC08BE
:1012B000B091FD080197A105B10521F48091FE08C8
:1012C000811137D98091ED08811113C081E080939D
:1012D000ED088091EE089091EF08A091F008B09190
:1012E000F1080197A105B10521F48091F20881115F
:1012F00020C908954F925F926F927F928F929F9232
:10130000AF92BF92CF92DF92EF92FF920F931F9313
:10131000F89440905A0350905B0360905C03709087
:101320005D03C0904E03D0904F03E0905003F090C7
:101330005103452B09F0A6C09B01AC0124193509C6
:101340004609570929013A010091560310915703A4
:10135000209158033091590348015901840C951C80
:10136000A61CB71C80169106A206B306A0F4009135
:1013700052031091530320915403309155030F5F92
:101380001F4F2F4F3F4F009352031093530320934F
:101390005403309355038092560390925703A092C2
:1013A0005803B092590300915203109153032091B6
:1013B00054033091550380925E0390925F03A09294
:1013C0006003B09261030093620310936303209360
:1013D00064033093650360935A0370935B038093B7
:1013E0005C0390935D03A301920160E47DE083E0E0
:1013F00090E00E949B316C0D7D1D8E1D9F1D6093A2
:101400004E0370934F0380935003909351030091C8
:1014100014021091150220911602309117020F3F0D
:101420001F4F2F4F3F4FF1F0009114021091150202
:1014300020911602309117020E3F1F4F2F4F3F4F42
:1014400089F0C0901402D0901502E0901602F0903E
:10145000170221E08C149D04AE04BF0408F420E0C0
:1014600020936A0378941F910F91FF90EF90DF9083
:10147000CF90BF90AF909F908F907F906F905F9034
:101480004F9008954B015C0184189508A608B70891
:10149000A3019201261B370B480B590B64157505E8
:1014A00086059705E0F082169306A406B50640F47B
:1014B00020E030E0A90181149104A104B104A1F459
:1014C00060E47DE083E090E00E949B31A7019601FB
:1014D000261B370B480B590BCA01B901C3CF821623
:1014E0009306A406B50660F7A501940160E47DE0CB
:1014F00083E090E00E949B316C0D7D1D8E1D9F1D31
:10150000B1CFF8CECF93DF9300D01F92CDB7DEB727
:101510001C821B821A821982109266031092670342
:101520001092680310926903BE016F5F7F4FCE0176
:1015300003960E947D2769817A818B819C810E941C
:101540006B20009761F4BE016F5F7F4FCE01039661
:101550000E94892769817A818B819C812ED50F9089
:101560000F900F900F90DF91CF910895FF920F93FE
:101570001F93CF93DF93082F60E070E0CB010E94B0
:101580003F2DFF24F3940E94541FEC01892B89F016
:1015900010E0CE3F8FEFD80769F0002361F160E0E3
:1015A00070E0CB010E943F2D81E090E0892B59F340
:1015B00022C011E025D5EC01892B21F0CE3F8FEF21
:1015C000D80759F711111EC011E0229609F410E056
:1015D0000E94041FEC01892B21F0CE3F8FEFD8072A
:1015E000E1F6111111C011E0CE3F8FEFD80709F4D9
:1015F00010E001110BC0CE01DF91CF911F910F912F
:10160000FF90089511E0E4CF11E0F3CF60E070E0C7
:10161000CB010E943F2D1F25812F90E0C7CFCF9394
:10162000DF9380916A03882321F060E070E0CB01B2
:101630004CD635D6D0E0C0E0892B71F06AE070E07E
:1016400080E090E00E943F2D81E090DF28D6219637
:10165000C03D27E0D20781F727D60E94BF20109215
:1016600082031092810310927B0310927C031092EC
:101670007D0310927E0310927703109278031092EC
:10168000790310927A0310927303109274031092EC
:1016900075031092760310926F03109270031092EC
:1016A00071031092720310926B0310926C031092EC
:1016B0006D0310926E034EEF5FEF6FEF7FEF40937D
:1016C0001402509315026093160270931702109241
:1016D0006A03EEE5F3E028E0DF011D922A95E9F7C1
:1016E00010925A0310925B0310925C0310925D03F8
:1016F00010925603109257031092580310925903F8
:1017000010925203109253031092540310925503F7
:1017100010924E0310924F031092500310925103F7
:10172000DF91CF91089510928E0310928F03109243
:1017300090031092910310928D03809196039091E3
:10174000970390938C0380938B0310928A031092DB
:1017500089031092850310928603109287031092DA
:101760008803109293031092920390E080E0089512
:10177000CF92DF92EF92FF920F931F93CF938C0142
:10178000892B09F055C020919603309197038091E1
:101790008B0390918C034091960350919703509343
:1017A0008C0340938B032817390781F010928A032A
:1017B000109289031092850310928603109287037A
:1017C00010928803109293031092920380919603D3
:1017D00090919703019761F5809192039091930303
:1017E000892B21F480911802811112C080919203FB
:1017F000909193030197E1F4809185039091860382
:10180000A0918703B09188030197A105B10581F4E8
:10181000109285031092860310928703109288031A
:101820001092180282E090E09093930380939203C9
:101830008091960390919703019709F01CC18091C4
:10184000AC039091AD038017910709F014C180910A
:10185000A8039091A903A091AA03B091AB030097AC
:1018600009F409C12091A70321110DC04091A803DB
:101870005091A9036091AA037091AB03452B462BAD
:10188000472B09F4F8C02091920330919303223042
:10189000310509F0F0C0209189032111ECC0FC0151
:1018A000C080D180E280F38080918D03882309F489
:1018B000D3C08091990390919A03892B09F4FDC0BC
:1018C0002091990330919A0381E02230310509F08B
:1018D00080E02091990330919A03C1E021303105D5
:1018E00049F02091990330919A03C1E022303105EB
:1018F00009F0C0E0882309F456C02091A303309179
:10190000A4034091A5035091A603C701B6010E940C
:10191000972A87FD14C02091A3033091A40340911E
:10192000A5035091A60360918E0370918F0380915F
:101930009003909191030E94B52987FD22C02091C8
:10194000A3033091A4034091A5035091A603C701BE
:10195000B6010E94972A181634F52091A3033091FE
:10196000A4034091A5035091A60360918E0370914A
:101970008F0380919003909191030E94B52981116A
:1019800012C080919B0390919C03A0919D03B09104
:101990009E03892B8A2B8B2B19F481E080938A0379
:1019A00081E080938903CC2309F456C02091A303DE
:1019B0003091A4034091A5035091A603C701B6013D
:1019C0000E94B52987FF14C02091A3033091A4037E
:1019D0004091A5035091A60360918E0370918F03EF
:1019E00080919003909191030E94972A87FF22C0D3
:1019F0002091A3033091A4034091A5035091A60325
:101A0000C701B6010E94B529811126C02091A30308
:101A10003091A4034091A5035091A60360918E03D9
:101A200070918F0380919003909191030E94972A67
:101A3000181694F480919B0390919C03A0919D03B0
:101A4000B0919E03892B8A2B8B2B19F481E0809314
:101A50008A0381E08093890381E090918903911149
:101A600080E080938D03C0928E03D0928F03E0922A
:101A70009003F0929103012B09F067C180919203CA
:101A800090919303892BD9F41092980310928903B3
:101A900080911802882379F082E090E0909393037C
:101AA000809392031092180220919603309197032D
:101AB00081E0232BE9F080E01BC081E00ACF109287
:101AC000180280919803882349F010928A0310929B
:101AD00093031092920310929803EDCF8091960396
:101AE00090919703892BE1F08091890310928903EB
:101AF00020919203309193032230310509F45EC0A6
:101B000088F42115310509F448C02130310509F464
:101B1000F3C010928A03109289031092980338C080
:101B200081E0E6CF2330310509F4B1C0243031051E
:101B300081F74091850350918603609187037091EE
:101B40008803411551056105710561F04150510946
:101B5000610971094093850350938603609387035D
:101B600070938803409185035091860360918703A9
:101B700070918803452B462B472BD9F42091940371
:101B8000309195032130310509F046C010928A0347
:101B900010929303109292030CC080911802882334
:101BA00041F082E090E0909393038093920310922F
:101BB00018021092830380918A03CEC08823C9F350
:101BC00080919B0390919C03A0919D03B0919E03F3
:101BD000181619061A061B060CF07DC08091960394
:101BE00090919703019709F076C080919B039091A3
:101BF0009C03A0919D03B0919E03809385039093D5
:101C00008603A0938703B093880383E090E09093CA
:101C1000930380939203CDCF40919F035091A003F3
:101C20006091A1037091A203452B462B472BA9F08D
:101C300010928A0380919F039091A003A091A10329
:101C4000B091A2038093850390938603A0938703AA
:101C5000B093880381E090E0DACF882399F08091F7
:101C6000190290911A02A0911B02B0911C0280935C
:101C7000850390938603A0938703B093880384E041
:101C800090E0C5CF10928A0382E090E0C0CF8091AF
:101C9000850390918603A0918703B09188030097F4
:101CA000A105B10559F00197A109B10980938503F8
:101CB00090938603A0938703B09388038091850354
:101CC00090918603A0918703B0918803892B8A2B7A
:101CD0008B2B09F06ECF8091190290911A02A0917E
:101CE0001B02B0911C02892B8A2B8B2B09F44ECF3F
:101CF00081E080938A03B3CF40918503509186039E
:101D00006091870370918803411551056105710544
:101D100061F0415051096109710940938503509365
:101D200086036093870370938803409185035091E5
:101D300086036091870370918803452B462B472BC0
:101D400009F037CF8111C7CF9FCF809183038823BC
:101D500009F431CF80918403CF911F910F91FF90AF
:101D6000EF90DF90CF90089510928E0310928F0322
:101D7000109290031092910310928D03109293038E
:101D80001092920310928C0310928B031092AD0369
:101D90001092AC0310928A0310928903109285036B
:101DA0001092860310928703109288031092840386
:101DB000109283031092A8031092A9031092AA0311
:101DC0001092AB031092A7031092A3031092A403E6
:101DD0001092A5031092A60388EE93E0A0E0B0E075
:101DE0008093190290931A02A0931B02B0931C02D5
:101DF00010929F031092A0031092A1031092A203CD
:101E000010929B0310929C0310929D0310929E03CC
:101E100010929A031092990381E080931802109215
:101E200098031092970310929603109295031092C4
:101E3000940390E080E00895809196039091970339
:101E4000892B19F580911802882351F0809198030D
:101E5000811106C081E080938403809383030895F9
:101E6000209198033091180281E090E0332311F023
:101E700090E080E030E082239323892B21F01092C0
:101E8000840381E0EACF10928303089582E090E01A
:101E9000FA01918380838FEF9FEF0895CF93DF93B3
:101EA000EA01009711F00E94DF211982188290E068
:101EB00080E0DF91CF910895DB01009719F48FEF57
:101EC0008C9308952EEF2C93FC013F96EF30F10593
:101ED00008F034C08827E059F04F8F4F0C94E03160
:101EE0009C0F9A0F980F960F940F900F920F8E0FD2
:101EF0008C0F8A0F870F830F7F0F850F9E0F80E354
:101F000011968C93089589E2FBCF82E2F9CF119666
:101F10001C92089583E2F4CF81E2F2CF81E1F0CF09
:101F200087E2EECF8AE2ECCF80E1EACF84E2E8CF2D
:101F300088E2E6CF86E2E4CF81E3E2CF80E2E0CF41
:101F40008091BA039091BB0308959093BB03809353
:101F5000BA0308958091B90308959091B903892B2C
:101F60008093B9030895982F90958091B9038923A0
:101F70008093B90308958091B80308958091B603C2
:101F80009091B70308956115710559F0FB0130E098
:101F900020E070E060E02417350719F06115710545
:101FA00011F0CB010895A081B181A817B90709F4F8
:101FB000BF012F5F3F4F3696EECF8091BC0381115A
:101FC0001CC060D266D29093AF038093AE030E9490
:101FD000DD190E94EF199093B3038093B2030E941E
:101FE0006C1E0E94731E9093B1038093B00381E036
:101FF0008093BC0390E080E0089584EF9FEF089504
:102000008F929F92AF92BF92CF92DF92EF92FF9208
:102010000F931F93CF93DF9300D000D000D01F9277
:10202000CDB7DEB71A86198618861F821E821D82DA
:102030001C821B821A8219828091BC0307EF1FEF5A
:10204000882309F49CC08E010D5F1F4F9E012B5FFA
:102050003F4FAE01495F5F4FBE01675F7F4F90E02A
:1020600080E00E94F01F8C01009721F005960297F6
:1020700008F0DBC029853A852115310509F402C134
:10208000ED80FE804B815C81B701640F751F8F81ED
:1020900098858617970708F4F5C0E20EF31ED7015E
:1020A0009C91903C09F07FC04230510508F47BC000
:1020B00011968C914091BA035091BB03452B09F4C2
:1020C0009CC0913F08F071C02CE1290F2D3008F41D
:1020D0008BC02DE2290F203108F489C0903C21F4F7
:1020E0008150823008F483C088E3890F8B3008F474
:1020F00081C09CE5C92E9FE0D92EE6E4FFE06D810A
:102100007E81AE014F5F5F4F89859A8519955C018D
:10211000C114D104A1F189809A808114910479F1CC
:102120008B819C818815990508F487C010E000E038
:102130004B815C8170E060E0C7010E940A320115AA
:102140001105E9F449815A8169857A858D819E81DD
:10215000680F791FC501F6011995E980FA800D8194
:102160001E812F81388549855A856FEF7FEF81E089
:1021700090E00E948B1F8C01892B09F056C0C8018A
:102180002A960FB6F894DEBF0FBECDBFDF91CF9178
:102190001F910F91FF90EF90DF90CF90BF90AF9085
:1021A0009F908F90089580E085CF30E020E0220F4F
:1021B000331FF901E255FC4F0190F081E02D30977B
:1021C00009F497CF892F90E01995009709F491CFE2
:1021D000DC011296ED91FC9113971496CD90DC9052
:1021E000309709F08CCF1FC021E030E0E0CF22E033
:1021F00030E0DDCF23E030E0DACFD12CC12CEEE4AB
:10220000FFE09F3F09F07BCFE091AE03F091AF0379
:10221000309721F4C90104EF1FEF0CC08FEF90E05D
:1022200019950097A9F604EF1FEF89859A85009705
:1022300009F4A5CF0E94DF21A2CF0E94BA208C0111
:1022400089859A850E94DF2170E060E0C4010E94C8
:10225000532098878F830E94881F9E838D836F8170
:1022600078856115710559F0C8010E946B239A8722
:10227000898706EF1FEF892B09F058CF59CF08EF58
:102280001FEF56CF08EF1FEFD0CF2091BC032223C2
:1022900019F020E00C94F41987EF9FEF08958091D6
:1022A000BA039091BB0308950E94781E0E94D21D2C
:1022B000F5D0EEEAF3E088E0DF011D928A95E9F7B8
:1022C0001092BC0390E080E008950C94301C21E053
:1022D00040E050E0BA010C94F41986E090E0FA0175
:1022E0009183808390E080E0089547E050E060E5CE
:1022F00072E049CEDF92EF92FF920F931F93CF933C
:10230000DF938A01EC01C60FD71FE090C003F09065
:10231000C103D9800E94A220D816190678F082E065
:1023200090E0F801918380838EEF9FEFDF91CF9152
:102330001F910F91FF90EF90DF900895EF2841F4E7
:1023400082E090E0F8019183808384EF9FEFEECFED
:1023500089818093BF0390E00196F8019183808387
:1023600090E080E0E3CFCF93DF93EA010E94E11C8D
:10237000882321F00E94AF200E94E21C82E090E0BE
:10238000998388838BEF9FEFDF91CF910895CF934F
:10239000DF93EB0186E0FB0111928A95E9F78FEF5D
:1023A0008883D8DD8983E7DD8A83E8DD9D838C839C
:1023B000DF91CF910895CF93DF93EA010E94E41C4F
:1023C000811109C082E090E09983888385EF9FEFB7
:1023D000DF91CF91089590E080E0B7DD81E090E05B
:1023E0009983888390E080E0F3CF0F931F93CF937E
:1023F000DF93EA018C01060F171F0E94E41C811174
:102400000BC082E090E09983888385EF9FEFDF9196
:10241000CF911F910F910895F8018181823038F09A
:1024200082E090E0998388838EEF9FEFF0CF81E088
:1024300090E08BDD88E090E09983888390E080E0F5
:10244000E6CFCF93DF930097D1F4EB01FB013296F7
:1024500086E0DF011D928A95E9F78FEF888385E09A
:1024600089831A820E94A2208B830E94A1209D83CF
:102470008C8381E08E838F83DF91CF910895DF91EC
:10248000CF911ACD85E791E19093BE038093BD0370
:1024900008958091BD039091BE0308951092BE03EC
:1024A0001092BD0308958091C0039091C1030895D7
:1024B000411105C0611571058105910561F06093B9
:1024C000C0037093C1038093C2039093C3034093EE
:1024D000C40381E0089580E00895FF920F931F9355
:1024E000CF93DF938A01EC01C60FD71FF9800E94BA
:1024F000A220F816190668F082E090E0F8019183B6
:1025000080838EEF9FEFDF91CF911F910F91FF900E
:1025100008956C817D818E819F814B81C9DF8111FE
:1025200008C082E090E0F8019183808384EF9FEF00
:10253000EACF89818093BF0390E00196F8019183EF
:10254000808390E080E0DFCFCF93DF93EA01FC014E
:10255000E60FF71F64817581868197814381A8DF2B
:10256000811109C082E090E09983888384EF9FEF16
:10257000DF91CF91089581E090E09983888390E086
:1025800080E0F6CFE0ECF3E040815181628173811D
:10259000480F511D611D711D4083518362837383F8
:1025A0000895CF93C091BF034C2F50E06091C003BA
:1025B0007091C10301960E9401328C2FE3DF1092CB
:1025C000BF03CF910895009799F48091C003909133
:1025D000C1032FEFFB012083892B59F02091BF030A
:1025E00030E02F5F3F4F2417350719F4CB01D9CFC7
:1025F00063CC0895009799F48091C0039091C10332
:102600002FEFFB012083892B59F02091BF0330E08D
:102610002F5F3F4F2417350719F4CB01C2CF4CCCA5
:10262000089523E1AC01249FC001259F900D112442
:10263000E091C903F091CA03E80FF91F23813481A7
:102640002250310981E02230310508F080E0089500
:102650000F931F93CF93DF930091CB031091CC0383
:10266000D0E0C0E080E00C171D0749F491E0811133
:1026700090E0892FDF91CF911F910F9108958111E3
:10268000F5CFCE01CEDF2196EECFA091C903B09158
:10269000CA03109729F12091CB033091CC03821704
:1026A0009307F0F453E1589F9001599F300D112486
:1026B000A20FB31FED91FC911197309789F01296FC
:1026C0008C91681768F48DE0689FE00DF11D11246E
:1026D00080819181892B21F081E09281491708F056
:1026E00080E008959C0143E1429FC001439F900D0B
:1026F0001124E091C903F091CA03E80FF91F838503
:10270000823091F481E090E06581768140911D02F4
:1027100050911E026417750711F490E080E0892B38
:1027200019F081E0232B09F080E00895FC01A081DD
:10273000B1818DE0689FA00DB11D112413964D91BC
:102740005C9185859685489F9001499F300D589FE3
:10275000300D1124C9010196611103C0478144FD68
:1027600004960895EF92FF920F931F93CF93DF93F8
:10277000EA01FC01E60FF71F02811381E480F58076
:102780004F2D6E2DC80181DF81110DC082E090E0D8
:10279000998388838EEF9FEFDF91CF911F910F91E7
:1027A000FF90EF900895C8013CDF882339F082E064
:1027B00090E09983888388EF9FEFEECF10932402F7
:1027C00000932302E0922502F092260281E090E03D
:1027D0009983888390E080E0DFCFCF92DF92EF9201
:1027E000FF920F931F93CF93DF937A01EC01C60FF3
:1027F000D71FC0902302D09024020091250210918F
:102800002602412F602FC60140DF811110C082E0F7
:1028100090E0F701918380838AEF9FEFDF91CF9162
:102820001F910F91FF90EF90DF90CF900895C60118
:10283000F8DE882341F082E090E0F7019183808305
:1028400088EF9FEFEBCF4C815D816E817F819A8114
:1028500089818F3F41F082E090E0F701918380838E
:102860008EEF9FEFDBCFE3E1EC9D9001ED9D300D0E
:102870001124E091C903F091CA03E20FF31F019004
:10288000F081E02D2DE0029FE00DF11D112401905B
:10289000F081E02D27E0129FE00DF11D11248083CF
:1028A00091838B81828343835483658376831F5F07
:1028B0001093260281E090E0F7019183808390E0FD
:1028C00080E0ACCFEF92FF920F931F93CF93DF93F3
:1028D0007A018C01060F171FC091C903D091CA035A
:1028E000209781F021E030E0F801828193814091CE
:1028F000CB035091CC038417950710F030E020E013
:10290000232B71F482E090E0F701918380838EEFB6
:102910009FEFDF91CF911F910F91FF90EF9008955E
:1029200043E1489F9001499F300D1124C20FD31FEE
:1029300078DE882341F082E090E0F7019183808384
:1029400088EF9FEFE6CFF8012481358120383105EB
:10295000C8F687818111D6CF4181842F90E08F7E88
:10296000009741F082E090E0F7019183808386EF49
:102970009FEFCFCF4F833E832D83268128871986F3
:10298000223010F421E0288721E030E0F701318384
:102990002083BFCF88E090E0FA019183808390E0AC
:1029A00080E00895FB018FEF808381E181838FEFC9
:1029B0009FEF9383828380E890E0958384831682DF
:1029C00017820895FB018FEF808391E091838283CA
:1029D0009383848384E3858381E090E09783868377
:1029E0000895DF92EF92FF920F931F93CF93DF939F
:1029F000EA01FC01E60FF71F8181813071F082E06E
:102A000090E0998388838FEF9FEFDF91CF911F91A3
:102A10000F91FF90EF90DF90089582819381D48091
:102A20002581E680F7800091C9031091CA03011542
:102A3000110539F482E090E0998388838CEF9FEF51
:102A4000E4CF4091CB035091CC038417950738F025
:102A500082E090E0998388838EEF9FEFD6CF892B19
:102A600039F082E090E09983888386EF9FEFCDCFA5
:102A70008D2D8D7FB1F72130A1F781E0D11006C0F7
:102A800091E0E916F10431F080E004C0E2E0EE16D6
:102A9000F104D0F3882329F390E080E0C2DD88239D
:102AA00039F082E090E09983888388EF9FEFADCF83
:102AB000F801D38681E08487F686E586108A17863A
:102AC00081E090E09983888390E080E09ECF4CE0A5
:102AD00050E06AE772E057CA8F929F92BF92CF92FE
:102AE000DF92EF92FF920F931F93CF93DF93EA0150
:102AF000FC01E60FF71F828193810481B580E0918C
:102B0000C903F091CA03309791F482E090E0998371
:102B100088838CEF9FEFDF91CF911F910F91FF90F2
:102B2000EF90DF90CF90BF909F908F90089520916D
:102B3000CB033091CC038217930738F082E090E00A
:102B4000998388838EEF9FEFE6CF23E1289F600172
:102B5000299FD00C1124EC0DFD1DE080F180E114C3
:102B6000F10499F28281081748F78DE0089F8001EF
:102B70001124E00EF11EF70180819181892B29F645
:102B8000BB20E1F2F7E0BF9E40011124C4010E9486
:102B9000A621F70191838083E091C903F091CA03D4
:102BA000EC0DFD1D0190F081E02DE00FF11F808103
:102BB0009181009739F482E090E0998388838DEFCA
:102BC0009FEFA9CFA40170E060E00E940A328091DB
:102BD000C9039091CA03C80ED91EF6018081918164
:102BE000080F191FF801B28281E090E09983888371
:102BF00090E080E090CFAF92BF92CF92DF92FF92B1
:102C00000F931F93CF93DF93EA01FC01E60FF71FA9
:102C100082819381F4800091C9031091CA03011548
:102C2000110581F482E090E0998388838CEF9FEF17
:102C3000DF91CF911F910F91FF90DF90CF90BF90C8
:102C4000AF9008952091CB033091CC038217930766
:102C500038F082E090E0998388838EEF9FEFE8CF91
:102C60002FEF2F0D2C3FA8F723E1289F6001299F0C
:102C7000D00C11240C0D1D1DF80180819181892B30
:102C800089F6FDE0FF9E50011124C5010E94A62196
:102C9000F80191838083E091C903F091CA03EC0DA0
:102CA000FD1D80819181009739F482E090E0998345
:102CB00088838DEF9FEFBCCFA50170E060E00E949C
:102CC0000A32E091C903F091CA03EC0DFD1DF282B6
:102CD00081E090E09983888390E080E0A9CFCF9253
:102CE000DF92EF92FF920F931F93CF93DF93860FA4
:102CF000971FFC01028113818091C9039091CA033F
:102D0000892B81F082E090E0FA01918380838CEF3F
:102D10009FEFDF91CF911F910F91FF90EF90DF9088
:102D2000CF900895C801B0E0A0E00197A109B109D2
:102D30008F3F9F4FA105B10540F082E090E0FA017E
:102D4000918380838EEF9FEFE4CF7A0183E1809FB0
:102D50006001819FD00C1124C6010E94A621EC01C4
:102D6000009741F482E090E0F701918380838DEF3A
:102D70009FEFCFCFA60170E060E00E940A32D093AF
:102D8000CA03C093C9031093CC030093CB0390E014
:102D900080E02FEF3FEF41E061E070E080179107A6
:102DA00041F481E090E0F7019183808390E080E03E
:102DB000B0CF3A8B298B1B864C877E876D87188A0C
:102DC0001F8601966396EACFEF92FF921F93CF93EF
:102DD000DF93EC0110E0F12CE12C6A811617B0F0C2
:102DE00083E0689FB0011124AE014F5E5F4FC701C1
:102DF0000E940B22009721F02FEF3FEF3A8B298B97
:102E0000DF91CF911F91FF90EF900895612FCE0138
:102E10008DDC61E070E00E945320E816F90608F4AA
:102E20007C011F5FDACFF8942091C7033091C8036B
:102E300081E02115310509F080E0232B09F0789419
:102E400008952F923F924F925F926F927F928F924E
:102E50009F92AF92BF92CF92DF92EF92FF920F9329
:102E60001F93CF93DF933C01660E771EF30182819F
:102E700093814C01B12CA12CC091C903D091CA03FC
:102E8000209769F021E030E06091CB037091CC0392
:102E90008617970710F030E020E0232BD1F482E072
:102EA00090E0FA01918380838EEF9FEFDF91CF91C5
:102EB0001F910F91FF90EF90DF90CF90BF90AF9058
:102EC0009F908F907F906F905F904F903F902F904A
:102ED00008958092270290922802A0922902B0922F
:102EE0002A0263E1689F9001699F300D1124C20F8F
:102EF000D31FF3018181833040F082E090E0FA013A
:102F00009183808386EF9FEFD1CF2A012B813C8173
:102F1000232BF1F4288139819F8191FF2EC0232B2F
:102F200009F46FC02091CE039A81422F490F552793
:102F3000551FBA0141E050E06138710514F050E0CE
:102F400040E0452B09F45DC02A87920F9093CE0391
:102F50008150823008F481C066DF882309F4D8C02C
:102F6000F3018181813009F48DC008F47BC0823087
:102F700009F4C6C090E080E0ADC0232B09F441C045
:102F80002091CD039A81E22FE90FFF27FF1F41E037
:102F900050E0ED3FF10514F050E040E0452B89F1A1
:102FA0002A87920F9093CD03D3CFA081B181A20F36
:102FB000B31F11966C91060F111D0196295F3F4FAB
:102FC0008417950794F38D859E85089F1001099FAE
:102FD000300C189F300C1124C114D104D1F48F810E
:102FE00084FF17C00E94A120F5E02F0E311C21E0C4
:102FF0008215930508F420E0A701435F5F4F21117C
:103000000EC082E090E0F2019183808387EF9FEF12
:103010004DCF0E94A1202FEF221A320AE8CF8881DB
:103020009981E80EF91EF70114830383FFEFCF1A8D
:10303000DF0A7A018A818C151D0409F00CF48CCF0B
:10304000E881F981EE0DFF1D428150E030E020E083
:1030500010E000E090E080E0B3CFF12CE12CD12C27
:10306000C12CE8CF81E090E09C838B83F1DA882348
:1030700009F480CF81E090E00E94A50F80E40E94D7
:10308000B30F78CF89899A89019661F083E090E047
:103090009C838B8382E090E00E94A50F80E40E94D5
:1030A000AD0F68CF8D819E8120911D0230911E024F
:1030B00082179307D1F46091210270912202AE0130
:1030C0004F5E5F4F80911F02909120020E942A2341
:1030D0000097E1F2789422E030E0F201318320831E
:1030E000892B99F08DEF9FEFE1CE89288A288B28D4
:1030F00069F6892B59F6CE0167DE188A1F86E8CF5C
:1031000082E090E09C838B8335CF90E080E0CECE50
:1031100082E090E0F2019183808385EF9FEFC6CE3D
:103120008F929F92AF92BF92CF92DF92EF92FF92D7
:103130000F931F93CF93DF93EA018C01060F171FA4
:10314000F8018181833098F082E090E09983888350
:1031500086EF9FEFDF91CF911F910F91FF90EF903E
:10316000DF90CF90BF90AF909F908F900895809107
:10317000C9039091CA03892B61F081E090E020910E
:10318000CB033091CC03232B11F490E080E0892B0A
:1031900039F482E090E0998388838EEF9FEFDACF55
:1031A00042DE882309F4DFC0F8018181813009F40F
:1031B00095C0E8F0823099F42091CB033091CC0394
:1031C000E091C903F091CA0390E080E041E050E053
:1031D0002817390709F0BDC03BDA811117C0789470
:1031E00081E090E09983888390E080E0B3CF2091E4
:1031F000CB033091CC03E091C903F091CA0390E076
:1032000080E041E050E02817390741F481E090E088
:103210000E94A50F80E40E94B30FE1CF6381748107
:10322000672B11F05483438301967396ECCFE091A2
:10323000C903F091CA03E00FF11F238134812230CA
:103240003105D9F4218932892F3F3F4FB1F42581CF
:10325000368140911D0250911E022417350761F5F9
:10326000AF014F5E5F4F6091210270912202809109
:103270001F02909120020E942A23EFEFCE1ADE0A4D
:10328000EE0AFE0A0D5E1F4F4091CB035091CC0316
:1032900070E060E0C416D506E606F7063CF5009738
:1032A00031F27894892B09F49BCF82E090E09983E6
:1032B00088838DEF9FEF4ECFC114D104E104F10458
:1032C000E1F6232BD1F6CF017FDDE091C903F09128
:1032D000CA03E00FF11F108A1786CFCF10E000E07D
:1032E00090E080E0C12CD12C7601CECF0097C9F6BA
:1032F00010E000E0812C912C540183E0E82EF12CA9
:103300001AC0E091C903F091CA03E00FF11F838155
:103310009481029749F4F482E38282E090E00E9473
:10332000A50F80E40E94AD0FFFEF8F1A9F0AAF0A2E
:10333000BF0A0D5E1F4F8091CB039091CC03B0E08C
:10334000A0E088169906AA06BB06DCF290E080E0B1
:10335000A8CF638174816230710511F45483438373
:103360000196739635CF82E090E09983888385EF4C
:103370009FEFF0CE0097B9F48FEFFB01808320918F
:1033800027023091280243E1429FC001439F900DE4
:103390001124E091C903F091CA03E80FF91F828557
:1033A000FB01818308950C945C0F88E090E0FA01A2
:1033B0009183808390E080E008951092C80310927A
:1033C000C703E9ECF3E086E0DF011D928A95E9F797
:1033D00087E695E19093C6038093C5030895809195
:1033E000C5039091C60308952F923F924F925F922A
:1033F0006F927F928F929F92AF92BF92CF92DF9205
:10340000EF92FF920F931F93CF93DF93CDB7DEB769
:103410002F970FB6F894DEBF0FBECDBFF894E091A2
:10342000C703F091C8033196F093C803E093C70334
:1034300078944090C9035090CA034114510409F490
:103440000CC2E091CB03F091CC03EF2B09F405C241
:103450002D8749875A876B877C8798878F831201CE
:10346000B12CA12C10E000E08091CB039091CC0313
:10347000A816B90618F40115110529F1F8948091E0
:10348000C7039091C80301979093C8038093C70323
:103490007894C8012F960FB6F894DEBF0FBECDBF4B
:1034A000DF91CF911F910F91FF90EF90DF90CF9020
:1034B000BF90AF909F908F907F906F905F904F9054
:1034C0003F902F9008957101E418F508D1011796E7
:1034D0008C91179781FD54C013968D919C911497F0
:1034E000039709F04DC015968D919C91EF81F88559
:1034F0008E179F0709F044C0B50190E080E07FD4AB
:103500008A832091C9033091CA033D832C833D8572
:10351000332309F44CC04C815D81452B09F49AC1D9
:103520008091CB039091CC03A816B90608F092C104
:10353000C501D8D88823E9F06C817D816E0D7F1D8F
:103540007D836C83DB011F968D919C91892B89F083
:10355000D12CC12CF12CE12CAC81BD8112968C9127
:1035600012978E151F0409F094F450961C921E9227
:103570001F972A81222321F0B50190E080E041D4F9
:103580003FEFA31AB30A43E1240E311C6DCFAC8187
:10359000BD81ED91FC91EC0DFD1D858196810FD7CC
:1035A000BFEFEB1AFB0AEDE0CE0ED11CD5CFEC81BC
:1035B000FD81309709F44EC18091CB039091CC03EB
:1035C000A816B90608F046C1EE0DFF1DFF87EE876D
:1035D000C50188D88B83882339F1AE85BF851F96B6
:1035E0008D919C915097019621E01D964D915C9193
:1035F0008417950709F020E02E831982712C10E0C2
:1036000000E0AE85BF8512968C91781608F45DC0F7
:10361000EE85FF85878590890196658576850E9470
:10362000AA31908B8787A5CFB1E0BE83E6CF9924DE
:1036300093946BC08BD6F6019683858382C0D601A6
:10364000ED90FC90B7E06B9EE00CF11C1124F701AB
:103650006381748180818F3F61F121E030E002C09D
:10366000220F331F8A95E2F7C901092E000CAA0B1D
:10367000BB0BFB01408151816281738184239523BF
:10368000A623B72321E0892B8A2B8B2B09F420E07A
:10369000D4012C93D70111968C91F60123853485A2
:1036A000820F932F911D880E991E148613866394A2
:1036B0009BC0418150E0C4010E940132EBCF99824E
:1036C00006EF1FEFC5C01982C3C0F981F111A0CF69
:1036D000EDE07E9E70011124AE85BF85CD90DC901B
:1036E000CE0CDF1C15D49D838C83BB81BB2309F4D6
:1036F0009ECF81E0EE85FF8527853089232B09F059
:1037000080E0982E882309F458C0672D8E859F8508
:103710000DD8D60118969C938E93179761E070E0B0
:10372000C2D4EE85FF85218932892F3F320709F403
:1037300081CFBC01C901CFD7D60116969C938E9339
:103740001597D60115968D919C911697009709F4BF
:10375000B6CFEC81FD818E0F9F1F1A969C938E939E
:103760001997AE85BF85ED91FC911197EE0EFF1E66
:10377000F70121853285148613861A968C91870D60
:10378000D9018D93711016C0EE85FF85878184FF66
:1037900011C049855A856B857C85F9014183528327
:1037A00063837483F701838594850496A80FB91FFA
:1037B00014861386F701B287A187D60115968D91DD
:1037C0009C911697892B09F443C0EE85FF852581CE
:1037D000368180911D0290911E022817390779F0D9
:1037E00019968D909C90612CD60112968C9112970F
:1037F000681608F424CF1A969C928E921997BE816F
:10380000BB2309F460CF61E070E0F6018781908509
:103810004AD4D6011796ED90FC90189715964D91C5
:103820005C91E1E0F0E0BA81BB2311F0F0E0E0E070
:103830000C811D819C01B501882799278E1B9F0B48
:103840006AD38C01892B21F0F60185819681B7D549
:103850007394D7CE0FEF1FEF8CCE10E000E00ECEAA
:103860002F923F924F925F926F927F928F929F9290
:10387000AF92BF92CF92DF92EF92FF920F931F937E
:10388000CF93DF938091C9039091CA0310E000E0C9
:10389000892BA9F0C8DA0AEF1FEF882381F0209066
:1038A000CB033090CC03C091C903D091CA03D12C73
:1038B000C12C10E000E02C143D04A9F47894C80158
:1038C000DF91CF911F910F91FF90EF90DF90CF90FC
:1038D000BF90AF909F908F907F906F905F904F9030
:1038E0003F902F900895C6010E947213882309F11A
:1038F0008B819C810397E9F48F859889892BC9F086
:10390000B60190E080E07BD221E030E0882311F026
:1039100030E020E044245524421A530AB12CA12C53
:10392000912C812C8A818815190409F038F4188AA1
:103930001F864FEFC41AD40A6396BDCFE881F98180
:10394000EA0DFB1D85819681892BA1F161E070E074
:1039500087819085A8D33C01DBD28C01E881F98175
:10396000EA0DFB1D8185928525813681200F311F4F
:10397000AC01421B530B9A0147815085421B530BEC
:1039800070E060E00E940A32E881F981EA0DFB1DD7
:10399000E780F084458156819301B601C201BBD214
:1039A0008C01892B39F0E881F981EA0DFB1D8581B5
:1039B000968105D55FEF851A950A8DE0A80EB11C9A
:1039C000B1CF31CA789408952F923F924F925F926F
:1039D0006F927F929F92AF92BF92CF92DF92EF92BF
:1039E000FF920F931F93CF93DF9300D000D0CDB7FA
:1039F000DEB70091C9031091CA039924939401156D
:103A0000110509F43EC0A090CB03B090CC030BDAB3
:103A1000982E8823B1F11092CA031092C903109214
:103A2000CC031092CB031092CD031092CE038FEFF4
:103A30009FEFDC018093270290932802A093290234
:103A4000B0932A0278947FD31E830D83C12CD12C8E
:103A50007601C501B0E0A0E089839A83AB83BC8383
:103A600022242A94322C89819A81AB81BC81C81688
:103A7000D906EA06FB06F4F0C801A1D480E40E944E
:103A8000B30F892D26960FB6F894DEBF0FBECDBFBB
:103A9000DF91CF911F910F91FF90EF90DF90CF902A
:103AA000BF90AF909F907F906F905F904F903F90AE
:103AB0002F900895AD81BE8115968D919C9116979A
:103AC00020911D0230911E0282179307D1F4519666
:103AD0008D919C91EED5ED81FE8180819181B12CFB
:103AE000A12C412C512C3201892B89F5BFEFCB1A27
:103AF000DB0AEB0AFB0AED81FE817396FE83ED8300
:103B0000B2CFC114D104E104F10429F7892B19F7CC
:103B1000ED81FE81818992898F3F980709F029D52F
:103B2000AD81BE8152963C922E925197D4CF8A0D90
:103B30009B1DDC018D919C91009709F040D4BFEF53
:103B40004B1A5B0A6B0A7B0AEDE0AE0EB11CAD812D
:103B5000BE818D919C91119712964C9150E070E02E
:103B600060E044165506660677060CF328D4BECFEF
:103B7000CF93DF93EA0128DF811109C082E090E052
:103B80009983888385EF9FEFDF91CF91089581E03E
:103B900090E00E94A50F81E090E09983888390E0F7
:103BA00080E0F2CF11DF1092C6031092C503089592
:103BB00042E050E062EC72E00C94C30FFF920F936E
:103BC0001F93CF93DF938A01EC01C60FD71FF980B3
:103BD000B9D20897F816190671F068F082E090E003
:103BE000F801918380838EEF9FEFDF91CF911F913A
:103BF0000F91FF9008956C817D818E819F814B8113
:103C00000E945812811108C082E090E0F80191836F
:103C1000808384EF9FEFE9CFF9800E9453124F2DEC
:103C200050E0BE01685F7F4F0E94013289810E948F
:103C3000C21281E090E0F8019183808390E080E0FF
:103C4000D4CFDF92EF92FF920F931F93CF93DF9326
:103C50008A01EC01C60FD71F0E9453127C01D98044
:103C600071D2DD2059F0029721E030E0D816190614
:103C700019F010F030E020E0232B79F482E090E09E
:103C8000F801918380838EEF9FEFDF91CF911F9199
:103C90000F91FF90EF90DF900895EF2841F482E0BC
:103CA00090E0F8019183808384EF9FEFEECFF9805D
:103CB0000E9453124F2D50E0BE016E5F7F4F0E9455
:103CC000013289810E94C21281E090E0F801918363
:103CD000808390E080E0D9CF88ED9DE19093D00380
:103CE0008093CF0308958091CF039091D0030895DE
:103CF0000895FC0111821082938382830895DB0171
:103D00001D921C92DC011296ED91FC911397718328
:103D1000608313967C936E9312970895FC018081C3
:103D20009181DB018D939C93A081B181109741F02B
:103D30008D919C9191838083892B11F4F383E2838D
:103D40000895FC0180819181DB018D939C93892BE7
:103D500011F473836283718360830895FC0111827F
:103D60001082938382830895CF93DF931F921F92D3
:103D7000CDB7DEB71A821982F894BE016F5F7F4F0C
:103D800086ED93E0CBDF89819A81009709F017D304
:103D900089819A81892B89F7BE016F5F7F4F8AEDF8
:103DA00093E0BCDF89819A81009709F008D389816B
:103DB0009A81892B89F778940F900F90DF91CF919A
:103DC0000895CF93DF931F921F92CDB7DEB71A826B
:103DD0001982F894BE016F5F7F4F82ED93E09EDF02
:103DE00089819A81009709F0EAD289819A81892B89
:103DF00089F778940F900F90DF91CF91089581E02B
:103E0000089590E080E00895EF92FF920F931F9342
:103E1000CF93DF931F921F92CDB7DEB71A8219821C
:103E20008091D10307EF1FEF8823A1F1F894BE0121
:103E30006F5F7F4F8AED93E071DF789489819A817B
:103E4000EE24E394F12C892B51F4F894BE016F5FBA
:103E50007F4F86ED93E062DF7894F12CE12C89812D
:103E60009A810EEF1FEF0097A9F0FC014281538168
:103E700064E070E076D68C01892B61F0F89469815A
:103E80007A81C701880F991F880F991F8A529C4F0A
:103E900058DF7894C8010F900F90DF91CF911F9158
:103EA0000F91FF90EF9008950F931F93CF93DF939F
:103EB00000D01F92CDB7DEB71C821B821A821982F6
:103EC0008091D10307EF1FEF8823C1F0AE014D5F52
:103ED0005F4F64E070E0CE010196B6D68C01892B6D
:103EE00069F4E981FA818B819C8193838283F894C0
:103EF00069817A8182ED93E002DF7894C8010F90A6
:103F00000F900F900F90DF91CF911F910F91089517
:103F1000BBD7049608958F929F92AF92BF92CF9293
:103F2000DF92EF92FF920F931F93CF93DF931F9235
:103F30001F92CDB7DEB71A821982BC016F5F7F4F27
:103F40006330710598F0AA24AA94BA2CC5010F9089
:103F50000F90DF91CF911F910F91FF90EF90DF9025
:103F6000CF90BF90AF909F908F90089541155105CD
:103F700051F3480159018A016C01CADF881599057E
:103F800011F7E114F104F9F28E0D9F1DA816B90680
:103F9000D0F28091D1038823F1F0F894B5016450F8
:103FA00071099701AE014F5F5F4FC8010496E1D6DA
:103FB0005C01892B71F489819A81F8019383828352
:103FC000C601880F991F880F991FB8018A529C4F0C
:103FD00096DE7894BBCF87EFA82EBB24BA94B6CFD9
:103FE000AF92BF92CF92DF92EF92FF920F931F9307
:103FF000CF93DF931F921F92CDB7DEB71A8219823B
:10400000892B09F047C06115710509F443C04115BA
:10401000510509F43FC02115310509F43BC00115D4
:104020001105C1F18091D1038823B9F179016A01A9
:104030005B01F894BE016F5F7F4F82ED93E06EDE0F
:10404000789489819A81009759F1DC0112966D91DB
:104050007C91A8010496A6D68C01E981FA81D5014C
:10406000ED93FC93828193810496F6019183808382
:104070004FDFD7018D939C93C8010F900F90DF9174
:10408000CF911F910F91FF90EF90DF90CF90BF9055
:10409000AF9008950FEF1FEFEFCF07EF1FEFECCFBB
:1040A0000EEF1FEFE9CFCF93DF93EC01672B71F495
:1040B000F4D68C179D0760F0E7D62496C80FD91F59
:1040C000E6D68C0F9D1FDF91CF910895E3D6F1CFF7
:1040D00090E080E0F8CF0F931F93CF93DF93209170
:1040E000D10321112BC08B01EC0186ED93E001DEA1
:1040F0008AED93E0FEDD82ED93E0FBDD97D0009743
:10410000C1F4CBD670E060E0CEDF4BE252E062E07B
:1041100070E081D1009769F480912B0290912C027C
:10412000CED6B801CE0103D5009719F421E0209333
:10413000D103DF91CF911F910F91089584EF9FEFED
:10414000F8CFA8C6AAC6CF93DF93AAD6EC01892BD5
:1041500011F40ADE36DECE01DF91CF910895CF93C0
:10416000DF939ED6EC01892B09F4FEDDCE01DF91B1
:10417000CF91089580912B0290912C020895CF93B6
:10418000DF938091D103D0E0C0E08823D1F09CD6AA
:10419000EC01892BB1F4E8DD14DE80912B029091C3
:1041A0002C02E7D1E8D2EC01892B59F486ED93E09B
:1041B000D5DD8AED93E0D2DD82ED93E0CFDD109284
:1041C000D103CE01DF91CF910895EF92FF920F932B
:1041D0001F93CF93DF93EC017A018B010F5F1F4F89
:1041E0000E9DA0010F9D500D1E9D500D112470E0DD
:1041F00060E00E940A3290E080E0F0E0E0E02FEF23
:10420000E816F90639F4DF91CF911F910F91FF90D5
:10421000EF9008951A8219822883309711F0D28383
:10422000C1830196FE01C00FD11FEACFCF92DF926A
:10423000EF92FF920F931F93CF93DF930BEB15E059
:104240000C7F43E050E06DE272E083E392E01CD427
:104250008DE2E82E82E0F82E93E3C92E92E0D92E6B
:10426000C2E3D6E0D7014D915D917D01F6016191E8
:1042700071916F01198308835D834C835B834A834B
:104280007F836E839B012F5F3F4F249FC001259F3B
:10429000900D349F900D1124998788870115110581
:1042A00011F0C80192DF88859985080F191F2A9699
:1042B000F3E3EF16F2E0FF06A9F6E0EEF3E088ED97
:1042C00091E0DF019C011D9221503040E1F71092F6
:1042D000DF031092DE0310925106109250061092E6
:1042E00055061092540610925306109252061092E0
:1042F00057061092560610925906109258061092C0
:104300005B0610925A0610925F0610925E0610929B
:104310005D0610925C061092610610926006109283
:1043200063061092620610922F0610922E061092CB
:1043300031061092300690E080E0DF91CF911F911E
:104340000F91FF90EF90DF90CF9008950097F1F0DC
:10435000F894A3E3B2E0E2E3F6E030E020E04D9130
:104360005D9148175907A8F04281538141155105C5
:1043700081F08AE0829FF001839FF00D1124EE5CB2
:10438000F94F80819181009759F4789490E080E012
:1043900008952F5F3F4F3A962330310501F7F5CF4F
:1043A000DC0111966D917C917183608341505109BC
:1043B00053834283FC012193CF01789408950097A1
:1043C00049F1DC018E91853041F4E0913006F091A5
:1043D00031063097F9F0CD0119948530D8F4282FA3
:1043E00030E0F8948FEF8C938AE0829FF001839FF6
:1043F000F00D1124EE5CF94F8081918112969C930F
:104400008E931197B183A0838281938101969383C8
:10441000828378940895CF92DF92EF92FF920F9368
:104420001F93CF93DF939C0183EE93E08C7F411524
:10443000510509F49BC02115310509F497C0611598
:10444000710509F493C07A01AB01B9016D5F7F4F2B
:104450006C7F9B012F5F3F4F249F8001259F100D94
:10446000349F100D1124F89420915006309151067C
:10447000232B59F420915806309159062115310506
:1044800069F12017310708F058C020915A06309181
:104490005B06232B91F42091580630915906820F28
:1044A000931F20916206309163062115310509F4AE
:1044B00041C02017310708F056C07894CFEFDFEFE6
:1044C00086EF9FEFF701D183C083DF91CF911F91DA
:1044D0000F91FF90EF90DF90CF900895C3E0D0E070
:1044E000C090DE03D090DF0325ED31E02C193D09AB
:1044F0002017310710F32AE02C9FF0012D9FF00DBB
:104500001124EE5CF94F9183808355834483538358
:1045100042837783668311870087009709F055DE11
:104520000C0D1D1D1093DF030093DE03789490E0C3
:1045300080E0C8CFC4E0D0E0D3CFC3E0D0E02AE031
:104540002C9FF0012D9FF00D1124EE5CF94F91830B
:1045500080835583448353834283778366830097A4
:1045600029F333DEE3CFC4E0D0E0E9CF8FEF9FEF54
:10457000ACCF9C010397029708F069C0F89484E0DF
:104580009AE0482F50E0241735070CF44DC091E015
:104590008AE0829FF001839FF00D1124EE5CF94FB9
:1045A000118210821582148213821282178216825F
:1045B0009923B1F18091500690915106892BA9F46D
:1045C00020915806309159062115310571F08091DE
:1045D000DE039091DF03821B930B9093DF038093A4
:1045E000DE03109259061092580680915A06909157
:1045F0005B06892BA9F42091620630916306211590
:10460000310571F08091DE039091DF03821B930BE3
:104610009093DF038093DE0310926306109262068C
:10462000789490E080E00895949FF001959FF00DBC
:104630001124EE5CF94F40815181452B31F44085C6
:104640005185452B11F481509CCF90E0A1CF8FEF85
:104650009FEF08954115510549F1009739F1611512
:10466000710521F1F89420912E0630912F06232B0D
:10467000B9F42091300630913106232B89F49093C0
:104680002F0680932E06709331066093300678943F
:1046900025E030E090E080E0FA0131832083089546
:1046A00078942FEF3FEF86EF9FEFF6CF8FEF9FEFDE
:1046B0000895059769F4F89410922F0610922E062B
:1046C0001092310610923006789490E080E00895C0
:1046D0008FEF9FEF08956115710519F4F0E0E0E0A8
:1046E00011C08530910581F4E0912E06F0912F06DE
:1046F0003097A1F3CB0101961995009779F3FC014E
:1047000085E08193CF0108959C0123503109223027
:10471000310520F72AE0289FD001299FB00D1124F0
:10472000AE5CB94F2D913C911197232BB9F216969F
:104730002D913C9117972617370780F2F89412961F
:104740002D913C9113972115310529F0ED91FC91A4
:104750001197309711F47894C1CF4181528111960D
:104760005C934E932150310913963C932E931297EC
:1047700081937894C7CFE8EBF5E086E7DF011D92DF
:104780008A95E9F7E0EEF3E088ED91E0DF019C0126
:104790001D9221503040E1F71092DF031092DE03AA
:1047A000E2E3F6E082E3DF011D928A95E9F7EEE2AB
:1047B000F6E084E0DF011D928A95E9F790E080E061
:1047C0000895CF93DF93C0913902D0913A02CF3F41
:1047D000DC0759F422D490933A028093390297FF70
:1047E00009C0D0933A02C093390284EF9FEFDF9162
:1047F000CF91089590E080E0FACF8230910528F4BF
:104800008093640690E080E008958FEF9FEF089515
:104810004F925F926F927F92AF92BF92CF92DF9250
:10482000EF92FF920F931F93CF93DF931F921F92EC
:10483000CDB7DEB71A821982009709F479C06115E5
:10484000710509F475C02091390230913A0207EFE1
:104850001FEF2F3F3F4F09F445C06B015C01412C16
:10486000512C3201F12CE12C10E000E09E012F5F71
:104870003F4FA6014E195F09B5016E0D7F1D809156
:10488000390290913A0228D4892B09F04BC08981D2
:104890009A81009741F4E114F10429F4209164060F
:1048A000222309F442C0E80EF91EEC14FD04D0F4F2
:1048B00080E8481684E858068EE16806710420F501
:1048C00060E070E0CB010E943F2D2AE0420E511CB7
:1048D000611C711C0A3F4FEF140721F0043F8FEF5A
:1048E0001807A1F4C8010F900F90DF91CF911F918D
:1048F0000F91FF90EF90DF90CF90BF90AF907F909F
:104900006F905F904F90089501EF1FEF81E090E06E
:10491000013F2FEF120711F090E080E0892B09F49E
:10492000A5CFE0CF04EF1FEFDDCF0AEF1FEFDACF07
:104930000FEF1FEFD7CF4F925F926F927F92AF92A0
:10494000BF92CF92DF92EF92FF920F931F93CF937C
:10495000DF931F921F92CDB7DEB71A82198200979C
:1049600009F479C06115710509F475C02091390207
:1049700030913A0207EF1FEF2F3F3F4F09F445C038
:104980006B015C01412C512C3201F12CE12C10E027
:1049900000E09E012F5F3F4FA6014E195F09B50150
:1049A0006E0D7F1D8091390290913A024BD3892B75
:1049B00009F04BC089819A81009741F4E114F10418
:1049C00029F420916406222309F442C0E80EF91E5E
:1049D000EC14FD04D0F480E4481682E458068FE01D
:1049E0006806710420F560E070E0CB010E943F2D65
:1049F0002AE0420E511C611C711C0E3F4FEF140740
:104A000021F0043F8FEF1807A1F4C8010F900F9019
:104A1000DF91CF911F910F91FF90EF90DF90CF909A
:104A2000BF90AF907F906F905F904F90089502EF8E
:104A30001FEF81E090E0023F2FEF120711F090E0AE
:104A400080E0892B09F4A5CFE0CF04EF1FEFDDCF85
:104A50000EEF1FEFDACF0FEF1FEFD7CF80913902A4
:104A600090913A028F3F980749F0CFD2892B49F4B1
:104A70008FEF9FEF90933A028093390290E080E0AD
:104A8000089584EF9FEF0895CF92DF92EF92FF9207
:104A90000F931F93CF93DF9321E04115510509F048
:104AA00020E04150510921112CC0DC01FB01D12C27
:104AB000C12C21E022C03FEFC31AD30A7D010D9122
:104AC0001D91E701EA80FB80E016F106A8F4208141
:104AD0003181E280F380F182E08233832283ED90A2
:104AE000FC9011979D0122503109E901F982E88279
:104AF00011961C930E9320E03296C416D506D8F278
:104B0000D2CFDF91CF911F910F91FF90EF90DF9067
:104B1000CF900895FC01680F791F90E080E0E617C0
:104B2000F70709F408952191820F911DF8CF209184
:104B30006506211113C045DE009791F410926B06B3
:104B400010926A0610926906109268061092670623
:104B50001092660621E020936506089584EF9FEF8A
:104B60000895AF92BF92CF92DF92EF92FF920F9390
:104B70001F93CF93DF93009709F460C0463051052F
:104B800008F45CC020916506C7EFDFEF222309F42B
:104B900049C08C01060F171FF801C080D180C114D5
:104BA000D10409F44EC096012A5F3F4F42175307C4
:104BB00008F447C07C0180916A0690916B0693834C
:104BC0008283B6016C5F7F4F5801A60EB71EC801E5
:104BD000A1DFF5019183808364E070E0C80118DEF5
:104BE000EC01892BF9F481E090E007DEB601C80101
:104BF00004960EDEEC01892B91F462E070E0C501B1
:104C000007DEEC01892B59F4C701D9DB80916A06D4
:104C100090916B06019690936B0680936A0690E0E4
:104C200080E0EBDDCE01DF91CF911F910F91FF90DE
:104C3000EF90DF90CF90BF90AF900895CFEFDFEF70
:104C4000F1CFC9EFDFEFEECF6F927F928F929F92FD
:104C5000AF92BF92CF92DF92EF92FF920F931F938A
:104C6000CF93DF9300D01F92CDB7DEB7009709F442
:104C70007AC04115510509F476C02091650607EF09
:104C80001FEF222309F44DC03A017B015C0164E06F
:104C900070E0CE0101964FDE8C01892B09F041C0F6
:104CA00009811A810115110509F45AC0480186E0ED
:104CB000880E911CB701680D791D80913B0290917F
:104CC0003C0209DD6C01009709F450C0A70170E0B7
:104CD00060E00E940A3289819A81AB81BC81EC0C30
:104CE000FD1CF70181939193A193B1937F0181E022
:104CF00090E083DDB801C7011EDE892B31F562E04B
:104D000070E0C701800F911F16DE8C01892BE9F43A
:104D100090E080E072DDF501D182C082F3019182E2
:104D20008082C8010F900F900F900F90DF91CF916C
:104D30001F910F91FF90EF90DF90CF90BF90AF90B9
:104D40009F908F907F906F90089590E080E055DD68
:104D5000F50111821082F30111821082C6012FDB4E
:104D600009EF1FEFDECF0FEF1FEFDBCF06EF1FEFD7
:104D7000D8CF0097A1F04115510589F021153105D3
:104D800071F0F90136966E177F0748F0DC012D931C
:104D90003C93DA01ED93FC9390E080E008958FEF6F
:104DA0009FEF0895AF92BF92CF92DF92EF92FF9262
:104DB0000F931F93CF93DF93009709F45FC04115C2
:104DC000510509F45BC06530710508F457C02091A6
:104DD0006506C7EFDFEF222391F1DC01CD90DC9077
:104DE00011971296ED91FC9196012A5F3F4FC9EF02
:104DF000DFEF2617370719F5C0916606D0916706D1
:104E0000209749F521E030E030936706209366064D
:104E10007A018C01F0936906E09368065601B4E0CC
:104E2000AB0EB11CB50176DE0A0D1B1DF801208109
:104E300031818217930729F5D701CD92DC92CE01FB
:104E4000DF91CF911F910F91FF90EF90DF90CF9066
:104E5000BF90AF90089520916806309169062F5F4A
:104E60003F4FCCEFDFEFE217F30790F2CBEFDFEF2E
:104E70002E173F0768F2D0E0C0E0CACFCFEFDFEFD8
:104E8000DECFC3EFDFEFDBCF84E090E0089582E078
:104E900090E008958CEF9FEF089580E290E00895F0
:104EA00010926B0610926A061092690610926806BC
:104EB000109267061092660690E080E00895909345
:104EC0003C0280933B02089580916506882391F00F
:104ED000C5DD009789F410926B0610926A06109255
:104EE0006906109268061092670610926606109284
:104EF0006506089590E080E00895009749F06115F7
:104F0000710531F0FC0111821082FB0111821082C7
:104F10000895F3CF26E030E040E855E260E070E02D
:104F200090E080E000C08130910569F01CF4892B8D
:104F300039F008958230910549F0039751F00895B2
:104F400089E796E03AC786E197E0FCCF83EB97E0EC
:104F5000F9CF80E598E0F6CF1F920F920FB60F922F
:104F600011240BB60F922F933F934F935F936F9340
:104F70007F938F939F93AF93BF93EF93FF938BECAC
:104F800093EF9093250180932401BAD0FF91EF9184
:104F9000BF91AF919F918F917F916F915F914F9151
:104FA0003F912F910F900BBE0F900FBE0F901F904F
:104FB00018958BEC93EF9093250180932401A3E740
:104FC000B0E08C918E7F8C93E0E2F1E080818C7F69
:104FD0008083E1E2F1E08081877E8083808185604B
:104FE000808380818D7F80838C9181608C930895F4
:104FF000E3E7F0E0808190819E7F90838170089547
:1050000081E0089510926C06089568EE73E080E0E8
:1050100090E035D590E080E0089526E030E040E073
:1050200050E16EE070E090E080E07DDF89E796E09F
:10503000FAD5892B21F089E796E00FD6F7CF90E0DB
:1050400080E00895CF92DF92EF92FF920F931F932B
:10505000CF93DF936B017A01E9011982188289E706
:1050600096E0E1D5892B69F18601CC24C39482E0D6
:10507000D82E80916C06811110C089E796E0EDD59D
:105080000297B9F7C0926C06F801D1928F0188811E
:105090009981019699838883ECCF888199818E15B7
:1050A0009F0578F489E796E0D8D58F3F9807A9F354
:1050B000F80181938F018881998101969983888372
:1050C000ECCF90E080E0DF91CF911F910F91FF90A6
:1050D000EF90DF90CF9008950F931F93CF93DF93BE
:1050E000EA01890189E796E00E946D31F801D183D8
:1050F000C08390E080E0DF91CF911F910F910895E0
:10510000CF92DF92EF92FF92CF93DF9380916D0663
:1051100091E0980F90936D06882379F021E030E0BC
:1051200030936F0620936E0680936D06DF91CF91CA
:10513000FF90EF90DF90CF9008957894C0914E0249
:10514000D0914F026E8D7F8D88A199A13ED120E034
:1051500030E040E85FE4EFD16B017C016A8D7B8D2C
:105160008C8D9D8D32D19B01AC01C701B60199D0C8
:1051700000D16B017C010E942007B701A60190E0DD
:1051800080E00E949903F89480916D068150CCCF05
:105190000F931F93CF93DF93109248091092470902
:1051A000A4D4B8DEC0914E02D0914F021982188269
:1051B0006FEF7FEFCB010E941C0470E060E090E095
:1051C00080E00E949C02009709F03AC00E94880883
:1051D000F8947894BE016A5D7F4F8A819B810E941A
:1051E0009F02892B59F46FEF7FEFCB010E942F03B1
:1051F0000E941604882311F081E08AA7F894D9DE72
:105200000E941904882311F080E008C00E9416044F
:105210008111FACF81E09AA59111F6CF80934709C9
:1052200078940E94A00F8C01789480914709811195
:105230000CC00E944B090E94FB03F89490E080E0B0
:10524000DF91CF911F910F9108950E94F9030E9461
:1052500019048823D9F081E0809348099091480986
:1052600081E0911180E08093470980914809811184
:10527000BFDE0130110529F40E94A00F892B09F42B
:10528000C1DE0E94A00F8C01BBDECFCF0E941604AE
:105290008111E1CF81E09AA59111DECF80E0DCCFD2
:1052A0005058BB27AA270ED008C1F9D030F0FED045
:1052B00020F031F49F3F11F41EF4EEC00EF4E0959F
:1052C000E7FBE4C0E92F0AD180F3BA17620773073E
:1052D0008407950718F071F49EF522C10EF4E0954D
:1052E0000B2EBA2FA02D0B01B90190010C01CA01A0
:1052F000A0011124FF27591B99F0593F50F4503E4B
:1053000068F11A16F040A22F232F342F4427585F3C
:10531000F3CF469537952795A795F0405395C9F754
:105320007EF41F16BA0B620B730B840BBAF091500C
:10533000A1F0FF0FBB1F661F771F881FC2F70EC0AB
:10534000BA0F621F731F841F48F48795779567957E
:10535000B795F7959E3F08F0B3CF9395880F08F067
:105360009927EE0F9795879508956CD008F481E002
:105370000895BCD088F09F5790F0B92F9927B75166
:10538000A0F0D1F0660F771F881F991F1AF0BA9509
:10539000C9F712C0B13081F0C3D0B1E00895C0C0E8
:1053A000672F782F8827B85F39F0B93FCCF38695FF
:1053B00077956795B395D9F73EF49095809570955C
:1053C00061957F4F8F4F9F4F0895E89409C097FBD9
:1053D0003EF490958095709561957F4F8F4F9F4FCC
:1053E0009923A9F0F92F96E9BB279395F695879510
:1053F00077956795B795F111F8CFFAF4BB0F11F4D3
:1054000060FF1BC06F5F7F4F8F4F9F4F16C0882379
:1054100011F096E911C0772321F09EE8872F762FAF
:1054200005C0662371F096E8862F70E060E02AF0F0
:105430009A95660F771F881FDAF7880F96958795DC
:1054400097F90895990F0008550FAA0BE0E8FEEFB1
:1054500016161706E807F907C0F012161306E40738
:10546000F50798F0621B730B840B950B39F40A2631
:1054700061F0232B242B252B21F408950A2609F40F
:10548000A140A6958FEF811D811D089597F99F6713
:1054900080E870E060E008959FEF80EC08950024BC
:1054A0000A941616170618060906089500240A9489
:1054B00012161306140605060895092E0394000C0F
:1054C00011F4882352F0BB0F40F4BF2B11F460FF9E
:1054D00004C06F5F7F4F8F4F9F4F089557FD9058C7
:1054E000440F551F59F05F3F71F04795880F97FBA8
:1054F000991F61F09F3F79F0879508951216130662
:105500001406551FF2CF4695F1DF08C01616170690
:105510001806991FF1CF86957105610508940895C5
:10552000E894BB2766277727CB0197F908958ADF90
:1055300008F48FEF08950BD0C0CFB1DF28F0B6DFAD
:1055400018F0952309F0A2CFA7CF1124EACFC6DF28
:10555000A0F3959FD1F3950F50E0551F629FF00186
:10556000729FBB27F00DB11D639FAA27F00DB11DDF
:10557000AA1F649F6627B00DA11D661F829F222768
:10558000B00DA11D621F739FB00DA11D621F839FEF
:10559000A00D611D221F749F3327A00D611D231FC5
:1055A000849F600D211D822F762F6A2F11249F5713
:1055B00050408AF0E1F088234AF0EE0FFF1FBB1F36
:1055C000661F771F881F91505040A9F79E3F5105D5
:1055D00070F05CCFA6CF5F3FECF3983EDCF386958E
:1055E00077956795B795F795E7959F5FC1F7FE2B80
:1055F000880F911D9695879597F90895089588309D
:1056000008F075C0E82FF0E0EE0FFF1FE35CFD4FE0
:10561000718360838150873008F03CC0E82FF0E050
:105620008827EB5EF44D8F4FCBC6522B1C2B242BBF
:10563000302B3D2B5E2B6B2B809169008C7F482B90
:1056400040936900E89A089580916900837F440F30
:10565000551F440F551F482B40936900E99A089540
:10566000809169008F7C74E0440F551F7A95E1F7B3
:10567000482B40936900EA9A0895809169008F73DE
:1056800066E0440F551F6A95E1F7482B4093690087
:10569000EB9A089580916A008C7F482B40936A00B2
:1056A000EC9A089580916A00837F440F551F440F40
:1056B000551F482B40936A00ED9A089580916A0027
:1056C0008F7C24E0440F551F2A95E1F7482B409327
:1056D0006A00EE9A089580916A008F7396E0440FF5
:1056E000551F9A95E1F7482B40936A00EF9A089569
:1056F0001F920F920FB60F9211240BB60F922F9399
:105700003F934F935F936F937F938F939F93AF9349
:10571000BF93EF93FF93E0914102F09142021995FC
:10572000FF91EF91BF91AF919F918F917F916F9179
:105730005F914F913F912F910F900BBE0F900FBE35
:105740000F901F9018951F920F920FB60F92112471
:105750000BB60F922F933F934F935F936F937F936B
:105760008F939F93AF93BF93EF93FF93E091430287
:10577000F09144021995FF91EF91BF91AF919F91E4
:105780008F917F916F915F914F913F912F910F90EA
:105790000BBE0F900FBE0F901F9018951F920F9287
:1057A0000FB60F9211240BB60F922F933F934F9386
:1057B0005F936F937F938F939F93AF93BF93EF9379
:1057C000FF93E0914502F09146021995FF91EF9108
:1057D000BF91AF919F918F917F916F915F914F9109
:1057E0003F912F910F900BBE0F900FBE0F901F9007
:1057F00018951F920F920FB60F9211240BB60F92AD
:105800002F933F934F935F936F937F938F939F93C8
:10581000AF93BF93EF93FF93E0914702F09148025B
:105820001995FF91EF91BF91AF919F918F917F91CA
:105830006F915F914F913F912F910F900BBE0F9001
:105840000FBE0F901F9018951F920F920FB60F92D8
:1058500011240BB60F922F933F934F935F936F9347
:105860007F938F939F93AF93BF93EF93FF93E091B9
:105870003D02F0913E021995FF91EF91BF91AF91DA
:105880009F918F917F916F915F914F913F912F9158
:105890000F900BBE0F900FBE0F901F9018951F9288
:1058A0000F920FB60F9211240BB60F922F933F93C6
:1058B0004F935F936F937F938F939F93AF93BF9318
:1058C000EF93FF93E0913F02F09140021995FF9111
:1058D000EF91BF91AF919F918F917F916F915F9168
:1058E0004F913F912F910F900BBE0F900FBE0F90D5
:1058F0001F9018951F920F920FB60F9211240BB69E
:105900000F922F933F934F935F936F937F938F9358
:105910009F93AF93BF93EF93FF93E0914902F09170
:105920004A021995FF91EF91BF91AF919F918F918D
:105930007F916F915F914F913F912F910F900BBE8F
:105940000F900FBE0F901F9018951F920F920FB6D9
:105950000F9211240BB60F922F933F934F935F93A7
:105960006F937F938F939F93AF93BF93EF93FF9327
:10597000E0914B02F0914C021995FF91EF91BF918C
:10598000AF919F918F917F916F915F914F913F91D7
:105990002F910F900BBE0F900FBE0F901F90189578
:1059A0001F920F920FB60F9211242F933F938F9354
:1059B0009F93AF93BF938091710690917206A091CF
:1059C0007306B09174063091700623E0230F2D37D3
:1059D00058F50196A11DB11D2093700680937106A4
:1059E00090937206A0937306B09374068091750627
:1059F00090917606A0917706B09178060196A11D48
:105A0000B11D8093750690937606A0937706B093A8
:105A10007806BF91AF919F918F913F912F910F90F9
:105A20000FBE0F901F90189526E8230F0296A11D18
:105A3000B11DD2CF3FB7F89480917506909176064C
:105A4000A0917706B091780626B5A89B05C02F3F98
:105A500019F00196A11DB11D3FBFBA2FA92F982F94
:105A60008827BC01CD01620F711D811D911D42E08F
:105A7000660F771F881F991F4A95D1F708958F9257
:105A80009F92AF92BF92CF92DF92EF92FF926B0103
:105A90007C01D0DF4B015C01C114D104E104F104AD
:105AA000D9F048D4C7DF681979098A099B09683E8B
:105AB00073408105910580F321E0C21AD108E10805
:105AC000F10888EE880E83E0981EA11CB11CC11459
:105AD000D104E104F10431F7FF90EF90DF90CF9013
