:1000000005C100000C945D100C9488100C94B31082
:100010000C94DE100C9409110C9434110C945F11A3
:100020000C948A1124C1000022C1000020C10000EC
:100030001EC100001CC100001AC1000018C1000050
:1000400016C1000014C1000012C1000010C1000060
:100050000EC100000CC100000AC100000C94B511D3
:1000600006C100000C942E150C94641500C100000C
:10007000FEC00000FCC00000FAC00000F8C0000094
:10008000F6C00000F4C00000F2C00000F0C00000A4
:100090000C94BA150C94F015EAC00000E8C00000FA
:1000A000E6C00000E4C00000E2C00000E0C00000C4
:1000B000DEC00000DCC00000DAC00000D8C00000D4
:1000C000D6C00000D4C000000C94680D0C944616F5
:1000D0000C947C16CCC000000C94D2160C9408171B
:1000E000C6C0000000000A0B02090C0D0E08070331
:1000F00004010000000000000000000000000000FB
:1001000000000000000000000000000000000000EF
:1001100012111000000000000000000000000000AC
:100120000000000000000000000001021020200874
:100130000810204010204080020102010804020142
:1001400001020408102040808040201008040201B1
:10015000800402018040201008040201080402010A
:100160000102040810204080010204081020408091
:1001700005050505070508080808020202020A0A23
:100180000808040404040101010101010101030341
:10019000030303030303040707070C0C0C0C0C0CEC
:1001A0000C0C0202020206060606060606060B0BE9
:1001B0000B0B0B0B0B0B000020002300260029006B
:1001C0002C002F003200000100000301060109018C
:1001D00000002200250028002B002E0031003400F2
:1001E00002010000050108010B01000021002400AC
:1001F00027002A002D003000330001010000040117
:1002000007010A018D151916A516311711241FBEF5
:10021000CFEFD1E2DEBFCDBF00E00CBF14E0A0E025
:10022000B2E0EEEBFFE200E00BBF02C007900D92E0
:10023000AA3EB107D9F728E0AAEEB4E001C01D92AA
:10024000A230B207E1F711E0C6E0D1E000E006C05D
:1002500021970109802FFE010E94BC17C230D107EF
:1002600080E00807A9F70E94CE0D0C94DD17C8CED8
:10027000FC01A781B0858C9191858923A481B581EA
:100280009C9140815181628173812681922359F032
:1002900081110BC04F5F5F4F6F4F7F4F4083518382
:1002A0006283738308958111F5CF4150510961092B
:1002B0007109F4CF8BEE94E0DBCF86EF94E0D8CFDA
:1002C00081E095E0D5CF8CE095E0D2CFFC01A48110
:1002D000B5818C9196818923A781B0859C914081BD
:1002E0005181628173812185922359F0882359F0CD
:1002F0004F5F5F4F6F4F7F4F4083518362837383A4
:1003000008958823A9F34150510961097109F4CF77
:100310008BEE94E0DBCF86EF94E0D8CF81E095E0E0
:10032000D5CF8CE095E0D2CF0F931F93CF93DF937F
:10033000D82FC62F8A01A091EA048BE0A89FD00194
:100340001124A551BB4F1D921D921D921C92139713
:1003500081E01A968C931A978D2F90E0FC01E65D50
:10036000FE4FE4911696EC931697FC01E059FE4F70
:10037000E491F0E0EE0FFF1FEA54FE4F8591949157
:1003800015969C938E931497862F90E0FC01E65D62
:10039000FE4FE4911996EC931997FC01E059FE4F3A
:1003A000E491F0E0EE0FFF1FEA54FE4F8591949127
:1003B00018969C938E93179760E08D2F0E949B1345
:1003C00060E08C2F0E949B138091EA04813009F435
:1003D0003FC0A8F0823009F462C0833009F486C0BF
:1003E0008091EA0491E0980F9093EA04F8018083E9
:1003F00090E080E0DF91CF911F910F91089580E010
:10040000D23049F081E0D33031F08EEE8D0F843060
:10041000D8F487E18D1B41E050E06AE571E00E946D
:10042000E40F80E0C23049F081E0C33031F08EEE5D
:100430008C0F843058F487E18C1B41E050E068E871
:1004400071E00E94E40FCCCF8FEFE5CF8FEFF5CFB7
:1004500080E0D23049F081E0D33031F08EEE8D0F64
:100460008430C8F487E18D1B41E050E06DE571E018
:100470000E94E40F80E0C23049F081E0C33031F0E7
:100480008EEE8C0F843048F487E18C1B41E050E005
:100490006BE871E0D6CF8FEFE7CF8FEFF7CF80E03B
:1004A000D23049F081E0D33031F08EEE8D0F8430C0
:1004B000C8F487E18D1B41E050E060E671E00E94E6
:1004C000E40F80E0C23049F081E0C33031F08EEEBD
:1004D0008C0F843048F487E18C1B41E050E06EE8DB
:1004E00071E0AFCF8FEFE7CF8FEFF7CF80E0D23063
:1004F00049F081E0D33031F08EEE8D0F8430C8F4B6
:1005000087E18D1B41E050E063E671E00E94E40F5B
:1005100080E0C23049F081E0C33031F08EEE8C0FC4
:10052000843048F487E18C1B41E050E061E971E0E0
:1005300088CF8FEFE7CF8FEFF7CF9BE0899FF00158
:100540001124E551FB4F80819181A281B381FB0190
:1005500080839183A283B38390E080E008959BE041
:10056000899FF0011124E551FB4F10821182128204
:10057000138290E080E0089590E080E00895CF92AB
:10058000DF92EF92FF92CF93882351F16A017B01B2
:10059000CFEFC80F20E030E0A901CB01B6010E94E7
:1005A0006A0E18168CF0C701B60190580E94DB0E37
:1005B0009B01AC016C2F70E090E080E0CF91FF9048
:1005C000EF90DF90CF90B2C0C701B6010E94D60E67
:1005D0008C2FCF91FF90EF90DF90CF900C94611211
:1005E000CF91FF90EF90DF90CF9008950F931F93DE
:1005F0008B019C0183E036952795179507958A9581
:10060000D1F7095E1A4F462F477021E030E0F9011B
:1006100002C0EE0FFF1F4A95E2F7AF01F8012081FB
:100620002423CB010196211102C090E080E01F91AC
:100630000F9108950F931F938B019C0183E03695D2
:100640002795179507958A95D1F7677081E090E017
:1006500001C0880F6A95EAF7F801E95EFA4F208138
:10066000452B31F48095822380831F910F9108954B
:10067000822BFACF2F923F924F925F926F927F928E
:100680008F929F92AF92BF92CF92DF92EF92FF92A2
:100690000F931F93CF93DF93D62EC72E782E692EFC
:1006A00049015A01280161E08D2D0E949B13CD2D37
:1006B000DC2D8E010F5F1F4FA8016D2D7C2D872D26
:1006C000962DB8DF20E030E0A901C201B7010E94F9
:1006D0007C0F181664F4C201B7010E94DB0E2B01D7
:1006E000C501B4010E94DB0EA201CE0123D0C801D6
:1006F000DF91CF911F910F91FF90EF90DF90CF90FE
:10070000BF90AF909F908F907F906F905F904F9031
:100710003F902F900895882341F08150682F70E01A
:1007200090E080E050E040E085CF0895862FB90149
:100730000C9461129C01FC01EC51FF4FE491E150DB
:10074000E231E0F4F0E08827E755FC4F8F4F0C943E
:10075000BC17BB03C203C503DC03F103BE030604DD
:10076000120416042D04420457046E048304BE03CD
:100770009804AF04C40484B5806884BD60E0822F0F
:100780000C94D71384B58062F8CF809180008C7F61
:1007900082608093800080918100807E8061682BE0
:1007A0006093810050938700409386008091800081
:1007B000806880938000E2CF809180008C7F82608F
:1007C0008093800080918100807E8061682B60939F
:1007D0008100509387004093860080918000806262
:1007E000E8CF809180008C7F826080938000809130
:1007F0008100807E8061682B609381005093870028
:1008000040938600809180008860D3CF8091B000B3
:1008100080688093B0008091B100887F682B6093DE
:10082000B100ACCF8091B0008062F3CF8091900096
:100830008C7F82608093900080919100807E8061A7
:10084000682B60939100509397004093960080919D
:10085000900080688093900091CF809190008C7F71
:1008600082608093900080919100807E8061682BEF
:100870006093910050939700409396008091900070
:100880008062E8CF809190008C7F8260809390009E
:1008900080919100807E8061682B609391005093DD
:1008A000970040939600809190008860D3CF80910C
:1008B000A0008C7F82608093A0008091A100807E48
:1008C0008061682B6093A1005093A7004093A6001D
:1008D0008091A00080688093A00050CF8091A000FC
:1008E0008C7F82608093A0008091A100807E8061D7
:1008F000682B6093A1005093A7004093A6008091BD
:10090000A0008062E8CF8091A0008C7F82608093FD
:10091000A0008091A100807E8061682B6093A1007F
:100920005093A7004093A6008091A0008860D3CF89
:10093000809120018C7F8260809320018091210131
:10094000807E8061682B6093210150932701409342
:100950002601809120018068809320010FCF809133
:1009600020018C7F82608093200180912101807E14
:100970008061682B609321015093270140932601E9
:10098000809120018062E8CF809120018C7F82607D
:100990008093200180912101807E8061682B60938B
:1009A0002101509327014093260180912001886006
:1009B000D3CF2F923F924F925F926F927F928F92FE
:1009C0009F92AF92BF92CF92DF92EF92FF920F93DE
:1009D0001F93CF93DF9300D000D0CDB7DEB74B018C
:1009E0005C015E834D83190167017801DA014D9046
:1009F0005D906D907C90AC019B01C301B2010E949F
:100A00007C0F87FD53C0A3019201C501B4010E9470
:100A1000050E6B017C01A3019201ED81FE816481D1
:100A20007581868197810E94050E9B01AC01C701EB
:100A3000B6010E946E0E6B017C0119821A821B8224
:100A40001C82E981FA81EE0FFF1FEE0FFF1FE20DFE
:100A5000F31D80809180A280B380A5019401648100
:100A60007581868197810E94050EA70196010E94DB
:100A7000800FA50194010E94060E26960FB6F894E9
:100A8000DEBF0FBECDBFDF91CF911F910F91FF90C1
:100A9000EF90DF90CF90BF90AF909F908F907F901E
:100AA0006F905F904F903F902F9008958601000FB8
:100AB000111F000F111F2D813E81020F131FD8013E
:100AC0004D905D906D907C90A5019401C301B201A1
:100AD0000E947C0F18160CF06DC026013701769429
:100AE00067945794479419821A821B821C82D701FB
:100AF000C60129813A814B815C81821B930BA40B37
:100B0000B50B0297A105B10558F5C901880F991FCA
:100B1000880F991F4D815E81480F591F5E834D8359
:100B2000DA01CD90DD90ED90FC90A7019601C50112
:100B3000B4010E94050E4B015C01A7019601ED81F5
:100B4000FE8164817581868197810E94050E9B01DB
:100B5000AC01C501B4010E946E0E6B017C0171CF26
:100B6000F201EE0FFF1FEE0FFF1F2D813E81E20FFE
:100B7000F31FA501940160817181828193810E949C
:100B80007C0F181634F049825A826B827C822601CF
:100B9000370189819A81AB81BC81840D951DA61D89
:100BA000B71D730162012C013D017694679457943F
:100BB00047949DCFA7019601215031094109510960
:100BC00029833A834B835C83F8013497C080D180BA
:100BD000E280F380A7019601C501B4010E94050ED1
:100BE0004B015C01A7019601C301B201AECF2F9268
:100BF0003F924F925F926F927F928F929F92AF92AD
:100C0000BF92CF92DF92EF92FF920F931F93CF93F9
:100C1000DF93CDB7DEB7CB54D1090FB6F894DEBF62
:100C20000FBECDBF26967FAF6EAF269728965FAFDB
:100C30004EAF28973E8B2D8B2C96FFAEEEAE2C97A9
:100C4000FB01E150F04CEE0FFF1FEE0FFF1FE80F0E
:100C5000F91F80809180A280B3808F8A988EA98EA0
:100C6000BA8EB501A401442777FD43955527662721
:100C7000772729964FAF2997F901E150F04CEE0FF5
:100C8000FF1FEE0FFF1F2896AEACBFAC2897EA0DF2
:100C9000FB1DC080D180E280F380CB8EDC8EED8E98
:100CA000FE8EB701A601442777FD43955527662799
:100CB00077272A964FAF2A97188B0F87F80130E0D5
:100CC00020E02C96EEACFFAC2C972E153F050CF4D3
:100CD0003FC022969FAF8EAF22971A8B098B312C83
:100CE000212C812C912C540183948D829E82AF8281
:100CF000B88626968EAC9FAC2697281439047CF1D2
:100D000029969FAC29972A96AFAC2A9730E020E02D
:100D100041E050E060E070E09A10F5C1C55BDF4F44
:100D20000FB6F894DEBF0FBECDBFDF91CF911F91FC
:100D30000F91FF90EF90DF90CF90BF90AF909F907A
:100D40008F907F906F905F904F903F902F9008957D
:100D500011921192119211922F5F3F4FB2CF2296B2
:100D6000EEADFFAD229781919191A191B191229623
:100D7000FFAFEEAF22978F88988CA98CBA8CB7FE04
:100D800023C04D815E816F81788541505109610991
:100D900071095A016B01A81AB90ACA0ADB0AD601FD
:100DA000C50121E0CD80DE80EF80F8848C159D05A3
:100DB000AE05BF0508F020E0822E912CB12CA12CAD
:100DC0008D829E82AF82B8865D01CC24DD24A8A2EC
:100DD000B9A2CAA2DBA29C01AD01442755272CA3CE
:100DE0003DA34EA35FA32C96EEADFFAD2C97E21969
:100DF000F3098D889E888E169F060CF4F4012896C0
:100E0000AEACBFAC28972496BFAEAEAE2497C988CF
:100E1000DA88DC8ACB8A1E861D86812C912C5401AF
:100E2000839489869A86AB86BC86812C912C54014A
:100E3000CD84DE84CE16DF0604F1F7FF02C0F0E0B9
:100E4000E0E0E20DF31D2C96EEACFFAC2C97EE1516
:100E5000FF0554F4EE0FFF1FEE0FFF1FE00FF11F11
:100E600080829182A282B3822FEF221A320AE9890C
:100E7000FA893496FA8BE98B3CCF2496AEADBFADA0
:100E80002497CD90DD90ED90FD902496BFAFAEAF4E
:100E900024972B8D3C8D4D8D5E8D57FF22C089850B
:100EA0009A85AB85BC850197A109B109AC01BD014B
:100EB0004C195D096E097F096A017B0181E0298572
:100EC0003A854B855C85C216D306E406F50608F024
:100ED00080E0482F50E070E060E049875A876B87D8
:100EE0007C87B7018827992768A779A78AA79BA736
:100EF000EE24FF2428A139A14AA15BA1C701B601B4
:100F00000E948B172B013C012CA13DA14EA15FA19A
:100F100068A579A58AA59BA50E948B176CA77DA7BC
:100F20008EA79FA7AB89BC894D915D916D917D91F5
:100F3000BC8BAB8BDB01CA01880D991DAA1DBB1DA3
:100F400089839A83AB83BC8391E09F8F29813A8107
:100F50004B815C81281539054A055B0508F01F8E19
:100F60002CA13DA14EA15FA1C701B6010E948B1724
:100F70006B017C0189809A80AB80BC808C0C9D1CAD
:100F8000AE1CBF1C89829A82AB82BC82520199241A
:100F9000882488AA99AAAAAABBAA29813A814B8146
:100FA0005C81280D391D4A1D5B1D2CAB3DAB4EAB42
:100FB0005FAB8CA49DA4AEA4BFA454019924882443
:100FC00088AE99AEAAAEBBAE280D391D4A1D5B1D79
:100FD0002CAF3DAF4EAF5FAFAB89BC8914972D935B
:100FE0003D934D935C93139728A139A14AA15BA12E
:100FF00068A579A58AA59BA50E948B179F8C690D72
:10100000711D811D911D230166247724460E571EF4
:10101000681E791E2CA53DA54EA55FA54A01AA24F0
:10102000BB24840C951CA61CB71C81E090E0A0E0BA
:10103000B0E049815A816B817C814C155D056E055C
:101040007F0518F080E090E0DC01880D991DAA1D55
:10105000BB1D41E050E060E070E088A899A8AAA814
:10106000BBA8CCA8DDA8EEA8FFA8C814D904EA0440
:10107000FB0418F040E050E0BA01840F951FA61F52
:10108000B71F812C912C54018394C8ACD9ACEAAC25
:10109000FBAC2CAD3DAD4EAD5FAD2C153D054E0509
:1010A0005F0518F0812C912C5401880E991EAA1E00
:1010B000BB1E4D855E854F5F5F4F5E874D87B8CE07
:1010C000EF85F889C190D190E190F190F88BEF878E
:1010D000DB01CA010197A109B1098C199D09AE096B
:1010E000BF09349780839183A283B383E1E084179F
:1010F0009507A607B70708F0E0E04E2F50E070E034
:1011000060E02F5F3F4F2C968EAC9FAC2C9728153C
:101110003905B4F203CE8F929F92AF92BF92CF92D5
:10112000DF92EF92FF92CF93DF93F901621773077B
:101130000CF4FB016C017A01B0E0A0E0AE17BF0730
:101140004CF162177307DCF46150704C660F771F27
:10115000660F771F680F791FDB01CD90DD90ED9052
:10116000FC90FF0CCC08DC2C7601DF01AA0FBB1F22
:10117000AA0FBB1FA40FB51FE217F307CCF0DF9136
:10118000CF91FF90EF90DF90CF90BF90AF909F9066
:101190008F900895E60189909990A990B9906E0179
:1011A000E70189929992A992B9927E011196C6CFD0
:1011B000CD92DD92ED92FD923196DECF2F923F924D
:1011C0004F925F926F927F928F929F92AF92BF9257
:1011D000CF92DF92EF92FF920F931F93CF93DF9303
:1011E00079011B01DA01D0E0C0E040E050E0BA0133
:1011F000CE15DF059CF0DF91CF911F910F91FF90ED
:10120000EF90DF90CF90BF90AF909F908F907F90A6
:101210006F905F904F903F902F900895FC018190C8
:101220009190A190B190CF01F10101911191219183
:1012300031911F0124013501401A510A620A730AD3
:1012400093018201041B150B260B370B0D931D9385
:101250002D933D9366246394712CC12CD12C452B86
:10126000462B472B39F0081519052A053B0538F49C
:10127000612C05C080169106A206B306C8F7A3012B
:10128000B6012196B5CF8F929F92AF92BF92CF9227
:10129000DF92EF92FF920F931F93CF93DF93CDB71F
:1012A000DEB7AC970FB6F894DEBF0FBECDBFC090CF
:1012B0000C02D0900D02E0900E02F0900F02A701F8
:1012C00096016091B9077091BA078091BB07909120
:1012D000BC0700D5882341F0C092B907D092BA0765
:1012E000E092BB07F092BC078091B8078111109281
:1012F000B807BE01675D7F4F8091BD071ED9C090C2
:101300000802D0900902E0900A02F0900B02A701B7
:1013100096016091C5077091C6078091C7079091AB
:10132000C807D8D4882341F0C092C507D092C60719
:10133000E092C707F092C8078091C407811110920C
:10134000C407BE016B5D7F4F8091C907F6D88091BD
:10135000C0049091C104A091C204B091C3048D8FC8
:101360009E8FAF8FB8A389A59AA5ABA5BCA589A36D
:101370009AA3ABA3BCA342E0E42EF12C02EA17E04F
:1013800021E030E0AE014F5D5F4F61E070E0CE01E3
:101390004D962DDC8DA19EA1AFA1B8A589A39AA3DE
:1013A000ABA3BCA30AEA17E021E030E0AE014F5D39
:1013B0005F4F61E070E0CE014D9619DC8091C4046E
:1013C000082E000C990BAA0BBB0B8D8F9E8FAF8F35
:1013D000B8A353E0E52EF12C8E010F5F1F4F21E0E3
:1013E00030E0AE01435E5F4F62E070E082EA97E07A
:1013F000FEDB22E030E0AE01435F5F4F63E070E070
:10140000C80189DE88E0FE013D96DE015596019017
:101410000D928A95E1F722E030E042EA57E06AEE69
:1014200077E0CE010D96CADE21E030E0AE01435EEA
:101430005F4F62E070E08AEA97E0D9DB22E030E0BB
:10144000AE01435F5F4F63E070E0C80164DE22E0FD
:1014500030E04AEA57E062EF77E0CE010D96AEDE6B
:1014600060911402709115028091160290911702FA
:1014700017E2E12EF12C00E010E028E132E048EB29
:1014800052E097DA4B015C016BE070E080E090E0A5
:10149000ADD86C019093E9078093E807E09058037A
:1014A000F090590300915A0310915B039401A50138
:1014B000B701C8010FD487FD11C0E0905C03F09024
:1014C0005D0300915E0310915F039401A501B701D4
:1014D000C80112D5181614F07401850120E030E01F
:1014E0004FE753E4B701C801F5D318160CF40FC148
:1014F00020E030E0A901B701C801FED487FF04C095
:10150000E12CF12C00E010E0A701B801C60137D8AA
:101510006AE070E080E090E069D88C019093D90790
:101520008093D807C0906003D0906103E09062037D
:10153000F09063039401A501C701B601CBD387FDE9
:1015400011C0C0906403D0906503E0906603F090F2
:1015500067039401A501C701B601CED4181614F093
:1015600064017501E894F7F820E030E04FE753E4B8
:10157000C701B601AFD3181634F4C12CD12C3FE704
:10158000E32E33E4F32EB701A601C8010E94BF0287
:1015900060911002709111028091120290911302D9
:1015A00018E2E12EF12C00E010E028E633E04CE0F8
:1015B00054E0FFD94B015C0169E070E080E090E00D
:1015C00015D86C019093E1078093E007E090B00498
:1015D000F090B1040091B2041091B3049401A501FC
:1015E000B701C80177D387FD11C0E090B404F09033
:1015F000B5040091B6041091B7049401A501B70198
:10160000C8017AD4181614F07401850120E030E086
:101610004FE753E4B701C8015DD318160CF47CC042
:1016200020E030E0A901B701C80166D487FF04C0FB
:10163000E12CF12C00E010E0A701B801C6010E94E6
:10164000BF0268E070E080E090E00E94F6028C014A
:101650009093D1078093D007C090B804D090B9047C
:10166000E090BA04F090BB049401A501C701B60153
:1016700031D387FD11C0C090BC04D090BD04E09070
:10168000BE04F090BF049401A501C701B60134D493
:10169000181614F064017501E894F7F820E030E0C2
:1016A0004FE753E4C701B60115D3181634F4C12C23
:1016B000D12C8FE7E82E83E4F82EB701A601C801EC
:1016C0000E94BF0288E0FE017596AAEEB7E0019085
:1016D0000D928A95E1F788E0FE013D96A2EFB7E012
:1016E00001900D928A95E1F7AC960FB6F894DEBFA3
:1016F0000FBECDBFDF91CF911F910F91FF90EF9063
:10170000DF90CF90BF90AF909F908F900895E12C85
:10171000F12C0FE713E4F8CEE12CF12C0FE713E4E2
:101720008BCF8F929F92AF92BF92DF92EF92FF92F8
:101730000F931F93CF93DF931092210510922005F2
:10174000C2EBD7E08EE4FE0111928A95E9F7DD2421
:10175000D394D092FE0700E012E0F80184859585CD
:10176000A685B7858F839887A987BA87812C912C06
:101770005401839489829A82AB82BC824DEB57E0FC
:1017800063E182E10E949401DD821E821F8A1C8631
:10179000D092FF07F80180859185A285B3858B8B58
:1017A0009C8BAD8BBE8B8D869E86AF86B88A49ECAE
:1017B00057E063E082E00E949401D98A1A8A18AA4D
:1017C000D092FD0789AA9AAAABAABCAAE12CF12C57
:1017D0008701A80197016BE070E080E090E00E9433
:1017E0003A039FAB8EABDDAA18A2D092FB0789A269
:1017F0009AA2ABA2BCA2A80197016AE070E080E0C7
:1018000090E00E943A039FA38EA3DDA218A6D09277
:10181000FC0789A69AA6ABA6BCA6A801970169E019
:1018200070E080E090E00E943A039FA78EA7DDA6BB
:10183000188ED092FA07898E9A8EAB8EBC8EA80134
:10184000970168E070E080E090E00E943A039F8F8B
:101850008E8FDD8E88E0E0E0F2E0AAEEB7E0019046
:101860000D928A95E1F788E0E0E0F2E0A2EFB7E0C0
:1018700001900D928A95E1F78B850E94AF028F89C6
:10188000DF91CF911F910F91FF90EF90DF90BF906C
:10189000AF909F908F900C94AF028091B20781110E
:1018A00014C081E08093B2078091B3079091B40790
:1018B000A091B507B091B6070197A105B10529F42C
:1018C0008091B70781110E94BC028091BE078111EF
:1018D00014C081E08093BE078091BF079091C0073C
:1018E000A091C107B091C2070197A105B10529F4E4
:1018F0008091C30781110E94BC028091E20781118F
:101900002EC081E08093E2078091E3079091E40785
:10191000A091E507B091E6070197A105B105F9F49B
:101920008091E7078823D9F06BE070E080E090E0D9
:101930000E94F6029093E9078093E80740E050E0A8
:10194000BA010E94BF026BE070E080E090E00E946C
:10195000F6029093E9078093E8070E948B03809139
:10196000D20781112EC081E08093D2078091D307E6
:101970009091D407A091D507B091D6070197A10502
:10198000B105F9F48091D7078823D9F06AE070E0B7
:1019900080E090E00E94F6029093D9078093D807E8
:1019A00040E050E0BA010E94BF026AE070E080E0CF
:1019B00090E00E94F6029093D9078093D8070E9486
:1019C0008B038091DA0781112EC081E08093DA07C2
:1019D0008091DB079091DC07A091DD07B091DE07D5
:1019E0000197A105B105F9F48091DF078823D9F0AB
:1019F00069E070E080E090E00E94F6029093E107D9
:101A00008093E00740E050E0BA010E94BF0269E025
:101A100070E080E090E00E94F6029093E1078093EE
:101A2000E0070E948B038091CA0781112EC081E0DC
:101A30008093CA078091CB079091CC07A091CD07E6
:101A4000B091CE070197A105B105F9F48091CF07B8
:101A50008823D9F068E070E080E090E00E94F60210
:101A60009093D1078093D00740E050E0BA010E94E4
:101A7000BF0268E070E080E090E00E94F602909380
:101A8000D1078093D0070C948B03089526E030E0B3
:101A900040E855E260E070E090E080E000C0813016
:101AA000910569F01CF4892B39F008958230910575
:101AB00049F0039751F008958EE295E06FC78BECE3
:101AC00095E0FCCF88E696E0F9CF85E097E0F6CF89
:101AD0001F920F920FB60F9211240BB60F922F93F5
:101AE0003F934F935F936F937F938F939F93AF93A6
:101AF000BF93EF93FF938BEC93EF9093250180932B
:101B0000240134D0FF91EF91BF91AF919F918F91BC
:101B10007F916F915F914F913F912F910F900BBEED
:101B20000F900FBE0F901F9018958BEC93EF909332
:101B3000250180932401A3E7B0E08C918E7F8C93E4
:101B4000E0E2F1E080818C7F8083E1E2F1E080815E
:101B5000877E808380818560808380818D7F808384
:101B60008C9181608C93089581E008958091220585
:101B700091E0980F90932205882349F021E030E00E
:101B800030932405209323058093220508957894AB
:101B90007ADBF894809122058150F6CFCF93DF93C2
:101BA00010920108109200082AD470DFC091D50469
:101BB000D091D60419821882B4DDF894B6DF81E0A2
:101BC00028813981232B09F080E0809300087894E4
:101BD000789480910008811107C05FDEF89490E04E
:101BE00080E0DF91CF91089581E028813981232B16
:101BF00009F480E0809301089091010881E091113F
:101C000080E080930008B0DFE4CF5058BB27AA27BC
:101C10000ED038C129D130F02ED120F031F49F3FC1
:101C200011F41EF41EC10EF4E095E7FB14C1E92F78
:101C30003AD180F3BA17620773078407950718F043
:101C400071F49EF552C10EF4E0950B2EBA2FA02D23
:101C50000B01B90190010C01CA01A0011124FF2759
:101C6000591B99F0593F50F4503E68F11A16F04054
:101C7000A22F232F342F4427585FF3CF4695379553
:101C80002795A795F0405395C9F77EF41F16BA0B18
:101C9000620B730B840BBAF09150A1F0FF0FBB1FC6
:101CA000661F771F881FC2F70EC0BA0F621F731F0F
:101CB000841F48F4879577956795B795F7959E3F6C
:101CC00008F0B3CF9395880F08F09927EE0F9795FA
:101CD000879508959CD008F481E008950CD0D2C077
:101CE000CAD040F0C1D030F021F45F3F19F0B3C04A
:101CF0005111FCC0B6C0D7D098F39923C9F355232E
:101D0000B1F3951B550BBB27AA27621773078407EE
:101D100038F09F5F5F4F220F331F441FAA1FA9F3A4
:101D200033D00E2E3AF0E0E830D091505040E69596
:101D3000001CCAF729D0FE2F27D0660F771F881FF7
:101D4000BB1F261737074807AB07B0E809F0BB0BE6
:101D5000802DBF01FF2793585F4F2AF09E3F51050A
:101D600068F079C0C3C05F3FECF3983EDCF3869522
:101D700077956795B795F7959F5FC9F7880F911D80
:101D80009695879597F90895E1E0660F771F881F6C
:101D9000BB1F621773078407BA0720F0621B730B1F
:101DA000840BBA0BEE1F88F7E095089504D0689471
:101DB000B1119CC008957FD088F09F5790F0B92F43
:101DC0009927B751A0F0D1F0660F771F881F991F90
:101DD0001AF0BA95C9F712C0B13081F086D0B1E0DF
:101DE000089583C0672F782F8827B85F39F0B93FEF
:101DF000CCF3869577956795B395D9F73EF4909592
:101E00008095709561957F4F8F4F9F4F0895990FE3
:101E10000008550FAA0BE0E8FEEF16161706E807B4
:101E2000F907C0F012161306E407F50798F0621BD5
:101E3000730B840B950B39F40A2661F0232B242BAA
:101E4000252B21F408950A2609F4A140A6958FEFC9
:101E5000811D811D089597F99F6780E870E060E01B
:101E600008959FEF80EC089500240A941616170633
:101E700018060906089500240A941216130614067B
:101E800005060895092E0394000C11F4882352F0DE
:101E9000BB0F40F4BF2B11F460FF04C06F5F7F4F96
:101EA0008F4F9F4F089557FD9058440F551F59F07D
:101EB0005F3F71F04795880F97FB991F61F09F3F37
:101EC00079F087950895121613061406551FF2CF60
:101ED0004695F1DF08C0161617061806991FF1CFB0
:101EE00086957105610508940895E894BB276627D7
:101EF0007727CB0197F908958ADF08F48FEF0895CB
:101F00000BD0C0CFB1DF28F0B6DF18F0952309F071
:101F1000A2CFA7CF1124EACFC6DFA0F3959FD1F3BC
:101F2000950F50E0551F629FF001729FBB27F00D87
:101F3000B11D639FAA27F00DB11DAA1F649F6627DC
:101F4000B00DA11D661F829F2227B00DA11D621F2B
:101F5000739FB00DA11D621F839FA00D611D221FE5
:101F6000749F3327A00D611D231F849F600D211DC9
:101F7000822F762F6A2F11249F5750408AF0E1F06C
:101F800088234AF0EE0FFF1FBB1F661F771F881FB5
:101F900091505040A9F79E3F510570F05CCFA6CFFD
:101FA0005F3FECF3983EDCF3869577956795B795A0
:101FB000F795E7959F5FC1F7FE2B880F911D9695CA
:101FC000879597F908950895883008F075C0E82F2F
:101FD000F0E0EE0FFF1FEB53FB4F718360838150E6
:101FE000873008F03CC0E82FF0E08827E650F04F3B
:101FF0008F4FC2C73710011009101510221043105F
:102000005010809169008C7F482B40936900E89ABA
:10201000089580916900837F440F551F440F551F19
:10202000482B40936900E99A0895809169008F7C5C
:1020300074E0440F551F7A95E1F7482B40936900EF
:10204000EA9A0895809169008F7366E0440F551FE6
:102050006A95E1F7482B40936900EB9A08958091C7
:102060006A008C7F482B40936A00EC9A0895809117
:102070006A00837F440F551F440F551F482B409320
:102080006A00ED9A089580916A008F7C24E0440FE5
:10209000551F2A95E1F7482B40936A00EE9A089560
:1020A00080916A008F7396E0440F551F9A95E1F76F
:1020B000482B40936A00EF9A08951F920F920FB633
:1020C0000F9211240BB60F922F933F934F935F9370
:1020D0006F937F938F939F93AF93BF93EF93FF93F0
:1020E000E091C904F091CA041995FF91EF91BF9155
:1020F000AF919F918F917F916F915F914F913F91A0
:102100002F910F900BBE0F900FBE0F901F90189540
:102110001F920F920FB60F9211240BB60F922F93AE
:102120003F934F935F936F937F938F939F93AF935F
:10213000BF93EF93FF93E091CB04F091CC041995FA
:10214000FF91EF91BF91AF919F918F917F916F918F
:102150005F914F913F912F910F900BBE0F900FBE4B
:102160000F901F9018951F920F920FB60F92112487
:102170000BB60F922F933F934F935F936F937F9381
:102180008F939F93AF93BF93EF93FF93E091CD0411
:10219000F091CE041995FF91EF91BF91AF919F916E
:1021A0008F917F916F915F914F913F912F910F9000
:1021B0000BBE0F900FBE0F901F9018951F920F929D
:1021C0000FB60F9211240BB60F922F933F934F939C
:1021D0005F936F937F938F939F93AF93BF93EF938F
:1021E000FF93E091CF04F091D0041995FF91EF9106
:1021F000BF91AF919F918F917F916F915F914F911F
:102200003F912F910F900BBE0F900FBE0F901F901C
:1022100018951F920F920FB60F9211240BB60F92C2
:102220002F933F934F935F936F937F938F939F93DE
:10223000AF93BF93EF93FF93E091C504F091C60471
:102240001995FF91EF91BF91AF919F918F917F91E0
:102250006F915F914F913F912F910F900BBE0F9017
:102260000FBE0F901F9018951F920F920FB60F92EE
:1022700011240BB60F922F933F934F935F936F935D
:102280007F938F939F93AF93BF93EF93FF93E091CF
:10229000C704F091C8041995FF91EF91BF91AF91D8
:1022A0009F918F917F916F915F914F913F912F916E
:1022B0000F900BBE0F900FBE0F901F9018951F929E
:1022C0000F920FB60F9211240BB60F922F933F93DC
:1022D0004F935F936F937F938F939F93AF93BF932E
:1022E000EF93FF93E091D104F091D2041995FF91FF
:1022F000EF91BF91AF919F918F917F916F915F917E
:102300004F913F912F910F900BBE0F900FBE0F90EA
:102310001F9018951F920F920FB60F9211240BB6B3
:102320000F922F933F934F935F936F937F938F936E
:102330009F93AF93BF93EF93FF93E091D304F091FA
:10234000D4041995FF91EF91BF91AF919F918F9117
:102350007F916F915F914F913F912F910F900BBEA5
:102360000F900FBE0F901F9018951F920F920FB6EF
:102370000F9211242F933F938F939F93AF93BF930B
:102380008091260590912705A0912805B0912905F7
:102390003091250523E0230F2D3758F50196A11D17
:1023A000B11D209325058093260590932705A093C2
:1023B0002805B093290580912A0590912B05A091BD
:1023C0002C05B0912D050196A11DB11D80932A0504
:1023D00090932B05A0932C05B0932D05BF91AF9141
:1023E0009F918F913F912F910F900FBE0F901F9053
:1023F000189526E8230F0296A11DB11DD2CF78941F
:1024000084B5826084BD84B5816084BD85B58260F9
:1024100085BD85B5816085BDEEE6F0E08081816097
:102420008083E1E8F0E01082808182608083808197
:1024300081608083E0E8F0E0808181608083E1EB6F
:10244000F0E0808184608083E0EBF0E08081816057
:102450008083E1E9F0E08081826080838081816017
:102460008083E0E9F0E0808181608083E1EAF0E050
:10247000808182608083808181608083E0EAF0E0F7
:10248000808181608083E1E2F1E0808182608083ED
:10249000808181608083E0E2F1E0808181608083DF
:1024A000EAE7F0E0808184608083808182608083BD
:1024B0008081816080838081806880831092C100E8
:1024C00008951F93CF93DF93182FEB0161E033D171
:1024D000209731F460E0812FDF91CF911F9167C188
:1024E000CF3FD10511F461E0F6CFE12FF0E0EC51E0
:1024F000FF4FE491E150E23108F0B2C0F0E08827EC
:10250000EC57FD4E8F4F38C596129E12A312AD1296
:10251000B7123013C112C912D112DB12E512EF1239
:10252000FE120813301312131C13261384B580688F
:1025300084BDC7BDDF91CF911F91089584B580629E
:1025400084BDC8BDF7CF80918000806880938000F3
:10255000D0938900C0938800EDCF80918000806285
:1025600080938000D0938B00C0938A00E3CF80914A
:102570008000886080938000D0938D00C0938C0091
:10258000D9CF8091B00080688093B000C093B30031
:10259000D1CF8091B00080628093B000C093B4002E
:1025A000C9CF80919000806880939000D09399006B
:1025B000C0939800BFCF809190008062809390007C
:1025C000D0939B00C0939A00B5CF80919000886013
:1025D00080939000D0939D00C0939C00ABCF8091DE
:1025E000A00080688093A0008091A0008F7B8093E2
:1025F000A000D093A900C093A8009CCF8091A00018
:1026000080628093A000D093AB00C093AA0092CFC9
:102610008091A00088608093A000D093AD00C0930B
:10262000AC0088CF80912001806880932001D093F6
:102630002901C09328017ECF809120018062809380
:102640002001D0932B01C0932A0174CF80912001E7
:10265000886080932001D0932D01C0932C016ACF14
:10266000C038D1050CF03FCF35CF8150823108F012
:1026700059C0E82FF0E08827E05CFC4E8F4F7CC407
:1026800060136413521358135C13921367136D1382
:10269000711377137B137F138513891392138D1393
:1026A00093139713809180008F7780938000089513
:1026B000809180008F7DF9CF80918000877FF5CF5A
:1026C00084B58F7784BD089584B58F7DFBCF8091CD
:1026D000B0008F778093B00008958091B0008F7D17
:1026E000F9CF809190008F7780939000089580912A
:1026F00090008F7DF9CF80919000877FF5CF8091FA
:10270000A0008F778093A00008958091A0008F7D16
:10271000F9CF8091A000877FF5CF809120018F773E
:10272000809320010895809120018F7DF9CF8091C1
:102730002001877FF5CFCF93DF9390E0FC01E65D2A
:10274000FE4F249180599E4FFC0184918823C9F04B
:1027500090E0880F991FFC01E651FE4FA591B491BE
:10276000FC01E053FE4FC591D49161110DC09FB79C
:10277000F8948C91209582238C9388812823288338
:102780009FBFDF91CF910895623051F49FB7F894C5
:102790003C91822F809583238C93E8812E2BEFCF61
:1027A0008FB7F894EC912E2B2C938FBFEACF1F9309
:1027B000CF93DF93282F30E0F901EC51FF4F849144
:1027C000F901E65DFE4FD491F901E059FE4FC49145
:1027D000CC23A1F0162F811148DFEC2FF0E0EE0F93
:1027E000FF1FE053FE4FA591B4918FB7F894EC9181
:1027F000111108C0D095DE23DC938FBFDF91CF91FC
:102800001F910895DE2BF8CFFC01918D228D892F29
:1028100090E0805C9F4F821B91098F7399270895E8
:10282000FC01918D828D981731F0828DE80FF11D9A
:10283000858D90E008958FEF9FEF0895FC01918DB5
:10284000828D981761F0A28DAE0FBF2FB11D5D96DE
:102850008C91928D9F5F9F73928F90E008958FEF80
:102860009FEF0895FC01538D448D252F30E0842F78
:1028700090E0821B930B541710F0CF9608950197A8
:102880000895FC01A48DA80FB92FB11DA35ABF4F05
:102890002C91848D90E001968F739927848FA6895F
:1028A000B7892C93A089B1898C91837080648C93B3
:1028B000938D848D981306C00288F389E02D808162
:1028C0008F7D80830895CF93DF93EC01888D8823DB
:1028D000B1F0AA89BB89E889F9898C9185FD03C08B
:1028E000808186FD0CC00FB607FCF7CF8C9185FF69
:1028F000F2CF808185FFEDCFCE01C3DFEACFDF913C
:10290000CF910895EF92FF920F931F93CF93DF9390
:10291000EC0181E0888F9B8D8C8D98131AC0E8891B
:10292000F989808185FF15C09FB7F894EE89FF89EA
:102930006083E889F98980818370806480839FBF88
:1029400081E090E0DF91CF911F910F91FF90EF9088
:102950000895F62E0B8D10E00F5F1F4F0F73112798
:10296000E02E8C8D8E110BC00FB607FCFACFE889D4
:10297000F989808185FFF5CFCE0183DFF2CFEB8D22
:10298000EC0FFD2FF11DE35AFF4FF0829FB7F89433
:102990000B8FEA89FB8980818062D0CFCF92DF9252
:1029A000EF92FF921F93CF93DF93EC016A017B01BB
:1029B000122FE889F98982E08083C11481EED8065C
:1029C000E104F10499F060E079E08DE390E0A70183
:1029D0009601B0D2215031094109510956954795C8
:1029E00037952795211580E1380790F0E889F98916
:1029F000108260E874E88EE190E0A70196019AD217
:102A00002150310941095109569547953795279528
:102A1000EC85FD853083EE85FF852083188EEC895B
:102A2000FD891083EA89FB89808180618083EA893E
:102A3000FB89808188608083EA89FB898081806846
:102A40008083EA89FB8980818F7D8083DF91CF91AC
:102A50001F91FF90EF90DF90CF9008951F920F92FB
:102A60000FB60F9211240BB60F922F938F939F9353
:102A7000EF93FF93E0913E05F0913F058081E09157
:102A80004405F091450582FD1DC090818091470568
:102A90008F5F8F7320914805821741F0E0914705C1
:102AA000F0E0E25DFA4F958F80934705FF91EF913B
:102AB0009F918F912F910F900BBE0F900FBE0F9093
:102AC0001F9018958081F2CF1F920F920FB60F9230
:102AD00011240BB60F922F933F934F935F936F93F5
:102AE0007F938F939F93AF93BF93EF93FF938EE268
:102AF00095E0C7DEFF91EF91BF91AF919F918F91CC
:102B00007F916F915F914F913F912F910F900BBEED
:102B10000F900FBE0F901F901895EEE2F5E0138214
:102B2000128288EE93E0A0E0B0E084839583A683D0
:102B3000B7838BED94E09183808385EC90E095875B
:102B4000848784EC90E09787868780EC90E0918B77
:102B5000808B81EC90E0938B828B82EC90E0958B64
:102B6000848B86EC90E0978B868B118E128E138E61
:102B7000148E08951F920F920FB60F9211240BB668
:102B80000F922F938F939F93EF93FF93E091DB0529
:102B9000F091DC058081E091E105F091E20582FD94
:102BA0001DC090818091E4058F5F8F732091E505B2
:102BB000821741F0E091E405F0E0E553FA4F958F7C
:102BC0008093E405FF91EF919F918F912F910F904A
:102BD0000BBE0F900FBE0F901F9018958081F2CF03
:102BE0001F920F920FB60F9211240BB60F922F93D4
:102BF0003F934F935F936F937F938F939F93AF9385
:102C0000BF93EF93FF938BEC95E03BDEFF91EF9149
:102C1000BF91AF919F918F917F916F915F914F91F4
:102C20003F912F910F900BBE0F900FBE0F901F90F2
:102C30001895EBECF5E01382128288EE93E0A0E0A9
:102C4000B0E084839583A683B7838BED94E0918372
:102C500080838DEC90E0958784878CEC90E097875B
:102C6000868788EC90E0918B808B89EC90E0938B49
:102C7000828B8AEC90E0958B848B8EEC90E0978B26
:102C8000868B118E128E138E148E08951F920F92C2
:102C90000FB60F9211240BB60F922F938F939F9321
:102CA000EF93FF93E0917806F09179068081E091AF
:102CB0007E06F0917F0682FD1DC090818091810685
:102CC0008F5F8F7320918206821741F0E091810619
:102CD000F0E0E859F94F958F80938106FF91EF91CD
:102CE0009F918F912F910F900BBE0F900FBE0F9061
:102CF0001F9018958081F2CF1F920F920FB60F92FE
:102D000011240BB60F922F933F934F935F936F93C2
:102D10007F938F939F93AF93BF93EF93FF9388E637
:102D200096E0AFDDFF91EF91BF91AF919F918F91B1
:102D30007F916F915F914F913F912F910F900BBEBB
:102D40000F900FBE0F901F901895E8E6F6E01382E3
:102D5000128288EE93E0A0E0B0E084839583A6839E
:102D6000B7838BED94E09183808385ED90E0958728
:102D7000848784ED90E09787868780ED90E0918B43
:102D8000808B81ED90E0938B828B82ED90E0958B30
:102D9000848B86ED90E0978B868B118E128E138E2E
:102DA000148E08951F920F920FB60F9211240BB636
:102DB0000F922F938F939F93EF93FF93E0911507BB
:102DC000F09116078081E0911B07F0911C0782FDAE
:102DD0001DC0908180911E078F5F8F7320911F0708
:102DE000821741F0E0911E07F0E0EB5FF84F958FFE
:102DF00080931E07FF91EF919F918F912F910F90DC
:102E00000BBE0F900FBE0F901F9018958081F2CFD0
:102E10001F920F920FB60F9211240BB60F922F93A1
:102E20003F934F935F936F937F938F939F93AF9352
:102E3000BF93EF93FF9385E097E023DDFF91EF9140
:102E4000BF91AF919F918F917F916F915F914F91C2
:102E50003F912F910F900BBE0F900FBE0F901F90C0
:102E60001895E5E0F7E01382128288EE93E0A0E087
:102E7000B0E084839583A683B7838BED94E0918340
:102E8000808385E391E09587848784E391E0978749
:102E9000868780E391E0918B808B81E391E0938B37
:102EA000828B82E391E0958B848B86E391E0978B14
:102EB000868B118E128E138E148E0895AF92BF9250
:102EC000CF92DF92EF92FF920F931F93CF93DF93F6
:102ED0006C017B018B01040F151FEB015E01AE1825
:102EE000BF08C017D10759F06991D601ED91FC9147
:102EF0000190F081E02DC6011995892B79F7C50164
:102F0000DF91CF911F910F91FF90EF90DF90CF90C5
:102F1000BF90AF900895DB018F939F9335D0BF9101
:102F2000AF91A29F800D911DA39F900DB29F900D18
:102F300011240895A1E21A2EAA1BBB1BFD010DC08E
:102F4000AA1FBB1FEE1FFF1FA217B307E407F50759
:102F500020F0A21BB30BE40BF50B661F771F881F35
:102F6000991F1A9469F760957095809590959B01CB
:102F7000AC01BD01CF010895EE0FFF1F881F8BBF6D
:102F80000790F691E02D199409D0A59F900DB49F5C
:102F9000900DA49F800D911D11240895A29FB00152
:102FA000B39FC001A39F700D811D1124911DB29F7D
:0E2FB000700D811D1124911D0895F894FFCF1E
:102FBE000000000000000000000080BF000080BF85
:102FCE009A99993E9A99993E00007EC312AE69C3B2
:102FDE0065E657C3F5A848C38C422FC35A8F22C348
:102FEE0028DC15C3B89E06C3BF75FBC2F5A8C8C2C0
:102FFE0024DC95C216AE69C236334BC2CACC31C27E
:10300E00F52809C20000000099990442FEFF1842FB
:10301E0064662D4203004C4232739642CC4CA84259
:10302E00FF7FB2420040BF423373C942FEBFD84257
:10303E000080E54265E6F9426826074366860D4341
:10304E0034731643CD8C1B43CC4C2843CCAC2E434F
:10305E003253364333134343CE2C4843CDAC6143F6
:10306E00CBCC744300007F43804861BF80044FBFC8
:10307E0000D742BF00A936BF006524BF002112BF92
:10308E0000F305BF008CF3BE0030DBBE00A8B6BE59
:10309E0000F485BE00D842BE002012BE0090F3BDE3
:1030AE0000D042BD00000000C2D6C23C1221923DAB
:1030BE00C8D6C23DE87B2A3EB0F3853E1021923E33
:1030CE00804E9E3E007CAA3E60A9B63EC0D6C23E51
:1030DE004004CF3EC031DB3E408CF33E00BAFF3E93
:1030EE0080F3053F200A0C3FC037183F804E1E3F2D
:1030FE000065243FC092303F40A9363F00ED483F67
:10310E00001B553F0048613F00007F430000803F99
:10311E000000000000007FC300007EC33DCA60C3F4
:10312E00F5A848C38C422FC328DC15C3BF75FBC25C
:10313E00F5A8C8C20B57B4C2D4A3A7C224DC95C24B
:10314E0088C26EC236334BC2CACC31C2731404C2AB
:10315E0000000000313323420180324203004C4212
:10316E0097996A4233B38942CCCC8E429A199E42C9
:10317E00CB0CB5426726BA423373C94233F3E242EF
:10318E0065E6F94200E0054366860D43FF3F0C43BA
:10319E00347316439A191E4333332343CCAC2E4358
:1031AE009A99374366864043CC2C484300C0584317
:1031BE0033F3624399996A4300007F4300325BBF49
:1031CE0080ED48BF009330BF004F1EBF00F305BF18
:1031DE000032DBBE007AAABE004E9EBE002092BE1A
:1031EE00008C73BE00D842BE0090F3BD00D8C2BDA5
:1031FE0000E0C2BC00000000C4D6423DC4D6C23DB1
:10320E001421123EC0D6423E708C733EA0F3853E12
:10321E002021923E604E9E3E007CAA3EA0D6C23E2B
:10322E004004CF3E005FE73E808CF33E00BAFF3E87
:10323E00A0F3053F600A0C3F0021123FC037183F34
:10324E00804E1E3FC07B2A3FC092303F40A9363F82
:10325E0080ED483F00044F3F001B553F8048613FC3
:10326E0000007F430000803F0000000000007FC38D
:10327E00F367B27C05E30FE30FE30FE30FE30FE316
:10328E000FE30FE30F20050000000082145E1732DB
:0A329E0014631404141E141014002D
:00000001FF
