:1000000005C100000C94DC320C9407330C9432339D
:100010000C945D330C9488330C94B3330C94DE331E
:100020000C94093424C1000022C1000020C100004A
:100030001EC100001CC100001AC1000018C1000050
:1000400016C1000014C1000012C1000010C1000060
:100050000EC100000CC100000AC100000C94343431
:1000600006C100000C9408380C943E3800C1000012
:10007000FEC00000FCC00000FAC00000F8C0000094
:10008000F6C00000F4C00000F2C00000F0C00000A4
:100090000C9494380C94CA38EAC00000E8C0000000
:1000A000E6C00000E4C00000E2C00000E0C00000C4
:1000B000DEC00000DCC00000DAC00000D8C00000D4
:1000C000D6C00000D4C000000C94A12E0C9420399E
:1000D0000C945639CCC000000C94AC390C94E23925
:1000E000C6C0000000000A0B02090C0D0E08070331
:1000F00004010000000000000000000000000000FB
:1001000000000000000000000000000000000000EF
:1001100012111000000000000000000000000000AC
:100120000000000000000000000001021020200874
:100130000810204010204080020102010804020142
:1001400001020408102040808040201008040201B1
:10015000800402018040201008040201080402010A
:100160000102040810204080010204081020408091
:1001700005050505070508080808020202020A0A23
:100180000808040404040101010101010101030341
:10019000030303030303040707070C0C0C0C0C0CEC
:1001A0000C0C0202020206060606060606060B0BE9
:1001B0000B0B0B0B0B0B000020002300260029006B
:1001C0002C002F003200000100000301060109018C
:1001D00000002200250028002B002E0031003400F2
:1001E00002010000050108010B01000021002400AC
:1001F00027002A002D003000330001010000040117
:1002000007010A016738F3387F390B3A11241FBE02
:10021000CFEFD1E2DEBFCDBF00E00CBF13E0A0E026
:10022000B2E0ECEBF5E700E00BBF02C007900D92E7
:10023000AA3BB107D9F72BE0AAEBB3E001C01D92AE
:10024000A235B207E1F711E0C6E0D1E000E006C058
:1002500021970109802FFE010E94AB3AC230D107DD
:1002600080E00807A9F70E94BD2F0C94DC3AC8CEA5
:10027000FC01A781B0858C9191858923A481B581EA
:100280009C9140815181628173812681922359F032
:1002900081110BC04F5F5F4F6F4F7F4F4083518382
:1002A0006283738308958111F5CF4150510961092B
:1002B0007109F4CF8BEB93E0DBCF86EC93E0D8CFE2
:1002C00081ED93E0D5CF8CED93E0D2CFFC01A481FA
:1002D000B5818C9196818923A781B0859C914081BD
:1002E0005181628173812185922359F0882359F0CD
:1002F0004F5F5F4F6F4F7F4F4083518362837383A4
:1003000008958823A9F34150510961097109F4CF77
:100310008BEB93E0DBCF86EC93E0D8CF81ED93E0DD
:10032000D5CF8CED93E0D2CF0F931F93CF93DF9374
:10033000D82FC62F8A01A091BA038BE0A89FD001C5
:100340001124A554BC4F1D921D921D921C9213970F
:1003500081E01A968C931A978D2F90E0FC01E65D50
:10036000FE4FE4911696EC931697FC01E059FE4F70
:10037000E491F0E0EE0FFF1FEA54FE4F8591949157
:1003800015969C938E931497862F90E0FC01E65D62
:10039000FE4FE4911996EC931997FC01E059FE4F3A
:1003A000E491F0E0EE0FFF1FEA54FE4F8591949127
:1003B00018969C938E93179760E08D2F0E94753648
:1003C00060E08C2F0E9475368091BA03813009F469
:1003D0003FC0A8F0823009F462C0833009F486C0BF
:1003E0008091BA0391E0980F9093BA03F80180834B
:1003F00090E080E0DF91CF911F910F91089580E010
:10040000D23049F081E0D33031F08EEE8D0F843060
:10041000D8F487E18D1B41E050E06AE571E00E946D
:10042000623280E0C23049F081E0C33031F08EEEBC
:100430008C0F843058F487E18C1B41E050E068E871
:1004400071E00E946232CCCF8FEFE5CF8FEFF5CF16
:1004500080E0D23049F081E0D33031F08EEE8D0F64
:100460008430C8F487E18D1B41E050E06DE571E018
:100470000E94623280E0C23049F081E0C33031F046
:100480008EEE8C0F843048F487E18C1B41E050E005
:100490006BE871E0D6CF8FEFE7CF8FEFF7CF80E03B
:1004A000D23049F081E0D33031F08EEE8D0F8430C0
:1004B000C8F487E18D1B41E050E060E671E00E94E6
:1004C000623280E0C23049F081E0C33031F08EEE1C
:1004D0008C0F843048F487E18C1B41E050E06EE8DB
:1004E00071E0AFCF8FEFE7CF8FEFF7CF80E0D23063
:1004F00049F081E0D33031F08EEE8D0F8430C8F4B6
:1005000087E18D1B41E050E063E671E00E946232BA
:1005100080E0C23049F081E0C33031F08EEE8C0FC4
:10052000843048F487E18C1B41E050E061E971E0E0
:1005300088CF8FEFE7CF8FEFF7CF9BE0899FF00158
:100540001124E554FC4F80819181A281B381FB018C
:1005500080839183A283B38390E080E008959BE041
:10056000899FF0011124E554FC4F10821182128200
:10057000138290E080E0089590E080E00895CF92AB
:10058000DF92EF92FF92CF93882351F16A017B01B2
:10059000CFEFC80F20E030E0A901CB01B6010E94E7
:1005A000AB3018168CF0C701B60190580E941C3170
:1005B0009B01AC016C2F70E090E080E0CF91FF9048
:1005C000EF90DF90CF90B2C0C701B6010E94173103
:1005D0008C2FCF91FF90EF90DF90CF900C943B3514
:1005E000CF91FF90EF90DF90CF9008950F931F93DE
:1005F0008B019C0183E036952795179507958A9581
:10060000D1F709511C4F462F477021E030E0F90126
:1006100002C0EE0FFF1F4A95E2F7AF01F8012081FB
:100620002423CB010196211102C090E080E01F91AC
:100630000F9108950F931F938B019C0183E03695D2
:100640002795179507958A95D1F7677081E090E017
:1006500001C0880F6A95EAF7F801E951FC4F208143
:10066000452B31F48095822380831F910F9108954B
:10067000822BFACF2F923F924F925F926F927F928E
:100680008F929F92AF92BF92CF92DF92EF92FF92A2
:100690000F931F93CF93DF93D62EC72E782E692EFC
:1006A00049015A01280161E08D2D0E947536CD2D3A
:1006B000DC2D8E010F5F1F4FA8016D2D7C2D872D26
:1006C000962DB8DF20E030E0A901C201B7010E94F9
:1006D000FA31181664F4C201B7010E941C312B01D3
:1006E000C501B4010E941C31A201CE0123D0C80172
:1006F000DF91CF911F910F91FF90EF90DF90CF90FE
:10070000BF90AF909F908F907F906F905F904F9031
:100710003F902F900895882341F08150682F70E01A
:1007200090E080E050E040E085CF0895862FB90149
:100730000C943B359C01FC01EC51FF4FE491E150DE
:10074000E231E0F4F0E08827E755FC4F8F4F0C943E
:10075000AB3ABB03C203C503DC03F103BE030604CB
:10076000120416042D04420457046E048304BE03CD
:100770009804AF04C40484B5806884BD60E0822F0F
:100780000C94B13684B58062F8CF809180008C7F64
:1007900082608093800080918100807E8061682BE0
:1007A0006093810050938700409386008091800081
:1007B000806880938000E2CF809180008C7F82608F
:1007C0008093800080918100807E8061682B60939F
:1007D0008100509387004093860080918000806262
:1007E000E8CF809180008C7F826080938000809130
:1007F0008100807E8061682B609381005093870028
:1008000040938600809180008860D3CF8091B000B3
:1008100080688093B0008091B100887F682B6093DE
:10082000B100ACCF8091B0008062F3CF8091900096
:100830008C7F82608093900080919100807E8061A7
:10084000682B60939100509397004093960080919D
:10085000900080688093900091CF809190008C7F71
:1008600082608093900080919100807E8061682BEF
:100870006093910050939700409396008091900070
:100880008062E8CF809190008C7F8260809390009E
:1008900080919100807E8061682B609391005093DD
:1008A000970040939600809190008860D3CF80910C
:1008B000A0008C7F82608093A0008091A100807E48
:1008C0008061682B6093A1005093A7004093A6001D
:1008D0008091A00080688093A00050CF8091A000FC
:1008E0008C7F82608093A0008091A100807E8061D7
:1008F000682B6093A1005093A7004093A6008091BD
:10090000A0008062E8CF8091A0008C7F82608093FD
:10091000A0008091A100807E8061682B6093A1007F
:100920005093A7004093A6008091A0008860D3CF89
:10093000809120018C7F8260809320018091210131
:10094000807E8061682B6093210150932701409342
:100950002601809120018068809320010FCF809133
:1009600020018C7F82608093200180912101807E14
:100970008061682B609321015093270140932601E9
:10098000809120018062E8CF809120018C7F82607D
:100990008093200180912101807E8061682B60938B
:1009A0002101509327014093260180912001886006
:1009B000D3CF90E080E008950F931F93009709F440
:1009C00089C06115710509F485C00091ED0210918F
:1009D000EE022091EF023091F0020E3F1F4F2F4F99
:1009E0003F4F09F068C04FEF5FEFBA014093ED024F
:1009F0005093EE026093EF027093F0024091ED028B
:100A00005091EE026091EF027091F002DC011296BB
:100A1000ED91FC9180819181A281B38180936604E4
:100A200090936704A0936804B093690484819581CE
:100A3000A681B7818093620490936304A0936404B9
:100A4000B093650480859185A285B38580935E040B
:100A500090935F04A0936004B093610484859585AE
:100A6000A685B78580935A0490935B04A0935C0499
:100A7000B0935D04109256041092570410925804DB
:100A8000109259040E9487128CEA92E19093F1032C
:100A90008093F0039093F3038093F2030E94761106
:100AA000009731F421E030E030936B0420936A0426
:100AB0001F910F9108950091ED021091EE02209187
:100AC000EF023091F002DB010D931D932D933C93C7
:100AD000139794CF8FEF9FEFEBCF8F929F92AF92B0
:100AE000BF92CF92DF92EF92FF921F93CF93DF934B
:100AF0004B015C0110916D0482E090E090936B04D7
:100B000080936A0481149104A104B10441F480919A
:100B10006D04811104C080916C04C1E08111C0E0BA
:100B2000C12CD12C760180916D04811106C0809179
:100B30006C04811102C0CC23D9F083E090E0909343
:100B40006B0480936A04CC2381F1CCE9DFEF1111AF
:100B500002C00E941016CE01DF91CF911F91FF902D
:100B6000EF90DF90CF90BF90AF909F908F900895BF
:100B70006AE070E080E090E00E94A33480E1C80E5B
:100B800087E2D81EE11CF11C8FEF88169806A80694
:100B9000B80631F0C1E08C149D04AE04BF0408F027
:100BA000C0E080E00E94AA11BECFD0E0C0E0CFCF6D
:100BB000CF92DF92EF92FF920F931F93CF93DF9329
:100BC0008F3F910511F008F051C020916A043091D7
:100BD0006B042330310539F020916A0430916B04A5
:100BE0002130310531F424E030E030936B04209360
:100BF0006A046A017B01EC0182309105A8F011E0E2
:100C0000AE01C701B6010E947511AB01BC01CE0156
:100C10001123F9F0DF91CF911F910F91FF90EF9089
:100C2000DF90CF900C9439188C01000F111F0051E8
:100C30001C4FD8018D919C91892B09F30E94431878
:100C40000297E9F6D801ED91FC91CE011995182F84
:100C5000D7CF0E945B1890E080E0DF91CF911F9189
:100C60000F91FF90EF90DF90CF9008958FEF9FEF5F
:100C7000F4CF80E00C94AA11CF93DF9386E090E04C
:100C800090936B0480936A040E940312EC01E0EFDE
:100C9000F3E084E0DF011D928A95E9F70E94A81530
:100CA00010926B0410926A04CE01DF91CF910895E7
:100CB00080916C0408958091550408956093ED022D
:100CC0007093EE028093EF029093F00290E080E048
:100CD00008952F923F924F925F926F927F928F92E0
:100CE0009F92AF92BF92CF92DF92EF92FF920F93BB
:100CF0001F93CF93DF9300D000D0CDB7DEB74B0169
:100D00005C015E834D83190167017801DA014D9022
:100D10005D906D907C90AC019B01C301B2010E947B
:100D2000FA3187FD53C0A3019201C501B4010E94AD
:100D300046306B017C01A3019201ED81FE8164814B
:100D40007581868197810E9446309B01AC01C70165
:100D5000B6010E94AF306B017C0119821A821B829E
:100D60001C82E981FA81EE0FFF1FEE0FFF1FE20DDB
:100D7000F31D80809180A280B380A50194016481DD
:100D80007581868197810E944630A70196010E9455
:100D9000FE31A50194010E94473026960FB6F894C3
:100DA000DEBF0FBECDBFDF91CF911F910F91FF909E
:100DB000EF90DF90CF90BF90AF909F908F907F90FB
:100DC0006F905F904F903F902F9008958601000F95
:100DD000111F000F111F2D813E81020F131FD8011B
:100DE0004D905D906D907C90A5019401C301B2017E
:100DF0000E94FA3118160CF06DC026013701769466
:100E000067945794479419821A821B821C82D701D7
:100E1000C60129813A814B815C81821B930BA40B13
:100E2000B50B0297A105B10558F5C901880F991FA7
:100E3000880F991F4D815E81480F591F5E834D8336
:100E4000DA01CD90DD90ED90FC90A7019601C501EF
:100E5000B4010E9446304B015C01A7019601ED816F
:100E6000FE8164817581868197810E9446309B0155
:100E7000AC01C501B4010E94AF306B017C0171CFA0
:100E8000F201EE0FFF1FEE0FFF1F2D813E81E20FDB
:100E9000F31FA501940160817181828193810E9479
:100EA000FA31181634F049825A826B827C8226010C
:100EB000370189819A81AB81BC81840D951DA61D66
:100EC000B71D730162012C013D017694679457941C
:100ED00047949DCFA701960121503109410951093D
:100EE00029833A834B835C83F8013497C080D18097
:100EF000E280F380A7019601C501B4010E9446304B
:100F00004B015C01A7019601C301B201AECF2F9244
:100F10003F924F925F926F927F928F929F92AF9289
:100F2000BF92CF92DF92EF92FF920F931F93CF93D6
:100F3000DF93CDB7DEB7CB54D1090FB6F894DEBF3F
:100F40000FBECDBF26967FAF6EAF269728965FAFB8
:100F50004EAF28973E8B2D8B2C96FFAEEEAE2C9786
:100F6000FB01E150F04CEE0FFF1FEE0FFF1FE80FEB
:100F7000F91F80809180A280B3808F8A988EA98E7D
:100F8000BA8EB501A401442777FD439555276627FE
:100F9000772729964FAF2997F901E150F04CEE0FD2
:100FA000FF1FEE0FFF1F2896AEACBFAC2897EA0DCF
:100FB000FB1DC080D180E280F380CB8EDC8EED8E75
:100FC000FE8EB701A601442777FD43955527662776
:100FD00077272A964FAF2A97188B0F87F80130E0B2
:100FE00020E02C96EEACFFAC2C972E153F050CF4B0
:100FF0003FC022969FAF8EAF22971A8B098B312C60
:10100000212C812C912C540183948D829E82AF825D
:10101000B88626968EAC9FAC2697281439047CF1AE
:1010200029969FAC29972A96AFAC2A9730E020E00A
:1010300041E050E060E070E09A10F5C1C55BDF4F21
:101040000FB6F894DEBF0FBECDBFDF91CF911F91D9
:101050000F91FF90EF90DF90CF90BF90AF909F9057
:101060008F907F906F905F904F903F902F9008955A
:1010700011921192119211922F5F3F4FB2CF22968F
:10108000EEADFFAD229781919191A191B191229600
:10109000FFAFEEAF22978F88988CA98CBA8CB7FEE1
:1010A00023C04D815E816F8178854150510961096E
:1010B00071095A016B01A81AB90ACA0ADB0AD601DA
:1010C000C50121E0CD80DE80EF80F8848C159D0580
:1010D000AE05BF0508F020E0822E912CB12CA12C8A
:1010E0008D829E82AF82B8865D01CC24DD24A8A2C9
:1010F000B9A2CAA2DBA29C01AD01442755272CA3AB
:101100003DA34EA35FA32C96EEADFFAD2C97E21945
:10111000F3098D889E888E169F060CF4F40128969C
:10112000AEACBFAC28972496BFAEAEAE2497C988AC
:10113000DA88DC8ACB8A1E861D86812C912C54018C
:10114000839489869A86AB86BC86812C912C540127
:10115000CD84DE84CE16DF0604F1F7FF02C0F0E096
:10116000E0E0E20DF31D2C96EEACFFAC2C97EE15F3
:10117000FF0554F4EE0FFF1FEE0FFF1FE00FF11FEE
:1011800080829182A282B3822FEF221A320AE989E9
:10119000FA893496FA8BE98B3CCF2496AEADBFAD7D
:1011A0002497CD90DD90ED90FD902496BFAFAEAF2B
:1011B00024972B8D3C8D4D8D5E8D57FF22C08985E8
:1011C0009A85AB85BC850197A109B109AC01BD0128
:1011D0004C195D096E097F096A017B0181E029854F
:1011E0003A854B855C85C216D306E406F50608F001
:1011F00080E0482F50E070E060E049875A876B87B5
:101200007C87B7018827992768A779A78AA79BA712
:10121000EE24FF2428A139A14AA15BA1C701B60190
:101220000E94663A2B013C012CA13DA14EA15FA179
:1012300068A579A58AA59BA50E94663A6CA77DA79B
:101240008EA79FA7AB89BC894D915D916D917D91D2
:10125000BC8BAB8BDB01CA01880D991DAA1DBB1D80
:1012600089839A83AB83BC8391E09F8F29813A81E4
:101270004B815C81281539054A055B0508F01F8EF6
:101280002CA13DA14EA15FA1C701B6010E94663A03
:101290006B017C0189809A80AB80BC808C0C9D1C8A
:1012A000AE1CBF1C89829A82AB82BC8252019924F7
:1012B000882488AA99AAAAAABBAA29813A814B8123
:1012C0005C81280D391D4A1D5B1D2CAB3DAB4EAB1F
:1012D0005FAB8CA49DA4AEA4BFA454019924882420
:1012E00088AE99AEAAAEBBAE280D391D4A1D5B1D56
:1012F0002CAF3DAF4EAF5FAFAB89BC8914972D9338
:101300003D934D935C93139728A139A14AA15BA10A
:1013100068A579A58AA59BA50E94663A9F8C690D50
:10132000711D811D911D230166247724460E571ED1
:10133000681E791E2CA53DA54EA55FA54A01AA24CD
:10134000BB24840C951CA61CB71C81E090E0A0E097
:10135000B0E049815A816B817C814C155D056E0539
:101360007F0518F080E090E0DC01880D991DAA1D32
:10137000BB1D41E050E060E070E088A899A8AAA8F1
:10138000BBA8CCA8DDA8EEA8FFA8C814D904EA041D
:10139000FB0418F040E050E0BA01840F951FA61F2F
:1013A000B71F812C912C54018394C8ACD9ACEAAC02
:1013B000FBAC2CAD3DAD4EAD5FAD2C153D054E05E6
:1013C0005F0518F0812C912C5401880E991EAA1EDD
:1013D000BB1E4D855E854F5F5F4F5E874D87B8CEE4
:1013E000EF85F889C190D190E190F190F88BEF876B
:1013F000DB01CA010197A109B1098C199D09AE0948
:10140000BF09349780839183A283B383E1E084177B
:101410009507A607B70708F0E0E04E2F50E070E010
:1014200060E02F5F3F4F2C968EAC9FAC2C97281519
:101430003905B4F203CE8F929F92AF92BF92CF92B2
:10144000DF92EF92FF92CF93DF93F9016217730758
:101450000CF4FB016C017A01B0E0A0E0AE17BF070D
:101460004CF162177307DCF46150704C660F771F04
:10147000660F771F680F791FDB01CD90DD90ED902F
:10148000FC90FF0CCC08DC2C7601DF01AA0FBB1FFF
:10149000AA0FBB1FA40FB51FE217F307CCF0DF9113
:1014A000CF91FF90EF90DF90CF90BF90AF909F9043
:1014B0008F900895E60189909990A990B9906E0156
:1014C000E70189929992A992B9927E011196C6CFAD
:1014D000CD92DD92ED92FD923196DECF2F923F922A
:1014E0004F925F926F927F928F929F92AF92BF9234
:1014F000CF92DF92EF92FF920F931F93CF93DF93E0
:1015000079011B01DA01D0E0C0E040E050E0BA010F
:10151000CE15DF059CF0DF91CF911F910F91FF90C9
:10152000EF90DF90CF90BF90AF909F908F907F9083
:101530006F905F904F903F902F900895FC018190A5
:101540009190A190B190CF01F10101911191219160
:1015500031911F0124013501401A510A620A730AB0
:1015600093018201041B150B260B370B0D931D9362
:101570002D933D9366246394712CC12CD12C452B63
:10158000462B472B39F0081519052A053B0538F479
:10159000612C05C080169106A206B306C8F7A30108
:1015A000B6012196B5CF4F925F926F927F928F9244
:1015B0009F92AF92BF92CF92DF92EF92FF920F93E2
:1015C0001F93CF93DF93CDB7DEB7E0970FB6F894B4
:1015D000DEBF0FBECDBFC0900C02D0900D02E090D8
:1015E0000E02F0900F02A70196016091070B709117
:1015F000080B8091090B90910A0B0E94AB30882355
:1016000041F0C092070BD092080BE092090BF092C8
:101610000A0B8091060B81111092060B68EF7AE09D
:1016200080910B0B0E949D02C0900802D09009028D
:10163000E0900A02F0900B02A70196016091130B53
:101640007091140B8091150B9091160B0E94AB308A
:10165000882341F0C092130BD092140BE092150B2B
:10166000F092160B8091120B81111092120B6CEFFD
:101670007AE08091170B0E949D028091F80A909168
:10168000F90AA091FA0AB091FB0A8093F00A9093AC
:10169000F10AA093F20AB093F30A4091FC0A509128
:1016A000FD0A6091FE0A7091FF0A4093F40A50937C
:1016B000F50A6093F60A7093F70A4091E802509198
:1016C000E9026091EA027091EB0249A75AA76BA761
:1016D0007CA78DA79EA7AFA7B8AB52E0E52EF12C53
:1016E0008E01035F1F4F21E030E0AE01435D5F4F8D
:1016F00061E070E0CE0189960ADC88E0F801A0EC98
:10170000BAE001900D928A95E1F78091EC02082EE3
:10171000000C990BAA0BBB0B8DA39EA3AFA3B8A77C
:1017200063E0E62EF12C0C50110921E030E0AE010F
:101730004B5D5F4F62E070E0CE010D96E8DB22E08A
:1017400030E0AE014B5E5F4F63E070E0C80173DED6
:1017500088E0FE017596DE015D9601900D928A95F6
:10176000E1F722E030E040ED5AE068E37BE0CE01B3
:101770004596B4DE8091F40A9091F50AA091F60A9C
:10178000B091F70A8DA79EA7AFA7B8AB72E0E72E7E
:10179000F12C045F1F4F21E030E0AE01435D5F4F4D
:1017A00061E070E0CE018996B2DB88E0F801A8EC38
:1017B000BAE001900D928A95E1F7E3E0EE2EF12C6C
:1017C0000C50110921E030E0AE014B5D5F4F62E04B
:1017D00070E0CE010D969BDB22E030E0AE014B5E67
:1017E0005F4F63E070E0C80126DE22E030E048EDA4
:1017F0005AE060E47BE0CE01459670DE6091100215
:101800007091110280911202909113021AE0E12E60
:10181000F12C00E010E028E132E044E452E059DA33
:101820005B018C01CB01D8018093E40A9093E50A17
:10183000A093E60AB093E70AC0907002D0907102BC
:10184000E0907202F0907302A7019601B501C80101
:101850000E94FA31181694F0C0907402D09075026C
:10186000E0907602F0907702A7019601B501C801D9
:101870000E94AB3087FD02C065017801E894F7F85B
:10188000C092E00AD092E10AE092E20AF092E30A02
:101890006AE070E080E090E00E94F6028C01909394
:1018A0001F0B80931E0BC090E00AD090E10AE090DD
:1018B000E20AF090E30A20E030E04FE753E4C7018A
:1018C000B6010E94AB30181694F120E030E0A90177
:1018D000C701B6010E94FA3187FF03C0C12CD12C89
:1018E0007601B701A601C8010E94BF028090E40AF8
:1018F0009090E50AA090E60AB090E70AC0907802BE
:10190000D0907902E0907A02F0907B02A7019601D4
:10191000C501B4010E94FA31181684F4C092E40A99
:10192000D092E50AE092E60AF092E70A17C0C12CCD
:10193000D12C4FE7E42E43E4F42ED3CFC0907C02A9
:10194000D0907D02E0907E02F0907F02A701960188
:10195000C501B4010E94AB3087FDE0CF6BE070E0C1
:1019600080E090E00E94F6028C0190932F0B809310
:101970002E0BC090E40AD090E50AE090E60AF090C1
:10198000E70A20E030E04FE753E4C701B6010E94C8
:10199000AB3018160CF4AAC020E030E0A901C70152
:1019A000B6010E94FA3187FF03C0C12CD12C760109
:1019B000B701A601C8010E94BF0260911402709194
:1019C000150280911602909117021AE0E12EF12C77
:1019D00000E010E020E832E04CEA52E07AD95B0106
:1019E0008C01CB01D8018093EC0A9093ED0AA0936F
:1019F000EE0AB093EF0AC090D802D090D902E090DE
:101A0000DA02F090DB02A7019601B501C8010E943D
:101A1000FA31181694F0C090DC02D090DD02E0900C
:101A2000DE02F090DF02A7019601B501C8010E9415
:101A3000AB3087FD02C065017801E894F7F8C092E9
:101A4000E80AD092E90AE092EA0AF092EB0A68E02A
:101A500070E080E090E00E94F6028C019093270BEA
:101A60008093260BC090E80AD090E90AE090EA0A39
:101A7000F090EB0A20E030E04FE753E4C701B601F5
:101A80000E94AB301816CCF120E030E0A901C7016C
:101A9000B6010E94FA3187FF03C0C12CD12C760118
:101AA000B701A601C8010E94BF028090EC0A909085
:101AB000ED0AA090EE0AB090EF0AC090E002D0903C
:101AC000E102E090E202F090E302A7019601C50175
:101AD000B4010E94FA311816BCF4C092EC0AD092FC
:101AE000ED0AE092EE0AF092EF0A1EC0C12CD12C52
:101AF0003FE7E32E33E4F32E5BCFC12CD12C9FE7DD
:101B0000E92E93E4F92ECCCFC090E402D090E50208
:101B1000E090E602F090E702A7019601C501B4014A
:101B20000E94AB3087FDD9CF69E070E080E090E0A3
:101B30000E94F6028C019093370B8093360BC09075
:101B4000EC0AD090ED0AE090EE0AF090EF0A20E067
:101B500030E04FE753E4C701B6010E94AB301816DE
:101B60000CF49BC020E030E0A901C701B6010E943F
:101B7000FA3187FF03C0C12CD12C7601B701A60131
:101B8000C8010E94BF0288E0FE017D96A8E3BBE089
:101B900001900D928A95E1F788E0FE017596A0E428
:101BA000BBE001900D928A95E1F7C0902804D09097
:101BB0002904E0902A04F0902B048FEFC81AD80A69
:101BC000E80AF80AC0922804D0922904E0922A0474
:101BD000F0922B04C114D104E104F10499F4809132
:101BE0002C0490912D04A0912E04B0912F04019605
:101BF000A11DB11D80932C0490932D04A0932E045D
:101C0000B0932F048090300490903104A09032045F
:101C1000B090330460912C0470912D0480912E04B7
:101C200090912F040E944831A50194010E94FE3139
:101C300020E030E040E85FE40E94FE312B013C01EF
:101C4000C701B6010E944831A50194010E94FE31EE
:101C50009B01AC01C301B2010E9447306093240490
:101C6000709325048093260490932704E0960FB682
:101C7000F894DEBF0FBECDBFDF91CF911F910F91C2
:101C8000FF90EF90DF90CF90BF90AF909F908F909C
:101C90007F906F905F904F900895C12CD12C8FE76B
:101CA000E82E83E4F82E6ACF8F929F92AF92BF9274
:101CB000DF92EF92FF920F931F93CF93DF93EEE0AB
:101CC000F4E08BE2DF011D928A95E9F780E090E075
:101CD000A0E2B1E486A397A3A0A7B1A78DEC9CECEA
:101CE000ACE4BEE382A393A3A4A3B5A381E295EEE3
:101CF000AEE0BEE184839583A683B78388E19DEB44
:101D0000ADEFBBED80879187A287B38782EF90EE1E
:101D1000A6E7BFE684879587A687B78782E396E81C
:101D2000A6E1BAED808B918BA28BB38BA2E0B4E0DD
:101D3000B383A283E4EFF3E01196FC93EE9386E283
:101D400093E09183808393838283958384839783B5
:101D5000868391878087938782879587848782E2AD
:101D600094E015969C938E93149782E194E01396D9
:101D70009C938E93129784E294E017969C938E9393
:101D80001697E0ECFAE080E4DF011D928A95E9F70E
:101D9000C0E0DBE080E5FE0111928A95E9F7DD24E1
:101DA000D394D0924E0B00E012E0F8018485958523
:101DB000A685B7858F839887A987BA87812C912CB0
:101DC0005401839489829A82AB82BC824BE05BE0AF
:101DD00063E182E10E949401DD821E821F8A1C86DB
:101DE000D0924F0BF80180859185A285B3858B8BAE
:101DF0009C8BAD8BBE8B8D869E86AF86B88A47E165
:101E00005BE063E082E00E949401D98A1A8A188E0E
:101E1000D0924A0B898E9A8EAB8EBC8EE12CF12C1F
:101E20008701A80197016AE070E080E090E00E94DD
:101E30003A039F8F8E8FDD8E18A6D0924C0B89A609
:101E40009AA6ABA6BCA6A80197016BE070E080E063
:101E500090E00E943A039FA78EA7DDA618A2D09219
:101E60004B0B89A29AA2ABA2BCA2A801970168E081
:101E700070E080E090E00E943A039FA38EA3DDA271
:101E800018AAD0924D0B89AA9AAAABAABCAAA801FB
:101E9000970169E070E080E090E00E943A039FAB18
:101EA0008EABDDAA88E0E0E0F2E0A8E3BBE00190C1
:101EB0000D928A95E1F788E0E0E0F2E0A0E4BBE073
:101EC00001900D928A95E1F78B850E94AF028F8970
:101ED000DF91CF911F910F91FF90EF90DF90BF9016
:101EE000AF909F908F900C94AF028091000B811166
:101EF00014C081E08093000B8091010B9091020B44
:101F0000A091030BB091040B0197A105B10529F431
:101F10008091050B81110E94BC0280910C0B8111F4
:101F200014C081E080930C0B80910D0B90910E0BEF
:101F3000A0910F0BB091100B0197A105B10529F4E9
:101F40008091110B81110E94BC028091180B8111AC
:101F50002EC081E08093180B8091190B90911A0B81
:101F6000A0911B0BB0911C0B0197A105B105F9F4D1
:101F700080911D0B8823D9F06AE070E080E090E04A
:101F80000E94F60290931F0B80931E0B40E050E0DE
:101F9000BA010E94BF026AE070E080E090E00E9417
:101FA000F60290931F0B80931E0B0E948B0380916F
:101FB000280B81112EC081E08093280B8091290B82
:101FC00090912A0BA0912B0BB0912C0B0197A1059E
:101FD000B105F9F480912D0B8823D9F06BE070E006
:101FE00080E090E00E94F60290932F0B80932E0BDE
:101FF00040E050E0BA010E94BF026BE070E080E078
:1020000090E00E94F60290932F0B80932E0B0E947B
:102010008B038091200B81112EC081E08093200BD7
:102020008091210B9091220BA091230BB091240B56
:102030000197A105B105F9F48091250B8823D9F00A
:1020400068E070E080E090E00E94F6029093270B39
:102050008093260B40E050E0BA010E94BF0268E086
:1020600070E080E090E00E94F6029093270B80934E
:10207000260B0E948B038091300B81112EC081E0D2
:102080008093300B8091310B9091320BA091330BE8
:10209000B091340B0197A105B105F9F48091350B8E
:1020A0008823D9F069E070E080E090E00E94F602B9
:1020B0009093370B8093360B40E050E0BA010E94BA
:1020C000BF0269E070E080E090E00E94F602909329
:1020D000370B8093360B0C948B0308954F925F92CD
:1020E0006F927F928F929F92AF92BF92CF92DF9228
:1020F000EF92FF920F931F93F894409045045090F5
:1021000046046090470470904804C0903904D09011
:102110003A04E0903B04F0903C04452B09F0A6C043
:102120009B01AC01241935094609570929013A01D7
:1021300000914104109142042091430430914404E1
:1021400048015901840C951CA61CB71C80169106E9
:10215000A206B306A0F400913D0410913E04209124
:102160003F04309140040F5F1F4F2F4F3F4F0093AC
:102170003D0410933E0420933F043093400480922A
:10218000410490924204A0924304B092440400910E
:102190003D0410913E0420913F0430914004809210
:1021A000490490924A04A0924B04B0924C040093CC
:1021B0004D0410934E0420934F04309350046093C9
:1021C0004504709346048093470490934804A30108
:1021D000920160E47DE083E090E00E94663A6C0D3D
:1021E0007D1D8E1D9F1D6093390470933A0480936A
:1021F0003B0490933C040091ED021091EE0220917B
:10220000EF023091F0020F3F1F4F2F4F3F4FF1F081
:102210000091ED021091EE022091EF023091F00258
:102220000E3F1F4F2F4F3F4F89F0C090ED02D090CF
:10223000EE02E090EF02F090F00221E08C149D0499
:10224000AE04BF0408F420E02093550478941F9155
:102250000F91FF90EF90DF90CF90BF90AF909F9045
:102260008F907F906F905F904F9008954B015C012D
:1022700084189508A608B708A3019201261B370BFE
:10228000480B590B6415750586059705E0F0821615
:102290009306A406B50640F420E030E0A9018114BD
:1022A0009104A104B104A1F460E47DE083E090E036
:1022B0000E94663AA7019601261B370B480B590B63
:1022C000CA01B901C3CF82169306A406B50660F70A
:1022D000A501940160E47DE083E090E00E94663A0D
:1022E0006C0D7D1D8E1D9F1DB1CFF8CECF93DF935A
:1022F00000D01F92CDB7DEB71C821B821A821982D2
:1023000010925104109252041092530410925404EB
:10231000BE016F5F7F4FCE0103960E94712E6981CF
:102320007A818B819C810E945F27009761F4BE01B6
:102330006F5F7F4FCE0103960E947D2E69817A8167
:102340008B819C812ED50F900F900F900F90DF9175
:10235000CF910895FF920F931F93CF93DF93082F90
:1023600060E070E0CB010E94A334FF24F3940E944C
:102370004826EC01892B89F010E0CE3F8FEFD8077B
:1023800069F0002361F160E070E0CB010E94A334AA
:1023900081E090E0892B59F322C011E025D5EC01B2
:1023A000892B21F0CE3F8FEFD80759F711111EC0AE
:1023B00011E0229609F410E00E94F825EC01892B27
:1023C00021F0CE3F8FEFD807E1F6111111C011E0D7
:1023D000CE3F8FEFD80709F410E001110BC0CE01FA
:1023E000DF91CF911F910F91FF90089511E0E4CFFD
:1023F00011E0F3CF60E070E0CB010E94A3341F2511
:10240000812F90E0C7CFCF93DF938091550488232D
:1024100021F060E070E0CB014CD635D6D0E0C0E0D2
:10242000892B71F06AE070E080E090E00E94A334B4
:1024300081E090DF28D62196C03D27E0D20781F7C2
:1024400027D60E94B32710926D0410926C0410924C
:102450006604109267041092680410926904109246
:102460006204109263041092640410926504109246
:102470005E0410925F041092600410926104109246
:102480005A0410925B0410925C0410925D04109246
:1024900056041092570410925804109259044EEFAB
:1024A0005FEF6FEF7FEF4093ED025093EE0260938A
:1024B000EF027093F00210925504E9E4F4E028E092
:1024C000DF011D922A95E9F7109245041092460407
:1024D0001092470410924804109241041092420452
:1024E000109243041092440410923D0410923E0452
:1024F00010923F04109240041092390410923A0452
:1025000010923B0410923C04DF91CF9108951092F9
:10251000790410927A0410927B0410927C04109239
:102520007804809181049091820490937704809341
:102530007604109275041092740410927004109234
:102540007104109272041092730410927E0410921F
:102550007D0490E080E00895CF92DF92EF92FF92A9
:102560000F931F93CF938C01892B09F055C02091B5
:102570008104309182048091760490917704409197
:102580008104509182045093770440937604281775
:10259000390781F01092750410927404109270043F
:1025A00010927104109272041092730410927E04BF
:1025B00010927D048091810490918204019761F5CD
:1025C00080917D0490917E04892B21F48091F10209
:1025D000811112C080917D0490917E040197E1F4F5
:1025E0008091700490917104A0917204B091730471
:1025F0000197A105B10581F4109270041092710445
:1026000010927204109273041092F10282E090E032
:1026100090937E0480937D04809181049091820444
:10262000019709F01CC1809197049091980480173C
:10263000910709F014C18091930490919404A091A2
:102640009504B0919604009709F409C12091920471
:1026500021110DC040919304509194046091950410
:1026600070919604452B462B472B09F4F8C0209116
:102670007D0430917E042230310509F0F0C02091B4
:1026800074042111ECC0FC01C080D180E280F38091
:1026900080917804882309F4D3C0809184049091B8
:1026A0008504892B09F4FDC02091840430918504B0
:1026B00081E02230310509F080E0209184043091DE
:1026C0008504C1E02130310549F020918404309126
:1026D0008504C1E02230310509F0C0E0882309F407
:1026E00056C020918E0430918F04409190045091F7
:1026F0009104C701B6010E94FA3187FD14C02091F0
:102700008E0430918F044091900450919104609117
:10271000790470917A0480917B0490917C040E94EA
:10272000AB3087FD22C020918E0430918F04409100
:10273000900450919104C701B6010E94FA31181615
:1027400034F520918E0430918F0440919004509183
:1027500091046091790470917A0480917B04909146
:102760007C040E94AB30811112C08091860490914C
:102770008704A0918804B0918904892B8A2B8B2B24
:1027800019F481E08093750481E080937404CC2374
:1027900009F456C020918E0430918F04409190042A
:1027A00050919104C701B6010E94AB3087FF14C05D
:1027B00020918E0430918F044091900450919104A7
:1027C0006091790470917A0480917B0490917C04EB
:1027D0000E94FA3187FF22C020918E0430918F042D
:1027E0004091900450919104C701B6010E94AB3012
:1027F000811126C020918E0430918F044091900465
:10280000509191046091790470917A0480917B04D5
:1028100090917C040E94FA31181694F480918604F9
:1028200090918704A0918804B0918904892B8A2B08
:102830008B2B19F481E08093750481E080937404FC
:1028400081E090917404911180E080937804C092AB
:102850007904D0927A04E0927B04F0927C04012BFC
:1028600009F067C180917D0490917E04892BD9F491
:1028700010928304109274048091F102882379F0FD
:1028800082E090E090937E0480937D041092F102A8
:10289000209181043091820481E0232BE9F080E0D3
:1028A0001BC081E00ACF1092F1028091830488233B
:1028B00049F01092750410927E0410927D041092DB
:1028C0008304EDCF8091810490918204892BE1F003
:1028D000809174041092740420917D0430917E04E0
:1028E0002230310509F45EC088F42115310509F460
:1028F00048C02130310509F4F3C0109275041092DC
:1029000074041092830438C081E0E6CF233031058F
:1029100009F4B1C02430310581F740917004509121
:102920007104609172047091730441155105610541
:10293000710561F0415051096109710940937004BA
:102940005093710460937204709373044091700407
:10295000509171046091720470917304452B462B61
:10296000472BD9F420917F04309180042130310528
:1029700009F046C01092750410927E0410927D04F6
:102980000CC08091F102882341F082E090E09093A6
:102990007E0480937D041092F10210926E04809167
:1029A0007504CEC08823C9F3809186049091870472
:1029B000A0918804B0918904181619061A061B06FE
:1029C0000CF07DC08091810490918204019709F000
:1029D00076C08091860490918704A0918804B0917C
:1029E00089048093700490937104A0937204B0934F
:1029F000730483E090E090937E0480937D04CDCFB8
:102A000040918A0450918B0460918C0470918D04E4
:102A1000452B462B472BA9F01092750480918A0410
:102A200090918B04A0918C04B0918D0480937004DC
:102A300090937104A0937204B093730481E090E0CA
:102A4000DACF882399F08091F2029091F302A0915D
:102A5000F402B091F5028093700490937104A093F6
:102A60007204B093730484E090E0C5CF10927504B3
:102A700082E090E0C0CF8091700490917104A091A9
:102A80007204B09173040097A105B10559F0019744
:102A9000A109B1098093700490937104A09372040A
:102AA000B09373048091700490917104A0917204AA
:102AB000B0917304892B8A2B8B2B09F06ECF8091F8
:102AC000F2029091F302A091F402B091F502892BE9
:102AD0008A2B8B2B09F44ECF81E080937504B3CF02
:102AE000409170045091710460917204709173046C
:102AF000411551056105710561F0415051096109A8
:102B00007109409370045093710460937204709340
:102B1000730440917004509171046091720470913B
:102B20007304452B462B472B09F037CF8111C7CFB4
:102B30009FCF80916E04882309F431CF80916F0478
:102B4000CF911F910F91FF90EF90DF90CF9008955C
:102B50001092790410927A0410927B0410927C04F3
:102B60001092780410927E0410927D0410927704E3
:102B700010927604109298041092970410927504A3
:102B800010927404109270041092710410927204E6
:102B90001092730410926F0410926E0410929304BA
:102BA000109294041092950410929604109292043C
:102BB00010928E0410928F0410929004109291043F
:102BC00088EE93E0A0E0B0E08093F2029093F302ED
:102BD000A093F402B093F50210928A0410928B0431
:102BE00010928C0410928D04109286041092870427
:102BF0001092880410928904109285041092840423
:102C000081E08093F102109283041092820410926A
:102C100081041092800410927F0490E080E0089577
:102C20008091810490918204892B19F58091F102A1
:102C3000882351F080918304811106C081E0809344
:102C40006F0480936E040895209183043091F10203
:102C500081E090E0332311F090E080E030E08223C7
:102C60009323892B21F010926F0481E0EACF109218
:102C70006E04089582E090E0FA01918380838FEFE3
:102C80009FEF0895CF93DF93EA01009711F00E9420
:102C9000D3281982188290E080E0DF91CF910895C7
:102CA000DB01009719F48FEF8C9308952EEF2C938E
:102CB000FC013F96EF30F10508F034C08827EC594D
:102CC000F94E8F4F0C94AB3A90168E168C168A16CE
:102CD000881684168616821680167E167B16771640
:102CE00073167916921680E311968C93089589E2F3
:102CF000FBCF82E2F9CF11961C92089583E2F4CFC4
:102D000081E2F2CF81E1F0CF87E2EECF8AE2ECCF31
:102D100080E1EACF84E2E8CF88E2E6CF86E2E4CF42
:102D200081E3E2CF80E2E0CF8091A5049091A604F8
:102D300008959093A6048093A50408958091A40417
:102D400008959091A404892B8093A4040895982F4A
:102D500090958091A40489238093A4040895809180
:102D6000A30408958091A1049091A204089561158F
:102D7000710559F0FB0130E020E070E060E02417BD
:102D8000350719F06115710511F0CB010895A08187
:102D9000B181A817B90709F4BF012F5F3F4F3696DD
:102DA000EECF8091A70481111CC060D266D29093AF
:102DB0009A04809399040E94D1200E94E32090936A
:102DC0009E0480939D040E9460250E946725909335
:102DD0009C0480939B0481E08093A70490E080E0B2
:102DE000089584EF9FEF08958F929F92AF92BF92C4
:102DF000CF92DF92EF92FF920F931F93CF93DF93C7
:102E000000D000D000D01F92CDB7DEB71A86198649
:102E100018861F821E821D821C821B821A821982C2
:102E20008091A70407EF1FEF882309F49CC08E014F
:102E30000D5F1F4F9E012B5F3F4FAE01495F5F4FFC
:102E4000BE01675F7F4F90E080E00E94E4268C0126
:102E5000009721F00596029708F0DBC029853A8596
:102E60002115310509F402C1ED80FE804B815C81A2
:102E7000B701640F751F8F8198858617970708F42F
:102E8000F5C0E20EF31ED7019C91903C09F07FC083
:102E90004230510508F47BC011968C914091A504F5
:102EA0005091A604452B09F49CC0913F08F071C0D5
:102EB0002CE1290F2D3008F48BC02DE2290F203191
:102EC00008F489C0903C21F48150823008F483C01A
:102ED00088E3890F8B3008F481C090E5C92E96E114
:102EE000D92EEAE3F6E16D817E81AE014F5F5F4F3F
:102EF00089859A8519955C01C114D104A1F1898055
:102F00009A808114910479F18B819C8188159905AF
:102F100008F487C010E000E04B815C8170E060E065
:102F2000C7010E94D53A01151105E9F449815A817A
:102F300069857A858D819E81680F791FC501F601AB
:102F40001995E980FA800D811E812F813885498588
:102F50005A856FEF7FEF81E090E00E947F268C0121
:102F6000892B09F056C0C8012A960FB6F894DEBF27
:102F70000FBECDBFDF91CF911F910F91FF90EF90CA
:102F8000DF90CF90BF90AF909F908F90089580E09A
:102F900085CF30E020E0220F331FF901E756FB4FC9
:102FA0000190F081E02D309709F497CF892F90E0C0
:102FB0001995009709F491CFDC011296ED91FC91DF
:102FC00013971496CD90DC90309709F08CCF1FC0EA
:102FD00021E030E0E0CF22E030E0DDCF23E030E060
:102FE000DACFD12CC12CE2E4F6E19F3F09F07BCF90
:102FF000E0919904F0919A04309721F4C90104EF0B
:103000001FEF0CC08FEF90E019950097A9F604EF21
:103010001FEF89859A85009709F4A5CF0E94D328D0
:10302000A2CF0E94AE278C0189859A850E94D32861
:1030300070E060E0C4010E94472798878F830E9458
:103040007C269E838D836F8178856115710559F08B
:10305000C8010E945F2A9A87898706EF1FEF892B94
:1030600009F058CF59CF08EF1FEF56CF08EF1FEFE9
:10307000D0CF2091A704222319F020E00C94E8205F
:1030800087EF9FEF08958091A5049091A60408957D
:103090000E946C250E94C624F5D0E9E9F4E088E09E
:1030A000DF011D928A95E9F71092A70490E080E075
:1030B00008950C94242321E040E050E0BA010C94E0
:1030C000E82086E090E0FA019183808390E080E040
:1030D000089547E050E069E273E049CEDF92EF9255
:1030E000FF920F931F93CF93DF938A01EC01C60FDA
:1030F000D71FE090AB04F090AC04D9800E949627D3
:10310000D816190678F082E090E0F8019183808368
:103110008EEF9FEFDF91CF911F910F91FF90EF9076
:10312000DF900895EF2841F482E090E0F801918368
:10313000808384EF9FEFEECF89818093AA0490E093
:103140000196F8019183808390E080E0E3CFCF93F4
:10315000DF93EA010E94D523882321F00E94A32750
:103160000E94D62382E090E0998388838BEF9FEFC3
:10317000DF91CF910895CF93DF93EB0186E0FB01C0
:1031800011928A95E9F78FEF8883D8DD8983E7DD8F
:103190008A83E8DD9D838C83DF91CF910895CF935F
:1031A000DF93EA010E94D823811109C082E090E0F8
:1031B0009983888385EF9FEFDF91CF91089590E009
:1031C00080E0B7DD81E090E09983888390E080E043
:1031D000F3CF0F931F93CF93DF93EA018C01060F78
:1031E000171F0E94D82381110BC082E090E09983C1
:1031F000888385EF9FEFDF91CF911F910F91089505
:10320000F8018181823038F082E090E099838883F0
:103210008EEF9FEFF0CF81E090E08BDD88E090E0D3
:103220009983888390E080E0E6CFCF93DF93009787
:10323000D1F4EB01FB01329686E0DF011D928A9505
:10324000E9F78FEF888385E089831A820E949627A9
:103250008B830E9495279D838C8381E08E838F834F
:10326000DF91CF910895DF91CF911ACD89E698E152
:103270009093A9048093A80408958091A804909144
:10328000A90408951092A9041092A80408958091A9
:10329000AB049091AC040895411105C0611571050E
:1032A0008105910561F06093AB047093AC04809349
:1032B000AD049093AE044093AF0481E0089580E0A4
:1032C0000895FF920F931F93CF93DF938A01EC0130
:1032D000C60FD71FF9800E949627F816190668F0C6
:1032E00082E090E0F801918380838EEF9FEFDF9181
:1032F000CF911F910F91FF9008956C817D818E81F8
:103300009F814B81C9DF811108C082E090E0F80104
:103310009183808384EF9FEFEACF89818093AA0411
:1033200090E00196F8019183808390E080E0DFCF08
:10333000CF93DF93EA01FC01E60FF71F64817581EB
:10334000868197814381A8DF811109C082E090E0E6
:103350009983888384EF9FEFDF91CF91089581E077
:1033600090E09983888390E080E0F6CFEBEAF4E088
:103370004081518162817381480F511D611D711D12
:1033800040835183628373830895CF93C091AA04CD
:103390004C2F50E06091AB047091AC0401960E94F8
:1033A000CC3A8C2FE3DF1092AA04CF9108950097B6
:1033B00099F48091AB049091AC042FEFFB01208332
:1033C000892B59F02091AA0430E02F5F3F4F24173A
:1033D000350719F4CB01D9CF63CC0895009799F440
:1033E0008091AB049091AC042FEFFB012083892BDB
:1033F00059F02091AA0430E02F5F3F4F2417350782
:1034000019F4CB01C2CF4CCC089523E1AC01249F29
:10341000C001259F900D1124E091B404F091B504F2
:10342000E80FF91F238134812250310981E02230D5
:10343000310508F080E008950F931F93CF93DF9339
:103440000091B6041091B704D0E0C0E080E00C1702
:103450001D0749F491E0811190E0892FDF91CF9110
:103460001F910F9108958111F5CFCE01CEDF2196E6
:10347000EECFA091B404B091B504109729F120913A
:10348000B6043091B70482179307F0F453E1589FC4
:103490009001599F300D1124A20FB31FED91FC91A3
:1034A0001197309789F012968C91681768F48DE027
:1034B000689FE00DF11D112480819181892B21F0FD
:1034C00081E09281491708F080E008959C0143E172
:1034D000429FC001439F900D1124E091B404F091EC
:1034E000B504E80FF91F8385823091F481E090E004
:1034F000658176814091F6025091F7026417750755
:1035000011F490E080E0892B19F081E0232B09F081
:1035100080E00895FC01A081B1818DE0689FA00D3D
:10352000B11D112413964D915C9185859685489F18
:103530009001499F300D589F300D1124C90101960B
:10354000611103C0478144FD04960895EF92FF92F4
:103550000F931F93CF93DF93EA01FC01E60FF71F50
:1035600002811381E480F5804F2D6E2DC80181DF2B
:1035700081110DC082E090E0998388838EEF9FEFE8
:10358000DF91CF911F910F91FF90EF900895C801A7
:103590003CDF882339F082E090E09983888388EFCC
:1035A0009FEFEECF1093FD020093FC02E092FE022B
:1035B000F092FF0281E090E09983888390E080E0C0
:1035C000DFCFCF92DF92EF92FF920F931F93CF93B3
:1035D000DF937A01EC01C60FD71FC090FC02D09098
:1035E000FD020091FE021091FF02412F602FC601E3
:1035F00040DF811110C082E090E0F7019183808369
:103600008AEF9FEFDF91CF911F910F91FF90EF9085
:10361000DF90CF900895C601F8DE882341F082E064
:1036200090E0F7019183808388EF9FEFEBCF4C818F
:103630005D816E817F819A8189818F3F41F082E037
:1036400090E0F701918380838EEF9FEFDBCFE3E182
:10365000EC9D9001ED9D300D1124E091B404F091AA
:10366000B504E20FF31F0190F081E02D2DE0029FE1
:10367000E00DF11D11240190F081E02D27E0129F53
:10368000E00DF11D1124808391838B81828343831C
:103690005483658376831F5F1093FF0281E090E07F
:1036A000F7019183808390E080E0ACCFEF92FF92AE
:1036B0000F931F93CF93DF937A018C01060F171F8F
:1036C000C091B404D091B504209781F021E030E09E
:1036D000F801828193814091B6045091B704841718
:1036E000950710F030E020E0232B71F482E090E0A9
:1036F000F701918380838EEF9FEFDF91CF911F9130
:103700000F91FF90EF90089543E1489F9001499FEA
:10371000300D1124C20FD31F78DE882341F082E0E0
:1037200090E0F7019183808388EF9FEFE6CFF80167
:103730002481358120383105C8F687818111D6CFA3
:103740004181842F90E08F7E009741F082E090E0ED
:10375000F7019183808386EF9FEFCFCF4F833E8326
:103760002D83268128871986223010F421E02887AE
:1037700021E030E0F70131832083BFCF88E090E083
:10378000FA019183808390E080E00895FB018FEF40
:10379000808381E181838FEF9FEF9383828380E831
:1037A00090E095838483168217820895FB018FEF42
:1037B000808391E0918382839383848384E38583F0
:1037C00081E090E0978386830895DF92EF92FF92E5
:1037D0000F931F93CF93DF93EA01FC01E60FF71FCE
:1037E0008181813071F082E090E0998388838FEF4E
:1037F0009FEFDF91CF911F910F91FF90EF90DF909E
:10380000089582819381D4802581E680F78000919C
:10381000B4041091B5040115110539F482E090E06B
:10382000998388838CEF9FEFE4CF4091B604509149
:10383000B7048417950738F082E090E09983888375
:103840008EEF9FEFD6CF892B39F082E090E09983FD
:10385000888386EF9FEFCDCF8D2D8D7FB1F72130FF
:10386000A1F781E0D11006C091E0E916F10431F032
:1038700080E004C0E2E0EE16F104D0F3882329F3DF
:1038800090E080E0C2DD882339F082E090E0998307
:10389000888388EF9FEFADCFF801D38681E08487DE
:1038A000F686E586108A178681E090E09983888302
:1038B00090E080E09ECF4CE050E063E573E057CAB3
:1038C0008F929F92BF92CF92DF92EF92FF920F93CF
:1038D0001F93CF93DF93EA01FC01E60FF71F82816C
:1038E00093810481B580E091B404F091B5043097E0
:1038F00091F482E090E0998388838CEF9FEFDF91D1
:10390000CF911F910F91FF90EF90DF90CF90BF90DC
:103910009F908F9008952091B6043091B70482173C
:10392000930738F082E090E0998388838EEF9FEFD1
:10393000E6CF23E1289F6001299FD00C1124EC0DD4
:10394000FD1DE080F180E114F10499F282810817F5
:1039500048F78DE0089F80011124E00EF11EF70169
:1039600080819181892B29F6BB20E1F2F7E0BF9E8F
:1039700040011124C4010E949A28F7019183808399
:10398000E091B404F091B504EC0DFD1D0190F081BF
:10399000E02DE00FF11F80819181009739F482E0E2
:1039A00090E0998388838DEF9FEFA9CFA40170E009
:1039B00060E00E94D53A8091B4049091B504C80E9D
:1039C000D91EF60180819181080F191FF801B2827A
:1039D00081E090E09983888390E080E090CFAF927F
:1039E000BF92CF92DF92FF920F931F93CF93DF93FB
:1039F000EA01FC01E60FF71F82819381F4800091B8
:103A0000B4041091B5040115110581F482E090E031
:103A1000998388838CEF9FEFDF91CF911F910F9156
:103A2000FF90DF90CF90BF90AF9008952091B604A3
:103A30003091B7048217930738F082E090E09983C1
:103A400088838EEF9FEFE8CF2FEF2F0D2C3FA8F745
:103A500023E1289F6001299FD00C11240C0D1D1D0E
:103A6000F80180819181892B89F6FDE0FF9E50014C
:103A70001124C5010E949A28F80191838083E09166
:103A8000B404F091B504EC0DFD1D80819181009787
:103A900039F482E090E0998388838DEF9FEFBCCF6B
:103AA000A50170E060E00E94D53AE091B404F09185
:103AB000B504EC0DFD1DF28281E090E099838883CE
:103AC00090E080E0A9CFCF92DF92EF92FF920F9328
:103AD0001F93CF93DF93860F971FFC010281138101
:103AE0008091B4049091B504892B81F082E090E03C
:103AF000FA01918380838CEF9FEFDF91CF911F912B
:103B00000F91FF90EF90DF90CF900895C801B0E043
:103B1000A0E00197A109B1098F3F9F4FA105B10511
:103B200040F082E090E0FA01918380838EEF9FEF76
:103B3000E4CF7A0183E1809F6001819FD00C112442
:103B4000C6010E949A28EC01009741F482E090E0BF
:103B5000F701918380838DEF9FEFCFCFA60170E0B7
:103B600060E00E94D53AD093B504C093B40410939A
:103B7000B7040093B60490E080E02FEF3FEF41E000
:103B800061E070E08017910741F481E090E0F70177
:103B90009183808390E080E0B0CF3A8B298B1B86A5
:103BA0004C877E876D87188A1F8601966396EACFB9
:103BB000EF92FF921F93CF93DF93EC0110E0F12C73
:103BC000E12C6A811617B0F083E0689FB0011124E0
:103BD000AE014F5E5F4FC7010E94FF28009721F0A2
:103BE0002FEF3FEF3A8B298BDF91CF911F91FF9001
:103BF000EF900895612FCE018DDC61E070E00E94AE
:103C00004727E816F90608F47C011F5FDACFF8941D
:103C10002091B2043091B30481E02115310509F0FF
:103C200080E0232B09F0789408952F923F924F92D1
:103C30005F926F927F928F929F92AF92BF92CF923C
:103C4000DF92EF92FF920F931F93CF93DF933C018C
:103C5000660E771EF301828193814C01B12CA12C59
:103C6000C091B404D091B504209769F021E030E010
:103C70006091B6047091B7048617970710F030E092
:103C800020E0232BD1F482E090E0FA01918380833D
:103C90008EEF9FEFDF91CF911F910F91FF90EF90EB
:103CA000DF90CF90BF90AF909F908F907F906F905C
:103CB0005F904F903F902F900895809200039092D4
:103CC0000103A0920203B092030363E1689F900195
:103CD000699F300D1124C20FD31FF30181818330FE
:103CE00040F082E090E0FA019183808386EF9FEFBD
:103CF000D1CF2A012B813C81232BF1F428813981FA
:103D00009F8191FF2EC0232B09F46FC02091B9042D
:103D10009A81422F490F5527551FBA0141E050E0C3
:103D20006138710514F050E040E0452B09F45DC0A6
:103D30002A87920F9093B9048150823008F481C091
:103D400066DF882309F4D8C0F3018181813009F44A
:103D50008DC008F47BC0823009F4C6C090E080E0DA
:103D6000ADC0232B09F441C02091B8049A81E22F01
:103D7000E90FFF27FF1F41E050E0ED3FF10514F090
:103D800050E040E0452B89F12A87920F9093B804C8
:103D9000D3CFA081B181A20FB31F11966C91060FF2
:103DA000111D0196295F3F4F8417950794F38D8568
:103DB0009E85089F1001099F300C189F300C11241C
:103DC000C114D104D1F48F8184FF17C00E949527BC
:103DD000F5E02F0E311C21E08215930508F420E058
:103DE000A701435F5F4F21110EC082E090E0F20116
:103DF0009183808387EF9FEF4DCF0E9495272FEF10
:103E0000221A320AE8CF88819981E80EF91EF7015B
:103E100014830383FFEFCF1ADF0A7A018A818C159E
:103E20001D0409F00CF48CCFE881F981EE0DFF1D23
:103E3000428150E030E020E010E000E090E080E0DF
:103E4000B3CFF12CE12CD12CC12CE8CF81E090E054
:103E50009C838B83F1DA882309F480CF81E090E0A2
:103E60000E94991680E40E94A71678CF89899A89C2
:103E7000019661F083E090E09C838B8382E090E088
:103E80000E94991680E40E94A11668CF8D819E81C0
:103E90002091F6023091F70282179307D1F46091D6
:103EA000FA027091FB02AE014F5E5F4F8091F80203
:103EB0009091F9020E941E2A0097E1F2789422E084
:103EC00030E0F20131832083892B99F08DEF9FEF51
:103ED000E1CE89288A288B2869F6892B59F6CE01EC
:103EE00067DE188A1F86E8CF82E090E09C838B8390
:103EF00035CF90E080E0CECE82E090E0F201918379
:103F0000808385EF9FEFC6CE8F929F92AF92BF9234
:103F1000CF92DF92EF92FF920F931F93CF93DF9395
:103F2000EA018C01060F171FF8018181833098F098
:103F300082E090E09983888386EF9FEFDF91CF91B5
:103F40001F910F91FF90EF90DF90CF90BF90AF90B7
:103F50009F908F9008958091B4049091B504892B1F
:103F600061F081E090E02091B6043091B704232BFA
:103F700011F490E080E0892B39F482E090E099839D
:103F800088838EEF9FEFDACF42DE882309F4DFC00B
:103F9000F8018181813009F495C0E8F0823099F40C
:103FA0002091B6043091B704E091B404F091B504C7
:103FB00090E080E041E050E02817390709F0BDC0EB
:103FC0003BDA811117C0789481E090E0998388836F
:103FD00090E080E0B3CF2091B6043091B704E09137
:103FE000B404F091B50490E080E041E050E028177F
:103FF000390741F481E090E00E94991680E40E9424
:10400000A716E1CF63817481672B11F0548343833A
:1040100001967396ECCFE091B404F091B504E00FF3
:10402000F11F2381348122303105D9F4218932896D
:104030002F3F3F4FB1F4258136814091F6025091D8
:10404000F7022417350761F5AF014F5E5F4F6091AE
:10405000FA027091FB028091F8029091F9020E949D
:104060001E2AEFEFCE1ADE0AEE0AFE0A0D5E1F4F81
:104070004091B6045091B70470E060E0C416D506D4
:10408000E606F7063CF5009731F27894892B09F49F
:104090009BCF82E090E0998388838DEF9FEF4ECF96
:1040A000C114D104E104F104E1F6232BD1F6CF01D0
:1040B0007FDDE091B404F091B504E00FF11F108AA8
:1040C0001786CFCF10E000E090E080E0C12CD12C2B
:1040D0007601CECF0097C9F610E000E0812C912C3C
:1040E000540183E0E82EF12C1AC0E091B404F09161
:1040F000B504E00FF11F83819481029749F4F482A3
:10410000E38282E090E00E94991680E40E94A1166A
:10411000FFEF8F1A9F0AAF0ABF0A0D5E1F4F8091F3
:10412000B6049091B704B0E0A0E088169906AA06FC
:10413000BB06DCF290E080E0A8CF6381748162303E
:10414000710511F4548343830196739635CF82E051
:1041500090E09983888385EF9FEFF0CE0097B9F4C4
:104160008FEFFB018083209100033091010343E135
:10417000429FC001439F900D1124E091B404F0913F
:10418000B504E80FF91F8285FB01818308950C9423
:10419000501688E090E0FA019183808390E080E0FF
:1041A00008951092B3041092B204E4EBF4E086E0B8
:1041B000DF011D928A95E9F78BE59CE19093B104AC
:1041C0008093B00408958091B0049091B104089553
:1041D0002F923F924F925F926F927F928F929F9217
:1041E000AF92BF92CF92DF92EF92FF920F931F9305
:1041F000CF93DF93CDB7DEB72F970FB6F894DEBF1E
:104200000FBECDBFF894E091B204F091B3043196A3
:10421000F093B304E093B20478944090B4045090C7
:10422000B5044114510409F40CC2E091B604F091B4
:10423000B704EF2B09F405C22D8749875A876B878E
:104240007C8798878F831201B12CA12C10E000E0AD
:104250008091B6049091B704A816B90618F4011518
:10426000110529F1F8948091B2049091B30401975B
:104270009093B3048093B2047894C8012F960FB63C
:10428000F894DEBF0FBECDBFDF91CF911F910F918C
:10429000FF90EF90DF90CF90BF90AF909F908F9066
:1042A0007F906F905F904F903F902F900895710195
:1042B000E418F508D10117968C91179781FD54C029
:1042C00013968D919C911497039709F04DC0159604
:1042D0008D919C91EF81F8858E179F0709F044C05E
:1042E000B50190E080E07FD48A832091B4043091BE
:1042F000B5043D832C833D85332309F44CC04C81A8
:104300005D81452B09F49AC18091B6049091B70460
:10431000A816B90608F092C1C501D8D88823E9F0DB
:104320006C817D816E0D7F1D7D836C83DB011F960B
:104330008D919C91892B89F0D12CC12CF12CE12CF1
:10434000AC81BD8112968C9112978E151F0409F0D5
:1043500094F450961C921E921F972A81222321F0DA
:10436000B50190E080E041D43FEFA31AB30A43E1E6
:10437000240E311C6DCFAC81BD81ED91FC91EC0D13
:10438000FD1D858196810FD7BFEFEB1AFB0AEDE08B
:10439000CE0ED11CD5CFEC81FD81309709F44EC1F2
:1043A0008091B6049091B704A816B90608F046C1EA
:1043B000EE0DFF1DFF87EE87C50188D88B8388230C
:1043C00039F1AE85BF851F968D919C9150970196CE
:1043D00021E01D964D915C918417950709F020E02E
:1043E0002E831982712C10E000E0AE85BF851296F5
:1043F0008C91781608F45DC0EE85FF8587859089DD
:104400000196658576850E94753A908B8787A5CF42
:10441000B1E0BE83E6CF992493946BC08BD6F601AE
:104420009683858382C0D601ED90FC90B7E06B9EA9
:10443000E00CF11C1124F7016381748180818F3FAE
:1044400061F121E030E002C0220F331F8A95E2F7CC
:10445000C901092E000CAA0BBB0BFB014081518145
:104460006281738184239523A623B72321E0892BBE
:104470008A2B8B2B09F420E0D4012C93D7011196C1
:104480008C91F60123853485820F932F911D880E20
:10449000991E1486138663949BC0418150E0C40129
:1044A0000E94CC3AEBCF998206EF1FEFC5C019826C
:1044B000C3C0F981F111A0CFEDE07E9E70011124FF
:1044C000AE85BF85CD90DC90CE0CDF1C15D49D83CE
:1044D0008C83BB81BB2309F49ECF81E0EE85FF85F1
:1044E00027853089232B09F080E0982E882309F452
:1044F00058C0672D8E859F850DD8D60118969C9340
:104500008E93179761E070E0C2D4EE85FF85218914
:1045100032892F3F320709F481CFBC01C901CFD7BF
:10452000D60116969C938E931597D60115968D916C
:104530009C911697009709F4B6CFEC81FD818E0F00
:104540009F1F1A969C938E931997AE85BF85ED9108
:10455000FC911197EE0EFF1EF7012185328514861E
:1045600013861A968C91870DD9018D93711016C000
:10457000EE85FF85878184FF11C049855A856B854B
:104580007C85F9014183528363837483F7018385BA
:1045900094850496A80FB91F14861386F701B28775
:1045A000A187D60115968D919C911697892B09F4B8
:1045B00043C0EE85FF85258136818091F60290917A
:1045C000F7022817390779F019968D909C90612C85
:1045D000D60112968C911297681608F424CF1A9679
:1045E0009C928E921997BE81BB2309F460CF61E043
:1045F00070E0F601878190854AD4D6011796ED9038
:10460000FC90189715964D915C91E1E0F0E0BA812D
:10461000BB2311F0F0E0E0E00C811D819C01B501AD
:10462000882799278E1B9F0B6AD38C01892B21F039
:10463000F60185819681B7D57394D7CE0FEF1FEF22
:104640008CCE10E000E00ECE2F923F924F925F9200
:104650006F927F928F929F92AF92BF92CF92DF9292
:10466000EF92FF920F931F93CF93DF938091B40447
:104670009091B50410E000E0892BA9F0C8DA0AEFA8
:104680001FEF882381F02090B6043090B704C091CA
:10469000B404D091B504D12CC12C10E000E02C144E
:1046A0003D04A9F47894C801DF91CF911F910F9137
:1046B000FF90EF90DF90CF90BF90AF909F908F9042
:1046C0007F906F905F904F903F902F900895C6011C
:1046D0000E94661A882309F18B819C810397E9F473
:1046E0008F859889892BC9F0B60190E080E07BD254
:1046F00021E030E0882311F030E020E0442455240C
:10470000421A530AB12CA12C912C812C8A81881534
:10471000190409F038F4188A1F864FEFC41AD40A16
:104720006396BDCFE881F981EA0DFB1D85819681F5
:10473000892BA1F161E070E087819085A8D33C01CD
:10474000DBD28C01E881F981EA0DFB1D8185928520
:1047500025813681200F311FAC01421B530B9A017A
:1047600047815085421B530B70E060E00E94D53AB0
:10477000E881F981EA0DFB1DE780F08445815681CF
:104780009301B601C201BBD28C01892B39F0E881BB
:10479000F981EA0DFB1D8581968105D55FEF851AAC
:1047A000950A8DE0A80EB11CB1CF31CA7894089556
:1047B0002F923F924F925F926F927F929F92AF9211
:1047C000BF92CF92DF92EF92FF920F931F93CF93FE
:1047D000DF9300D000D0CDB7DEB70091B4041091C4
:1047E000B504992493940115110509F43EC0A090D5
:1047F000B604B090B7040BDA982E8823B1F110926A
:10480000B5041092B4041092B7041092B60410923A
:10481000B8041092B9048FEF9FEFDC01809300037E
:1048200090930103A0930203B093030378947FD382
:104830001E830D83C12CD12C7601C501B0E0A0E010
:1048400089839A83AB83BC8322242A94322C898166
:104850009A81AB81BC81C816D906EA06FB06F4F042
:10486000C801A1D480E40E94A716892D26960FB610
:10487000F894DEBF0FBECDBFDF91CF911F910F9196
:10488000FF90EF90DF90CF90BF90AF909F907F9080
:104890006F905F904F903F902F900895AD81BE81B3
:1048A00015968D919C9116972091F6023091F70202
:1048B00082179307D1F451968D919C91EED5ED819D
:1048C000FE8180819181B12CA12C412C512C32018F
:1048D000892B89F5BFEFCB1ADB0AEB0AFB0AED81C6
:1048E000FE817396FE83ED83B2CFC114D104E1043F
:1048F000F10429F7892B19F7ED81FE8181899289CD
:104900008F3F980709F029D5AD81BE8152963C9220
:104910002E925197D4CF8A0D9B1DDC018D919C91D5
:10492000009709F040D4BFEF4B1A5B0A6B0A7B0A71
:10493000EDE0AE0EB11CAD81BE818D919C911197C1
:1049400012964C9150E070E060E044165506660601
:1049500077060CF328D4BECFCF93DF93EA0128DF8C
:10496000811109C082E090E09983888385EF9FEFF1
:10497000DF91CF91089581E090E00E94991681E047
:1049800090E09983888390E080E0F2CF11DF10926D
:10499000B1041092B004089542E050E06BE973E076
:1049A0000C94B716FF920F931F93CF93DF938A0156
:1049B000EC01C60FD71FF980B9D20897F81619066F
:1049C00071F068F082E090E0F801918380838EEFCF
:1049D0009FEFDF91CF911F910F91FF9008956C8110
:1049E0007D818E819F814B810E944C19811108C06D
:1049F00082E090E0F8019183808384EF9FEFE9CF1C
:104A0000F9800E9447194F2D50E0BE01685F7F4F2B
:104A10000E94CC3A89810E94B61981E090E0F801A9
:104A20009183808390E080E0D4CFDF92EF92FF9279
:104A30000F931F93CF93DF938A01EC01C60FD71F0B
:104A40000E9447197C01D98071D2DD2059F002976C
:104A500021E030E0D816190619F010F030E020E01F
:104A6000232B79F482E090E0F801918380838EEF2C
:104A70009FEFDF91CF911F910F91FF90EF90DF900B
:104A80000895EF2841F482E090E0F801918380835B
:104A900084EF9FEFEECFF9800E9447194F2D50E031
:104AA000BE016E5F7F4F0E94CC3A89810E94B61989
:104AB00081E090E0F8019183808390E080E0D9CF9D
:104AC0008CEC94E29093BB048093BA040895809197
:104AD000BA049091BB0408950895FC0111821082DC
:104AE000938382830895DB011D921C92DC01129650
:104AF000ED91FC9113977183608313967C936E9371
:104B000012970895FC0180819181DB018D939C9324
:104B1000A081B181109741F08D919C919183808308
:104B2000892B11F4F383E2830895FC018081918144
:104B3000DB018D939C93892B11F4738362837183C2
:104B400060830895FC01118210829383828308950B
:104B5000CF93DF931F921F92CDB7DEB71A821982CF
:104B6000F894BE016F5F7F4F81EC94E0CBDF8981C9
:104B70009A81009709F017D389819A81892B89F747
:104B8000BE016F5F7F4F85EC94E0BCDF89819A8125
:104B9000009709F008D389819A81892B89F7789445
:104BA0000F900F90DF91CF910895CF93DF931F92D5
:104BB0001F92CDB7DEB71A821982F894BE016F5FDB
:104BC0007F4F8DEB94E09EDF89819A81009709F0F9
:104BD000EAD289819A81892B89F778940F900F9076
:104BE000DF91CF91089581E0089590E080E00895ED
:104BF000EF92FF920F931F93CF93DF931F921F9219
:104C0000CDB7DEB71A8219828091BC0407EF1FEF7F
:104C10008823A1F1F894BE016F5F7F4F85EC94E08B
:104C200071DF789489819A81EE24E394F12C892BA9
:104C300051F4F894BE016F5F7F4F81EC94E062DF26
:104C40007894F12CE12C89819A810EEF1FEF009767
:104C5000A9F0FC014281538164E070E076D68C01BA
:104C6000892B61F0F89469817A81C701880F991FB7
:104C7000880F991F8F539B4F58DF7894C8010F906E
:104C80000F90DF91CF911F910F91FF90EF900895BA
:104C90000F931F93CF93DF9300D01F92CDB7DEB752
:104CA0001C821B821A8219828091BC0407EF1FEFBD
:104CB0008823C1F0AE014D5F5F4F64E070E0CE012C
:104CC0000196B6D68C01892B69F4E981FA818B8132
:104CD0009C8193838283F89469817A818DEB94E03F
:104CE00002DF7894C8010F900F900F900F90DF9122
:104CF000CF911F910F910895BBD7049608958F927D
:104D00009F92AF92BF92CF92DF92EF92FF920F935A
:104D10001F93CF93DF931F921F92CDB7DEB71A82F6
:104D20001982BC016F5F7F4F6330710598F0AA2430
:104D3000AA94BA2CC5010F900F90DF91CF911F91CB
:104D40000F91FF90EF90DF90CF90BF90AF909F902A
:104D50008F9008954115510551F3480159018A0179
:104D60006C01CADF8815990511F7E114F104F9F215
:104D70008E0D9F1DA816B906D0F28091BC04882321
:104D8000F1F0F894B501645071099701AE014F5FDD
:104D90005F4FC8010496E1D65C01892B71F48981CB
:104DA0009A81F80193838283C601880F991F880F27
:104DB000991FB8018F539B4F96DE7894BBCF87EF36
:104DC000A82EBB24BA94B6CFAF92BF92CF92DF92F7
:104DD000EF92FF920F931F93CF93DF931F921F9237
:104DE000CDB7DEB71A821982892B09F047C0611549
:104DF000710509F443C04115510509F43FC021155F
:104E0000310509F43BC001151105C1F18091BC04C5
:104E10008823B9F179016A015B01F894BE016F5FE3
:104E20007F4F8DEB94E06EDE789489819A810097B4
:104E300059F1DC0112966D917C91A8010496A6D6D9
:104E40008C01E981FA81D501ED93FC9382819381F4
:104E50000496F601918380834FDFD7018D939C9355
:104E6000C8010F900F90DF91CF911F910F91FF908C
:104E7000EF90DF90CF90BF90AF9008950FEF1FEFAE
:104E8000EFCF07EF1FEFECCF0EEF1FEFE9CFCF9380
:104E9000DF93EC01672B71F4F4D68C179D0760F05B
:104EA000E7D62496C80FD91FE6D68C0F9D1FDF9139
:104EB000CF910895E3D6F1CF90E080E0F8CF0F9343
:104EC0001F93CF93DF932091BC0421112BC08B0142
:104ED000EC0181EC94E001DE85EC94E0FEDD8DEBED
:104EE00094E0FBDD97D00097C1F4CBD670E060E092
:104EF000CEDF44E053E062E070E081D1009769F4D6
:104F00008091040390910503CED6B801CE0103D55C
:104F1000009719F421E02093BC04DF91CF911F91F9
:104F20000F91089584EF9FEFF8CFA8C6AAC6CF933C
:104F3000DF93AAD6EC01892B11F40ADE36DECE010E
:104F4000DF91CF910895CF93DF939ED6EC01892B0B
:104F500009F4FEDDCE01DF91CF9108958091040325
:104F6000909105030895CF93DF938091BC04D0E026
:104F7000C0E08823D1F09CD6EC01892BB1F4E8DDA8
:104F800014DE8091040390910503E7D1E8D2EC018F
:104F9000892B59F481EC94E0D5DD85EC94E0D2DDE9
:104FA0008DEB94E0CFDD1092BC04CE01DF91CF9168
:104FB0000895EF92FF920F931F93CF93DF93EC012D
:104FC0007A018B010F5F1F4F0E9DA0010F9D500DA9
:104FD0001E9D500D112470E060E00E94D53A90E0D3
:104FE00080E0F0E0E0E02FEFE816F90639F4DF9119
:104FF000CF911F910F91FF90EF9008951A8219821F
:105000002883309711F0D283C1830196FE01C00F2F
:10501000D11FEACFCF92DF92EF92FF920F931F93AF
:10502000CF93DF9306E617E00C7F43E050E066E0A5
:1050300073E08CE093E01CD486E0E82E83E0F82E49
:105040009CE0C92E93E0D92EC5E0D8E0D7014D9160
:105050005D917D01F601619171916F011983088362
:105060005D834C835B834A837F836E839B012F5FC9
:105070003F4F249FC001259F900D349F900D112418
:10508000998788870115110511F0C80192DF88857D
:105090009985080F191F2A96FCE0EF16F3E0FF062A
:1050A000A9F6EBECF4E088E992E0DF019C011D92A7
:1050B00021503040E1F71092CA041092C9041092B6
:1050C00024081092230810922808109227081092A2
:1050D00026081092250810922A081092290810928A
:1050E0002C0810922B0810922E0810922D08109266
:1050F0003208109231081092300810922F08109246
:105100003408109233081092360810923508109225
:10511000020810920108109204081092030890E00F
:1051200080E0DF91CF911F910F91FF90EF90DF9082
:10513000CF9008950097F1F0F894ACE0B3E0E5E08B
:10514000F8E030E020E04D915D9148175907A8F054
:10515000428153814115510581F08AE0829FF0011F
:10516000839FF00D1124EB5FF74F808191810097B1
:1051700059F4789490E080E008952F5F3F4F3A967D
:105180002330310501F7F5CFDC0111966D917C914B
:10519000718360834150510953834283FC01219301
:1051A000CF0178940895009749F1DC018E91853004
:1051B00041F4E0910308F09104083097F9F0CD0133
:1051C00019948530D8F4282F30E0F8948FEF8C9321
:1051D0008AE0829FF001839FF00D1124EB5FF74F6F
:1051E0008081918112969C938E931197B183A083B5
:1051F0008281938101969383828378940895CF92DC
:10520000DF92EF92FF920F931F93CF93DF939C0156
:105210008EEC94E08C7F4115510509F49BC021155B
:10522000310509F497C06115710509F493C07A013D
:10523000AB01B9016D5F7F4F6C7F9B012F5F3F4FCB
:10524000249F8001259F100D349F100D1124F89488
:105250002091230830912408232B59F420912B0806
:1052600030912C082115310569F12017310708F01C
:1052700058C020912D0830912E08232B91F42091B5
:105280002B0830912C08820F931F20913508309104
:1052900036082115310509F441C02017310708F0FF
:1052A00056C07894CFEFDFEF86EF9FEFF701D18301
:1052B000C083DF91CF911F910F91FF90EF90DF900E
:1052C000CF900895C3E0D0E0C090C904D090CA0444
:1052D00025E932E02C193D092017310710F32AE0A7
:1052E0002C9FF0012D9FF00D1124EB5FF74F918360
:1052F00080835583448353834283778366831187F6
:105300000087009709F055DE0C0D1D1D1093CA048F
:105310000093C904789490E080E0C8CFC4E0D0E066
:10532000D3CFC3E0D0E02AE02C9FF0012D9FF00DF9
:105330001124EB5FF74F918380835583448353831C
:10534000428377836683009729F333DEE3CFC4E09B
:10535000D0E0E9CF8FEF9FEFACCF9C01039702978E
:1053600008F069C0F89484E09AE0482F50E02417D0
:1053700035070CF44DC091E08AE0829FF001839FD5
:10538000F00D1124EB5FF74F118210821582148209
:1053900013821282178216829923B1F18091230819
:1053A00090912408892BA9F420912B0830912C0886
:1053B0002115310571F08091C9049091CA04821BB6
:1053C000930B9093CA048093C90410922C081092F6
:1053D0002B0880912D0890912E08892BA9F42091FB
:1053E0003508309136082115310571F08091C904D6
:1053F0009091CA04821B930B9093CA048093C904B2
:105400001092360810923508789490E080E0089564
:10541000949FF001959FF00D1124EB5FF74F4081B1
:105420005181452B31F440855185452B11F4815034
:105430009CCF90E0A1CF8FEF9FEF089541155105CC
:1054400049F1009739F16115710521F1F894209126
:10545000010830910208232BB9F420910308309100
:105460000408232B89F49093020880930108709319
:10547000040860930308789425E030E090E080E031
:10548000FA0131832083089578942FEF3FEF86EF60
:105490009FEFF6CF8FEF9FEF0895059769F4F8948B
:1054A000109202081092010810920408109203084A
:1054B000789490E080E008958FEF9FEF0895611554
:1054C000710519F4F0E0E0E011C08530910581F438
:1054D000E0910108F09102083097A1F3CB01019609
:1054E0001995009779F3FC0185E08193CF01089528
:1054F0009C01235031092230310520F72AE0289FF2
:10550000D001299FB00D1124AB5FB74F2D913C9175
:105510001197232BB9F216962D913C9117972617C8
:10552000370780F2F89412962D913C91139721152C
:10553000310529F0ED91FC911197309711F4789491
:10554000C1CF4181528111965C934E932150310914
:1055500013963C932E93129781937894C7CFE3E6EA
:10556000F7E08EE9DF011D928A95E9F7EBECF4E0B4
:1055700088E992E0DF019C011D9221503040E1F763
:105580001092CA041092C904E5E0F8E082E3DF015A
:105590001D928A95E9F7E1E0F8E084E0DF011D92D1
:1055A0008A95E9F790E080E00895CF93DF93C0916A
:1055B0001203D0911303CF3FDC0759F423D4909307
:1055C00013038093120397FF09C0D0931303C09372
:1055D000120384EF9FEFDF91CF91089590E080E078
:1055E000FACF8230910528F48093370890E080E06C
:1055F00008958FEF9FEF08954F925F926F927F9281
:10560000AF92BF92CF92DF92EF92FF920F931F93D0
:10561000CF93DF931F921F92CDB7DEB71A82198204
:10562000009709F479C06115710509F475C02091DE
:1056300012033091130307EF1FEF2F3F3F4F09F481
:1056400045C06B015C01412C512C3201F12CE12C45
:1056500010E000E09E012F5F3F4FA6014E195F0949
:10566000B5016E0D7F1D809112039091130329D413
:10567000892B09F04BC089819A81009741F4E1148C
:10568000F10429F420913708222309F442C0E80EDE
:10569000F91EEC14FD04D0F480E8481684E858069E
:1056A0008EE16806710420F560E070E0CB010E9495
:1056B000A3342AE0420E511C611C711C0A3F4FEFBB
:1056C000140721F0043F8FEF1807A1F4C8010F90D1
:1056D0000F90DF91CF911F910F91FF90EF90DF908E
:1056E000CF90BF90AF907F906F905F904F90089554
:1056F00001EF1FEF81E090E0013F2FEF120711F063
:1057000090E080E0892B09F4A5CFE0CF04EF1FEFF4
:10571000DDCF0AEF1FEFDACF0FEF1FEFD7CF4F929A
:105720005F926F927F92AF92BF92CF92DF92EF9291
:10573000FF920F931F93CF93DF931F921F92CDB7CA
:10574000DEB71A821982009709F479C061157105D4
:1057500009F475C0209112033091130307EF1FEF76
:105760002F3F3F4F09F445C06B015C01412C512C88
:105770003201F12CE12C10E000E09E012F5F3F4F41
:10578000A6014E195F09B5016E0D7F1D80911203B0
:10579000909113034CD3892B09F04BC089819A81D6
:1057A000009741F4E114F10429F4209137082223F1
:1057B00009F442C0E80EF91EEC14FD04D0F480E4B4
:1057C000481682E458068FE06806710420F560E010
:1057D00070E0CB010E94A3342AE0420E511C611CF0
:1057E000711C0E3F4FEF140721F0043F8FEF180795
:1057F000A1F4C8010F900F90DF91CF911F910F91ED
:10580000FF90EF90DF90CF90BF90AF907F906F9020
:105810005F904F90089502EF1FEF81E090E0023F0C
:105820002FEF120711F090E080E0892B09F4A5CF4B
:10583000E0CF04EF1FEFDDCF0EEF1FEFDACF0FEF5A
:105840001FEFD7CF80911203909113038F3F9807DA
:1058500049F0D0D2892B49F48FEF9FEF9093130337
:105860008093120390E080E0089584EF9FEF089505
:10587000CF92DF92EF92FF920F931F93CF93DF931C
:1058800021E04115510509F020E041505109211155
:105890002CC0DC01FB01D12CC12C21E022C03FEF48
:1058A000C31AD30A7D010D911D91E701EA80FB80A7
:1058B000E016F106A8F420813181E280F380F182C4
:1058C000E08233832283ED90FC9011979D0122505A
:1058D0003109E901F982E88211961C930E9320E0C8
:1058E0003296C416D506D8F2D2CFDF91CF911F9150
:1058F0000F91FF90EF90DF90CF900895FC01680F1B
:10590000791F90E080E0E617F70709F408952191E8
:10591000820F911DF8CF20913808211113C045DE68
:10592000009791F410923E0810923D0810923C08A6
:1059300010923B0810923A081092390821E0209307
:105940003808089584EF9FEF0895AF92BF92CF92E9
:10595000DF92EF92FF920F931F93CF93DF93009705
:1059600009F460C04630510508F45CC02091380845
:10597000C7EFDFEF222309F449C08C01060F171F80
:10598000F801C080D180C114D10409F44EC0960141
:105990002A5F3F4F4217530708F447C07C018091AC
:1059A0003D0890913E0893838283B6016C5F7F4FE0
:1059B0005801A60EB71EC801A1DFF50191838083AF
:1059C00064E070E0C80118DEEC01892BF9F481E095
:1059D00090E007DEB601C80104960EDEEC01892BCB
:1059E00091F462E070E0C50107DEEC01892B59F407
:1059F000C701D9DB80913D0890913E0801969093B4
:105A00003E0880933D0890E080E0EBDDCE01DF9121
:105A1000CF911F910F91FF90EF90DF90CF90BF90AB
:105A2000AF900895CFEFDFEFF1CFC9EFDFEFEECF0B
:105A30006F927F928F929F92AF92BF92CF92DF929E
:105A4000EF92FF920F931F93CF93DF9300D01F929B
:105A5000CDB7DEB7009709F47AC04115510509F4B6
:105A600076C02091380807EF1FEF222309F44DC0BC
:105A70003A017B015C0164E070E0CE0101964FDEEB
:105A80008C01892B09F041C009811A81011511058A
:105A900009F45AC0480186E0880E911CB701680DD0
:105AA000791D809114039091150309DD6C01009715
:105AB00009F450C0A70170E060E00E94D53A8981E6
:105AC0009A81AB81BC81EC0CFD1CF7018193919311
:105AD000A193B1937F0181E090E083DDB801C7011C
