:10000000F8C0000027C1000025C1000023C1000086
:1000100021C100001FC100001DC100001BC1000064
:1000200019C1000017C1000015C1000013C1000074
:1000300011C100000FC100000DC100000BC1000084
:1000400009C1000007C1000005C1000003C1000094
:1000500001C10000FFC00000FDC000000C9424336B
:10006000F9C000000C941B370C945137F3C000000A
:10007000F1C00000EFC00000EDC00000EBC00000C8
:10008000E9C00000E7C00000E5C00000E3C00000D8
:100090000C94A7370C94DD37DDC00000DBC00000F6
:1000A000D9C00000D7C00000D5C00000D3C00000F8
:1000B000D1C00000CFC00000CDC00000CBC0000008
:1000C000C9C00000C7C00000C5C000000C94333890
:1000D0000C946938BFC000000C94BF380C94F538FC
:1000E000B9C0000000000A0B02090C0D0E0807033E
:1000F00004010000000000000000000000000000FB
:1001000000000000000000000000000000000000EF
:1001100012111000000000000000000000000000AC
:100120000000000000000000000001021020200874
:100130000810204010204080020102010804020142
:1001400001020408102040808040201008040201B1
:10015000800402018040201008040201080402010A
:100160000102040810204080010204081020408091
:1001700005050505070508080808020202020A0A23
:100180000808040404040101010101010101030341
:10019000030303030303040707070C0C0C0C0C0CEC
:1001A0000C0C0202020206060606060606060B0BE9
:1001B0000B0B0B0B0B0B00002200250028002B0063
:1001C0002E003100340002010000050108010B017E
:1001D00000002100240027002A002D0030003300F9
:1001E00001010000040107010A017A37063892383C
:1001F0001E3911241FBECFEFD1E2DEBFCDBF00E01C
:100200000CBF13E0A0E0B2E0E4ECF3E700E00BBFCA
:1002100002C007900D92A834B107D9F72AE0A8E4EC
:10022000B3E001C01D92AE35B207E1F710E0C9EFAF
:10023000D0E000E006C021970109802FFE010E9456
:10024000AF39C53FD10780E00807A9F70E944730C2
:100250000C94E039D5CE611102C00C948835613020
:10026000E1F362E0FACF662319F061E00C94C43543
:1002700060E0FCCFCF92DF92EF92FF92CF93882382
:1002800051F16A017B01CFEFC80F20E030E0A901F6
:10029000CB01B6010E94333118168CF0C701B601AC
:1002A00090580E943C319B01AC016C2F70E090E0B3
:1002B00080E0CF91FF90EF90DF90CF90B2C0C70168
:1002C000B6010E9437318C2FCF91FF90EF90DF90D5
:1002D000CF900C944E34CF91FF90EF90DF90CF9061
:1002E00008950F931F938B019C0183E0369527950A
:1002F000179507958A95D1F7085B1C4F462F4770D5
:1003000021E030E0F90102C0EE0FFF1F4A95E2F74D
:10031000AF01F80120812423CB010196211102C0F5
:1003200090E080E01F910F9108950F931F938B0130
:100330009C0183E036952795179507958A95D1F707
:10034000677081E090E001C0880F6A95EAF7F801D4
:10035000E85BFC4F2081452B31F48095822380831C
:100360001F910F910895822BFACF2F923F924F92B7
:100370005F926F927F928F929F92AF92BF92CF9235
:10038000DF92EF92FF920F931F93CF93DF93D62EBE
:10039000C72E782E692E49015A01280161E08D2D62
:1003A0000E948835CD2DDC2D8E010F5F1F4FA801D7
:1003B0006D2D7C2D872D962DB8DF20E030E0A90132
:1003C000C201B7010E948032181664F4C201B7015D
:1003D0000E943C312B01C501B4010E943C31A201B5
:1003E000CE0123D0C801DF91CF911F910F91FF90D3
:1003F000EF90DF90CF90BF90AF909F908F907F90C5
:100400006F905F904F903F902F900895882341F018
:100410008150682F70E090E080E050E040E085CFB0
:100420000895862FB9010C944E349C01FC01EC51C7
:10043000FF4FE491E150E231E0F4F0E08827EC5D19
:10044000FD4F8F4F0C94AF3936023D0240025702E8
:100450006C02390281028D029102A802BD02D20211
:10046000E902FE02390213032A033F0384B58068C0
:1004700084BD60E0822F0C94C43584B58062F8CFCF
:10048000809180008C7F82608093800080918100C9
:10049000807E8061682B6093810050938700409339
:1004A000860080918000806880938000E2CF8091F8
:1004B00080008C7F82608093800080918100807EAC
:1004C0008061682B60938100509387004093860081
:1004D000809180008062E8CF809180008C7F826074
:1004E0008093800080918100807E8061682B609382
:1004F000810050938700409386008091800088603F
:10050000D3CF8091B00080688093B0008091B1001B
:10051000887F682B6093B100ACCF8091B00080627F
:10052000F3CF809190008C7F8260809390008091C7
:100530009100807E8061682B6093910050939700BA
:10054000409396008091900080688093900091CFB6
:10055000809190008C7F82608093900080919100C8
:10056000807E8061682B6093910050939700409348
:100570009600809190008062E8CF809190008C7FFF
:1005800082608093900080919100807E8061682BD2
:100590006093910050939700409396008091900053
:1005A0008860D3CF8091A0008C7F82608093A00070
:1005B0008091A100807E8061682B6093A1005093A0
:1005C000A7004093A6008091A00080688093A000BF
:1005D00050CF8091A0008C7F82608093A00080919A
:1005E000A100807E8061682B6093A1005093A700DA
:1005F0004093A6008091A0008062E8CF8091A00087
:100600008C7F82608093A0008091A100807E8061B9
:10061000682B6093A1005093A7004093A60080919F
:10062000A0008860D3CF809120018C7F826080936E
:10063000200180912101807E8061682B60932101DF
:100640005093270140932601809120018068809378
:1006500020010FCF809120018C7F82608093200148
:1006600080912101807E8061682B609321015093ED
:10067000270140932601809120018062E8CF80917C
:1006800020018C7F82608093200180912101807EF7
:100690008061682B609321015093270140932601CC
:1006A000809120018860D3CFCF93DF93882349F0D6
:1006B000EB0181500E942B3499838883DF91CF9185
:1006C0000895FB0111821082F9CF0F931F938B01C4
:1006D0009C0183E036952795179507958A95D1F764
:1006E0000F5A1C4F462F477021E030E0F90102C03D
:1006F000EE0FFF1F4A95E2F7AF01F8012081242396
:10070000CB010196211102C090E080E01F910F9172
:1007100008950F931F938B019C0183E036952795D5
:10072000179507958A95D1F7677081E090E001C031
:10073000880F6A95EAF7F801EF5AFC4F2081452BA4
:1007400031F48095822380831F910F910895822B2D
:10075000FACFCF92DF92EF92FF92CF93DF936B01AC
:100760007C0160E086E3C816D104E104F10490F452
:1007700086E38C0D0E948835E6012196AE01C70103
:10078000B601C7DFCE01DF91CF91FF90EF90DF90F0
:10079000CF9008958C2DEECF882341F08150682FA3
:1007A00070E090E080E050E040E0B3CF089590E04A
:1007B00080E008950F931F93009709F489C0611595
:1007C000710509F485C00091820210918302209185
:1007D0008402309185020E3F1F4F2F4F3F4F09F08B
:1007E00068C04FEF5FEFBA014093820250938302DB
:1007F000609384027093850240918202509183023B
:100800006091840270918502DC011296ED91FC9159
:1008100080819181A281B3818093E9039093EA035F
:10082000A093EB03B093EC0384819581A681B781FB
:100830008093E5039093E603A093E703B093E80366
:1008400080859185A285B3858093E1039093E2032F
:10085000A093E303B093E40384859585A685B785CB
:100860008093DD039093DE03A093DF03B093E00356
:100870001092D9031092DA031092DB031092DC037A
:100880000E9445138AE693E190935B0380935A0399
:1008900090935D0380935C030E943412009731F4BF
:1008A00021E030E03093EE032093ED031F910F9190
:1008B0000895009182021091830220918402309168
:1008C0008502DB010D931D932D933C93139794CFD9
:1008D0008FEF9FEFEBCF8F929F92AF92BF92CF920D
:1008E000DF92EF92FF921F93CF93DF934B015C0156
:1008F0001091F00382E090E09093EE038093ED037B
:1009000081149104A104B10441F48091F003811198
:1009100004C08091EF03C1E08111C0E0C12CD12C53
:1009200076018091F003811106C08091EF0381115F
:1009300002C0CC23D9F083E090E09093EE03809343
:10094000ED03CC2381F1CCE9DFEF111102C00E944D
:10095000CE16CE01DF91CF911F91FF90EF90DF90E7
:10096000CF90BF90AF909F908F9008956AE070E015
:1009700080E090E00E94933380E1C80E87E2D81EA9
:10098000E11CF11C8FEF88169806A806B80631F016
:10099000C1E08C149D04AE04BF0408F0C0E080E008
:1009A0000E946812BECFD0E0C0E0CFCFCF92DF92DE
:1009B000EF92FF920F931F93CF93DF938F3F910599
:1009C00011F008F051C02091ED033091EE03233077
:1009D000310539F02091ED033091EE0321303105DE
:1009E00031F424E030E03093EE032093ED036A010C
:1009F0007B01EC0182309105A8F011E0AE01C70146
:100A0000B6010E943312AB01BC01CE011123F9F0F3
:100A1000DF91CF911F910F91FF90EF90DF90CF90DA
:100A20000C94F7188C01000F111F065A1C4FD801A7
:100A30008D919C91892B09F30E9401190297E9F687
:100A4000D801ED91FC91CE011995182FD7CF0E94B6
:100A5000191990E080E0DF91CF911F910F91FF90E5
:100A6000EF90DF90CF9008958FEF9FEFF4CF80E06D
:100A70000C946812CF93DF9386E090E09093EE039E
:100A80008093ED030E94C112EC01EAE5F3E084E0FB
:100A9000DF011D928A95E9F70E9466161092EE0317
:100AA0001092ED03CE01DF91CF9108958091EF0375
:100AB00008958091D8030895609382027093830211
:100AC000809384029093850290E080E008952F92B5
:100AD0003F924F925F926F927F928F929F92AF92CE
:100AE000BF92CF92DF92EF92FF920F931F93CF931B
:100AF000DF9300D000D01F921F92CDB7DEB74B011D
:100B00005C015C834B833E832D83AE014F5F5F4F5F
:100B10000E946D326B017C0169807A800FEF1FEFBC
:100B20001614170444F483010150110955E015957A
:100B300007955A95E1F7C801F801EE0FFF1FEE0F78
:100B4000FF1F2B813C81E20FF31F019634964D81EC
:100B50005E81841795070CF446C020E030E0A901BF
:100B6000C501B4010E94333187FF04C0F7FAF09445
:100B7000F7F8F094180135E0220C331C3A95E1F7B0
:100B80000F3F1007A9F520E030E0A901C501B4012D
:100B90000E94333187FF0EC0EB80FC8030E020E004
:100BA00081E090E0A0E0B0E04D815E812417350740
:100BB0000CF455C028960FB6F894DEBF0FBECDBF1B
:100BC000DF91CF911F910F91FF90EF90DF90CF9029
:100BD000BF90AF909F908F907F906F905F904F905D
:100BE0003F902F9008951082118212821382ADCF10
:100BF000A30142195309C701B6010E9486326B0155
:100C00007C010E94A5312B013C01AC019B01C70175
:100C1000B6010E94CE306B017C018D819E81081748
:100C20001907ACF4C801880F991F880F991FEB8131
:100C3000FC81E80FF91FF887EF83C301B2010E941E
:100C40003C31EF81F8856083718382839383015007
:100C500011093101910120523109190191CFF70198
:100C600041915191619171917F01409550956095AD
:100C70007095840F951FA61FB71F8F01045011098F
:100C8000F80180839183A283B38311E084179507D1
:100C9000A607B70708F010E0812F90E0B0E0A0E0D1
:100CA0002F5F3F4F81CF4F925F926F927F928F92D3
:100CB0009F92AF92BF92CF92DF92EF92FF92CF932B
:100CC000DF939A012150304C220F331F220F331F24
:100CD000FC01E20FF31F80809180A280B380FB01B2
:100CE000E20FF31FC080D180E280F380CC24DD24AA
:100CF000EE24E0E8FE222401350144245524662434
:100D0000E0E87E22C414D504E604F70499F52C5FCC
:100D10003F4FFC01E20FF31FEB01C20FD31F14166C
:100D200015068CF090E080E0DF91CF91FF90EF907E
:100D3000DF90CF90BF90AF909F908F907F906F90FB
:100D40005F904F90089541505109F290E290D290F7
:100D5000C290BA91AA919A918A91C816D906EA06C8
:100D6000FB06E9F28C159D05AE05BF0528F481E070
:100D700090E0DACFB7FEFBCF8FEF9FEFD5CF93DFB9
:100D800021E0181619060CF020E0822F08958BDF61
:100D9000892F881F8827881F08952F923F924F928E
:100DA0005F926F927F928F929F92AF92BF92CF92FB
:100DB000DF92EF92FF920F931F93CF93DF9300D0B8
:100DC0001F92CDB7DEB78B015C834B83FB01E150F3
:100DD000F04CEE0FFF1FEE0FFF1FE80FF91F4081D1
:100DE00051816281738177FD27C04C01B12CA12C08
:100DF000C12CD12C7601A016B10664F5F4016191E5
:100E00007191819191914F010E9468314B815C8178
:100E10000E9486329B01AC01C701B6010E94CF300F
:100E20006B017C012B813C81205E3F4F3C832B83F7
:100E30003FEFA31AB30ADFCF9A838983312C212C89
:100E400081E090E0A0E0B0E0C12CD12C760120162A
:100E50003106CCF0C701B6010F900F900F900F90A4
:100E6000DF91CF911F910F91FF90EF90DF90CF9086
:100E7000BF90AF909F908F907F906F905F904F90BA
:100E80003F902F900895E981FA81419051906190AF
:100E90007190FA83E9834094509460947094530164
:100EA0004201880E991EAA1EBB1EC501B4010E94F4
:100EB00068314B815C810E9486329B01AC01C70185
:100EC000B6010E94CE306B017C0181E08414950450
:100ED000A604B70408F080E090E0B0E0A0E02B8129
:100EE0003C81205E3F4F3C832B833FEF231A330A24
:100EF000AECF8F929F92AF92BF92CF92DF92EF923E
:100F0000FF920F931F93FB0170E060E0C12CD12C86
:100F10007601C394641775075CF01F910F91FF90E1
:100F2000EF90DF90CF90BF90AF909F908F900895FB
:100F3000DC018D909D90AD90BD90CD019701860113
:100F40000150110921093109081919092A093B0918
:100F50000193119321933193A1E00C151D052E05EA
:100F60003F0508F0A0E0CA2ED12CF12CE12C6F5FD8
:100F70007F4FD0CF2F923F924F925F926F927F928E
:100F80008F929F92AF92BF92CF92DF92EF92FF9299
:100F90000F931F93CF93DF93CDB7DEB7AC970FB608
:100FA000F894DEBF0FBECDBF8091B503811120C084
:100FB0008091F7099091F809A091F909B091FA0987
:100FC00080933C0A90933D0AA0933E0AB0933F0A57
:100FD0008091FB099091FC09A091FD09B091FE0957
:100FE0008093400A9093410AA093420AB093430A27
:100FF00040903C0A50903D0A60903E0A70903F0A33
:10100000C0900002D0900102E0900202F090030232
:10101000CD8EDE8EEF8EF8A2C090400AD090410AAD
:10102000E090420AF090430AC9A2DAA2EBA2FCA225
:10103000C0900402D0900502E0900602F0900702F2
:10104000CDA2DEA2EFA2F8A6CD8CDE8CEF8CF8A0AC
:10105000212C4C145D046E047F0480F461E0C9A06F
:10106000DAA0EBA0FCA02DA13EA14FA158A5C2166D
:10107000D306E406F50608F060E0262EC9A0DAA043
:10108000EBA0FCA02DA13EA14FA158A5C216D306EE
:10109000E406F50650F011E0CD8CDE8CEF8CF8A064
:1010A0004C145D046E047F0408F410E0CD8CDE8CDB
:1010B000EF8CF8A0312C4C145D046E047F0480F496
:1010C00081E0C9A0DAA0EBA0FCA02DA13EA14FA118
:1010D00058A5C216D306E406F50608F480E0382EBB
:1010E000CD8CDE8CEF8CF8A04C145D046E047F0474
:1010F00070F001E0C9A0DAA0EBA0FCA02DA13EA1F8
:101100004FA158A5C216D306E406F50608F000E084
:10111000C12CD12C7601112311F07301620180E002
:1011200090E0DC01332011F0D301C201A701960148
:10113000280F391F4A1F5B1F29A73AA74BA75CA797
:10114000C12CD12C7601002311F073016201622DB4
:1011500070E090E080E00E9468314B015C0169A57D
:101160007AA58BA59CA56C0D7D1D8E1D9F1D0E94D3
:10117000683120E030E040E056E30E94BA326B0173
:101180007C01209110023091110240911202509185
:101190001302C501B4010E94BA329B01AC01C70120
:1011A000B6010E94CF30209118023091190240916F
:1011B0001A0250911B020E94BA320E94A5316B01A3
:1011C0007C010E943111811106C0C701B6010E9445
:1011D000EC10882319F0C12CD12C760122E030E0EC
:1011E00048E05AE0C701B60172DC80E090E0DC0123
:1011F000112341F08091400A9091410AA091420A46
:10120000B091430A40E050E0BA01332041F04091F0
:10121000400A5091410A6091420A7091430A840F3A
:10122000951FA61FB71F40E050E0BA01002341F010
:101230004091400A5091410A6091420A7091430ADC
:101240006C017D01C40ED51EE61EF71EC701B60156
:101250000E94683120E030E040E056E30E94BA325C
:101260006B017C012091140230911502409116020D
:1012700050911702C501B4010E94BA329B01AC0122
:10128000C701B6010E94CF30209118023091190297
:1012900040911A0250911B020E94BA320E94A5315D
:1012A0006B017C01DED7811105C0C701B60194D75F
:1012B000882319F0C12CD12C760122E030E040E1E6
:1012C0005AE0C701B60103DC42E050E06CE272E094
:1012D00088E09AE054DD882309F4B0C388E0ECE2AA
:1012E000F2E0DE01119601900D928A95E1F742E05D
:1012F00050E06CE272E080E19AE041DD882309F47D
:10130000AEC388E0ECE2F2E0DE01199601900D92A6
:101310008A95E1F742E050E06CE372E0CE0101967D
:101320002EDD882309F4ACC388E0ECE3F2E0A8E109
:10133000BAE001900D928A95E1F769E070E080E0F3
:1013400090E00E9471017C019093EA098093E90981
:1013500050E040E062E070E088E19AE01EDD4B0181
:101360005C0120E030E04FE753E40E94333118166F
:101370000CF497C320E030E0A901C501B4010E943C
:10138000803287FD95C3B501A401C7010E943A01CF
:1013900042E050E06CE472E0CE010196F0DC88237C
:1013A00009F48AC388E0ECE4F2E0DE015196019092
:1013B0000D928A95E1F742E050E06DEA72E0CE01CD
:1013C0004196E5DC882309F488C342E050E060E2FE
:1013D0007AE0CE0141968DDD68E070E080E090E03B
:1013E0000E9471017C019093DA098093D90950E041
:1013F00040E062E070E080E29AE0CFDC4B015C010B
:1014000020E030E04FE753E40E94333118160CF42B
:101410006EC320E030E0A901C501B4010E94803212
:1014200087FD6CC3B501A401C7010E943A0142E0E7
:1014300050E06CE572E0CE010996A1DC882309F446
:1014400061C388E0ECE5F2E0A8E2BAE001900D9219
:101450008A95E1F76BE070E080E090E00E94710116
:101460007C019093F2098093F10950E040E062E042
:1014700070E088E29AE091DC4B015C0120E030E012
:101480004FE753E40E94333118160CF44CC320E0AC
:1014900030E0A901C501B4010E94803287FD4AC332
:1014A000B501A401C7010E943A0142E050E06CE698
:1014B00072E0CE01099663DC882309F43FC388E01B
:1014C000ECE6F2E0DE01519601900D928A95E1F78B
:1014D00042E050E06DEA72E0CE01419658DC88238C
:1014E00009F43DC342E050E060E37AE0CE0141966A
:1014F00000DD6AE070E080E090E00E9471017C0114
:101500009093E2098093E10950E040E062E070E0EE
:1015100080E39AE042DC4B015C0120E030E04FE7E1
:1015200053E40E94333118160CF423C320E030E05A
:10153000A901C501B4010E94803287FD21C3B50114
:10154000A401C7010E943A01602F81E30E94330188
:101550008091B60381114AC0C090F309D090F4097C
:10156000E090F509F090F609C701B6010E946A31D2
:101570004B015C012091240230912502409126020A
:10158000509127020E94333187FFFEC2F7FCFCC254
:1015900080911C0290911D02A0911E02B0911F0229
:1015A0008093380A9093390AA0933A0AB0933B0A81
:1015B00020E030E040E85FE360912002709121027A
:1015C00080912202909123020E94CE309B01AC01B7
:1015D000C501B4010E94803287FDDAC21092F3097E
:1015E0001092F4091092F5091092F609332009F4CB
:1015F000DDC261E02626622D83E30E943301CD8C9B
:10160000DE8CEF8CF8A04C145D046E047F0470F047
:1016100061E0C9A0DAA0EBA0FCA02DA13EA14FA1E2
:1016200058A5C216D306E406F50608F460E085E383
:101630000E9433018091B50381117CC0C0900802E3
:10164000D0900902E0900A02F0900B02A7019601E7
:101650006091B7097091B8098091B9099091BA0960
:101660000E943331882341F0C092B709D092B80963
:10167000E092B909F092BA0967E370E080E090E087
:1016800024D89093B6098093B50943E050E0BE0199
:10169000655E7F4F09D8C0900C02D0900D02E0909B
:1016A0000E02F0900F02A70196016091AB097091B4
:1016B000AC098091AD099091AE090E943331882325
:1016C00041F0C092AB09D092AC09E092AD09F09222
:1016D000AE0968E370E080E090E00E9465039093BB
:1016E000AA098093A90943E050E0BE01675E7F4FDD
:1016F0000E9454034091800250918102A98DBA8DBD
:101700009A010E94B7396B017C012B8D3C8DDA0167
:101710000E94B7396093F7097093F8098093F9092B
:101720009093FA09C092FB09D092FC09E092FD095E
:10173000F092FE0960919C0370919D0380919E033D
:1017400090919F030E94683120E030E040E85FE420
:101750000E94BA326B017C016091980370919903E9
:1017600080919A0390919B030E9468319B01AC0188
:10177000C701B6010E94CF3020E030E0A9010E94ED
:10178000CF300E943C31AB01BC0190E080E00ED92B
:101790008091B503811134C06091A8037091A903B1
:1017A0008091AA039091AB030E94683120E030E061
:1017B00040E85FE40E94BA326B017C016091A403AF
:1017C0007091A5038091A6039091A7030E946831B0
:1017D0009B01AC01C701B6010E94CF3020E030E090
:1017E00040EA50E40E94BA3220E030E0A9010E94B1
:1017F000CF300E943C31AB01BC0181E090E0D6D8F3
:101800008091B603811134C06091B0037091B1032F
:101810008091B2039091B3030E94683120E030E0E0
:1018200040E85FE40E94BA326B017C016091AC0336
:101830007091AD038091AE039091AF030E94683127
:101840009B01AC01C701B6010E94CF3020E030E01F
:1018500048E452E40E94BA3220E030E0A9010E943C
:10186000CF300E943C31AB01BC0182E090E09ED8B9
:10187000C0909803D0909903E0909A03F0909B0356
:101880003FEFC31AD30AE30AF30AC0929803D09237
:101890009903E0929A03F0929B03C114D104E104EE
:1018A000F10499F480919C0390919D03A0919E0373
:1018B000B0919F030196A11DB11D80939C0390934D
:1018C0009D03A0939E03B0939F038090A0039090EC
:1018D000A103A090A203B090A30360919C03709118
:1018E0009D0380919E0390919F030E946831A50102
:1018F00094010E94BA3220E030E040E85FE40E94A8
:10190000BA322B013C01C701B6010E946831A50122
:1019100094010E94BA329B01AC01C301B2010E9442
:10192000CF306093940370939503809396039093C4
:1019300097039091B50391112CC04091A40350914D
:10194000A5036091A6037091A7034F5F5F4F6F4F90
:101950007F4F4093A4035093A5036093A603709315
:10196000A703452B462B472BA1F44091A803509188
:10197000A9036091AA037091AB034F5F5F4F6F4F54
:101980007F4F4093A8035093A9036093AA037093D9
:10199000AB038091B60381112CC04091AC035091F0
:1019A000AD036091AE037091AF034F5F5F4F6F4F18
:1019B0007F4F4093AC035093AD036093AE0370939D
:1019C000AF03452B462B472BA1F44091B003509118
:1019D000B1036091B2037091B3034F5F5F4F6F4FDC
:1019E0007F4F4093B0035093B1036093B203709361
:1019F000B3039F5F953008F0F0C09093B5038F5FFD
:101A0000823308F0EDC08093B603AC960FB6F8941D
:101A1000DEBF0FBECDBFDF91CF911F910F91FF9021
:101A2000EF90DF90CF90BF90AF909F908F907F907E
:101A30006F905F904F903F902F90089542E050E05C
:101A400064E372E088E09AE0A2D9882321F088E07C
:101A5000E4E3F2E046CC88E0E8E0FAE042CC42E0A1
:101A600050E064E372E080E19AE091D9882321F0AC
:101A700088E0E4E3F2E048CC88E0E0E1FAE044CC3E
:101A800042E050E064E472E0CE01019680D9882300
:101A900021F088E0E4E4F2E04ACC88E0FE013196EF
:101AA00046CC812C912C3FE7A32E33E4B32E6BCC94
:101AB000812C912C540167CC42E050E064E572E047
:101AC000CE01019664D9882321F088E0E4E5F2E0B4
:101AD0006CCC88E0FE01319668CC88E0FE017196FE
:101AE000A0E2BAE001900D928A95E1F775CC812CC5
:101AF000912C2FE7A22E23E4B22E94CC812C912C92
:101B0000540190CC42E050E064E672E0CE010996C8
:101B10003ED9882321F088E0E4E6F2E095CC88E025
:101B2000FE01399691CC812C912C9FE7A92E93E44C
:101B3000B92EB6CC812C912C5401B2CC42E050E0AD
:101B400064E772E0CE01099622D9882321F088E06B
:101B5000E4E7F2E0B7CC88E0FE013996B3CC88E048
:101B6000FE017196A0E3BAE001900D928A95E1F72B
:101B7000C0CC812C912C8FE7A82E83E4B82EDFCC2B
:101B8000812C912C5401DBCC80E090E0DC0108CD6D
:101B90002FEFC21AD20AE20AF20AC092F309D092D7
:101BA000F409E092F509F092F60920CD60E02220D8
:101BB00009F422CD01E020E030E0A9016091380A6B
:101BC0007091390A80913A0A90913B0A0E94333110
:101BD000811101C000E0602F0FCD1092B5030FCF2F
:101BE0001092B60312CF4F925F926F927F928F92B4
:101BF0009F92AF92BF92DF92EF92FF920F931F934B
:101C0000CF93DF9384E090E0B0D2EEE7F3E08EE391
:101C1000DF011D928A95E9F780E090E0A0E8BFEB34
:101C200081AF92AFA3AFB4AF8AE097EDA3E2BCE37C
:101C300082A393A3A4A3B5A385ED96EAA6E3BEE988
:101C400084839583A683B78389EE9DE2AFEBB6E6E6
:101C500080879187A287B3878DE390EFADE7B9EED8
:101C600084879587A687B78783E49FE3A2EDBCE3CB
:101C7000808B918BA28BB38BA2E7B3E0B383A2835B
:101C8000EEE5F3E01196FC93EE938CEA92E09183FB
:101C900080839383828395838483978386839187CC
:101CA0008087938782879587848797878687918B9C
:101CB000808B938B828B82E993E015969C938E9315
:101CC000149782E893E013969C938E93129784E97D
:101CD00093E017969C938E93169728E03AE084E35E
:101CE000F90111928A95E9F7C3EAD9E085E6DE01A8
:101CF0001D928A95E9F780E0882E82E0982E9CE775
:101D0000A92E92E0B92EF50180819181A281B38143
:101D1000F90184AB95ABA6ABB7AB80AF91AFA2AFE7
:101D2000B3AFDD24D394D092030A412C512C32015D
:101D300043944092E4095092E5096092E60970925A
:101D4000E709E12CF12C8701A801970169E070E017
:101D500080E090E00E94B5019093EA098093E90940
:101D6000D092E80918AAD092010A49AA5AAA6BAAE5
:101D70007CAAA801970168E070E080E090E00E94F2
:101D8000B5019FAB8EABDDAA1092EB09D092040A8D
:101D90004092EC095092ED096092EE097092EF09C1
:101DA000A80197016BE070E080E090E00E94B5012F
:101DB0009093F2098093F109D092F00918AED09275
:101DC000020A49AE5AAE6BAE7CAEA80197016AE03A
:101DD00070E080E090E00E94B5019FAF8EAFDDAE75
:101DE00018A6D092070A49A65AA66BA67CA661E05F
:101DF00081E30E942B01DDA61092F3091092F409F1
:101E00001092F5091092F60918A2D092060A49A27A
:101E10005AA26BA27CA261E083E30E942B01DDA2A7
:101E2000188ED092050A498E5A8E6B8E7C8E61E098
:101E300085E30E942B01DD8E1C86D092000AF401FE
:101E400080859185A285B3858C8B9D8BAE8BBF8B56
:101E50004D865E866F86788A67E370E080E090E06A
:101E60000E94A9039B8B8A8BD98A1882D092FF0982
:101E7000F40184859585A685B78588879987AA8783
:101E8000BB8749825A826B827C8268E370E080E083
:101E900090E00E94A9039F838E83DD82F5018081FB
:101EA0009181A281B3818093F7099093F809A0935F
:101EB000F909B093FA098093FB099093FC09A09368
:101EC000FD09B093FE09DF91CF911F910F91FF9013
:101ED000EF90DF90BF90AF909F908F907F906F902A
:101EE0005F904F9008958091E30981112EC081E0A9
:101EF0008093E3098091E4099091E509A091E609B6
:101F0000B091E7090197A105B105F9F48091E809BD
:101F10008823D9F069E070E080E090E00E947101D0
:101F20009093EA098093E90940E050E0BA010E94E9
:101F30003A0169E070E080E090E00E9471019093C6
:101F4000EA098093E9090E9406028091D309811170
:101F50002EC081E08093D3098091D4099091D50956
:101F6000A091D609B091D7090197A105B105F9F45F
:101F70008091D8098823D9F068E070E080E090E093
:101F80000E9471019093DA098093D90940E050E0F2
:101F9000BA010E943A0168E070E080E090E00E949F
:101FA00071019093DA098093D9090E940602809109
:101FB000EB0981112EC081E08093EB098091EC093F
:101FC0009091ED09A091EE09B091EF090197A1055B
:101FD000B105F9F48091F0098823D9F06BE070E045
:101FE00080E090E00E9471019093F2098093F109E2
:101FF00040E050E0BA010E943A016BE070E080E0FE
:1020000090E00E9471019093F2098093F1090E947F
:1020100006028091DB0981112EC081E08093DB09EB
:102020008091DC099091DD09A091DE09B091DF0972
:102030000197A105B105F9F48091E0098823D9F051
:102040006AE070E080E090E00E9471019093E20904
:102050008093E10940E050E0BA010E943A016AE051
:1020600070E080E090E00E9471019093E20980931B
:10207000E1090E9406028091CB09811103C081E031
:102080008093CB098091C309811103C081E08093C3
:10209000C3098091BB09811103C081E08093BB0912
:1020A0008091AF0981111FC081E08093AF098091B9
:1020B000B0099091B109A091B209B091B30901970B
:1020C000A105B10581F48091B409882361F067E32B
:1020D00070E080E090E00E9465039093B6098093E1
:1020E000B5090E94CC038091A30981111FC081E032
:1020F0008093A3098091A4099091A509A091A609B4
:10210000B091A7090197A105B10581F48091A809B3
:10211000882361F068E370E080E090E00E9465034E
:102120009093AA098093A9090C94CC03089560E0C8
:1021300070E080E89FE7089560E070E080E89FE746
:10214000089560E070E080E89FEF089560E070E03F
:1021500080E89FEF089560E070E080EC9FEF0895C5
:1021600060E070E080EC9FEF0895F5DF6093500A27
:102170007093510A8093520A9093530AF1DF60934F
:10218000440A7093450A8093460A9093470ACFDF2A
:1021900060934C0A70934D0A80934E0A90934F0AB5
:1021A000CBDF6093480A7093490A80934A0A909360
:1021B0004B0AC7DF6093540A7093550A8093560AFE
:1021C0009093570AC3DF6093580A7093590A80931B
:1021D0005A0A90935B0A0895CF92DF92EF92FF9292
:1021E000CF936B017C01AC019B0160914C0A709113
:1021F0004D0A80914E0A90914F0A0E943331C1E0FE
:10220000882371F0A70196016091540A7091550AD4
:102210008091560A9091570A0E9433318111C0E093
:102220008C2FCF91FF90EF90DF90CF9008950F9378
:102230001F938B019C010027112720783F77011500
:10224000110520483F4749F4AB01BC016F77772760
:1022500081E0452B462B472B09F480E01F910F911D
:102260000895E5CF4F925F926F927F928F929F92E7
:10227000AF92BF92CF92DF92EF92FF920F931F9394
:10228000F8944090C8035090C9036090CA037090BE
:10229000CB03C090BC03D090BD03E090BE03F09090
:1022A000BF03452B09F0A4C09B01AC0124193509DB
:1022B0004609570929013A010091C4031091C50349
:1022C0002091C6033091C70348015901840C951C25
:1022D000A61CB71C80169106A206B306A0F40091B6
:1022E000C0031091C1032091C2033091C3030F5F5B
:1022F0001F4F2F4F3F4F0093C0031093C1032093F4
:10230000C2033093C3038092C4039092C503A0928A
:10231000C603B092C7030091C0031091C10320917E
:10232000C2033091C3038092CC039092CD03A0925C
:10233000CE03B092CF030093D0031093D103209328
:10234000D2033093D3036093C8037093C90380937F
:10235000CA039093CB03A0E1B7E2A30192010E94CC
:10236000C6396C0D7D1D8E1D9F1D6093BC0370933F
:10237000BD038093BE039093BF030091820210912E
:10238000830220918402309185020F3F1F4F2F4F0F
:102390003F4FF1F00091820210918302209184025C
:1023A000309185020E3F1F4F2F4F3F4F89F0C09055
:1023B0008202D0908302E0908402F090850221E0B6
:1023C0008C149D04AE04BF0408F420E02093D803CD
:1023D00078941F910F91FF90EF90DF90CF90BF9076
:1023E000AF909F908F907F906F905F904F900895E7
:1023F0004B015C0184189508A608B708A301920157
:10240000261B370B480B590B641575058605970578
:10241000D0F082169306A406B50640F420E030E022
:10242000A90181149104A104B10491F4A0E1B7E2DF
:102430000E94C639A7019601261B370B480B590B82
:10244000CA01B901C5CF82169306A406B50670F776
:10245000A0E1B7E2A50194010E94C6396C0D7D1D73
:102460008E1D9F1DB5CFFECECF93DF9300D01F9260
:10247000CDB7DEB71C821B821A8219821092D40358
:102480001092D5031092D6031092D703BE016F5F4E
:102490007F4FCE0103960E942E2F69817A818B8116
:1024A0009C810E941E28009761F4BE016F5F7F4FE0
:1024B000CE0103960E943A2F69817A818B819C819B
:1024C0002ED50F900F900F900F90DF91CF91089520
:1024D000FF920F931F93CF93DF93082F60E070E07C
:1024E000CB010E949333FF24F3940E940727EC0151
:1024F000892B89F010E0CE3F8FEFD80769F00023D9
:1025000061F160E070E0CB010E94933381E090E0E4
:10251000892B59F322C011E025D5EC01892B21F03C
:10252000CE3F8FEFD80759F711111EC011E0229648
:1025300009F410E00E94B726EC01892B21F0CE3F70
:102540008FEFD807E1F6111111C011E0CE3F8FEFE8
:10255000D80709F410E001110BC0CE01DF91CF9133
:102560001F910F91FF90089511E0E4CF11E0F3CF98
:1025700060E070E0CB010E9493331F25812F90E033
:10258000C7CFCF93DF938091D803882321F060E0F9
:1025900070E0CB014CD635D6D0E0C0E0892B71F08D
:1025A0006AE070E080E090E00E94933381E090DF89
:1025B00028D62196C03D27E0D20781F727D60E9472
:1025C00072281092F0031092EF031092E903109218
:1025D000EA031092EB031092EC031092E5031092C1
:1025E000E6031092E7031092E8031092E1031092C1
:1025F000E2031092E3031092E4031092DD031092C1
:10260000DE031092DF031092E0031092D9031092C0
:10261000DA031092DB031092DC034EEF5FEF6FEFF3
:102620007FEF409382025093830260938402709301
:1026300085021092D803ECECF3E028E0DF011D9254
:102640002A95E9F71092C8031092C9031092CA03A1
:102650001092CB031092C4031092C5031092C603CC
:102660001092C7031092C0031092C1031092C203CC
:102670001092C3031092BC031092BD031092BE03CC
:102680001092BF03DF91CF9108951092FC03109236
:10269000FD031092FE031092FF031092FB03809142
:1026A0000404909105049093FA038093F903109227
:1026B000F8031092F7031092F3031092F4031092B0
:1026C000F5031092F603109201041092000490E0BA
:1026D00080E00895CF92DF92EF92FF920F931F93C5
:1026E000CF938C01892B09F055C0209104043091BF
:1026F00005048091F9039091FA03409104045091EC
:1027000005045093FA034093F9032817390781F021
:102710001092F8031092F7031092F3031092F4034F
:102720001092F5031092F603109201041092000427
:102730008091040490910504019761F58091000453
:1027400090910104892B21F480918602811112C09D
:1027500080910004909101040197E1F48091F303CA
:102760009091F403A091F503B091F6030197A105B0
:10277000B10581F41092F3031092F4031092F50363
:102780001092F6031092860282E090E0909301048A
:10279000809300048091040490910504019709F04E
:1027A0001CC180911A0490911B048017910709F0B5
:1027B00014C18091160490911704A0911804B0914F
:1027C0001904009709F409C12091150421110DC0C5
:1027D00040911604509117046091180470911904E7
:1027E000452B462B472B09F4F8C02091000430916B
:1027F00001042230310509F0F0C02091F7032111C6
:10280000ECC0FC01C080D180E280F3808091FB03AA
:10281000882309F4D3C08091070490910804892B80
:1028200009F4FDC0209107043091080481E02230B2
:10283000310509F080E02091070430910804C1E0DF
:102840002130310549F02091070430910804C1E09E
:102850002230310509F0C0E0882309F456C02091E8
:102860001104309112044091130450911404C701D3
:10287000B6010E94803287FD14C02091110430916E
:10288000120440911304509114046091FC03709160
:10289000FD038091FE039091FF030E94333187FD79
:1028A00022C02091110430911204409113045091E0
:1028B0001404C701B6010E948032181634F5209125
:1028C000110430911204409113045091140460914A
:1028D000FC037091FD038091FE039091FF030E9421
:1028E0003331811112C08091090490910A04A091A2
:1028F0000B04B0910C04892B8A2B8B2B19F481E0EB
:102900008093F80381E08093F703CC2309F456C049
:102910002091110430911204409113045091140439
:10292000C701B6010E94333187FF14C02091110402
:102930003091120440911304509114046091FC03EF
:102940007091FD038091FE039091FF030E948032FD
:1029500087FF22C02091110430911204409113048A
:1029600050911404C701B6010E943331811126C071
:1029700020911104309112044091130450911404D9
:102980006091FC037091FD038091FE039091FF0321
:102990000E948032181694F48091090490910A04E0
:1029A000A0910B04B0910C04892B8A2B8B2B19F46A
:1029B00081E08093F80381E08093F70381E09091B8
:1029C000F703911180E08093FB03C092FC03D09247
:1029D000FD03E092FE03F092FF03012B09F067C1B3
:1029E0008091000490910104892BD9F4109206047F
:1029F0001092F70380918602882379F082E090E0BC
:102A000090930104809300041092860220910404A4
:102A10003091050481E0232BE9F080E01BC081E0C8
:102A20000ACF1092860280910604882349F0109202
:102A3000F803109201041092000410920604EDCFE6
:102A40008091040490910504892BE1F08091F703B3
:102A50001092F703209100043091010422303105D7
:102A600009F45EC088F42115310509F448C021300D
:102A7000310509F4F3C01092F8031092F703109295
:102A8000060438C081E0E6CF2330310509F4B1C037
:102A90002430310581F74091F3035091F4036091A4
:102AA000F5037091F603411551056105710561F05B
:102AB00041505109610971094093F3035093F403A4
:102AC0006093F5037093F6034091F3035091F40380
:102AD0006091F5037091F603452B462B472BD9F4F3
:102AE00020910204309103042130310509F046C0E1
:102AF0001092F80310920104109200040CC080910F
:102B00008602882341F082E090E090930104809354
:102B10000004109286021092F1038091F803CEC057
:102B20008823C9F38091090490910A04A0910B04B1
:102B3000B0910C04181619061A061B060CF07DC07D
:102B40008091040490910504019709F076C080916A
:102B5000090490910A04A0910B04B0910C04809395
:102B6000F3039093F403A093F503B093F60383E08B
:102B700090E09093010480930004CDCF40910D0428
:102B800050910E0460910F0470911004452B462B58
:102B9000472BA9F01092F80380910D0490910E0438
:102BA000A0910F04B09110048093F3039093F40369
:102BB000A093F503B093F60381E090E0DACF882389
:102BC00099F08091870290918802A0918902B0913A
:102BD0008A028093F3039093F403A093F503B093D8
:102BE000F60384E090E0C5CF1092F80382E090E015
:102BF000C0CF8091F3039091F403A091F503B091BD
:102C0000F6030097A105B10559F00197A109B10993
:102C10008093F3039093F403A093F503B093F6032A
:102C20008091F3039091F403A091F503B091F60322
:102C3000892B8A2B8B2B09F06ECF80918702909184
:102C40008802A0918902B0918A02892B8A2B8B2B52
:102C500009F44ECF81E08093F803B3CF4091F303A2
:102C60005091F4036091F5037091F60341155105FD
:102C70006105710561F04150510961097109409385
:102C8000F3035093F4036093F5037093F6034091BC
:102C9000F3035091F4036091F5037091F603452B13
:102CA000462B472B09F037CF8111C7CF9FCF80919B
:102CB000F103882309F431CF8091F203CF911F9162
:102CC0000F91FF90EF90DF90CF9008951092FC034A
:102CD0001092FD031092FE031092FF031092FB036B
:102CE00010920104109200041092FA031092F9035A
:102CF00010921B0410921A041092F8031092F7031A
:102D00001092F3031092F4031092F5031092F6035D
:102D10001092F2031092F10310921604109217040D
:102D200010921804109219041092150410921104B4
:102D300010921204109213041092140488EE93E07F
:102D4000A0E0B0E08093870290938802A09389026C
:102D5000B0938A0210920D0410920E0410920F0488
:102D6000109210041092090410920A0410920B049D
:102D700010920C04109208041092070481E08093D2
:102D80008602109206041092050410920404109218
:102D900003041092020490E080E0089580910404FE
:102DA00090910504892B19F580918602882351F0B2
:102DB00080910604811106C081E08093F203809324
:102DC000F1030895209106043091860281E090E09D
:102DD000332311F090E080E030E082239323892BAD
:102DE00021F01092F20381E0EACF1092F1030895EE
:102DF00082E090E0FA01918380838FEF9FEF089546
:102E0000CF93DF93EA01009711F00E949229198273
:102E1000188290E080E0DF91CF910895DB01009768
:102E200019F48FEF8C9308952EEF2C93FC013F96AD
:102E3000EF30F10508F034C08827EE5DF84E8F4F73
:102E40000C94AF394E174C174A17481746174217BC
:102E5000441740173E173C173917351731173717E6
:102E6000501780E311968C93089589E2FBCF82E29C
:102E7000F9CF11961C92089583E2F4CF81E2F2CF4C
:102E800081E1F0CF87E2EECF8AE2ECCF80E1EACFBA
:102E900084E2E8CF88E2E6CF86E2E4CF81E3E2CFC6
:102EA00080E2E0CF809128049091290408959093C6
:102EB000290480932804089580912704089590910F
:102EC0002704892B809327040895982F909580914B
:102ED0002704892380932704089580912604089568
:102EE000809124049091250408956115710559F08D
:102EF000FB0130E020E070E060E02417350719F0B6
:102F00006115710511F0CB010895A081B181A81759
:102F1000B90709F4BF012F5F3F4F3696EECF80917E
:102F20002A0481111CC060D266D290931D04809344
:102F30001C040E9490210E94A2219093210480935E
:102F400020040E941F260E94262690931F0480932F
:102F50001E0481E080932A0490E080E0089584EFCD
:102F60009FEF08958F929F92AF92BF92CF92DF9280
:102F7000EF92FF920F931F93CF93DF9300D000D077
:102F800000D01F92CDB7DEB71A86198618861F8229
:102F90001E821D821C821B821A82198280912A0441
:102FA00007EF1FEF882309F49CC08E010D5F1F4FB0
:102FB0009E012B5F3F4FAE01495F5F4FBE01675FD0
:102FC0007F4F90E080E00E94A3278C01009721F0C2
:102FD0000596029708F0DBC029853A852115310551
:102FE00009F402C1ED80FE804B815C81B701640F62
:102FF000751F8F8198858617970708F4F5C0E20E34
:10300000F31ED7019C91903C09F07FC042305105DE
:1030100008F47BC011968C914091280450912904AA
:10302000452B09F49CC0913F08F071C02CE1290F99
:103030002D3008F48BC02DE2290F203108F489C00F
:10304000903C21F48150823008F483C088E3890FDA
:103050008B3008F481C09EE0C92E97E1D92EE8EFAD
:10306000F6E16D817E81AE014F5F5F4F89859A8564
:1030700019955C01C114D104A1F189809A80811451
:10308000910479F18B819C818815990508F487C09A
:1030900010E000E04B815C8170E060E0C7010E94BD
:1030A000D93901151105E9F449815A8169857A8573
:1030B0008D819E81680F791FC501F6011995E98000
:1030C000FA800D811E812F81388549855A856FEFE1
:1030D0007FEF81E090E00E943E278C01892B09F070
:1030E00056C0C8012A960FB6F894DEBF0FBECDBFFA
:1030F000DF91CF911F910F91FF90EF90DF90CF90D4
:10310000BF90AF909F908F90089580E085CF30E082
:1031100020E0220F331FF901E45EFB4F0190F081A4
:10312000E02D309709F497CF892F90E019950097FB
:1031300009F491CFDC011296ED91FC91139714964E
:10314000CD90DC90309709F08CCF1FC021E030E0AB
:10315000E0CF22E030E0DDCF23E030E0DACFD12C49
:10316000C12CE0E0F7E19F3F09F07BCFE0911C0428
:10317000F0911D04309721F4C90104EF1FEF0CC03A
:103180008FEF90E019950097A9F604EF1FEF89855E
:103190009A85009709F4A5CF0E949229A2CF0E9498
:1031A0006D288C0189859A850E94922970E060E0E3
:1031B000C4010E94062898878F830E943B279E8324
:1031C0008D836F8178856115710559F0C8010E9462
:1031D0001E2B9A87898706EF1FEF892B09F058CF9E
:1031E00059CF08EF1FEF56CF08EF1FEFD0CF209138
:1031F0002A04222319F020E00C94A72187EF9FEFE7
:103200000895809128049091290408950E942B2606
:103210000E948525F5D0ECE1F4E088E0DF011D9205
:103220008A95E9F710922A0490E080E008950C94C2
:10323000E32321E040E050E0BA010C94A72186E0AE
:1032400090E0FA019183808390E080E0089547E068
:1032500050E067EB72E049CEDF92EF92FF920F935E
:103260001F93CF93DF938A01EC01C60FD71FE09025
:103270002E04F0902F04D9800E945528D8161906E4
:1032800078F082E090E0F801918380838EEF9FEFE9
:10329000DF91CF911F910F91FF90EF90DF900895F4
:1032A000EF2841F482E090E0F8019183808384EF7D
:1032B0009FEFEECF898180932D0490E00196F80175
:1032C0009183808390E080E0E3CFCF93DF93EA01A6
:1032D0000E949424882321F00E9462280E94952451
:1032E00082E090E0998388838BEF9FEFDF91CF910D
:1032F0000895CF93DF93EB0186E0FB0111928A954D
:10330000E9F78FEF8883D8DD8983E7DD8A83E8DDFD
:103310009D838C83DF91CF910895CF93DF93EA0152
:103320000E949724811109C082E090E099838883EC
:1033300085EF9FEFDF91CF91089590E080E0B7DDBA
:1033400081E090E09983888390E080E0F3CF0F9351
:103350001F93CF93DF93EA018C01060F171F0E9482
:10336000972481110BC082E090E09983888385EFD8
:103370009FEFDF91CF911F910F910895F801818107
:10338000823038F082E090E0998388838EEF9FEF5F
:10339000F0CF81E090E08BDD88E090E09983888336
:1033A00090E080E0E6CFCF93DF930097D1F4EB017C
:1033B000FB01329686E0DF011D928A95E9F78FEFD7
:1033C000888385E089831A820E9455288B830E9416
:1033D00054289D838C8381E08E838F83DF91CF91EE
:1033E0000895DF91CF911ACD87E299E190932C0453
:1033F00080932B04089580912B0490912C040895C0
:1034000010922C0410922B04089580912E04909118
:103410002F040895411105C06115710581059105BD
:1034200061F060932E0470932F0480933004909386
:1034300031044093320481E0089580E00895FF92C2
:103440000F931F93CF93DF938A01EC01C60FD71F11
:10345000F9800E945528F816190668F082E090E07D
:10346000F801918380838EEF9FEFDF91CF911F91C1
:103470000F91FF9008956C817D818E819F814B819A
:10348000C9DF811108C082E090E0F8019183808358
:1034900084EF9FEFEACF898180932D0490E001961D
:1034A000F8019183808390E080E0DFCFCF93DF93BA
:1034B000EA01FC01E60FF71F64817581868197811F
:1034C0004381A8DF811109C082E090E0998388835D
:1034D00084EF9FEFDF91CF91089581E090E0998391
:1034E000888390E080E0F6CFEEE2F4E04081518105
:1034F00062817381480F511D611D711D408351838D
:10350000628373830895CF93C0912D044C2F50E0B4
:1035100060912E0470912F0401960E94D0398C2F57
:10352000E3DF10922D04CF910895009799F48091D4
:103530002E0490912F042FEFFB012083892B59F04B
:1035400020912D0430E02F5F3F4F2417350719F4E9
:10355000CB01D9CF63CC0895009799F480912E04C4
:1035600090912F042FEFFB012083892B59F020919C
:103570002D0430E02F5F3F4F2417350719F4CB019E
:10358000C2CF4CCC089523E1AC01249FC001259FFC
:10359000900D1124E0913704F0913804E80FF91FE1
:1035A000238134812250310981E02230310508F035
:1035B00080E008950F931F93CF93DF930091390418
:1035C00010913A04D0E0C0E080E00C171D0749F4E8
:1035D00091E0811190E0892FDF91CF911F910F91A0
:1035E00008958111F5CFCE01CEDF2196EECFA091C7
:1035F0003704B0913804109729F1209139043091A3
:103600003A0482179307F0F453E1589F9001599FB1
:10361000300D1124A20FB31FED91FC91119730973B
:1036200089F012968C91681768F48DE0689FE00D20
:10363000F11D112480819181892B21F081E09281FB
:10364000491708F080E008959C0143E1429FC001C2
:10365000439F900D1124E0913704F0913804E80F56
:10366000F91F8385823091F481E090E06581768155
:1036700040918B0250918C026417750711F490E011
:1036800080E0892B19F081E0232B09F080E0089578
:10369000FC01A081B1818DE0689FA00DB11D1124B6
:1036A00013964D915C9185859685489F9001499F21
:1036B000300D589F300D1124C9010196611103C0CE
:1036C000478144FD04960895EF92FF920F931F9354
:1036D000CF93DF93EA01FC01E60FF71F028113810C
:1036E000E480F5804F2D6E2DC80181DF81110DC062
:1036F00082E090E0998388838EEF9FEFDF91CF91F6
:103700001F910F91FF90EF900895C8013CDF88232F
:1037100039F082E090E09983888388EF9FEFEECFC5
:103720001093920200939102E0929302F09294021D
:1037300081E090E09983888390E080E0DFCFCF92B2
:10374000DF92EF92FF920F931F93CF93DF937A0153
:10375000EC01C60FD71FC0909102D0909202009149
:10376000930210919402412F602FC60140DF811116
:1037700010C082E090E0F701918380838AEF9FEF91
:10378000DF91CF911F910F91FF90EF90DF90CF903D
:103790000895C601F8DE882341F082E090E0F70149
:1037A0009183808388EF9FEFEBCF4C815D816E81A9
:1037B0007F819A8189818F3F41F082E090E0F7011B
:1037C000918380838EEF9FEFDBCFE3E1EC9D90014F
:1037D000ED9D300D1124E0913704F0913804E20F93
:1037E000F31F0190F081E02D2DE0029FE00DF11D0F
:1037F00011240190F081E02D27E0129FE00DF11DD2
:103800001124808391838B818283438354836583D6
:1038100076831F5F1093940281E090E0F70191831B
:10382000808390E080E0ACCFEF92FF920F931F93E4
:10383000CF93DF937A018C01060F171FC0913704D5
:10384000D0913804209781F021E030E0F8018281A6
:1038500093814091390450913A048417950710F0F0
:1038600030E020E0232B71F482E090E0F7019183B7
:1038700080838EEF9FEFDF91CF911F910F91FF908B
:10388000EF90089543E1489F9001499F300D112426
:10389000C20FD31F78DE882341F082E090E0F70169
:1038A0009183808388EF9FEFE6CFF80124813581F3
:1038B00020383105C8F687818111D6CF4181842F08
:1038C00090E08F7E009741F082E090E0F7019183D5
:1038D000808386EF9FEFCFCF4F833E832D8326815A
:1038E00028871986223010F421E0288721E030E073
:1038F000F70131832083BFCF88E090E0FA01918304
:10390000808390E080E00895FB018FEF808381E168
:1039100081838FEF9FEF9383828380E890E095838C
:103920008483168217820895FB018FEF808391E0D4
:10393000918382839383848384E3858381E090E011
:10394000978386830895DF92EF92FF920F931F93E0
:10395000CF93DF93EA01FC01E60FF71F81818130ED
:1039600071F082E090E0998388838FEF9FEFDF9181
:10397000CF911F910F91FF90EF90DF90089582817A
:103980009381D4802581E680F780009137041091DF
:1039900038040115110539F482E090E09983888399
:1039A0008CEF9FEFE4CF4091390450913A04841793
:1039B000950738F082E090E0998388838EEF9FEF3F
:1039C000D6CF892B39F082E090E09983888386EF07
:1039D0009FEFCDCF8D2D8D7FB1F72130A1F781E005
:1039E000D11006C091E0E916F10431F080E004C086
:1039F000E2E0EE16F104D0F3882329F390E080E0B2
:103A0000C2DD882339F082E090E09983888388EFD3
:103A10009FEFADCFF801D38681E08487F686E586F7
:103A2000108A178681E090E09983888390E080E097
:103A30009ECF4CE050E061EE72E057CA8F929F92A9
:103A4000BF92CF92DF92EF92FF920F931F93CF938B
:103A5000DF93EA01FC01E60FF71F82819381048165
:103A6000B580E0913704F0913804309791F482E00A
:103A700090E0998388838CEF9FEFDF91CF911F9126
:103A80000F91FF90EF90DF90CF90BF909F908F901D
:103A900008952091390430913A048217930738F041
:103AA00082E090E0998388838EEF9FEFE6CF23E159
:103AB000289F6001299FD00C1124EC0DFD1DE08092
:103AC000F180E114F10499F28281081748F78DE042
:103AD000089F80011124E00EF11EF7018081918181
:103AE000892B29F6BB20E1F2F7E0BF9E40011124AB
:103AF000C4010E945929F70191838083E091370422
:103B0000F0913804EC0DFD1D0190F081E02DE00FE7
:103B1000F11F80819181009739F482E090E09983D0
:103B200088838DEF9FEFA9CFA40170E060E00E9431
:103B3000D9398091370490913804C80ED91EF60106
:103B400080819181080F191FF801B28281E090E015
:103B50009983888390E080E090CFAF92BF92CF921C
:103B6000DF92FF920F931F93CF93DF93EA01FC0143
:103B7000E60FF71F82819381F48000913704109142
:103B800038040115110581F482E090E0998388835F
:103B90008CEF9FEFDF91CF911F910F91FF90DF90FE
:103BA000CF90BF90AF9008952091390430913A049E
:103BB0008217930738F082E090E0998388838EEF34
:103BC0009FEFE8CF2FEF2F0D2C3FA8F723E1289F81
:103BD0006001299FD00C11240C0D1D1DF80180815E
:103BE0009181892B89F6FDE0FF9E50011124C501CA
:103BF0000E945929F80191838083E0913704F09164
:103C00003804EC0DFD1D80819181009739F482E02C
:103C100090E0998388838DEF9FEFBCCFA50170E082
:103C200060E00E94D939E0913704F0913804EC0D3E
:103C3000FD1DF28281E090E09983888390E080E02E
:103C4000A9CFCF92DF92EF92FF920F931F93CF9362
:103C5000DF93860F971FFC01028113818091370447
:103C600090913804892B81F082E090E0FA019183F1
:103C700080838CEF9FEFDF91CF911F910F91FF9089
:103C8000EF90DF90CF900895C801B0E0A0E00197D9
:103C9000A109B1098F3F9F4FA105B10540F082E016
:103CA00090E0FA01918380838EEF9FEFE4CF7A0159
:103CB00083E1809F6001819FD00C1124C6010E9486
:103CC0005929EC01009741F482E090E0F7019183DB
:103CD00080838DEF9FEFCFCFA60170E060E00E9460
:103CE000D939D0933804C093370410933A04009321
:103CF000390490E080E02FEF3FEF41E061E070E0B9
:103D00008017910741F481E090E0F701918380836F
:103D100090E080E0B0CF3A8B298B1B864C877E8762
:103D20006D87188A1F8601966396EACFEF92FF92FD
:103D30001F93CF93DF93EC0110E0F12CE12C6A810B
:103D40001617B0F083E0689FB0011124AE014F5EFA
:103D50005F4FC7010E94BE29009721F02FEF3FEF70
:103D60003A8B298BDF91CF911F91FF90EF900895AF
:103D7000612FCE018DDC61E070E00E940628E8161C
:103D8000F90608F47C011F5FDACFF894209135041E
:103D90003091360481E02115310509F080E0232BB4
:103DA00009F0789408952F923F924F925F926F920C
:103DB0007F928F929F92AF92BF92CF92DF92EF92BB
:103DC000FF920F931F93CF93DF933C01660E771EF4
:103DD000F301828193814C01B12CA12CC091370455
:103DE000D0913804209769F021E030E060913904E7
:103DF00070913A048617970710F030E020E0232BEB
:103E0000D1F482E090E0FA01918380838EEF9FEFFE
:103E1000DF91CF911F910F91FF90EF90DF90CF90A6
:103E2000BF90AF909F908F907F906F905F904F90DA
:103E30003F902F9008958092950290929602A092C2
:103E40009702B092980263E1689F9001699F300DDC
:103E50001124C20FD31FF3018181833040F082E02F
:103E600090E0FA019183808386EF9FEFD1CF2A0102
:103E70002B813C81232BF1F4288139819F8191FF93
:103E80002EC0232B09F46FC020913C049A81422F4D
:103E9000490F5527551FBA0141E050E061387105BF
:103EA00014F050E040E0452B09F45DC02A87920FE2
:103EB00090933C048150823008F481C066DF8823EF
:103EC00009F4D8C0F3018181813009F48DC008F470
:103ED0007BC0823009F4C6C090E080E0ADC0232BE7
:103EE00009F441C020913B049A81E22FE90FFF279A
:103EF000FF1F41E050E0ED3FF10514F050E040E0DD
:103F0000452B89F12A87920F90933B04D3CFA08150
:103F1000B181A20FB31F11966C91060F111D01966E
:103F2000295F3F4F8417950794F38D859E85089FE1
:103F30001001099F300C189F300C1124C114D104BA
:103F4000D1F48F8184FF17C00E945428F5E02F0E12
:103F5000311C21E08215930508F420E0A701435F9E
:103F60005F4F21110EC082E090E0F20191838083C7
:103F700087EF9FEF4DCF0E9454282FEF221A320A6D
:103F8000E8CF88819981E80EF91EF7011483038335
:103F9000FFEFCF1ADF0A7A018A818C151D0409F020
:103FA0000CF48CCFE881F981EE0DFF1D428150E0C9
:103FB00030E020E010E000E090E080E0B3CFF12CB2
:103FC000E12CD12CC12CE8CF81E090E09C838B8345
:103FD000F1DA882309F480CF81E090E00E9457173E
:103FE00080E40E94651778CF89899A89019661F0EB
:103FF00083E090E09C838B8382E090E00E945717DF
:1040000080E40E945F1768CF8D819E8120918B0292
:1040100030918C0282179307D1F460918F027091D6
:104020009002AE014F5E5F4F80918D0290918E02A3
:104030000E94DD2A0097E1F2789422E030E0F2015C
:1040400031832083892B99F08DEF9FEFE1CE892872
:104050008A288B2869F6039758F6CE0167DE188AFE
:104060001F86E8CF82E090E09C838B8335CF90E081
:1040700080E0CECE82E090E0F2019183808385EFF4
:104080009FEFC6CE8F929F92AF92BF92CF92DF9258
:10409000EF92FF920F931F93CF93DF93EA018C016E
:1040A000060F171FF8018181833098F082E090E0BD
:1040B0009983888386EF9FEFDF91CF911F910F91B6
:1040C000FF90EF90DF90CF90BF90AF909F908F9038
:1040D00008958091370490913804892B61F081E034
:1040E00090E02091390430913A04232B11F490E0B0
:1040F00080E0892B39F482E090E0998388838EEF09
:104100009FEFDACF42DE882309F4E0C0F801818115
:10411000813009F496C0E8F0823099F42091390496
:1041200030913A04E0913704F091380490E080E057
:1041300041E050E02817390709F0BEC03BDA811191
:1041400017C0789481E090E09983888390E080E0C4
:10415000B3CF2091390430913A04E0913704F091C3
:10416000380490E080E041E050E02817390741F43E
:1041700081E090E00E94571780E40E946517E1CF2C
:1041800063817481672B11F0548343830196739686
:10419000ECCFE0913704F0913804E00FF11F238158
:1041A000348122303105D9F4218932892F3F3F4FA4
:1041B000B1F42581368140918B0250918C022417F5
:1041C000350761F5AF014F5E5F4F60918F027091CF
:1041D000900280918D0290918E020E94DD2AEFEF75
:1041E000CE1ADE0AEE0AFE0A0D5E1F4F4091390418
:1041F00050913A0470E060E0C416D506E606F70672
:1042000044F5009731F27894892B09F49BCF82E032
:1042100090E0998388838DEF9FEF4ECFC114D10436
:10422000E104F104E1F623303105C8F6CF017EDD6B
:10423000E0913704F0913804E00FF11F108A1786DF
:10424000CECF10E000E090E080E0C12CD12C7601D0
:10425000CDCF0097C1F610E000E0812C912C5401E5
:1042600083E0E82EF12C1AC0E0913704F091380475
:10427000E00FF11F83819481029749F4F482E38275
:1042800082E090E00E94571780E40E945F17FFEFE2
:104290008F1A9F0AAF0ABF0A0D5E1F4F8091390423
:1042A00090913A04B0E0A0E088169906AA06BB06F1
:1042B000DCF290E080E0A7CF638174816230710509
:1042C00011F4548343830196739634CF82E090E0D7
:1042D0009983888385EF9FEFEFCE0097B9F48FEF36
:1042E000FB018083209195023091960243E1429F29
:1042F000C001439F900D1124E0913704F0913804E0
:10430000E80FF91F8285FB01818308950C940E1735
:1043100088E090E0FA019183808390E080E0089546
:104320001092360410923504E7E3F4E086E0DF01F2
:104330001D928A95E9F789E19DE190933404809379
:1043400033040895809133049091340408952F929A
:104350003F924F925F926F927F928F929F92AF9215
:10436000BF92CF92DF92EF92FF920F931F93CF9362
:10437000DF93CDB7DEB72F970FB6F894DEBF0FBE31
:10438000CDBFF894E0913504F09136043196F09366
:104390003604E09335047894409037045090380404
:1043A0004114510409F40CC2E0913904F0913A042B
:1043B000EF2B09F405C22D8749875A876B877C87C5
:1043C00098878F831201B12CA12C10E000E080911E
:1043D000390490913A04A816B90618F4011511058C
:1043E00029F1F894809135049091360401979093C7
:1043F0003604809335047894C8012F960FB6F8944C
:10440000DEBF0FBECDBFDF91CF911F910F91FF9007
:10441000EF90DF90CF90BF90AF909F908F907F9064
:104420006F905F904F903F902F9008957101E41826
:10443000F508D10117968C91179781FD54C01396FA
:104440008D919C911497039709F04DC015968D910D
:104450009C91EF81F8858E179F0709F044C0B50144
:1044600090E080E07FD48A83209137043091380433
:104470003D832C833D85332309F44CC04C815D8101
:10448000452B09F49AC18091390490913A04A816F9
:10449000B90608F092C1C501D7D88823E9F06C812C
:1044A0007D816E0D7F1D7D836C83DB011F968D9159
:1044B0009C91892B89F0D12CC12CF12CE12CAC8161
:1044C000BD8112968C9112978E151F0409F094F4F9
:1044D00050961C921E921F972A81222321F0B5012B
:1044E00090E080E041D43FEFA31AB30A43E1240EE9
:1044F000311C6DCFAC81BD81ED91FC91EC0DFD1DAA
:10450000858196810FD7BFEFEB1AFB0AEDE0CE0E47
:10451000D11CD5CFEC81FD81309709F44EC180913B
:10452000390490913A04A816B90608F046C1EE0D78
:10453000FF1DFF87EE87C50187D88B83882339F15C
:10454000AE85BF851F968D919C915097019621E075
:104550001D964D915C918417950709F020E02E83FC
:104560001982712C10E000E0AE85BF8512968C9107
:10457000781608F45DC0EE85FF85878590890196E1
:10458000658576850E947939908B8787A5CFB1E0C4
:10459000BE83E6CF992493946BC08BD6F6019683A5
:1045A000858382C0D601ED90FC90B7E06B9EE00C55
:1045B000F11C1124F7016381748180818F3F61F1C7
:1045C00021E030E002C0220F331F8A95E2F7C901D3
:1045D000092E000CAA0BBB0BFB01408151816281AB
:1045E000738184239523A623B72321E0892B8A2B6B
:1045F0008B2B09F420E0D4012C93D70111968C91D8
:10460000F60123853485820F932F911D880E991E04
:104610001486138663949BC0418150E0C4010E94BC
:10462000D039EBCF998206EF1FEFC5C01982C3C006
:10463000F981F111A0CFEDE07E9E70011124AE85CD
:10464000BF85CD90DC90CE0CDF1C15D49D838C8370
:10465000BB81BB2309F49ECF81E0EE85FF852785D2
:104660003089232B09F080E0982E882309F458C064
:10467000672D8E859F850CD8D60118969C938E93B6
:10468000179761E070E0C2D4EE85FF8521893289F9
:104690002F3F320709F481CFBC01C901CFD7D60122
:1046A00016969C938E931597D60115968D919C9195
:1046B0001697009709F4B6CFEC81FD818E0F9F1FEE
:1046C0001A969C938E931997AE85BF85ED91FC91B8
:1046D0001197EE0EFF1EF701218532851486138691
:1046E0001A968C91870DD9018D93711016C0EE85A5
:1046F000FF85878184FF11C049855A856B857C853C
:10470000F9014183528363837483F7018385948520
:104710000496A80FB91F14861386F701B287A187E4
:10472000D60115968D919C911697892B09F443C05B
:10473000EE85FF852581368180918B0290918C02D8
:104740002817390779F019968D909C90612CD60125
:1047500012968C911297681608F424CF1A969C92A0
:104760008E921997BE81BB2309F460CF61E070E09F
:10477000F601878190854AD4D6011796ED90FC907A
:10478000189715964D915C91E1E0F0E0BA81BB235A
:1047900011F0F0E0E0E00C811D819C01B50188275B
:1047A00099278E1B9F0B6AD38C01892B21F0F60170
:1047B00085819681B7D57394D7CE0FEF1FEF8CCE3E
:1047C00010E000E00ECE2F923F924F925F926F92D8
:1047D0007F928F929F92AF92BF92CF92DF92EF9291
:1047E000FF920F931F93CF93DF93809137049091A3
:1047F000380410E000E0892BA9F0C7DA0AEF1FEFB8
:10480000882381F02090390430903A04C091370415
:10481000D0913804D12CC12C10E000E02C143D04C0
:10482000A9F47894C801DF91CF911F910F91FF9067
:10483000EF90DF90CF90BF90AF909F908F907F9040
:104840006F905F904F903F902F900895C6010E9407
:10485000241B882309F18B819C810397E9F48F85C0
:104860009889892BC9F0B60190E080E07BD221E0E5
:1048700030E0882311F030E020E044245524421A2F
:10488000530AB12CA12C912C812C8A8188151904F2
:1048900009F038F4188A1F864FEFC41AD40A6396B9
:1048A000BDCFE881F981EA0DFB1D85819681892BB9
:1048B000A1F161E070E087819085A8D33C01DBD253
:1048C0008C01E881F981EA0DFB1D818592852581A6
:1048D0003681200F311FAC01421B530B9A014781D7
:1048E0005085421B530B70E060E00E94D939E8818B
:1048F000F981EA0DFB1DE780F08445815681930123
:10490000B601C201BBD28C01892B39F0E881F98153
:10491000EA0DFB1D8581968105D55FEF851A950A05
:104920008DE0A80EB11CB1CF30CA789408952F92B3
:104930003F924F925F926F927F929F92AF92BF92FF
:10494000CF92DF92EF92FF920F931F93CF93DF935B
:1049500000D000D0CDB7DEB70091370410913804F5
:10496000992493940115110509F43EC0A0903904CF
:10497000B0903A040ADA982E8823B1F110923804E4
:104980001092370410923A041092390410923B04AA
:1049900010923C048FEF9FEFDC018093950290937F
:1049A0009602A0939702B093980278947FD31E83C7
:1049B0000D83C12CD12C7601C501B0E0A0E0898324
:1049C0009A83AB83BC8322242A94322C89819A81D6
:1049D000AB81BC81C816D906EA06FB06F4F0C80113
:1049E000A1D480E40E946517892D26960FB6F8940D
:1049F000DEBF0FBECDBFDF91CF911F910F91FF9012
:104A0000EF90DF90CF90BF90AF909F907F906F908E
:104A10005F904F903F902F900895AD81BE81159685
:104A20008D919C91169720918B0230918C02821768
:104A30009307D1F451968D919C91EED5ED81FE8135
:104A400080819181B12CA12C412C512C3201892BD8
:104A500089F5BFEFCB1ADB0AEB0AFB0AED81FE8179
:104A60007396FE83ED83B2CFC114D104E104F10447
:104A700029F7039718F7ED81FE81818992898F3F8D
:104A8000980709F029D5AD81BE8152963C922E92AD
:104A90005197D4CF8A0D9B1DDC018D919C9100977D
:104AA00009F040D4BFEF4B1A5B0A6B0A7B0AEDE0BA
:104AB000AE0EB11CAD81BE818D919C911197129665
:104AC0004C9150E070E060E04416550666067706AB
:104AD0000CF328D4BECFCF93DF93EA0128DF8111F6
:104AE00009C082E090E09983888385EF9FEFDF9192
:104AF000CF91089581E090E00E94571781E090E007
:104B00009983888390E080E0F2CF11DF1092340423
:104B100010923304089542E050E069E273E00C948F
:104B20007517FF920F931F93CF93DF938A01EC01C8
:104B3000C60FD71FF980B9D20897F816190671F079
:104B400068F082E090E0F801918380838EEF9FEF20
:104B5000DF91CF911F910F91FF9008956C817D811E
:104B60008E819F814B810E940A1A811108C082E0C8
:104B700090E0F8019183808384EF9FEFE9CFF98083
:104B80000E94051A4F2D50E0BE01685F7F4F0E94C2
:104B9000D03989810E94741A81E090E0F8019183F4
:104BA000808390E080E0D4CFDF92EF92FF920F936A
:104BB0001F93CF93DF938A01EC01C60FD71F0E948A
:104BC000051A7C01D98071D2DD2059F0029721E0CD
:104BD00030E0D816190619F010F030E020E0232B51
:104BE00079F482E090E0F801918380838EEF9FEF6B
:104BF000DF91CF911F910F91FF90EF90DF9008957B
:104C0000EF2841F482E090E0F8019183808384EF03
:104C10009FEFEECFF9800E94051A4F2D50E0BE01A4
:104C20006E5F7F4F0E94D03989810E94741A81E0A3
:104C300090E0F8019183808390E080E0D9CF8BE809
:104C400095E290933E0480933D04089580913D0445
:104C500090913E0408950895FC011182108293837F
:104C600082830895DB011D921C92DC011296ED9166
:104C7000FC9113977183608313967C936E931297C4
:104C80000895FC0180819181DB018D939C93A0812B
:104C9000B181109741F08D919C9191838083892BF4
:104CA00011F4F383E2830895FC0180819181DB019B
:104CB0008D939C93892B11F473836283718360833A
:104CC0000895FC0111821082938382830895CF930B
:104CD000DF931F921F92CDB7DEB71A821982F89424
:104CE000BE016F5F7F4F84E494E0CBDF89819A81BE
:104CF000009709F017D389819A81892B89F7BE0122
:104D00006F5F7F4F88E494E0BCDF89819A810097D0
:104D100009F008D389819A81892B89F778940F90BB
:104D20000F90DF91CF910895CF93DF931F921F9241
:104D3000CDB7DEB71A821982F894BE016F5F7F4F3C
:104D400080E494E09EDF89819A81009709F0EAD29D
:104D500089819A81892B89F778940F900F90DF9140
:104D6000CF91089581E0089590E080E00895EF925A
:104D7000FF920F931F93CF93DF931F921F92CDB794
:104D8000DEB71A82198280913F0407EF1FEF882354
:104D9000A1F1F894BE016F5F7F4F88E494E071DF6A
:104DA000789489819A81EE24E394F12C892B51F433
:104DB000F894BE016F5F7F4F84E494E062DF7894E3
:104DC000F12CE12C89819A810EEF1FEF0097A9F059
:104DD000FC014281538164E070E074D68C01892B20
:104DE00061F0F89469817A81C701880F991F880F53
:104DF000991F8C5B9B4F58DF7894C8010F900F90E0
:104E0000DF91CF911F910F91FF90EF9008950F9335
:104E10001F93CF93DF9300D01F92CDB7DEB71C82D4
:104E20001B821A82198280913F0407EF1FEF8823AB
:104E3000C1F0AE014D5F5F4F64E070E0CE010196BE
:104E4000B4D68C01892B69F4E981FA818B819C812C
:104E500093838283F89469817A8180E494E002DF0D
:104E60007894C8010F900F900F900F90DF91CF9121
:104E70001F910F910895B9D7049608958F929F922C
:104E8000AF92BF92CF92DF92EF92FF920F931F9358
:104E9000CF93DF931F921F92CDB7DEB71A8219828C
:104EA000BC016F5F7F4F6330710598F0AA24AA940C
:104EB000BA2CC5010F900F90DF91CF911F910F91E8
:104EC000FF90EF90DF90CF90BF90AF909F908F902A
:104ED00008954115510551F3480159018A016C01AA
:104EE000CADF8815990511F7E114F104F9F28E0D66
:104EF0009F1DA816B906D0F280913F048823F1F0D7
:104F0000F894B501645071099701AE014F5F5F4F8E
:104F1000C8010496DFD65C01892B71F489819A81DE
:104F2000F80193838283C601880F991F880F991F08
:104F3000B8018C5B9B4F96DE7894BBCF87EFA82E91
:104F4000BB24BA94B6CFAF92BF92CF92DF92EF92CA
:104F5000FF920F931F93CF93DF931F921F92CDB7B2
:104F6000DEB71A821982892B09F047C061157105D5
:104F700009F443C04115510509F43FC0211531051D
:104F800009F43BC001151105C1F180913F0488234C
:104F9000B9F179016A015B01F894BE016F5F7F4F3F
:104FA00080E494E06EDE789489819A81009759F1CB
:104FB000DC0112966D917C91A8010496A4D68C0117
:104FC000E981FA81D501ED93FC9382819381049666
:104FD000F601918380834FDFD7018D939C93C801A5
:104FE0000F900F90DF91CF911F910F91FF90EF9055
:104FF000DF90CF90BF90AF9008950FEF1FEFEFCFEE
:1050000007EF1FEFECCF0EEF1FEFE9CFCF93DF934A
:10501000EC01672B71F4F2D68C179D0760F0E5D692
:105020002496C80FD91FE4D68C0F9D1FDF91CF9116
:105030000895E1D6F1CF90E080E0F8CF0F931F9371
:10504000CF93DF9320913F0421112BC08B01EC0102
:1050500084E494E001DE88E494E0FEDD80E494E002
:10506000FBDD97D00097C1F4C9D670E060E0CEDFD9
:1050700049E952E062E070E081D1009769F48091E3
:10508000990290919A02CCD6B801CE0101D5009731
:1050900019F421E020933F04DF91CF911F910F91EC
:1050A000089584EF9FEFF8CFA6C6A8C6CF93DF93ED
:1050B000A8D6EC01892B11F40ADE36DECE01DF9191
:1050C000CF910895CF93DF939CD6EC01892B09F4FF
:1050D000FEDDCE01DF91CF910895809199029091EC
:1050E0009A020895CF93DF9380913F04D0E0C0E00F
:1050F0008823D1F09AD6EC01892BB1F4E8DD14DED7
:105100008091990290919A02E7D1E8D2EC01892B23
:1051100059F484E494E0D5DD88E494E0D2DD80E4C1
:1051200094E0CFDD10923F04CE01DF91CF9108953E
:10513000EF92FF920F931F93CF93DF93EC017A01CD
:105140008B010F5F1F4F0E9DA0010F9D500D1E9DE7
:10515000500D112470E060E00E94D93990E080E0A9
:10516000F0E0E0E02FEFE816F90639F4DF91CF9197
:105170001F910F91FF90EF9008951A821982288352
:10518000309711F0D283C1830196FE01C00FD11F69
:10519000EACFCF92DF92EF92FF920F931F93CF93BC
:1051A000DF9309E516E00C7F43E050E06BE972E025
:1051B00081EA92E01AD48BE9E82E82E0F82E91EA97
:1051C000C92E92E0D92EC0EED6E0D7014D915D9167
:1051D0007D01F601619171916F01198308835D83EF
:1051E0004C835B834A837F836E839B012F5F3F4F9A
:1051F000249FC001259F900D349F900D1124998705
:1052000088870115110511F0C80192DF88859985FD
:10521000080F191F2A96F1EAEF16F2E0FF06A9F629
:10522000EEE4F4E088E092E0DF019C011D92215061
:105230003040E1F710924D0410924C041092FF069A
:105240001092FE06109203071092020710920107B7
:10525000109200071092050710920407109207079A
:1052600010920607109209071092080710920D0776
:1052700010920C0710920B0710920A0710920F075A
:1052800010920E0710921107109210071092DD066F
:105290001092DC061092DF061092DE0690E080E0AD
:1052A000DF91CF911F910F91FF90EF90DF90CF9002
:1052B00008950097F1F0F894A1EAB2E0E0EEF6E08C
:1052C00030E020E04D915D9148175907A8F04281E8
:1052D00053814115510581F08AE0829FF001839F3F
:1052E000F00D1124E052F94F80819181009759F41B
:1052F000789490E080E008952F5F3F4F3A962330F6
:10530000310501F7F5CFDC0111966D917C91718328
:1053100060834150510953834283FC012193CF01A3
:1053200078940895009749F1DC018E91853041F41D
:10533000E091DE06F091DF063097F9F0CD01199487
:105340008530D8F4282F30E0F8948FEF8C938AE0E2
:10535000829FF001839FF00D1124E052F94F80816C
:10536000918112969C938E931197B183A083828131
:10537000938101969383828378940895CF92DF92EC
:10538000EF92FF920F931F93CF93DF939C0181E5E0
:1053900094E08C7F4115510509F49BC0211531051E
:1053A00009F497C06115710509F493C07A01AB0146
:1053B000B9016D5F7F4F6C7F9B012F5F3F4F249F33
:1053C0008001259F100D349F100D1124F894209119
:1053D000FE063091FF06232B59F4209106073091E9
:1053E00007072115310569F12017310708F058C06A
:1053F0002091080730910907232B91F4209106078B
:1054000030910707820F931F2091100730911107E9
:105410002115310509F441C02017310708F056C0A5
:105420007894CFEFDFEF86EF9FEFF701D183C08352
:10543000DF91CF911F910F91FF90EF90DF90CF9070
:105440000895C3E0D0E0C0904C04D0904D0425E016
:1054500032E02C193D092017310710F32AE02C9F68
:10546000F0012D9FF00D1124E052F94F91838083BC
:1054700055834483538342837783668311870087F0
:10548000009709F055DE0C0D1D1D10934D0400937F
:105490004C04789490E080E0C8CFC4E0D0E0D3CF53
:1054A000C3E0D0E02AE02C9FF0012D9FF00D1124E5
:1054B000E052F94F91838083558344835383428321
:1054C00077836683009729F333DEE3CFC4E0D0E02F
:1054D000E9CF8FEF9FEFACCF9C010397029708F0C5
:1054E00069C0F89484E09AE0482F50E0241735070B
:1054F0000CF44DC091E08AE0829FF001839FF00D93
:105500001124E052F94F1182108215821482138205
:105510001282178216829923B1F18091FE06909132
:10552000FF06892BA9F42091060730910707211562
:10553000310571F080914C0490914D04821B930BC6
:1055400090934D0480934C04109207071092060725
:105550008091080790910907892BA9F420911007E1
:10556000309111072115310571F080914C04909113
:105570004D04821B930B90934D0480934C04109226
:10558000110710921007789490E080E00895949F9E
:10559000F001959FF00D1124E052F94F40815181A7
:1055A000452B31F440855185452B11F481509CCF1A
:1055B00090E0A1CF8FEF9FEF08954115510549F17C
:1055C000009739F16115710521F1F8942091DC06FD
:1055D0003091DD06232BB9F42091DE063091DF06F1
:1055E000232B89F49093DD068093DC067093DF060D
:1055F0006093DE06789425E030E090E080E0FA01E8
:1056000031832083089578942FEF3FEF86EF9FEF4B
:10561000F6CF8FEF9FEF0895059769F4F8941092F5
:10562000DD061092DC061092DF061092DE067894FA
:1056300090E080E008958FEF9FEF08956115710568
:1056400019F4F0E0E0E011C08530910581F4E091BB
:10565000DC06F091DD063097A1F3CB010196199598
:10566000009779F3FC0185E08193CF0108959C01B7
:10567000235031092230310520F72AE0289FD0013C
:10568000299FB00D1124A052B94F2D913C91119733
:10569000232BB9F216962D913C91179726173707B1
:1056A00080F2F89412962D913C91139721153105B3
:1056B00029F0ED91FC911197309711F47894C1CFB6
:1056C0004181528111965C934E932150310913967A
:1056D0003C932E93129781937894C7CFE6E5F6E03A
:1056E00086E8DF011D928A95E9F7EEE4F4E088E0B0
:1056F00092E0DF019C011D9221503040E1F71092B1
:105700004D0410924C04E0EEF6E082E3DF011D92BE
:105710008A95E9F7ECEDF6E084E0DF011D928A95C9
:10572000E9F790E080E00895CF93DF93C091A7025E
:10573000D091A802CF3FDC0759F41FD49093A80260
:105740008093A70297FF09C0D093A802C093A70235
:1057500084EF9FEFDF91CF91089590E080E0FACF42
:105760008230910528F48093120790E080E008953C
:105770008FEF9FEF08954F925F926F927F92AF925B
:10578000BF92CF92DF92EF92FF920F931F93CF932E
:10579000DF931F921F92CDB7DEB71A82198200974E
:1057A00009F478C06115710509F474C02091A7024D
:1057B0003091A80207EF1FEF2F3F3F4F09F444C07D
:1057C0006B015C01412C512C3201F12CE12C10E0D9
:1057D00000E09E012F5F3F4FA6014E195F09B50102
:1057E0006E0D7F1D8091A7029091A80225D4892B70
:1057F00009F04AC089819A81009741F4E114F104CB
:1058000029F420911207222309F441C0E80EF91E61
:10581000EC14FD04C8F480E8481684E858068EE1CC
:105820006806710418F560E070E0CB017CD72AE0CF
:10583000420E511C611C711C0A3F4FEF140721F0EE
:10584000043F8FEF1807A1F4C8010F900F90DF916C
:10585000CF911F910F91FF90EF90DF90CF90BF906D
:10586000AF907F906F905F904F90089501EF1FEF82
:1058700081E090E0013F2FEF120711F090E080E00F
:10588000892B09F4A6CFE0CF04EF1FEFDDCF0AEF9D
:105890001FEFDACF0FEF1FEFD7CF4F925F926F92CC
:1058A0007F92AF92BF92CF92DF92EF92FF920F93CF
:1058B0001F93CF93DF931F921F92CDB7DEB71A824B
:1058C0001982009709F478C06115710509F474C054
:1058D0002091A7023091A80207EF1FEF2F3F3F4F03
:1058E00009F444C06B015C01412C512C3201F12CB4
:1058F000E12C10E000E09E012F5F3F4FA6014E1902
:105900005F09B5016E0D7F1D8091A7029091A802DD
:1059100049D3892B09F04AC089819A81009741F4C3
:10592000E114F10429F420911207222309F441C063
:10593000E80EF91EEC14FD04C8F480E4481682E475
:1059400058068FE06806710418F560E070E0CB013E
:10595000EAD62AE0420E511C611C711C0E3F4FEF2B
:10596000140721F0043F8FEF1807A1F4C8010F902E
:105970000F90DF91CF911F910F91FF90EF90DF90EB
:10598000CF90BF90AF907F906F905F904F900895B1
:1059900002EF1FEF81E090E0023F2FEF120711F0BE
:1059A00090E080E0892B09F4A6CFE0CF04EF1FEF51
:1059B000DDCF0EEF1FEFDACF0FEF1FEFD7CF8091C4
:1059C000A7029091A8028F3F980749F0CED2892B69
:1059D00049F48FEF9FEF9093A8028093A70290E085
:1059E00080E0089584EF9FEF0895CF92DF92EF92C9
:1059F000FF920F931F93CF93DF9321E04115510541
:105A000009F020E04150510921112CC0DC01FB01BB
:105A1000D12CC12C21E022C03FEFC31AD30A7D0153
:105A20000D911D91E701EA80FB80E016F106A8F4D4
:105A300020813181E280F380F182E082338322830E
:105A4000ED90FC9011979D0122503109E901F982F6
:105A5000E88211961C930E9320E03296C416D50668
:105A6000D8F2D2CFDF91CF911F910F91FF90EF909D
:105A7000DF90CF900895FC01680F791F90E080E0DF
:105A8000E617F70709F408952191820F911DF8CFC9
:105A900020911307211113C047DE009791F4109253
:105AA00019071092180710921707109216071092F4
:105AB00015071092140721E020931307089584EF2F
:105AC0009FEF0895AF92BF92CF92DF92EF92FF9235
:105AD0000F931F93CF93DF93009709F460C0463074
