:10000000F8C0000027C1000025C1000023C1000086
:1000100021C100001FC100001DC100001BC1000064
:1000200019C1000017C1000015C1000013C1000074
:1000300011C100000FC100000DC100000BC1000084
:1000400009C1000007C1000005C1000003C1000094
:1000500001C10000FFC00000FDC000000C94B331DE
:10006000F9C000000C94AA350C94E035F3C00000F0
:10007000F1C00000EFC00000EDC00000EBC00000C8
:10008000E9C00000E7C00000E5C00000E3C00000D8
:100090000C9436360C946C36DDC00000DBC00000DA
:1000A000D9C00000D7C00000D5C00000D3C00000F8
:1000B000D1C00000CFC00000CDC00000CBC0000008
:1000C000C9C00000C7C000000C94B92D0C94C23602
:1000D0000C94F836BFC000000C944E370C94843753
:1000E000B9C0000000000A0B02090C0D0E0807033E
:1000F00004010000000000000000000000000000FB
:1001000000000000000000000000000000000000EF
:1001100012111000000000000000000000000000AC
:100120000000000000000000000001021020200874
:100130000810204010204080020102010804020142
:1001400001020408102040808040201008040201B1
:10015000800402018040201008040201080402010A
:100160000102040810204080010204081020408091
:1001700005050505070508080808020202020A0A23
:100180000808040404040101010101010101030341
:10019000030303030303040707070C0C0C0C0C0CEC
:1001A0000C0C0202020206060606060606060B0BE9
:1001B0000B0B0B0B0B0B00002200250028002B0063
:1001C0002E003100340002010000050108010B017E
:1001D00000002100240027002A002D0030003300F9
:1001E00001010000040107010A0109369536213793
:1001F000AD3711241FBECFEFD1E2DEBFCDBF00E08F
:100200000CBF13E0A0E0B2E0E0E0F1E700E00BBFDC
:1002100002C007900D92A434B107D9F729E0A4E4F5
:10022000B3E001C01D92A33CB207E1F710E0C9EFB3
:10023000D0E000E006C021970109802FFE010E9456
:100240004D38C53FD10780E00807A9F70E94D52E99
:100250000C947E38D5CE611102C00C9417346130F5
:10026000E1F362E0FACF662319F061E00C945334B5
:1002700060E0FCCFCF92DF92EF92FF92CF93882382
:1002800051F16A017B01CFEFC80F20E030E0A901F6
:10029000CB01B6010E94C22F18168CF0C701B6011F
:1002A00090580E94CB2F9B01AC016C2F70E090E026
:1002B00080E0CF91FF90EF90DF90CF90B2C0C70168
:1002C000B6010E94C62F8C2FCF91FF90EF90DF9048
:1002D000CF900C94DD32CF91FF90EF90DF90CF90D4
:1002E00008950F931F938B019C0183E0369527950A
:1002F000179507958A95D1F70C5B1C4F462F4770D1
:1003000021E030E0F90102C0EE0FFF1F4A95E2F74D
:10031000AF01F80120812423CB010196211102C0F5
:1003200090E080E01F910F9108950F931F938B0130
:100330009C0183E036952795179507958A95D1F707
:10034000677081E090E001C0880F6A95EAF7F801D4
:10035000EC5BFC4F2081452B31F480958223808318
:100360001F910F910895822BFACF2F923F924F92B7
:100370005F926F927F928F929F92AF92BF92CF9235
:10038000DF92EF92FF920F931F93CF93DF93D62EBE
:10039000C72E782E692E49015A01280161E08D2D62
:1003A0000E941734CD2DDC2D8E010F5F1F4FA80149
:1003B0006D2D7C2D872D962DB8DF20E030E0A90132
:1003C000C201B7010E940F31181664F4C201B701CF
:1003D0000E94CB2F2B01C501B4010E94CB2FA2019B
:1003E000CE0123D0C801DF91CF911F910F91FF90D3
:1003F000EF90DF90CF90BF90AF909F908F907F90C5
:100400006F905F904F903F902F900895882341F018
:100410008150682F70E090E080E050E040E085CFB0
:100420000895862FB9010C94DD329C01FC01EC513A
:10043000FF4FE491E150E231E0F4F0E08827EC5D19
:10044000FD4F8F4F0C944D3836023D02400257024B
:100450006C02390281028D029102A802BD02D20211
:10046000E902FE02390213032A033F0384B58068C0
:1004700084BD60E0822F0C94533484B58062F8CF41
:10048000809180008C7F82608093800080918100C9
:10049000807E8061682B6093810050938700409339
:1004A000860080918000806880938000E2CF8091F8
:1004B00080008C7F82608093800080918100807EAC
:1004C0008061682B60938100509387004093860081
:1004D000809180008062E8CF809180008C7F826074
:1004E0008093800080918100807E8061682B609382
:1004F000810050938700409386008091800088603F
:10050000D3CF8091B00080688093B0008091B1001B
:10051000887F682B6093B100ACCF8091B00080627F
:10052000F3CF809190008C7F8260809390008091C7
:100530009100807E8061682B6093910050939700BA
:10054000409396008091900080688093900091CFB6
:10055000809190008C7F82608093900080919100C8
:10056000807E8061682B6093910050939700409348
:100570009600809190008062E8CF809190008C7FFF
:1005800082608093900080919100807E8061682BD2
:100590006093910050939700409396008091900053
:1005A0008860D3CF8091A0008C7F82608093A00070
:1005B0008091A100807E8061682B6093A1005093A0
:1005C000A7004093A6008091A00080688093A000BF
:1005D00050CF8091A0008C7F82608093A00080919A
:1005E000A100807E8061682B6093A1005093A700DA
:1005F0004093A6008091A0008062E8CF8091A00087
:100600008C7F82608093A0008091A100807E8061B9
:10061000682B6093A1005093A7004093A60080919F
:10062000A0008860D3CF809120018C7F826080936E
:10063000200180912101807E8061682B60932101DF
:100640005093270140932601809120018068809378
:1006500020010FCF809120018C7F82608093200148
:1006600080912101807E8061682B609321015093ED
:10067000270140932601809120018062E8CF80917C
:1006800020018C7F82608093200180912101807EF7
:100690008061682B609321015093270140932601CC
:1006A000809120018860D3CFCF93DF93882349F0D6
:1006B000EB0181500E94BA3299838883DF91CF91F8
:1006C0000895FB0111821082F9CF0F931F938B01C4
:1006D0009C0183E036952795179507958A95D1F764
:1006E000035B1C4F462F477021E030E0F90102C048
:1006F000EE0FFF1F4A95E2F7AF01F8012081242396
:10070000CB010196211102C090E080E01F910F9172
:1007100008950F931F938B019C0183E036952795D5
:10072000179507958A95D1F7677081E090E001C031
:10073000880F6A95EAF7F801E35BFC4F2081452BAF
:1007400031F48095822380831F910F910895822B2D
:10075000FACFCF92DF92EF92FF92CF93DF936B01AC
:100760007C0160E086E3C816D104E104F10490F452
:1007700086E38C0D0E941734E6012196AE01C70175
:10078000B601C7DFCE01DF91CF91FF90EF90DF90F0
:10079000CF9008958C2DEECF882341F08150682FA3
:1007A00070E090E080E050E040E0B3CF089590E04A
:1007B00080E008950F931F93009709F489C0611595
:1007C000710509F485C000917E0210917F0220918D
:1007D0008002309181020E3F1F4F2F4F3F4F09F093
:1007E00068C04FEF5FEFBA0140937E0250937F02E3
:1007F000609380027093810240917E0250917F024B
:100800006091800270918102DC011296ED91FC9161
:1008100080819181A281B3818093D2039093D3038D
:10082000A093D403B093D50384819581A681B78129
:100830008093CE039093CF03A093D003B093D103C2
:1008400080859185A285B3858093CA039093CB035D
:10085000A093CC03B093CD0384859585A685B785F9
:100860008093C6039093C703A093C803B093C903B2
:100870001092C2031092C3031092C4031092C503D6
:100880000E94A21187EC91E1909357038093560345
:1008900090935903809358030E949110009731F46C
:1008A00021E030E03093D7032093D6031F910F91BE
:1008B000089500917E0210917F0220918002309174
:1008C0008102DB010D931D932D933C93139794CFDD
:1008D0008FEF9FEFEBCF8F929F92AF92BF92CF920D
:1008E000DF92EF92FF921F93CF93DF934B015C0156
:1008F0001091D90382E090E09093D7038093D603C0
:1009000081149104A104B10441F48091D9038111AF
:1009100004C08091D803C1E08111C0E0C12CD12C6A
:1009200076018091D903811106C08091D80381118D
:1009300002C0CC23D9F083E090E09093D70380935A
:10094000D603CC2381F1CCE9DFEF111102C00E9464
:100950002B15CE01DF91CF911F91FF90EF90DF908B
:10096000CF90BF90AF909F908F9008956AE070E015
:1009700080E090E00E94223280E1C80E87E2D81E1B
:10098000E11CF11C8FEF88169806A806B80631F016
:10099000C1E08C149D04AE04BF0408F0C0E080E008
:1009A0000E94C510BECFD0E0C0E0CFCFCF92DF9283
:1009B000EF92FF920F931F93CF93DF938F3F910599
:1009C00011F008F051C02091D6033091D7032330A5
:1009D000310539F02091D6033091D703213031050C
:1009E00031F424E030E03093D7032093D6036A013A
:1009F0007B01EC0182309105A8F011E0AE01C70146
:100A0000B6010E949010AB01BC01CE011123F9F098
:100A1000DF91CF911F910F91FF90EF90DF90CF90DA
:100A20000C9454178C01000F111F0A5A1C4FD80147
:100A30008D919C91892B09F30E945E170297E9F62C
:100A4000D801ED91FC91CE011995182FD7CF0E94B6
:100A5000761790E080E0DF91CF911F910F91FF908A
:100A6000EF90DF90CF9008958FEF9FEFF4CF80E06D
:100A70000C94C510CF93DF9386E090E09093D7035A
:100A80008093D6030E941E11EC01E6E5F3E084E0BA
:100A9000DF011D928A95E9F70E94C3141092D703D3
:100AA0001092D603CE01DF91CF9108958091D803A3
:100AB00008958091C103089560937E0270937F0230
:100AC000809380029093810290E080E008952F92BD
:100AD0003F924F925F926F927F928F929F92AF92CE
:100AE000BF92CF92DF92EF92FF920F931F93CF931B
:100AF000DF9300D000D01F921F92CDB7DEB74B011D
:100B00005C015C834B833E832D83AE014F5F5F4F5F
:100B10000E94FC306B017C0169807A800FEF1FEF2F
:100B20001614170444F483010150110955E015957A
:100B300007955A95E1F7C801F801EE0FFF1FEE0F78
:100B4000FF1F2B813C81E20FF31F019634964D81EC
:100B50005E81841795070CF446C020E030E0A901BF
:100B6000C501B4010E94C22F87FF04C0F7FAF094B8
:100B7000F7F8F094180135E0220C331C3A95E1F7B0
:100B80000F3F1007A9F520E030E0A901C501B4012D
:100B90000E94C22F87FF0EC0EB80FC8030E020E077
:100BA00081E090E0A0E0B0E04D815E812417350740
:100BB0000CF455C028960FB6F894DEBF0FBECDBF1B
:100BC000DF91CF911F910F91FF90EF90DF90CF9029
:100BD000BF90AF909F908F907F906F905F904F905D
:100BE0003F902F9008951082118212821382ADCF10
:100BF000A30142195309C701B6010E9415316B01C7
:100C00007C010E9434302B013C01AC019B01C701E7
:100C1000B6010E945D2F6B017C018D819E810817BA
:100C20001907ACF4C801880F991F880F991FEB8131
:100C3000FC81E80FF91FF887EF83C301B2010E941E
:100C4000CB2FEF81F885608371838283938301507A
:100C500011093101910120523109190191CFF70198
:100C600041915191619171917F01409550956095AD
:100C70007095840F951FA61FB71F8F01045011098F
:100C8000F80180839183A283B38311E084179507D1
:100C9000A607B70708F010E0812F90E0B0E0A0E0D1
:100CA0002F5F3F4F81CF4F925F926F927F928F92D3
:100CB0009F92AF92BF92CF92DF92EF92FF92CF932B
:100CC000DF939A012150304C220F331F220F331F24
:100CD000FC01E20FF31F80809180A280B380FB01B2
:100CE000E20FF31FC080D180E280F380CC24DD24AA
:100CF000EE24E0E8FE222401350144245524662434
:100D0000E0E87E22C414D504E604F70499F52C5FCC
:100D10003F4FFC01E20FF31FEB01C20FD31F14166C
:100D200015068CF090E080E0DF91CF91FF90EF907E
:100D3000DF90CF90BF90AF909F908F907F906F90FB
:100D40005F904F90089541505109F290E290D290F7
:100D5000C290BA91AA919A918A91C816D906EA06C8
:100D6000FB06E9F28C159D05AE05BF0528F481E070
:100D700090E0DACFB7FEFBCF8FEF9FEFD5CF93DFB9
:100D800021E0181619060CF020E0822F08958BDF61
:100D9000892F881F8827881F08952F923F924F928E
:100DA0005F926F927F928F929F92AF92BF92CF92FB
:100DB000DF92EF92FF920F931F93CF93DF9300D0B8
:100DC0001F92CDB7DEB78B015C834B83FB01E150F3
:100DD000F04CEE0FFF1FEE0FFF1FE80FF91F4081D1
:100DE00051816281738177FD27C04C01B12CA12C08
:100DF000C12CD12C7601A016B10664F5F4016191E5
:100E00007191819191914F010E94F72F4B815C81EB
:100E10000E9415319B01AC01C701B6010E945E2FF3
:100E20006B017C012B813C81205E3F4F3C832B83F7
:100E30003FEFA31AB30ADFCF9A838983312C212C89
:100E400081E090E0A0E0B0E0C12CD12C760120162A
:100E50003106CCF0C701B6010F900F900F900F90A4
:100E6000DF91CF911F910F91FF90EF90DF90CF9086
:100E7000BF90AF909F908F907F906F905F904F90BA
:100E80003F902F900895E981FA81419051906190AF
:100E90007190FA83E9834094509460947094530164
:100EA0004201880E991EAA1EBB1EC501B4010E94F4
:100EB000F72F4B815C810E9415319B01AC01C7016A
:100EC000B6010E945D2F6B017C0181E084149504C2
:100ED000A604B70408F080E090E0B0E0A0E02B8129
:100EE0003C81205E3F4F3C832B833FEF231A330A24
:100EF000AECF8F929F92AF92BF92CF92DF92EF923E
:100F0000FF920F931F93FB0170E060E0C12CD12C86
:100F10007601C394641775075CF01F910F91FF90E1
:100F2000EF90DF90CF90BF90AF909F908F900895FB
:100F3000DC018D909D90AD90BD90CD019701860113
:100F40000150110921093109081919092A093B0918
:100F50000193119321933193A1E00C151D052E05EA
:100F60003F0508F0A0E0CA2ED12CF12CE12C6F5FD8
:100F70007F4FD0CF2F923F924F925F926F927F928E
:100F80008F929F92AF92BF92CF92DF92EF92FF9299
:100F90000F931F93CF93DF93CDB7DEB7A4970FB610
:100FA000F894DEBF0FBECDBFC0900802D0900902FA
:100FB000E0900A02F0900B02A701960160913009BF
:100FC0007091310980913209909133090E94C22FAA
:100FD000882341F0C0923009D0923109E092320961
:100FE000F092330967E370E080E090E06EDB90936D
:100FF0002F0980932E0943E050E0BE016D5E7F4FC4
:1010000053DBC0900C02D0900D02E0900E02F090E5
:101010000F02A70196016091240970912509809122
:101020002609909127090E94C22F882341F0C0927F
:101030002409D0922509E0922609F092270968E355
:1010400070E080E090E041DB9093230980932209D7
:1010500043E050E0BE016F5E7F4F26DB40917C0293
:1010600050917D02AB89BC899A010E9455386D8BE5
:101070007E8B8F8B988FA989BA890E9455382B0156
:101080003C01C0900002D0900102E0900202F0907A
:101090000302C98EDA8EEB8EFC8EC0900402D090D3
:1010A0000502E0900602F0900702CD8EDE8EEF8EF4
:1010B000F8A2C98CDA8CEB8CFC8C2D893E894F8987
:1010C000588D212C2C153D054E055F0560F461E01F
:1010D000CD8CDE8CEF8CF8A04C145D046E047F0484
:1010E00008F060E0262ECD8CDE8CEF8CF8A04C143E
:1010F0005D046E047F0470F011E0C98CDA8CEB8C17
:10110000FC8C2D893E894F89588D2C153D054E0547
:101110005F0508F410E0C98CDA8CEB8CFC8C2D890F
:101120003E894F89588D312C2C153D054E055F05A4
:1011300060F481E0CD8CDE8CEF8CF8A04C145D0463
:101140006E047F0408F480E0382EC98CDA8CEB8CB6
:10115000FC8C2D893E894F89588D2C153D054E05F7
:101160005F0550F001E0CD8CDE8CEF8CF8A04C14C4
:101170005D046E047F0408F000E0C12CD12C7601E0
:10118000112311F07301620180E090E0DC01332053
:1011900011F0D301C201A7019601280F391F4A1F80
:1011A0005B1F29A33AA34BA35CA3C12CD12C7601CE
:1011B000002311F073016201622D70E090E080E085
:1011C0000E94F72F4B015C0169A17AA18BA19CA120
:1011D0006C0D7D1D8E1D9F1D0E94F72F20E030E0BD
:1011E00040E056E30E9449316B017C0120911402DA
:1011F000309115024091160250911702C501B401B9
:101200000E9449319B01AC01C701B6010E945E2FCB
:10121000209118023091190240911A0250911B023C
:101220000E9449310E9434306B017C0171D68111DA
:1012300005C0C701B60127D6882319F0C12CD12CCF
:10124000760122E030E0AE014F5F5F4FC701B6018B
:101250003EDC42E050E06CE272E0CE0101968FDDB0
:10126000882309F48EC288E0ECE2F2E0A9E7B9E055
:1012700001900D928A95E1F780E090E0DC01112366
:1012800021F08D899E89AF89B88D40E050E0BA0188
:10129000332021F04D895E896F89788D840F951FE9
:1012A000A61FB71F40E050E0BA01002321F04D898E
:1012B0005E896F89788D6C017D01C40ED51EE61E96
:1012C000F71EC701B6010E94F72F20E030E040E092
:1012D00056E30E9449316B017C012091100230914C
:1012E00011024091120250911302C501B4010E94F3
:1012F00049319B01AC01C701B6010E945E2F2091CC
:1013000018023091190240911A0250911B020E945A
:1013100049310E9434306B017C01FAD5811105C03E
:10132000C701B601B0D5882319F0C12CD12C7601A4
:1013300022E030E0AE01475F5F4FC701B601C7DB77
:1013400042E050E06CE272E0CE01099618DD88239D
:1013500009F428C288E0ECE2F2E0A1E8B9E00190EB
:101360000D928A95E1F742E050E06CE372E089E784
:1013700099E005DD882309F426C288E0ECE3F2E079
:10138000A9E8B9E001900D928A95E1F76BE070E071
:1013900080E090E00E9471017C019093630980934A
:1013A000620950E040E062E070E089E899E0F5DC35
:1013B0004B015C0120E030E04FE753E40E94C22F74
:1013C00018160CF411C220E030E0A901C501B401E7
:1013D0000E940F3187FF03C0812C912C5401B5016D
:1013E000A401C7010E943A0142E050E06CE472E0BF
:1013F00089E799E0C4DC882309F4FDC188E0ECE4C6
:10140000F2E0DE01199601900D928A95E1F742E033
:1014100050E069EA72E0CE010996B9DC882309F44C
:10142000FBC142E050E061E979E0CE01099661DD5F
:101430006AE070E080E090E00E9471017C0190938E
:1014400053098093520950E040E062E070E081E986
:1014500099E0A3DC4B015C0120E030E04FE753E46E
:101460000E94C22F18160CF4E1C120E030E0A9015F
:10147000C501B4010E940F3187FF03C0812C912C5C
:101480005401B501A401C7010E943A0142E050E0B5
:101490006CE572E081E899E072DC882309F4CDC143
:1014A00088E0ECE5F2E0A9E9B9E001900D928A95B7
:1014B000E1F769E070E080E090E00E9471017C015A
:1014C00090936B0980936A0950E040E062E070E01D
:1014D00089E999E062DC4B015C0120E030E04FE7F4
:1014E00053E40E94C22F18160CF4B8C120E030E07B
:1014F000A901C501B4010E940F3187FF03C0812CEF
:10150000912C5401B501A401C7010E943A0142E0A7
:1015100050E06CE672E081E899E031DC882309F460
:10152000A4C188E0ECE6F2E0DE01199601900D928C
:101530008A95E1F742E050E069EA72E0CE0109964F
:1015400026DC882309F4A2C142E050E061EA79E098
:10155000CE010996CEDC68E070E080E090E00E9469
:1015600071017C0190935B0980935A0950E040E03F
:1015700062E070E081EA99E010DC4B015C0120E060
:1015800030E04FE753E40E94C22F18160CF488C1D4
:1015900020E030E0A901C501B4010E940F3187FFAE
:1015A00003C0812C912C5401B501A401C7010E94F4
:1015B0003A01602F81E30E943301C0906C09D09002
:1015C0006D09E0906E09F0906F09C701B6010E94A5
:1015D000F92F69A37AA38BA39CA3209124023091B5
:1015E000250240912602509127020E94C22F87FFB8
:1015F0005EC1F7FC5CC180901C0290901D02A0901F
:101600001E02B0901F0220E030E040E85FE36091EE
:1016100020027091210280912202909123020E9467
:101620005D2F9B01AC0169A17AA18BA19CA10E94B5
:101630000F3187FD40C110926C0910926D09109214
:101640006E0910926F09332009F443C161E0262628
:10165000622D83E30E943301C98CDA8CEB8CFC8C05
:101660002D893E894F89588D2C153D054E055F0506
:1016700050F061E0CD8CDE8CEF8CF8A04C145D0452
:101680006E047F0408F460E085E30E943301C0909B
:101690009403D0909503E0909603F09097032FEF7A
:1016A000C21AD20AE20AF20AC0929403D0929503B7
:1016B000E0929603F0929703C114D104E104F1047F
:1016C00099F48091980390919903A0919A03B09115
:1016D0009B030196A11DB11D8093980390939903DC
:1016E000A0939A03B0939B0380909C0390909D03DA
:1016F000A0909E03B0909F0360919803709199030E
:1017000080919A0390919B030E94F72FA501940169
:101710000E94493120E030E040E85FE40E94493116
:101720002B013C01C701B6010E94F72FA5019401CE
:101730000E9449319B01AC01C301B2010E945E2F9E
:10174000609390037093910380939203909393031B
:10175000A4960FB6F894DEBF0FBECDBFDF91CF9138
:101760001F910F91FF90EF90DF90CF90BF90AF90BF
:101770009F908F907F906F905F904F903F902F90B1
:10178000089542E050E064E372E0CE010196FFDA92
:10179000882321F088E0E4E3F2E068CD88E0FE01F0
:1017A000319664CD42E050E064E372E0CE010996E8
:1017B000EEDA882321F088E0E4E3F2E0CECD88E0A1
:1017C000FE013996CACD42E050E064E472E089E758
:1017D00099E0DDDA882321F088E0E4E4F2E0D0CD7E
:1017E00088E0E9E7F9E0CCCD812C912C3FE7A32EEE
:1017F00033E4B32EF4CD42E050E064E572E089E7D3
:1018000099E0C5DA882321F088E0E4E5F2E0F9CD3B
:1018100088E0E9E7F9E0F5CD88E0FE013996A1E935
:10182000B9E001900D928A95E1F702CE812C912CBE
:101830002FE7A22E23E4B22E24CE42E050E064E64D
:1018400072E081E899E0A3DA882321F088E0E4E6F9
:10185000F2E029CE88E0E1E8F9E025CE812C912C58
:101860009FE7A92E93E4B92E4DCE42E050E064E705
:1018700072E081E899E08BDA882321F088E0E4E7E0
:10188000F2E052CE88E0E1E8F9E04ECE88E0FE01D9
:101890003996A1EAB9E001900D928A95E1F75BCE05
:1018A000812C912C8FE7A82E83E4B82E7DCE812C3D
:1018B000912C5401A8CE2FEFC21AD20AE20AF20AE2
:1018C000C0926C09D0926D09E0926E09F0926F0996
:1018D000BACE60E0222009F4BCCE01E020E030E086
:1018E000A901C501B4010E94C22F811101C000E00D
:1018F000602FAFCE8F929F92AF92BF92DF92EF9206
:10190000FF920F931F93CF93DF9384E090E084D2F4
:10191000EAE7F3E08BE2DF011D928A95E9F780E0C8
:1019200090E0A0E8BFEB86A397A3A0A7B1A780E0B3
:1019300090E0A0E0BFE382A393A3A4A3B5A38AE2AF
:1019400091EDAAE0B2E184839583A683B78383EE09
:101950009CE4A8E6B5E480879187A287B38785E3F6
:1019600092E2A0E1B0E284879587A687B78788E8EE
:101970009CE7A8EAB1E0808B918BA28BB38BAEE69B
:10198000B3E0B383A283EAE5F3E01196FC93EE9310
:1019900088EA92E091838083938382839583848312
:1019A00097838683918780879387828795878487AB
:1019B00097878687918B808B938B828B8EE893E0C1
:1019C00015969C938E9314978EE793E013969C93B1
:1019D0008E93129780E993E017969C938E931697B7
:1019E000E9E7F9E080E3DF011D928A95E9F7CCE1B0
:1019F000D9E08DE5FE0111928A95E9F7DD24D394B3
:101A0000D092710900E012E0F80180859185A285ED
:101A1000B3858C8B9D8BAE8BBF8B812C912C54010D
:101A200083948D869E86AF86B88A67E370E080E0F7
:101A300090E00E94A9039B8B8A8BD98A1882D0924E
:101A40007009F80184859585A685B785888799876B
:101A5000AA87BB8789829A82AB82BC8268E370E0E6
:101A600080E090E00E94A9039F838E83DD82109224
:101A70005C09D092740980925D0990925E09A092EF
:101A80005F09B0926009E12CF12C8701A801970150
:101A90006BE070E080E090E00E94B50190936309F4
:101AA00080936209D092610918AAD092720989AA1A
:101AB0009AAAABAABCAAA80197016AE070E080E0EC
:101AC00090E00E94B5019FAB8EABDDAA1092640935
:101AD000D09275098092650990926609A092670973
:101AE000B0926809A801970169E070E080E090E099
:101AF0000E94B50190936B0980936A09D09269099D
:101B000018AED092730989AE9AAEABAEBCAEA80146
:101B1000970168E070E080E090E00E94B5019FAF1F
:101B20008EAFDDAE18A6D092780989A69AA6ABA68C
:101B3000BCA661E081E30E942B01DDA610926C0936
:101B400010926D0910926E0910926F0918A2D0922E
:101B5000770989A29AA2ABA2BCA261E083E30E94AA
:101B60002B01DDA2188ED0927609898E9A8EAB8ECB
:101B7000BC8E61E085E30E942B01DD8EDF91CF9169
:101B80001F910F91FF90EF90DF90BF90AF909F90CB
:101B90008F9008958091280981111FC081E0809362
:101BA00028098091290990912A09A0912B09B091C7
:101BB0002C090197A105B10581F480912D09882395
:101BC00061F067E370E080E090E00E94650390932D
:101BD0002F0980932E090E94CC0380911C0981114A
:101BE0001FC081E080931C0980911D0990911E09FE
:101BF000A0911F09B09120090197A105B10581F4B9
:101C000080912109882361F068E370E080E090E032
:101C10000E94650390932309809322090E94CC03BC
:101C200080915C0981112EC081E080935C098091D4
:101C30005D0990915E09A0915F09B09160090197DB
:101C4000A105B105F9F4809161098823D9F06BE011
:101C500070E080E090E00E947101909363098093AE
:101C6000620940E050E0BA010E943A016BE070E086
:101C700080E090E00E947101909363098093620973
:101C80000E94060280914C0981112EC081E0809350
:101C90004C0980914D0990914E09A0914F09B09146
:101CA00050090197A105B105F9F4809151098823E4
:101CB000D9F06AE070E080E090E00E9471019093BA
:101CC00053098093520940E050E0BA010E943A0162
:101CD0006AE070E080E090E00E9471019093530907
:101CE000809352090E9406028091640981112EC0DE
:101CF00081E0809364098091650990916609A091C3
:101D00006709B09168090197A105B105F9F48091BF
:101D100069098823D9F069E070E080E090E00E94D2
:101D2000710190936B0980936A0940E050E0BA0119
:101D30000E943A0169E070E080E090E00E94710149
:101D400090936B0980936A090E940602809154095E
:101D500081112EC081E080935409809155099091A2
:101D60005609A0915709B09158090197A105B105ED
:101D7000F9F4809159098823D9F068E070E080E097
:101D800090E00E94710190935B0980935A0940E0B2
:101D900050E0BA010E943A0168E070E080E090E013
:101DA0000E94710190935B0980935A090E94060278
:101DB00080914409811103C081E08093440980919E
:101DC0003C09811103C081E080933C098091340972
:101DD000811103C081E080933409089560E070E0D0
:101DE00080E89FE7089560E070E080E89FE708954D
:101DF00060E070E080E89FEF089560E070E080E8C8
:101E00009FEF089560E070E080EC9FEF089560E040
:101E100070E080EC9FEF0895F5DF6093B509709353
:101E2000B6098093B7099093B809F1DF6093A909C7
:101E30007093AA098093AB099093AC09CFDF6093AC
:101E4000B1097093B2098093B3099093B409CBDFC1
:101E50006093AD097093AE098093AF099093B00978
:101E6000C7DF6093B9097093BA098093BB09909357
:101E7000BC09C3DF6093BD097093BE098093BF099D
:101E80009093C0090895CF92DF92EF92FF92CF9383
:101E90006B017C01AC019B016091B1097091B209A9
:101EA0008091B3099091B4090E94C22FC1E08823A8
:101EB00071F0A70196016091B9097091BA098091FA
:101EC000BB099091BC090E94C22F8111C0E08C2FE8
:101ED000CF91FF90EF90DF90CF9008950F931F93D5
:101EE0008B019C010027112720783F7701151105F0
:101EF00020483F4749F4AB01BC016F77772781E069
:101F0000452B462B472B09F480E01F910F91089534
:101F1000E5CF4F925F926F927F928F929F92AF9296
:101F2000BF92CF92DF92EF92FF920F931F93F8949C
:101F30004090B1035090B2036090B3037090B4032B
:101F4000C090A503D090A603E090A703F090A8034B
:101F5000452B09F0A6C09B01AC012419350946099F
:101F6000570929013A010091AD031091AE03209168
:101F7000AF033091B00348015901840C951CA61C95
:101F8000B71C80169106A206B306A0F40091A9031F
:101F90001091AA032091AB033091AC030F5F1F4F48
:101FA0002F4F3F4F0093A9031093AA032093AB0335
:101FB0003093AC038092AD039092AE03A092AF0336
:101FC000B092B0030091A9031091AA032091AB0332
:101FD0003091AC038092B5039092B603A092B70300
:101FE000B092B8030093B9031093BA032093BB03D4
:101FF0003093BC036093B1037093B2038093B30337
:102000009093B403A301920160E271EA87E090E04B
:102010000E9408386C0D7D1D8E1D9F1D6093A503C9
:102020007093A6038093A7039093A80300917E0268
:1020300010917F0220918002309181020F3F1F4F4B
:102040002F4F3F4FF1F000917E0210917F022091BF
:102050008002309181020E3F1F4F2F4F3F4F89F07A
:10206000C0907E02D0907F02E0908002F0908102CA
:1020700021E08C149D04AE04BF0408F420E02093FA
:10208000C10378941F910F91FF90EF90DF90CF9054
:10209000BF90AF909F908F907F906F905F904F9088
:1020A00008954B015C0184189508A608B708A301A0
:1020B0009201261B370B480B590B641575058605D5
:1020C0009705E0F082169306A406B50640F420E0DA
:1020D00030E0A90181149104A104B104A1F460E2EB
:1020E00071EA87E090E00E940838A7019601261B5C
:1020F000370B480B590BCA01B901C3CF821693069F
:10210000A406B50660F7A501940160E271EA87E0D4
:1021100090E00E9408386C0D7D1D8E1D9F1DB1CF73
:10212000F8CECF93DF9300D01F92CDB7DEB71C82DD
:102130001B821A8219821092BD031092BE03109264
:10214000BF031092C003BE016F5F7F4FCE010396A5
:102150000E948A2D69817A818B819C810E947A26D6
:10216000009761F4BE016F5F7F4FCE0103960E941E
:10217000962D69817A818B819C812ED50F900F904D
:102180000F900F90DF91CF910895FF920F931F93BF
:10219000CF93DF93082F60E070E0CB010E942232E2
:1021A000FF24F3940E946325EC01892B89F010E051
:1021B000CE3F8FEFD80769F0002361F160E070E057
:1021C000CB010E94223281E090E0892B59F322C09A
:1021D00011E025D5EC01892B21F0CE3F8FEFD807F8
:1021E00059F711111EC011E0229609F410E00E9467
:1021F0001325EC01892B21F0CE3F8FEFD807E1F6B4
:10220000111111C011E0CE3F8FEFD80709F410E093
:1022100001110BC0CE01DF91CF911F910F91FF9063
:10222000089511E0E4CF11E0F3CF60E070E0CB015E
:102230000E9422321F25812F90E0C7CFCF93DF93DA
:102240008091C103882321F060E070E0CB014CD67F
:1022500035D6D0E0C0E0892B71F06AE070E080E014
:1022600090E00E94223281E090DF28D62196C03D86
:1022700027E0D20781F727D60E94CE261092D903F5
:102280001092D8031092D2031092D3031092D40369
:102290001092D5031092CE031092CF031092D00368
:1022A0001092D1031092CA031092CB031092CC0368
:1022B0001092CD031092C6031092C7031092C80368
:1022C0001092C9031092C2031092C3031092C40368
:1022D0001092C5034EEF5FEF6FEF7FEF40937E02EA
:1022E00050937F0260938002709381021092C10329
:1022F000E5EBF3E028E0DF011D922A95E9F7109263
:10230000B1031092B2031092B3031092B40310926F
:10231000AD031092AE031092AF031092B00310926F
:10232000A9031092AA031092AB031092AC0310926F
:10233000A5031092A6031092A7031092A803DF91A1
:10234000CF9108951092E5031092E6031092E703EF
:102350001092E8031092E4038091ED039091EE0354
:102360009093E3038093E2031092E1031092E00361
:102370001092DC031092DD031092DE031092DF0353
:102380001092EA031092E90390E080E00895CF9262
:10239000DF92EF92FF920F931F93CF938C01892BC3
:1023A00009F055C02091ED033091EE038091E203D6
:1023B0009091E3034091ED035091EE035093E303BA
:1023C0004093E2032817390781F01092E10310923D
:1023D000E0031092DC031092DD031092DE031092F2
:1023E000DF031092EA031092E9038091ED039091CC
:1023F000EE03019761F58091E9039091EA03892B3F
:1024000021F480918202811112C08091E9039091A0
:10241000EA030197E1F48091DC039091DD03A09140
:10242000DE03B091DF030197A105B10581F410929D
:10243000DC031092DD031092DE031092DF03109292
:10244000820282E090E09093EA038093E903809116
:10245000ED039091EE03019709F01CC180910304F4
:10246000909104048017910709F014C18091FF0333
:1024700090910004A0910104B0910204009709F426
:1024800009C12091FE0321110DC04091FF0350911D
:1024900000046091010470910204452B462B472BE8
:1024A00009F4F8C02091E9033091EA0322303105A4
:1024B00009F0F0C02091E0032111ECC0FC01C080C4
:1024C000D180E280F3808091E403882309F4D3C0B3
:1024D0008091F0039091F103892B09F4FDC02091C4
:1024E000F0033091F10381E02230310509F080E002
:1024F0002091F0033091F103C1E02130310549F022
:102500002091F0033091F103C1E02230310509F050
:10251000C0E0882309F456C02091FA033091FB03F0
:102520004091FC035091FD03C701B6010E940F3199
:1025300087FD14C02091FA033091FB034091FC0306
:102540005091FD036091E5037091E6038091E703EC
:102550009091E8030E94C22F87FD22C02091FA03C8
:102560003091FB034091FC035091FD03C701B6017C
:102570000E940F31181634F52091FA033091FB03B5
:102580004091FC035091FD036091E5037091E603D7
:102590008091E7039091E8030E94C22F811112C03D
:1025A0008091F2039091F303A091F403B091F503AD
:1025B000892B8A2B8B2B19F481E08093E10381E036
:1025C0008093E003CC2309F456C02091FA033091A4
:1025D000FB034091FC035091FD03C701B6010E942B
:1025E000C22F87FF14C02091FA033091FB03409162
:1025F000FC035091FD036091E5037091E603809127
:10260000E7039091E8030E940F3187FF22C02091D9
:10261000FA033091FB034091FC035091FD03C70185
:10262000B6010E94C22F811126C02091FA03309179
:10263000FB034091FC035091FD036091E503709111
:10264000E6038091E7039091E8030E940F3118168A
:1026500094F48091F2039091F303A091F403B0916C
:10266000F503892B8A2B8B2B19F481E08093E103EE
:1026700081E08093E00381E09091E003911180E09C
:102680008093E403C092E503D092E603E092E7036F
:10269000F092E803012B09F067C18091E903909162
:1026A000EA03892BD9F41092EF031092E003809192
:1026B0008202882379F082E090E09093EA0380938D
:1026C000E903109282022091ED033091EE0381E044
:1026D000232BE9F080E01BC081E00ACF1092820238
:1026E0008091EF03882349F01092E1031092EA03EE
:1026F0001092E9031092EF03EDCF8091ED039091DA
:10270000EE03892BE1F08091E0031092E003209129
:10271000E9033091EA032230310509F45EC088F400
:102720002115310509F448C02130310509F4F3C001
:102730001092E1031092E0031092EF0338C081E0A1
:10274000E6CF2330310509F4B1C02430310581F7DB
:102750004091DC035091DD036091DE037091DF0353
:10276000411551056105710561F04150510961093B
:1027700071094093DC035093DD036093DE03709393
:10278000DF034091DC035091DD036091DE03709123
:10279000DF03452B462B472BD9F42091EB033091D7
:1027A000EC032130310509F046C01092E10310928C
:1027B000EA031092E9030CC080918202882341F061
:1027C00082E090E09093EA038093E9031092820202
:1027D0001092DA038091E103CEC08823C9F380917F
:1027E000F2039091F303A091F403B091F50318164E
:1027F00019061A061B060CF07DC08091ED0390911E
:10280000EE03019709F076C08091F2039091F303F3
:10281000A091F403B091F5038093DC039093DD0362
:10282000A093DE03B093DF0383E090E09093EA038C
:102830008093E903CDCF4091F6035091F703609167
:10284000F8037091F903452B462B472BA9F0109202
:10285000E1038091F6039091F703A091F803B09102
:10286000F9038093DC039093DD03A093DE03B09320
:10287000DF0381E090E0DACF882399F08091830232
:1028800090918402A0918502B09186028093DC032E
:102890009093DD03A093DE03B093DF0384E090E028
:1028A000C5CF1092E10382E090E0C0CF8091DC03BD
:1028B0009091DD03A091DE03B091DF030097A105A5
:1028C000B10559F00197A109B1098093DC039093F8
:1028D000DD03A093DE03B093DF038091DC039091CE
:1028E000DD03A091DE03B091DF03892B8A2B8B2BB4
:1028F00009F06ECF8091830290918402A0918502AD
:10290000B0918602892B8A2B8B2B09F44ECF81E064
:102910008093E103B3CF4091DC035091DD036091DC
:10292000DE037091DF03411551056105710561F00A
:1029300041505109610971094093DC035093DD0353
:102940006093DE037093DF034091DC035091DD035D
:102950006091DE037091DF03452B462B472B09F076
:1029600037CF8111C7CF9FCF8091DA03882309F435
:1029700031CF8091DB03CF911F910F91FF90EF90AA
:10298000DF90CF9008951092E5031092E603109225
:10299000E7031092E8031092E4031092EA03109206
:1029A000E9031092E3031092E203109204041092E0
:1029B00003041092E1031092E0031092DC031092E2
:1029C000DD031092DE031092DF031092DB031092FE
:1029D000DA031092FF031092000410920104109287
:1029E00002041092FE031092FA031092FB0310925D
:1029F000FC031092FD0388EE93E0A0E0B0E080932A
:102A0000830290938402A0938502B0938602109271
:102A1000F6031092F7031092F8031092F903109244
:102A2000F2031092F3031092F4031092F503109244
:102A3000F1031092F00381E0809382021092EF0381
:102A40001092EE031092ED031092EC031092EB0340
:102A500090E080E008958091ED039091EE03892B42
:102A600019F580918202882351F08091EF03811142
:102A700006C081E08093DB038093DA030895209100
:102A8000EF033091820281E090E0332311F090E077
:102A900080E030E082239323892B21F01092DB0326
:102AA00081E0EACF1092DA03089582E090E0FA0123
:102AB000918380838FEF9FEF0895CF93DF93EA0197
:102AC000009711F00E94EE271982188290E080E0B2
:102AD000DF91CF910895DB01009719F48FEF8C936C
:102AE00008952EEF2C93FC013F96EF30F10508F08E
:102AF00034C08827E158FA4E8F4F0C944D38AB15EF
:102B0000A915A715A515A3159F15A1159D159B150D
:102B10009915961592158E159415AD1580E311969D
:102B20008C93089589E2FBCF82E2F9CF11961C9233
:102B3000089583E2F4CF81E2F2CF81E1F0CF87E222
:102B4000EECF8AE2ECCF80E1EACF84E2E8CF88E200
:102B5000E6CF86E2E4CF81E3E2CF80E2E0CF80916E
:102B6000110490911204089590931204809311041B
:102B7000089580911004089590911004892B8093FA
:102B800010040895982F90958091100489238093C4
:102B90001004089580910F04089580910D04909180
:102BA0000E0408956115710559F0FB0130E020E035
:102BB00070E060E02417350719F06115710511F018
:102BC000CB010895A081B181A817B90709F4BF010D
:102BD0002F5F3F4F3696EECF8091130481111CC0BA
:102BE00060D266D290930604809305040E94EC1F85
:102BF0000E94FE1F90930A04809309040E947B2484
:102C00000E948224909308048093070481E08093BB
:102C1000130490E080E0089584EF9FEF08958F9271
:102C20009F92AF92BF92CF92DF92EF92FF920F935B
:102C30001F93CF93DF9300D000D000D01F92CDB769
:102C4000DEB71A86198618861F821E821D821C8294
:102C50001B821A8219828091130407EF1FEF8823C9
:102C600009F49CC08E010D5F1F4F9E012B5F3F4FEB
:102C7000AE01495F5F4FBE01675F7F4F90E080E02C
:102C80000E94FF258C01009721F00596029708F01D
:102C9000DBC029853A852115310509F402C1ED8093
:102CA000FE804B815C81B701640F751F8F81988511
:102CB0008617970708F4F5C0E20EF31ED7019C9122
:102CC000903C09F07FC04230510508F47BC011965A
:102CD0008C914091110450911204452B09F49CC031
:102CE000913F08F071C02CE1290F2D3008F48BC002
:102CF0002DE2290F203108F489C0903C21F4815045
:102D0000823008F483C088E3890F8B3008F481C0D7
:102D10009BE6C92E95E1D92EE5E5F5E16D817E8131
:102D2000AE014F5F5F4F89859A8519955C01C1148B
:102D3000D104A1F189809A808114910479F18B8169
:102D40009C818815990508F487C010E000E04B814C
:102D50005C8170E060E0C7010E94773801151105C1
:102D6000E9F449815A8169857A858D819E81680F50
:102D7000791FC501F6011995E980FA800D811E8140
:102D80002F81388549855A856FEF7FEF81E090E08C
:102D90000E949A258C01892B09F056C0C8012A96F9
:102DA0000FB6F894DEBF0FBECDBFDF91CF911F915C
:102DB0000F91FF90EF90DF90CF90BF90AF909F90DA
:102DC0008F90089580E085CF30E020E0220F331F00
:102DD000F901EB5FFB4F0190F081E02D309709F492
:102DE00097CF892F90E01995009709F491CFDC01D6
:102DF0001296ED91FC9113971496CD90DC9030973C
:102E000009F08CCF1FC021E030E0E0CF22E030E0BD
:102E1000DDCF23E030E0DACFD12CC12CEDE5F5E1B8
:102E20009F3F09F07BCFE0910504F09106043097B5
:102E300021F4C90104EF1FEF0CC08FEF90E019954A
:102E40000097A9F604EF1FEF89859A85009709F48A
:102E5000A5CF0E94EE27A2CF0E94C9268C018985AA
:102E60009A850E94EE2770E060E0C4010E9462260D
:102E700098878F830E9497259E838D836F817885A5
:102E80006115710559F0C8010E947A299A878987CE
:102E900006EF1FEF892B09F058CF59CF08EF1FEF2E
:102EA00056CF08EF1FEFD0CF20911304222319F043
:102EB00020E00C94032087EF9FEF08958091110488
:102EC0009091120408950E9487240E94E123F5D076
:102ED000E5E0F4E088E0DF011D928A95E9F71092C1
:102EE000130490E080E008950C943F2221E040E03C
:102EF00050E0BA010C94032086E090E0FA0191833F
:102F0000808390E080E0089547E050E063EB72E05A
:102F100049CEDF92EF92FF920F931F93CF93DF93EF
:102F20008A01EC01C60FD71FE0901704F090180437
:102F3000D9800E94B126D816190678F082E090E078
:102F4000F801918380838EEF9FEFDF91CF911F91E6
:102F50000F91FF90EF90DF900895EF2841F482E009
:102F600090E0F8019183808384EF9FEFEECF898119
:102F70008093160490E00196F8019183808390E09D
:102F800080E0E3CFCF93DF93EA010E94F022882311
:102F900021F00E94BE260E94F12282E090E09983F7
:102FA00088838BEF9FEFDF91CF910895CF93DF93CD
:102FB000EB0186E0FB0111928A95E9F78FEF888398
:102FC000D8DD8983E7DD8A83E8DD9D838C83DF910B
:102FD000CF910895CF93DF93EA010E94F3228111EC
:102FE00009C082E090E09983888385EF9FEFDF91AD
:102FF000CF91089590E080E0B7DD81E090E0998383
:10300000888390E080E0F3CF0F931F93CF93DF93FB
:10301000EA018C01060F171F0E94F32281110BC0D9
:1030200082E090E09983888385EF9FEFDF91CF91D5
:103030001F910F910895F8018181823038F082E06C
:1030400090E0998388838EEF9FEFF0CF81E090E04E
:103050008BDD88E090E09983888390E080E0E6CF84
:10306000CF93DF930097D1F4EB01FB01329686E01A
:10307000DF011D928A95E9F78FEF888385E08983C8
:103080001A820E94B1268B830E94B0269D838C8376
:1030900081E08E838F83DF91CF910895DF91CF916F
:1030A0001ACD84E897E19093150480931404089551
:1030B00080911404909115040895109215041092B3
:1030C00014040895809117049091180408954111F3
:1030D00005C0611571058105910561F060931704C4
:1030E000709318048093190490931A0440931B045E
:1030F00081E0089580E00895FF920F931F93CF938E
:10310000DF938A01EC01C60FD71FF9800E94B12618
:10311000F816190668F082E090E0F8019183808348
:103120008EEF9FEFDF91CF911F910F91FF90089548
:103130006C817D818E819F814B81C9DF811108C0A7
:1031400082E090E0F8019183808384EF9FEFEACFE3
:1031500089818093160490E00196F8019183808321
:1031600090E080E0DFCFCF93DF93EA01FC01E60F30
:10317000F71F64817581868197814381A8DF811162
:1031800009C082E090E09983888384EF9FEFDF910C
:10319000CF91089581E090E09983888390E080E06A
:1031A000F6CFE7E1F4E04081518162817381480FFD
:1031B000511D611D711D4083518362837383089586
:1031C000CF93C09116044C2F50E06091170470917A
:1031D000180401960E946E388C2FE3DF10921604BB
:1031E000CF910895009799F4809117049091180455
:1031F0002FEFFB012083892B59F02091160430E03A
:103200002F5F3F4F2417350719F4CB01D9CF63CC7B
:103210000895009799F480911704909118042FEF66
:10322000FB012083892B59F02091160430E02F5F99
:103230003F4F2417350719F4CB01C2CF4CCC08956A
:1032400023E1AC01249FC001259F900D1124E09142
:103250002004F0912104E80FF91F238134812250CA
:10326000310981E02230310508F080E008950F93A4
:103270001F93CF93DF930091220410912304D0E099
:10328000C0E080E00C171D0749F491E0811190E047
:10329000892FDF91CF911F910F9108958111F5CF63
:1032A000CE01CEDF2196EECFA0912004B091210473
:1032B000109729F12091220430912304821793075B
:1032C000F0F453E1589F9001599F300D1124A20F43
:1032D000B31FED91FC911197309789F012968C9164
:1032E000681768F48DE0689FE00DF11D112480815E
:1032F0009181892B21F081E09281491708F080E0CB
:1033000008959C0143E1429FC001439F900D112409
:10331000E0912004F0912104E80FF91F83858230A9
:1033200091F481E090E0658176814091870250912F
:1033300088026417750711F490E080E0892B19F07A
:1033400081E0232B09F080E00895FC01A081B18188
:103350008DE0689FA00DB11D112413964D915C91D5
:1033600085859685489F9001499F300D589F300D67
:103370001124C9010196611103C0478144FD0496DF
:103380000895EF92FF920F931F93CF93DF93EA017B
:10339000FC01E60FF71F02811381E480F5804F2DB9
:1033A0006E2DC80181DF81110DC082E090E099830C
:1033B00088838EEF9FEFDF91CF911F910F91FF9048
:1033C000EF900895C8013CDF882339F082E090E057
:1033D0009983888388EF9FEFEECF10938E0200933E
:1033E0008D02E0928F02F092900281E090E099834A
:1033F000888390E080E0DFCFCF92DF92EF92FF9260
:103400000F931F93CF93DF937A01EC01C60FD71F61
:10341000C0908D02D0908E0200918F021091900288
:10342000412F602FC60140DF811110C082E090E083
:10343000F701918380838AEF9FEFDF91CF911F91F6
:103440000F91FF90EF90DF90CF900895C601F8DEC6
:10345000882341F082E090E0F7019183808388EF38
:103460009FEFEBCF4C815D816E817F819A81898155
:103470008F3F41F082E090E0F701918380838EEFEF
:103480009FEFDBCFE3E1EC9D9001ED9D300D11242A
:10349000E0912004F0912104E20FF31F0190F081EC
:1034A000E02D2DE0029FE00DF11D11240190F0812F
:1034B000E02D27E0129FE00DF11D11248083918300
:1034C0008B81828343835483658376831F5F10934C
:1034D000900281E090E0F7019183808390E080E0AA
:1034E000ACCFEF92FF920F931F93CF93DF937A01AC
:1034F0008C01060F171FC0912004D0912104209742
:1035000081F021E030E0F801828193814091220432
:10351000509123048417950710F030E020E0232B0E
:1035200071F482E090E0F701918380838EEF9FEF4A
:10353000DF91CF911F910F91FF90EF90089543E19C
:10354000489F9001499F300D1124C20FD31F78DE90
:10355000882341F082E090E0F7019183808388EF37
:103560009FEFE6CFF8012481358120383105C8F678
:1035700087818111D6CF4181842F90E08F7E009783
:1035800041F082E090E0F7019183808386EF9FEF26
:10359000CFCF4F833E832D83268128871986223003
:1035A00010F421E0288721E030E0F7013183208307
:1035B000BFCF88E090E0FA019183808390E080E0C3
:1035C0000895FB018FEF808381E181838FEF9FEF6F
:1035D0009383828380E890E09583848316821782A8
:1035E0000895FB018FEF808391E091838283938321
:1035F000848384E3858381E090E0978386830895C4
:10360000DF92EF92FF920F931F93CF93DF93EA0124
:10361000FC01E60FF71F8181813071F082E090E0BC
:10362000998388838FEF9FEFDF91CF911F910F9147
:10363000FF90EF90DF90089582819381D48025815F
:10364000E680F780009120041091210401151105F6
:1036500039F482E090E0998388838CEF9FEFE4CF88
:1036600040912204509123048417950738F082E09A
:1036700090E0998388838EEF9FEFD6CF892B39F026
:1036800082E090E09983888386EF9FEFCDCF8D2DE8
:103690008D7FB1F72130A1F781E0D11006C091E014
:1036A000E916F10431F080E004C0E2E0EE16F10426
:1036B000D0F3882329F390E080E0C2DD882339F03D
:1036C00082E090E09983888388EF9FEFADCFF80187
:1036D000D38681E08487F686E586108A178681E0A6
:1036E00090E09983888390E080E09ECF4CE050E0AA
:1036F0006DED72E057CA8F929F92BF92CF92DF9288
:10370000EF92FF920F931F93CF93DF93EA01FC0197
:10371000E60FF71F828193810481B580E091200438
:10372000F0912104309791F482E090E099838883AE
:103730008CEF9FEFDF91CF911F910F91FF90EF9052
:10374000DF90CF90BF909F908F900895209122049A
:10375000309123048217930738F082E090E0998338
:1037600088838EEF9FEFE6CF23E1289F6001299F9A
:10377000D00C1124EC0DFD1DE080F180E114F1046A
:1037800099F28281081748F78DE0089F8001112483
:10379000E00EF11EF70180819181892B29F6BB2073
:1037A000E1F2F7E0BF9E40011124C4010E94B52759
:1037B000F70191838083E0912004F0912104EC0DC6
:1037C000FD1D0190F081E02DE00FF11F80819181BE
:1037D000009739F482E090E0998388838DEF9FEF22
:1037E000A9CFA40170E060E00E94773880912004A6
:1037F00090912104C80ED91EF60180819181080F95
:10380000191FF801B28281E090E09983888390E0EB
:1038100080E090CFAF92BF92CF92DF92FF920F9352
:103820001F93CF93DF93EA01FC01E60FF71F82811C
:103830009381F48000912004109121040115110559
:1038400081F482E090E0998388838CEF9FEFDF9191
:10385000CF911F910F91FF90DF90CF90BF90AF90CD
:10386000089520912204309123048217930738F0A1
:1038700082E090E0998388838EEF9FEFE8CF2FEF6F
:103880002F0D2C3FA8F723E1289F6001299FD00C22
:1038900011240C0D1D1DF80180819181892B89F661
:1038A000FDE0FF9E50011124C5010E94B527F801DB
:1038B00091838083E0912004F0912104EC0DFD1DA3
:1038C00080819181009739F482E090E09983888328
:1038D0008DEF9FEFBCCFA50170E060E00E947738CC
:1038E000E0912004F0912104EC0DFD1DF28281E0B5
:1038F00090E09983888390E080E0A9CFCF92DF9217
:10390000EF92FF920F931F93CF93DF93860F971F32
:10391000FC01028113818091200490912104892B64
:1039200081F082E090E0FA01918380838CEF9FEF39
:10393000DF91CF911F910F91FF90EF90DF90CF908B
:103940000895C801B0E0A0E00197A109B1098F3F37
:103950009F4FA105B10540F082E090E0FA0191830C
:1039600080838EEF9FEFE4CF7A0183E1809F600137
:10397000819FD00C1124C6010E94B527EC0100974D
:1039800041F482E090E0F701918380838DEF9FEF17
:10399000CFCFA60170E060E00E947738D093210479
:1039A000C0932004109323040093220490E080E04D
:1039B0002FEF3FEF41E061E070E08017910741F4A5
:1039C00081E090E0F7019183808390E080E0B0CFC8
:1039D0003A8B298B1B864C877E876D87188A1F86BA
:1039E00001966396EACFEF92FF921F93CF93DF93F6
:1039F000EC0110E0F12CE12C6A811617B0F083E0A5
:103A0000689FB0011124AE014F5E5F4FC7010E9455
:103A10001A28009721F02FEF3FEF3A8B298BDF9187
:103A2000CF911F91FF90EF900895612FCE018DDC13
:103A300061E070E00E946226E816F90608F47C0155
:103A40001F5FDACFF89420911E0430911F0481E0AB
:103A50002115310509F080E0232B09F078940895B1
:103A60002F923F924F925F926F927F928F929F928E
:103A7000AF92BF92CF92DF92EF92FF920F931F937C
:103A8000CF93DF933C01660E771EF3018281938111
:103A90004C01B12CA12CC0912004D091210420977D
:103AA00069F021E030E060912204709123048617D0
:103AB000970710F030E020E0232BD1F482E090E073
:103AC000FA01918380838EEF9FEFDF91CF911F9159
:103AD0000F91FF90EF90DF90CF90BF90AF909F90AD
:103AE0008F907F906F905F904F903F902F900895B0
:103AF0008092910290929202A0929302B0929402CC
:103B000063E1689F9001699F300D1124C20FD31F9C
:103B1000F3018181833040F082E090E0FA019183EB
:103B2000808386EF9FEFD1CF2A012B813C81232B0D
:103B3000F1F4288139819F8191FF2EC0232B09F454
:103B40006FC0209125049A81422F490F5527551F98
:103B5000BA0141E050E06138710514F050E040E0F6
:103B6000452B09F45DC02A87920F9093250481505C
:103B7000823008F481C066DF882309F4D8C0F301DD
:103B80008181813009F48DC008F47BC0823009F452
:103B9000C6C090E080E0ADC0232B09F441C0209165
:103BA00024049A81E22FE90FFF27FF1F41E050E034
:103BB000ED3FF10514F050E040E0452B89F12A87F4
:103BC000920F90932404D3CFA081B181A20FB31F91
:103BD00011966C91060F111D0196295F3F4F8417B6
:103BE000950794F38D859E85089F1001099F300CE1
:103BF000189F300C1124C114D104D1F48F8184FF9B
:103C000017C00E94B026F5E02F0E311C21E082156E
:103C1000930508F420E0A701435F5F4F21110EC018
:103C200082E090E0F2019183808387EF9FEF4DCF98
:103C30000E94B0262FEF221A320AE8CF888199819C
:103C4000E80EF91EF70114830383FFEFCF1ADF0A92
:103C50007A018A818C151D0409F00CF48CCFE8815F
:103C6000F981EE0DFF1D428150E030E020E010E0D0
:103C700000E090E080E0B3CFF12CE12CD12CC12CFE
:103C8000E8CF81E090E09C838B83F1DA882309F40C
:103C900080CF81E090E00E94B41580E40E94C215BC
:103CA00078CF89899A89019661F083E090E09C83BE
:103CB0008B8382E090E00E94B41580E40E94BC15E2
:103CC00068CF8D819E812091870230918802821772
:103CD0009307D1F460918B0270918C02AE014F5E1C
:103CE0005F4F8091890290918A020E943929009742
:103CF000E1F2789422E030E0F20131832083892BD5
:103D000099F08DEF9FEFE1CE89288A288B2869F6FC
:103D1000892B59F6CE0167DE188A1F86E8CF82E02C
:103D200090E09C838B8335CF90E080E0CECE82E024
:103D300090E0F2019183808385EF9FEFC6CE8F9252
:103D40009F92AF92BF92CF92DF92EF92FF920F932A
:103D50001F93CF93DF93EA018C01060F171FF80121
:103D60008181833098F082E090E09983888386EFA8
:103D70009FEFDF91CF911F910F91FF90EF90DF9018
:103D8000CF90BF90AF909F908F9008958091200426
:103D900090912104892B61F081E090E02091220430
:103DA00030912304232B11F490E080E0892B39F427
:103DB00082E090E0998388838EEF9FEFDACF42DE36
:103DC000882309F4DFC0F8018181813009F495C0AE
:103DD000E8F0823099F42091220430912304E0919C
:103DE0002004F091210490E080E041E050E02817A9
:103DF000390709F0BDC03BDA811117C0789481E022
:103E000090E09983888390E080E0B3CF20912204F2
:103E100030912304E0912004F091210490E080E0AF
:103E200041E050E02817390741F481E090E00E941A
:103E3000B41580E40E94C215E1CF63817481672BC1
:103E400011F05483438301967396ECCFE0912004E4
:103E5000F0912104E00FF11F2381348122303105DC
:103E6000D9F4218932892F3F3F4FB1F42581368122
:103E700040918702509188022417350761F5AF0100
:103E80004F5E5F4F60918B0270918C02809189022E
:103E900090918A020E943929EFEFCE1ADE0AEE0ACB
:103EA000FE0A0D5E1F4F409122045091230470E0E2
:103EB00060E0C416D506E606F7063CF5009731F239
:103EC0007894892B09F49BCF82E090E099838883D2
:103ED0008DEF9FEF4ECFC114D104E104F104E1F660
:103EE000232BD1F6CF017FDDE0912004F091210456
:103EF000E00FF11F108A1786CFCF10E000E090E0AE
:103F000080E0C12CD12C7601CECF0097C9F610E00D
:103F100000E0812C912C540183E0E82EF12C1AC092
:103F2000E0912004F0912104E00FF11F838194813E
:103F3000029749F4F482E38282E090E00E94B41593
:103F400080E40E94BC15FFEF8F1A9F0AAF0ABF0AD8
:103F50000D5E1F4F8091220490912304B0E0A0E0F9
:103F600088169906AA06BB06DCF290E080E0A8CF8E
:103F7000638174816230710511F454834383019627
:103F8000739635CF82E090E09983888385EF9FEF29
:103F9000F0CE0097B9F48FEFFB018083209191025E
:103FA0003091920243E1429FC001439F900D112442
:103FB000E0912004F0912104E80FF91F8285FB01B4
:103FC000818308950C946B1588E090E0FA01918349
:103FD000808390E080E0089510921F0410921E04E8
:103FE000E0E2F4E086E0DF011D928A95E9F786E7DA
:103FF0009BE190931D0480931C04089580911C0400
:1040000090911D0408952F923F924F925F926F926C
:104010007F928F929F92AF92BF92CF92DF92EF9258
:10402000FF920F931F93CF93DF93CDB7DEB72F97F8
:104030000FB6F894DEBF0FBECDBFF894E0911E041A
:10404000F0911F043196F0931F04E0931E047894BE
:1040500040902004509021044114510409F40CC2F2
:10406000E0912204F0912304EF2B09F405C22D877F
:1040700049875A876B877C8798878F831201B12C79
:10408000A12C10E000E08091220490912304A81656
:10409000B90618F40115110529F1F89480911E0450
:1040A00090911F04019790931F0480931E047894AD
:1040B000C8012F960FB6F894DEBF0FBECDBFDF91BB
:1040C000CF911F910F91FF90EF90DF90CF90BF9015
:1040D000AF909F908F907F906F905F904F903F90A8
:1040E0002F9008957101E418F508D10117968C916D
:1040F000179781FD54C013968D919C911497039747
:1041000009F04DC015968D919C91EF81F8858E1721
:104110009F0709F044C0B50190E080E07FD48A8316
:1041200020912004309121043D832C833D8533234D
:1041300009F44CC04C815D81452B09F49AC18091F2
:10414000220490912304A816B90608F092C1C50173
:10415000D8D88823E9F06C817D816E0D7F1D7D8329
:104160006C83DB011F968D919C91892B89F0D12C5A
:10417000C12CF12CE12CAC81BD8112968C9112974F
:104180008E151F0409F094F450961C921E921F97EE
:104190002A81222321F0B50190E080E041D43FEF55
:1041A000A31AB30A43E1240E311C6DCFAC81BD814B
:1041B000ED91FC91EC0DFD1D858196810FD7BFEF30
:1041C000EB1AFB0AEDE0CE0ED11CD5CFEC81FD81C0
:1041D000309709F44EC18091220490912304A816CF
:1041E000B90608F046C1EE0DFF1DFF87EE87C50139
:1041F00088D88B83882339F1AE85BF851F968D9132
:104200009C915097019621E01D964D915C918417E9
:10421000950709F020E02E831982712C10E000E050
:10422000AE85BF8512968C91781608F45DC0EE8538
:10423000FF85878590890196658576850E94173868
:10424000908B8787A5CFB1E0BE83E6CF9924939466
:104250006BC08BD6F6019683858382C0D601ED9024
:10426000FC90B7E06B9EE00CF11C1124F701638118
:10427000748180818F3F61F121E030E002C0220F24
:10428000331F8A95E2F7C901092E000CAA0BBB0B5C
:10429000FB01408151816281738184239523A62390
:1042A000B72321E0892B8A2B8B2B09F420E0D40142
:1042B0002C93D70111968C91F60123853485820FBA
:1042C000932F911D880E991E1486138663949BC0AC
:1042D000418150E0C4010E946E38EBCF998206EF15
:1042E0001FEFC5C01982C3C0F981F111A0CFEDE065
:1042F0007E9E70011124AE85BF85CD90DC90CE0CE2
:10430000DF1C15D49D838C83BB81BB2309F49ECF16
:1043100081E0EE85FF8527853089232B09F080E039
:10432000982E882309F458C0672D8E859F850DD857
:10433000D60118969C938E93179761E070E0C2D4D3
:10434000EE85FF85218932892F3F320709F481CF1D
:10435000BC01C901CFD7D60116969C938E931597B1
:10436000D60115968D919C911697009709F4B6CFBA
:10437000EC81FD818E0F9F1F1A969C938E93199747
:10438000AE85BF85ED91FC911197EE0EFF1EF701F2
:1043900021853285148613861A968C91870DD90152
:1043A0008D93711016C0EE85FF85878184FF11C043
:1043B00049855A856B857C85F901418352836383E6
:1043C0007483F701838594850496A80FB91F14861A
:1043D0001386F701B287A187D60115968D919C911E
:1043E0001697892B09F443C0EE85FF852581368118
:1043F00080918702909188022817390779F01996E1
:104400008D909C90612CD60112968C911297681613
:1044100008F424CF1A969C928E921997BE81BB23E2
:1044200009F460CF61E070E0F601878190854AD49D
:10443000D6011796ED90FC90189715964D915C91CA
:10444000E1E0F0E0BA81BB2311F0F0E0E0E00C81A4
:104450001D819C01B501882799278E1B9F0B6AD36C
:104460008C01892B21F0F60185819681B7D5739453
:10447000D7CE0FEF1FEF8CCE10E000E00ECE2F92C4
:104480003F924F925F926F927F928F929F92AF92E4
:10449000BF92CF92DF92EF92FF920F931F93CF9331
:1044A000DF93809120049091210410E000E0892B9B
:1044B000A9F0C8DA0AEF1FEF882381F020902204C8
:1044C00030902304C0912004D0912104D12CC12C20
:1044D00010E000E02C143D04A9F47894C801DF91A9
:1044E000CF911F910F91FF90EF90DF90CF90BF90F1
:1044F000AF909F908F907F906F905F904F903F9084
:104500002F900895C6010E948119882309F18B819B
:104510009C810397E9F48F859889892BC9F0B601AE
:1045200090E080E07BD221E030E0882311F030E0A1
:1045300020E044245524421A530AB12CA12C912C7A
:10454000812C8A818815190409F038F4188A1F868D
:104550004FEFC41AD40A6396BDCFE881F981EA0D02
:10456000FB1D85819681892BA1F161E070E0878137
:104570009085A8D33C01DBD28C01E881F981EA0D5A
:10458000FB1D8185928525813681200F311FAC016D
:10459000421B530B9A0147815085421B530B70E01D
:1045A00060E00E947738E881F981EA0DFB1DE78021
:1045B000F084458156819301B601C201BBD28C01C2
:1045C000892B39F0E881F981EA0DFB1D85819681FF
:1045D00005D55FEF851A950A8DE0A80EB11CB1CF05
:1045E00031CA789408952F923F924F925F926F92C2
:1045F0007F929F92AF92BF92CF92DF92EF92FF9203
:104600000F931F93CF93DF9300D000D0CDB7DEB7C9
:10461000009120041091210499249394011511050F
:1046200009F43EC0A0902204B09023040BDA982E27
:104630008823B1F1109221041092200410922304D7
:104640001092220410922404109225048FEF9FEF01
:10465000DC018093910290939202A0939302B09315
:10466000940278947FD31E830D83C12CD12C7601C4
:10467000C501B0E0A0E089839A83AB83BC83222488
:104680002A94322C89819A81AB81BC81C816D906C3
:10469000EA06FB06F4F0C801A1D480E40E94C2152A
:1046A000892D26960FB6F894DEBF0FBECDBFDF91E1
:1046B000CF911F910F91FF90EF90DF90CF90BF901F
:1046C000AF909F907F906F905F904F903F902F9012
:1046D0000895AD81BE8115968D919C91169720917C
:1046E00087023091880282179307D1F451968D91F9
:1046F0009C91EED5ED81FE8180819181B12CA12C20
:10470000412C512C3201892B89F5BFEFCB1ADB0AE2
:10471000EB0AFB0AED81FE817396FE83ED83B2CF37
:10472000C114D104E104F10429F7892B19F7ED81B3
:10473000FE81818992898F3F980709F029D5AD8143
:10474000BE8152963C922E925197D4CF8A0D9B1DDA
:10475000DC018D919C91009709F040D4BFEF4B1A7A
:104760005B0A6B0A7B0AEDE0AE0EB11CAD81BE8127
:104770008D919C91119712964C9150E070E060E001
:1047800044165506660677060CF328D4BECFCF93A1
:10479000DF93EA0128DF811109C082E090E099836C
:1047A000888385EF9FEFDF91CF91089581E090E0BE
:1047B0000E94B41581E090E09983888390E080E0C6
:1047C000F2CF11DF10921D0410921C04089542E0F4
:1047D00050E065E273E00C94D215FF920F931F93A3
:1047E000CF93DF938A01EC01C60FD71FF980B9D2AE
:1047F0000897F816190671F068F082E090E0F80169
:10480000918380838EEF9FEFDF91CF911F910F9166
:10481000FF9008956C817D818E819F814B810E94E4
:104820006718811108C082E090E0F80191838083CD
:1048300084EF9FEFE9CFF9800E9462184F2D50E07E
:10484000BE01685F7F4F0E946E3889810E94D11837
:1048500081E090E0F8019183808390E080E0D4CF04
:10486000DF92EF92FF920F931F93CF93DF938A0112
:10487000EC01C60FD71F0E9462187C01D98071D24B
:10488000DD2059F0029721E030E0D816190619F022
:1048900010F030E020E0232B79F482E090E0F80182
:1048A000918380838EEF9FEFDF91CF911F910F91C6
:1048B000FF90EF90DF900895EF2841F482E090E0C0
:1048C000F8019183808384EF9FEFEECFF9800E94FF
:1048D00062184F2D50E0BE016E5F7F4F0E946E3810
:1048E00089810E94D11881E090E0F8019183808352
:1048F00090E080E0D9CF87EE93E2909327048093F5
:10490000260408958091260490912704089508951F
:10491000FC0111821082938382830895DB011D9232
:104920001C92DC011296ED91FC91139771836083C8
:1049300013967C936E9312970895FC018081918168
:10494000DB018D939C93A081B181109741F08D91F3
:104950009C9191838083892B11F4F383E2830895E2
:10496000FC0180819181DB018D939C93892B11F453
:1049700073836283718360830895FC0111821082C6
:10498000938382830895CF93DF931F921F92CDB7B5
:10499000DEB71A821982F894BE016F5F7F4F8DE2F5
:1049A00094E0CBDF89819A81009709F017D3898140
:1049B0009A81892B89F7BE016F5F7F4F81E394E075
:1049C000BCDF89819A81009709F008D389819A8197
:1049D000892B89F778940F900F90DF91CF910895EC
:1049E000CF93DF931F921F92CDB7DEB71A82198241
:1049F000F894BE016F5F7F4F89E294E09EDF89816A
:104A00009A81009709F0EAD289819A81892B89F7E6
:104A100078940F900F90DF91CF91089581E00895E1
:104A200090E080E00895EF92FF920F931F93CF9351
:104A3000DF931F921F92CDB7DEB71A821982809141
:104A4000280407EF1FEF8823A1F1F894BE016F5FE0
:104A50007F4F81E394E071DF789489819A81EE241D
:104A6000E394F12C892B51F4F894BE016F5F7F4FD2
:104A70008DE294E062DF7894F12CE12C89819A81B7
:104A80000EEF1FEF0097A9F0FC014281538164E013
:104A900070E074D68C01892B61F0F89469817A8179
:104AA000C701880F991F880F991F835D9B4F58DF9F
:104AB0007894C8010F900F90DF91CF911F910F91C3
:104AC000FF90EF9008950F931F93CF93DF9300D043
:104AD0001F92CDB7DEB71C821B821A821982809189
:104AE000280407EF1FEF8823C1F0AE014D5F5F4F31
:104AF00064E070E0CE010196B4D68C01892B69F494
:104B0000E981FA818B819C8193838283F894698106
:104B10007A8189E294E002DF7894C8010F900F90C7
:104B20000F900F90DF91CF911F910F910895B9D7FA
:104B3000049608958F929F92AF92BF92CF92DF9288
:104B4000EF92FF920F931F93CF93DF931F921F92C9
:104B5000CDB7DEB71A821982BC016F5F7F4F633019
:104B6000710598F0AA24AA94BA2CC5010F900F9051
:104B7000DF91CF911F910F91FF90EF90DF90CF9039
:104B8000BF90AF909F908F9008954115510551F3BC
:104B9000480159018A016C01CADF8815990511F78E
:104BA000E114F104F9F28E0D9F1DA816B906D0F29A
:104BB000809128048823F1F0F894B50164507109BC
:104BC0009701AE014F5F5F4FC8010496DFD65C01CD
:104BD000892B71F489819A81F80193838283C601BC
:104BE000880F991F880F991FB801835D9B4F96DE30
:104BF0007894BBCF87EFA82EBB24BA94B6CFAF92E0
:104C0000BF92CF92DF92EF92FF920F931F93CF93B9
:104C1000DF931F921F92CDB7DEB71A821982892BBC
:104C200009F047C06115710509F443C041155105EC
:104C300009F43FC02115310509F43BC001151105E8
:104C4000C1F1809128048823B9F179016A015B01DF
:104C5000F894BE016F5F7F4F89E294E06EDE789436
:104C600089819A81009759F1DC0112966D917C91AE
:104C7000A8010496A4D68C01E981FA81D501ED93AF
:104C8000FC93828193810496F601918380834FDFA8
:104C9000D7018D939C93C8010F900F90DF91CF9116
:104CA0001F910F91FF90EF90DF90CF90BF90AF904A
:104CB00008950FEF1FEFEFCF07EF1FEFECCF0EEFD1
:104CC0001FEFE9CFCF93DF93EC01672B71F4F2D69E
:104CD0008C179D0760F0E5D62496C80FD91FE4D63F
:104CE0008C0F9D1FDF91CF910895E1D6F1CF90E019
:104CF00080E0F8CF0F931F93CF93DF932091280488
:104D000021112BC08B01EC018DE294E001DE81E3E7
:104D100094E0FEDD89E294E0FBDD97D00097C1F4DA
:104D2000C9D670E060E0CEDF45E952E062E070E0B5
:104D300081D1009769F48091950290919602CCD62A
:104D4000B801CE0101D5009719F421E02093280481
:104D5000DF91CF911F910F91089584EF9FEFF8CFCE
:104D6000A6C6A8C6CF93DF93A8D6EC01892B11F471
:104D70000ADE36DECE01DF91CF910895CF93DF9327
:104D80009CD6EC01892B09F4FEDDCE01DF91CF9199
:104D9000089580919502909196020895CF93DF93A4
:104DA00080912804D0E0C0E08823D1F09AD6EC01AD
:104DB000892BB1F4E8DD14DE809195029091960282
:104DC000E7D1E8D2EC01892B59F48DE294E0D5DDEE
:104DD00081E394E0D2DD89E294E0CFDD10922804F3
:104DE000CE01DF91CF910895EF92FF920F931F9321
:104DF000CF93DF93EC017A018B010F5F1F4F0E9D64
:104E0000A0010F9D500D1E9D500D112470E060E01B
:104E10000E94773890E080E0F0E0E0E02FEFE816C5
:104E2000F90639F4DF91CF911F910F91FF90EF9028
:104E300008951A8219822883309711F0D283C18392
:104E40000196FE01C00FD11FEACFCF92DF92EF9201
:104E5000FF920F931F93CF93DF9302EE15E00C7F29
:104E600043E050E067E972E08DE992E01AD487E907
:104E7000E82E82E0F82E9DE9C92E92E0D92EC1E6F7
:104E8000D6E0D7014D915D917D01F601619171915F
:104E90006F01198308835D834C835B834A837F831F
:104EA0006E839B012F5F3F4F249FC001259F900D74
:104EB000349F900D1124998788870115110511F0F1
:104EC000C80192DF88859985080F191F2A96FDE988
:104ED000EF16F2E0FF06A9F6E7E3F4E088EA91E0D6
:104EE000DF019C011D9221503040E1F71092360401
:104EF000109235041092800610927F06109284065C
:104F000010928306109282061092810610928606F5
:104F100010928506109288061092870610928A06D3
:104F20001092890610928E0610928D0610928C06B1
:104F300010928B061092900610928F061092920695
:104F40001092910610925E0610925D061092600615
:104F500010925F0690E080E0DF91CF911F910F915A
:104F6000FF90EF90DF90CF9008950097F1F0F894C4
:104F7000ADE9B2E0E1E6F6E030E020E04D915D9190
:104F800048175907A8F0428153814115510581F016
:104F90008AE0829FF001839FF00D1124EF59F94FB1
:104FA00080819181009759F4789490E080E0089591
:104FB0002F5F3F4F3A962330310501F7F5CFDC01E3
:104FC00011966D917C917183608341505109538397
:104FD0004283FC012193CF0178940895009749F111
:104FE000DC018E91853041F4E0915F06F09160061E
:104FF0003097F9F0CD0119948530D8F4282F30E09E
:10500000F8948FEF8C938AE0829FF001839FF00DDC
:105010001124EF59F94F8081918112969C938E93C0
:105020001197B183A08382819381019693838283B8
:1050300078940895CF92DF92EF92FF920F931F938F
:10504000CF93DF939C018AE394E08C7F4115510557
:1050500009F49BC02115310509F497C0611571054C
:1050600009F493C07A01AB01B9016D5F7F4F6C7F8A
:105070009B012F5F3F4F249F8001259F100D349F80
:10508000100D1124F89420917F0630918006232B77
:1050900059F420918706309188062115310569F170
:1050A0002017310708F058C02091890630918A06F0
:1050B000232B91F42091870630918806820F931F4D
:1050C00020919106309192062115310509F441C0D5
:1050D0002017310708F056C07894CFEFDFEF86EF46
:1050E0009FEFF701D183C083DF91CF911F910F9183
:1050F000FF90EF90DF90CF900895C3E0D0E0C09094
:105100003504D090360425EA31E02C193D092017EA
:10511000310710F32AE02C9FF0012D9FF00D112490
:10512000EF59F94F9183808355834483538342839E
:105130007783668311870087009709F055DE0C0D91
:105140001D1D1093360400933504789490E080E0A0
:10515000C8CFC4E0D0E0D3CFC3E0D0E02AE02C9F9A
:10516000F0012D9FF00D1124EF59F94F91838083A9
:10517000558344835383428377836683009729F35F
:1051800033DEE3CFC4E0D0E0E9CF8FEF9FEFACCFC9
:105190009C010397029708F069C0F89484E09AE0B4
:1051A000482F50E0241735070CF44DC091E08AE0F9
:1051B000829FF001839FF00D1124EF59F94F118266
:1051C000108215821482138212821782168299230A
:1051D000B1F180917F0690918006892BA9F42091EE
:1051E0008706309188062115310571F080913504CC
:1051F00090913604821B930B909336048093350470
:1052000010928806109287068091890690918A06EE
:10521000892BA9F420919106309192062115310530
:1052200071F08091350490913604821B930B90931A
:105230003604809335041092920610929106789469
:1052400090E080E00895949FF001959FF00D112467
:10525000EF59F94F40815181452B31F440855185FB
:10526000452B11F481509CCF90E0A1CF8FEF9FEFA1
:1052700008954115510549F1009739F161157105FE
:1052800021F1F89420915D0630915E06232BB9F44C
:1052900020915F0630916006232B89F490935E067F
:1052A00080935D067093600660935F06789425E0B6
:1052B00030E090E080E0FA01318320830895789413
:1052C0002FEF3FEF86EF9FEFF6CF8FEF9FEF089521
:1052D000059769F4F89410925E0610925D0610929C
:1052E000600610925F06789490E080E008958FEF5A
:1052F0009FEF08956115710519F4F0E0E0E011C029
:105300008530910581F4E0915D06F0915E0630975D
:10531000A1F3CB0101961995009779F3FC0185E083
:105320008193CF0108959C0123503109223031052A
:1053300020F72AE0289FD001299FB00D1124AF59F2
:10534000B94F2D913C911197232BB9F216962D91BF
:105350003C9117972617370780F2F89412962D91F3
:105360003C9113972115310529F0ED91FC9111978E
:10537000309711F47894C1CF4181528111965C939A
:105380004E932150310913963C932E93129781939B
:105390007894C7CFEFEDF5E08EE7DF011D928A9597
:1053A000E9F7E7E3F4E088EA91E0DF019C011D9270
:1053B00021503040E1F71092360410923504E1E6B6
:1053C000F6E082E3DF011D928A95E9F7EDE5F6E06C
:1053D00084E0DF011D928A95E9F790E080E008956E
:1053E000CF93DF93C091A302D091A402CF3FDC07FB
:1053F00059F420D49093A4028093A30297FF09C08C
:10540000D093A402C093A30284EF9FEFDF91CF91CA
:10541000089590E080E0FACF8230910528F48093DF
:10542000930690E080E008958FEF9FEF08954F92EC
:105430005F926F927F92AF92BF92CF92DF92EF9284
:10544000FF920F931F93CF93DF931F921F92CDB7BD
:10545000DEB71A821982009709F478C061157105C8
:1054600009F474C02091A3023091A40207EF1FEF4A
:105470002F3F3F4F09F444C06B015C01412C512C7C
:105480003201F12CE12C10E000E09E012F5F3F4F34
:10549000A6014E195F09B5016E0D7F1D8091A30213
:1054A0009091A40226D4892B09F04AC089819A815F
:1054B000009741F4E114F10429F42091930622238A
:1054C00009F441C0E80EF91EEC14FD04C8F480E8AC
:1054D000481684E858068EE16806710418F560E005
:1054E00070E0CB01AFD72AE0420E511C611C711C49
:1054F0000A3F4FEF140721F0043F8FEF1807A1F484
:10550000C8010F900F90DF91CF911F910F91FF90E5
:10551000EF90DF90CF90BF90AF907F906F905F90B3
:105520004F90089501EF1FEF81E090E0013F2FEFD2
:10553000120711F090E080E0892B09F4A6CFE0CFAC
:1055400004EF1FEFDDCF0AEF1FEFDACF0FEF1FEFF2
:10555000D7CF4F925F926F927F92AF92BF92CF92CE
:10556000DF92EF92FF920F931F93CF93DF931F92DF
:105570001F92CDB7DEB71A821982009709F478C05E
:105580006115710509F474C02091A3023091A40241
:1055900007EF1FEF2F3F3F4F09F444C06B015C0141
:1055A000412C512C3201F12CE12C10E000E09E0145
:1055B0002F5F3F4FA6014E195F09B5016E0D7F1D8C
:1055C0008091A3029091A4024AD3892B09F04AC08A
:1055D00089819A81009741F4E114F10429F4209122
:1055E0009306222309F441C0E80EF91EEC14FD04D1
:1055F000C8F480E4481682E458068FE06806710417
:1056000018F560E070E0CB011DD72AE0420E511C76
:10561000611C711C0E3F4FEF140721F0043F8FEF08
:105620001807A1F4C8010F900F90DF91CF911F913F
:105630000F91FF90EF90DF90CF90BF90AF907F9051
:105640006F905F904F90089502EF1FEF81E090E020
:10565000023F2FEF120711F090E080E0892B09F450
:10566000A6CFE0CF04EF1FEFDDCF0EEF1FEFDACFB5
:105670000FEF1FEFD7CF8091A3029091A4028F3F2D
:10568000980749F0CFD2892B49F48FEF9FEF909381
:10569000A4028093A30290E080E0089584EF9FEF3E
:1056A0000895CF92DF92EF92FF920F931F93CF93C3
:1056B000DF9321E04115510509F020E041505109E7
:1056C00021112CC0DC01FB01D12CC12C21E022C016
:1056D0003FEFC31AD30A7D010D911D91E701EA80C6
:1056E000FB80E016F106A8F420813181E280F3808E
:1056F000F182E08233832283ED90FC9011979D012B
:1057000022503109E901F982E88211961C930E9327
:1057100020E03296C416D506D8F2D2CFDF91CF91D1
:105720001F910F91FF90EF90DF90CF900895FC01B3
:10573000680F791F90E080E0E617F70709F40895F5
:105740002191820F911DF8CF20919406211113C051
:1057500047DE009791F410929A06109299061092E3
:10576000980610929706109296061092950621E0E0
:1057700020939406089584EF9FEF0895AF92BF920F
:10578000CF92DF92EF92FF920F931F93CF93DF930D
:10579000009709F460C04630510508F45CC02091C0
:1057A0009406C7EFDFEF222309F449C08C01060FEE
:1057B000171FF801C080D180C114D10409F44EC074
:1057C00096012A5F3F4F4217530708F447C07C01F8
:1057D0008091990690919A0693838283B6016C5FBB
:1057E0007F4F5801A60EB71EC801A1DFF5019183B6
:1057F000808364E070E0C8011ADEEC01892BF9F4C3
:1058000081E090E009DEB601C801049610DEEC01EB
:10581000892B91F462E070E0C50109DEEC01892B6F
:1058200059F4C701DBDB8091990690919A060196A5
:1058300090939A068093990690E080E0EDDDCE018A
:10584000DF91CF911F910F91FF90EF90DF90CF905C
:10585000BF90AF900895CFEFDFEFF1CFC9EFDFEF4B
:10586000EECF6F927F928F929F92AF92BF92CF9224
:10587000DF92EF92FF920F931F93CF93DF9300D0AD
:105880001F92CDB7DEB7009709F47AC041155105D4
:1058900009F476C02091940607EF1FEF222309F444
:1058A0004DC03A017B015C0164E070E0CE010196DD
:1058B00050DE8C01892B09F041C009811A81011544
:1058C000110509F45AC0480186E0880E911CB70101
:1058D000680D791D8091A5029091A6020BDD6C01E7
:1058E000009709F450C0A70170E060E00E9477388B
:1058F00089819A81AB81BC81EC0CFD1CF7018193FD
:105900009193A193B1937F0181E090E085DDB8018F
:10591000C7011FDE892B31F562E070E0C701800FFF
:10592000911F17DE8C01892BE9F490E080E074DD93
:10593000F501D182C082F30191828082C8010F906B
:105940000F900F900F90DF91CF911F910F91FF90CB
:10595000EF90DF90CF90BF90AF909F908F907F900F
:105960006F90089590E080E057DDF501118210827C
:10597000F30111821082C60131DB09EF1FEFDECF88
:105980000FEF1FEFDBCF06EF1FEFD8CF0097A1F08F
:105990004115510589F02115310571F0F90136964F
:1059A0006E177F0748F0DC012D933C93DA01ED93ED
:1059B000FC9390E080E008958FEF9FEF0895AF9201
:1059C000BF92CF92DF92EF92FF920F931F93CF93EC
:1059D000DF93009709F45FC04115510509F45BC0DE
:1059E0006530710508F457C020919406C7EFDFEFCA
:1059F000222391F1DC01CD90DC9011971296ED916C
:105A0000FC9196012A5F3F4FC9EFDFEF261737075A
:105A100019F5C0919506D0919606209749F521E099
:105A200030E030939606209395067A018C01F0932E
:105A30009806E09397065601B4E0AB0EB11CB50191
:105A400076DE0A0D1B1DF801208131818217930734
:105A500029F5D701CD92DC92CE01DF91CF911F9134
:105A60000F91FF90EF90DF90CF90BF90AF9008958F
:105A700020919706309198062F5F3F4FCCEFDFEFD4
:105A8000E217F30790F2CBEFDFEF2E173F0768F234
:105A9000D0E0C0E0CACFCFEFDFEFDECFC3EFDFEF64
:105AA000DBCF84E090E0089582E090E008958CEFF1
:105AB0009FEF089580E290E0089510929A06109268
:105AC00099061092980610929706109296061092D8
:105AD000950690E080E008959093A6028093A50239
