:1000000005C100000C940C380C9437380C946238FD
:100010000C948D380C94B8380C94E3380C940E3949
:100020000C94393924C1000022C1000020C1000015
:100030001EC100001CC100001AC1000018C1000050
:1000400016C1000014C1000012C1000010C1000060
:100050000EC100000CC100000AC100000C946439FC
:1000600006C100000C945B3D0C94913D00C1000062
:10007000FEC00000FCC00000FAC00000F8C0000094
:10008000F6C00000F4C00000F2C00000F0C00000A4
:100090000C94E73D0C941D3EEAC00000E8C000004F
:1000A000E6C00000E4C00000E2C00000E0C00000C4
:1000B000DEC00000DCC00000DAC00000D8C00000D4
:1000C000D6C00000D4C000000C9492330C94733E50
:1000D0000C94A93ECCC000000C94FF3E0C94353F1C
:1000E000C6C0000000000A0B02090C0D0E08070331
:1000F00004010000000000000000000000000000FB
:1001000000000000000000000000000000000000EF
:1001100012111000000000000000000000000000AC
:100120000000000000000000000001021020200874
:100130000810204010204080020102010804020142
:1001400001020408102040808040201008040201B1
:10015000800402018040201008040201080402010A
:100160000102040810204080010204081020408091
:1001700005050505070508080808020202020A0A23
:100180000808040404040101010101010101030341
:10019000030303030303040707070C0C0C0C0C0CEC
:1001A0000C0C0202020206060606060606060B0BE9
:1001B0000B0B0B0B0B0B000020002300260029006B
:1001C0002C002F003200000100000301060109018C
:1001D00000002200250028002B002E0031003400F2
:1001E00002010000050108010B01000021002400AC
:1001F00027002A002D003000330001010000040117
:1002000007010A01BA3D463ED23E5E3F11241FBEA1
:10021000CFEFD1E2DEBFCDBF00E00CBF13E0A0E026
:10022000B2E0E2E6F0E800E00BBF02C007900D92FA
:10023000A439B107D9F72CE0A4E9B3E001C01D92BD
:10024000A333B207E1F711E0C6E0D1E000E006C059
:1002500021970109802FFE010E94FE3FC230D10785
:1002600080E00807A9F70E94B3340C942F40C8CE51
:10027000FC01A781B0858C9191858923A481B581EA
:100280009C9140815181628173812681922359F032
:1002900081110BC04F5F5F4F6F4F7F4F4083518382
:1002A0006283738308958111F5CF4150510961092B
:1002B0007109F4CF85E993E0DBCF80EA93E0D8CFF2
:1002C0008BEA93E0D5CF86EB93E0D2CFFC01A481FB
:1002D000B5818C9196818923A781B0859C914081BD
:1002E0005181628173812185922359F0882359F0CD
:1002F0004F5F5F4F6F4F7F4F4083518362837383A4
:1003000008958823A9F34150510961097109F4CF77
:1003100085E993E0DBCF80EA93E0D8CF8BEA93E0E6
:10032000D5CF86EB93E0D2CF0F931F93CF93DF937C
:10033000D82FC62F8A01A09194038BE0A89FD001EB
:100340001124AB56BC4F1D921D921D921C92139707
:1003500081E01A968C931A978D2F90E0FC01E65D50
:10036000FE4FE4911696EC931697FC01E059FE4F70
:10037000E491F0E0EE0FFF1FEA54FE4F8591949157
:1003800015969C938E931497862F90E0FC01E65D62
:10039000FE4FE4911996EC931997FC01E059FE4F3A
:1003A000E491F0E0EE0FFF1FEA54FE4F8591949127
:1003B00018969C938E93179760E08D2F0E94C83BF0
:1003C00060E08C2F0E94C83B80919403813009F437
:1003D0003FC0A8F0823009F462C0833009F486C0BF
:1003E0008091940391E0980F90939403F801808397
:1003F00090E080E0DF91CF911F910F91089580E010
:10040000D23049F081E0D33031F08EEE8D0F843060
:10041000D8F487E18D1B41E050E06AE571E00E946D
:10042000923780E0C23049F081E0C33031F08EEE87
:100430008C0F843058F487E18C1B41E050E068E871
:1004400071E00E949237CCCF8FEFE5CF8FEFF5CFE1
:1004500080E0D23049F081E0D33031F08EEE8D0F64
:100460008430C8F487E18D1B41E050E06DE571E018
:100470000E94923780E0C23049F081E0C33031F011
:100480008EEE8C0F843048F487E18C1B41E050E005
:100490006BE871E0D6CF8FEFE7CF8FEFF7CF80E03B
:1004A000D23049F081E0D33031F08EEE8D0F8430C0
:1004B000C8F487E18D1B41E050E060E671E00E94E6
:1004C000923780E0C23049F081E0C33031F08EEEE7
:1004D0008C0F843048F487E18C1B41E050E06EE8DB
:1004E00071E0AFCF8FEFE7CF8FEFF7CF80E0D23063
:1004F00049F081E0D33031F08EEE8D0F8430C8F4B6
:1005000087E18D1B41E050E063E671E00E94923785
:1005100080E0C23049F081E0C33031F08EEE8C0FC4
:10052000843048F487E18C1B41E050E061E971E0E0
:1005300088CF8FEFE7CF8FEFF7CF9BE0899FF00158
:100540001124EB56FC4F80819181A281B381FB0184
:1005500080839183A283B38390E080E008959BE041
:10056000899FF0011124EB56FC4F108211821282F8
:10057000138290E080E0089590E080E00895CF92AB
:10058000DF92EF92FF92CF93882351F16A017B01B2
:10059000CFEFC80F20E030E0A901CB01B6010E94E7
:1005A000A03518168CF0C701B60190580E94A935E5
:1005B0009B01AC016C2F70E090E080E0CF91FF9048
:1005C000EF90DF90CF90B2C0C701B6010E94A43572
:1005D0008C2FCF91FF90EF90DF90CF900C948E3ABC
:1005E000CF91FF90EF90DF90CF9008950F931F93DE
:1005F0008B019C0183E036952795179507958A9581
:10060000D1F70F531C4F462F477021E030E0F9011E
:1006100002C0EE0FFF1F4A95E2F7AF01F8012081FB
:100620002423CB010196211102C090E080E01F91AC
:100630000F9108950F931F938B019C0183E03695D2
:100640002795179507958A95D1F7677081E090E017
:1006500001C0880F6A95EAF7F801EF53FC4F20813B
:10066000452B31F48095822380831F910F9108954B
:10067000822BFACF2F923F924F925F926F927F928E
:100680008F929F92AF92BF92CF92DF92EF92FF92A2
:100690000F931F93CF93DF93D62EC72E782E692EFC
:1006A00049015A01280161E08D2D0E94C83BCD2DE2
:1006B000DC2D8E010F5F1F4FA8016D2D7C2D872D26
:1006C000962DB8DF20E030E0A901C201B7010E94F9
:1006D000ED36181664F4C201B7010E94A9352B014A
:1006E000C501B4010E94A935A201CE0123D0C801E1
:1006F000DF91CF911F910F91FF90EF90DF90CF90FE
:10070000BF90AF909F908F907F906F905F904F9031
:100710003F902F900895882341F08150682F70E01A
:1007200090E080E050E040E085CF0895862FB90149
:100730000C948E3A9C01FC01EC51FF4FE491E15086
:10074000E231E0F4F0E08827E755FC4F8F4F0C943E
:10075000FE3FBB03C203C503DC03F103BE03060473
:10076000120416042D04420457046E048304BE03CD
:100770009804AF04C40484B5806884BD60E0822F0F
:100780000C94043C84B58062F8CF809180008C7F0B
:1007900082608093800080918100807E8061682BE0
:1007A0006093810050938700409386008091800081
:1007B000806880938000E2CF809180008C7F82608F
:1007C0008093800080918100807E8061682B60939F
:1007D0008100509387004093860080918000806262
:1007E000E8CF809180008C7F826080938000809130
:1007F0008100807E8061682B609381005093870028
:1008000040938600809180008860D3CF8091B000B3
:1008100080688093B0008091B100887F682B6093DE
:10082000B100ACCF8091B0008062F3CF8091900096
:100830008C7F82608093900080919100807E8061A7
:10084000682B60939100509397004093960080919D
:10085000900080688093900091CF809190008C7F71
:1008600082608093900080919100807E8061682BEF
:100870006093910050939700409396008091900070
:100880008062E8CF809190008C7F8260809390009E
:1008900080919100807E8061682B609391005093DD
:1008A000970040939600809190008860D3CF80910C
:1008B000A0008C7F82608093A0008091A100807E48
:1008C0008061682B6093A1005093A7004093A6001D
:1008D0008091A00080688093A00050CF8091A000FC
:1008E0008C7F82608093A0008091A100807E8061D7
:1008F000682B6093A1005093A7004093A6008091BD
:10090000A0008062E8CF8091A0008C7F82608093FD
:10091000A0008091A100807E8061682B6093A1007F
:100920005093A7004093A6008091A0008860D3CF89
:10093000809120018C7F8260809320018091210131
:10094000807E8061682B6093210150932701409342
:100950002601809120018068809320010FCF809133
:1009600020018C7F82608093200180912101807E14
:100970008061682B609321015093270140932601E9
:10098000809120018062E8CF809120018C7F82607D
:100990008093200180912101807E8061682B60938B
:1009A0002101509327014093260180912001886006
:1009B000D3CF611102C00C94C83B6130E1F362E017
:1009C000FACF662319F061E00C94043C60E0FCCFA0
:1009D000CF93DF93882349F0EB0181500E946B3A5B
:1009E00099838883DF91CF910895FB011182108252
:1009F000F9CF0F931F938B019C0183E036952795C8
:100A0000179507958A95D1F706531C4F462F4770C7
:100A100021E030E0F90102C0EE0FFF1F4A95E2F736
:100A2000AF01F80120812423CB010196211102C0DE
:100A300090E080E01F910F9108950F931F938B0119
:100A40009C0183E036952795179507958A95D1F7F0
:100A5000677081E090E001C0880F6A95EAF7F801BD
:100A6000E653FC4F2081452B31F48095822380830F
:100A70001F910F910895822BFACFCF92DF92EF92C0
:100A8000FF92CF93DF936B017C0160E086E3C81691
:100A9000D104E104F10490F486E38C0D0E94C83B7C
:100AA000E6012196AE01C701B601C7DFCE01DF9195
:100AB000CF91FF90EF90DF90CF9008958C2DEECFE7
:100AC000882341F08150682F70E090E080E050E092
:100AD00040E0B3CF089590E080E008950F931F9316
:100AE000009709F489C06115710509F485C000916A
:100AF000AE021091AF022091B0023091B1020E3FD0
:100B00001F4F2F4F3F4F09F068C04FEF5FEFBA0103
:100B10004093AE025093AF026093B0027093B10263
:100B20004091AE025091AF026091B0027091B1025B
:100B3000DC011296ED91FC9180819181A281B381BB
:100B40008093530490935404A0935504B093560497
:100B500084819581A681B78180934F04909350043E
:100B6000A0935104B093520480859185A285B385EA
:100B700080934B0490934C04A0934D04B0934E0487
:100B800084859585A685B78580934704909348040E
:100B9000A0934904B0934A04109243041092440471
:100BA00010924504109246040E9478178DE997E14F
:100BB0009093D4038093D3039093D6038093D5036B
:100BC0000E946716009731F421E030E0309358041A
:100BD000209357041F910F9108950091AE02109138
:100BE000AF022091B0023091B102DB010D931D9351
:100BF0002D933C93139794CF8FEF9FEFEBCF8F9272
:100C00009F92AF92BF92CF92DF92EF92FF921F938B
:100C1000CF93DF934B015C0110915A0482E090E086
:100C2000909358048093570481149104A104B10453
:100C300041F480915A04811104C080915904C1E0AB
:100C40008111C0E0C12CD12C760180915A04811110
:100C500006C080915904811102C0CC23D9F083E0F1
:100C600090E09093580480935704CC2381F1CCE911
:100C7000DFEF111102C00E94011BCE01DF91CF9165
:100C80001F91FF90EF90DF90CF90BF90AF909F901B
:100C90008F9008956AE070E080E090E00E94D33980
:100CA00080E1C80E87E2D81EE11CF11C8FEF881688
:100CB0009806A806B80631F0C1E08C149D04AE0475
:100CC000BF0408F0C0E080E00E949B16BECFD0E0D9
:100CD000C0E0CFCFCF92DF92EF92FF920F931F939E
:100CE000CF93DF938F3F910511F008F051C0209111
:100CF0005704309158042330310539F020915704BE
:100D0000309158042130310531F424E030E0309343
:100D10005804209357046A017B01EC01823091054D
:100D2000A8F011E0AE01C701B6010E946616AB0142
:100D3000BC01CE011123F9F0DF91CF911F910F91EA
:100D4000FF90EF90DF90CF900C942A1D8C01000F44
:100D5000111F0D521C4FD8018D919C91892B09F3C5
:100D60000E94341D0297E9F6D801ED91FC91CE0165
:100D70001995182FD7CF0E944C1D90E080E0DF918D
:100D8000CF911F910F91FF90EF90DF90CF9008953A
:100D90008FEF9FEFF4CF80E00C949B16CF93DF93FF
:100DA00086E090E090935804809357040E94F416D4
:100DB000EC01E3EDF3E084E0DF011D928A95E9F7B1
:100DC0000E94991A1092580410925704CE01DF9194
:100DD000CF91089580915904089580914204089517
:100DE0006093AE027093AF028093B0029093B10211
:100DF00090E080E008952F923F924F925F926F9221
:100E00007F928F929F92AF92BF92CF92DF92EF929A
:100E1000FF920F931F93CF93DF9300D000D01F92C8
:100E20001F92CDB7DEB74B015C015C834B833E83E1
:100E30002D83AE014F5F5F4F0E94DA366B017C015C
:100E400069807A800FEF1FEF1614170444F48301B2
:100E50000150110955E0159507955A95E1F7C8011C
:100E6000F801EE0FFF1FEE0FFF1F2B813C81E20FF9
:100E7000F31F019634964D815E81841795070CF41B
:100E800046C020E030E0A901C501B4010E94A035B0
:100E900087FF04C0F7FAF094F7F8F094180135E0F2
:100EA000220C331C3A95E1F70F3F1007A9F520E01B
:100EB00030E0A901C501B4010E94A03587FF0EC032
:100EC000EB80FC8030E020E081E090E0A0E0B0E04A
:100ED0004D815E81241735070CF455C028960FB656
:100EE000F894DEBF0FBECDBFDF91CF911F910F9160
:100EF000FF90EF90DF90CF90BF90AF909F908F903A
:100F00007F906F905F904F903F902F900895108248
:100F1000118212821382ADCFA30142195309C70176
:100F2000B6010E94F3366B017C010E9412362B0140
:100F30003C01AC019B01C701B6010E943B356B012E
:100F40007C018D819E8108171907ACF4C801880FB8
:100F5000991F880F991FEB81FC81E80FF91FF88713
:100F6000EF83C301B2010E94A935EF81F885608348
:100F700071838283938301501109310191012052C1
:100F80003109190191CFF70141915191619171910D
:100F90007F014095509560957095840F951FA61F11
:100FA000B71F8F0104501109F80180839183A28338
:100FB000B38311E084179507A607B70708F010E080
:100FC000812F90E0B0E0A0E02F5F3F4F81CF4F92A4
:100FD0005F926F927F928F929F92AF92BF92CF92C9
:100FE000DF92EF92FF92CF93DF939A012150304C22
:100FF000220F331F220F331FFC01E20FF31F8080EB
:101000009180A280B380FB01E20FF31FC080D180EA
:10101000E280F380CC24DD24EE24E0E8FE222401EB
:101020003501442455246624E0E87E22C414D50406
:10103000E604F70499F52C5F3F4FFC01E20FF31F24
:10104000EB01C20FD31F141615068CF090E080E060
:10105000DF91CF91FF90EF90DF90CF90BF90AF9056
:101060009F908F907F906F905F904F900895415028
:101070005109F290E290D290C290BA91AA919A91BD
:101080008A91C816D906EA06FB06E9F28C159D0579
:10109000AE05BF0528F481E090E0DACFB7FEFBCFC4
:1010A0008FEF9FEFD5CF93DF21E0181619060CF0D4
:1010B00020E0822F08958BDF892F881F8827881FC3
:1010C00008952F923F924F925F926F927F928F92EC
:1010D0009F92AF92BF92CF92DF92EF92FF920F93C7
:1010E0001F93CF93DF9300D01F92CDB7DEB78B0154
:1010F0005C834B83FB01E150F04CEE0FFF1FEE0FC2
:10110000FF1FE80FF91F408151816281738177FDD4
:1011100027C04C01B12CA12CC12CD12C7601A016DA
:10112000B10664F5F40161917191819191914F0142
:101130000E94D5354B815C810E94F3369B01AC0146
:10114000C701B6010E943C356B017C012B813C81BB
:10115000205E3F4F3C832B833FEFA31AB30ADFCFC0
:101160009A838983312C212C81E090E0A0E0B0E0CB
:10117000C12CD12C760120163106CCF0C701B60166
:101180000F900F900F900F90DF91CF911F910F91C3
:10119000FF90EF90DF90CF90BF90AF909F908F9097
:1011A0007F906F905F904F903F902F900895E981CE
:1011B000FA814190519061907190FA83E983409453
:1011C00050946094709453014201880E991EAA1E97
:1011D000BB1EC501B4010E94D5354B815C810E94C4
:1011E000F3369B01AC01C701B6010E943B356B0190
:1011F0007C0181E084149504A604B70408F080E023
:1012000090E0B0E0A0E02B813C81205E3F4F3C832A
:101210002B833FEF231A330AAECF8F929F92AF9268
:10122000BF92CF92DF92EF92FF920F931F93FB0139
:1012300070E060E0C12CD12C7601C394641775076F
:101240005CF01F910F91FF90EF90DF90CF90BF90D7
:10125000AF909F908F900895DC018D909D90AD9000
:10126000BD90CD0197018601015011092109310975
:10127000081919092A093B09019311932193319304
:10128000A1E00C151D052E053F0508F0A0E0CA2EB3
:10129000D12CF12CE12C6F5F7F4FD0CF2F923F925A
:1012A0004F925F926F927F928F929F92AF92BF9276
:1012B000CF92DF92EF92FF920F931F93CF93DF9322
:1012C000CDB7DEB7CB54D1090FB6F894DEBF0FBE51
:1012D000CDBF26967FAF6EAF269728965FAF4EAFF5
:1012E00028973E8B2D8B2C96FFAEEEAE2C97FB01F4
:1012F000E150F04CEE0FFF1FEE0FFF1FE80FF91F3C
:1013000080809180A280B3808F8A988EA98EBA8EB9
:10131000B501A401442777FD439555276627772714
:1013200029964FAF2997F901E150F04CEE0FFF1FBE
:10133000EE0FFF1F2896AEACBFAC2897EA0DFB1D41
:10134000C080D180E280F380CB8EDC8EED8EFE8E6D
:10135000B701A601442777FD4395552766277727D0
:101360002A964FAF2A97188B0F87F80130E020E0BC
:101370002C96EEACFFAC2C972E153F050CF43FC01D
:1013800022969FAF8EAF22971A8B098B312C212C7E
:10139000812C912C540183948D829E82AF82B886D9
:1013A00026968EAC9FAC2697281439047CF129969A
:1013B0009FAC29972A96AFAC2A9730E020E041E015
:1013C00050E060E070E09A10F5C1C55BDF4F0FB6EA
:1013D000F894DEBF0FBECDBFDF91CF911F910F916B
:1013E000FF90EF90DF90CF90BF90AF909F908F9045
:1013F0007F906F905F904F903F902F900895119243
:101400001192119211922F5F3F4FB2CF2296EEAD03
:10141000FFAD229781919191A191B1912296FFAF59
:10142000EEAF22978F88988CA98CBA8CB7FE23C018
:101430004D815E816F817885415051096109710943
:101440005A016B01A81AB90ACA0ADB0AD601C501FA
:1014500021E0CD80DE80EF80F8848C159D05AE05FF
:10146000BF0508F020E0822E912CB12CA12C8D829A
:101470009E82AF82B8865D01CC24DD24A8A2B9A2E9
:10148000CAA2DBA29C01AD01442755272CA33DA392
:101490004EA35FA32C96EEADFFAD2C97E219F30996
:1014A0008D889E888E169F060CF4F4012896AEACAB
:1014B000BFAC28972496BFAEAEAE2497C988DA8811
:1014C000DC8ACB8A1E861D86812C912C5401839444
:1014D00089869A86AB86BC86812C912C5401CD845A
:1014E000DE84CE16DF0604F1F7FF02C0F0E0E0E094
:1014F000E20DF31D2C96EEACFFAC2C97EE15FF051C
:1015000054F4EE0FFF1FEE0FFF1FE00FF11F80825C
:101510009182A282B3822FEF221A320AE989FA89D4
:101520003496FA8BE98B3CCF2496AEADBFAD2497B1
:10153000CD90DD90ED90FD902496BFAFAEAF249797
:101540002B8D3C8D4D8D5E8D57FF22C089859A85F0
:10155000AB85BC850197A109B109AC01BD014C194E
:101560005D096E097F096A017B0181E029853A8561
:101570004B855C85C216D306E406F50608F080E0CC
:10158000482F50E070E060E049875A876B877C877E
:10159000B7018827992768A779A78AA79BA7EE2470
:1015A000FF2428A139A14AA15BA1C701B6010E946D
:1015B000B93F2B013C012CA13DA14EA15FA168A523
:1015C00079A58AA59BA50E94B93F6CA77DA78EA788
:1015D0009FA7AB89BC894D915D916D917D91BC8B2D
:1015E000AB8BDB01CA01880D991DAA1DBB1D898328
:1015F0009A83AB83BC8391E09F8F29813A814B8191
:101600005C81281539054A055B0508F01F8E2CA161
:101610003DA14EA15FA1C701B6010E94B93F6B0178
:101620007C0189809A80AB80BC808C0C9D1CAE1C98
:10163000BF1C89829A82AB82BC8252019924882481
:1016400088AA99AAAAAABBAA29813A814B815C815E
:10165000280D391D4A1D5B1D2CAB3DAB4EAB5FAB5E
:101660008CA49DA4AEA4BFA454019924882488AE60
:1016700099AEAAAEBBAE280D391D4A1D5B1D2CAF1D
:101680003DAF4EAF5FAFAB89BC8914972D933D93AF
:101690004D935C93139728A139A14AA15BA168A53A
:1016A00079A58AA59BA50E94B93F9F8C690D711DE4
:1016B000811D911D230166247724460E571E681E46
:1016C000791E2CA53DA54EA55FA54A01AA24BB24E1
:1016D000840C951CA61CB71C81E090E0A0E0B0E053
:1016E00049815A816B817C814C155D056E057F05B2
:1016F00018F080E090E0DC01880D991DAA1DBB1D4B
:1017000041E050E060E070E088A899A8AAA8BBA8D2
:10171000CCA8DDA8EEA8FFA8C814D904EA04FB04ED
:1017200018F040E050E0BA01840F951FA61FB71FC4
:10173000812C912C54018394C8ACD9ACEAACFBAC9D
:101740002CAD3DAD4EAD5FAD2C153D054E055F0595
:1017500018F0812C912C5401880E991EAA1EBB1ED4
:101760004D855E854F5F5F4F5E874D87B8CEEF85B5
:10177000F889C190D190E190F190F88BEF87DB016F
:10178000CA010197A109B1098C199D09AE09BF09C8
:10179000349780839183A283B383E1E08417950714
:1017A000A607B70708F0E0E04E2F50E070E060E0D9
:1017B0002F5F3F4F2C968EAC9FAC2C972815390588
:1017C000B4F203CE2F923F924F925F926F927F922C
:1017D0008F929F92AF92BF92CF92DF92EF92FF9241
:1017E0000F931F93CF93DF9379011B01DA01D0E0B0
:1017F000C0E040E050E0BA01CE15DF059CF0DF917B
:10180000CF911F910F91FF90EF90DF90CF90BF90FD
:10181000AF909F908F907F906F905F904F903F9090
:101820002F900895FC0181909190A190B190CF01EB
:10183000F10101911191219131911F012401350193
:10184000401A510A620A730A93018201041B150BA4
:10185000260B370B0D931D932D933D9366246394B4
:10186000712CC12CD12C452B462B472B39F0081558
:1018700019052A053B0538F4612C05C08016910630
:10188000A206B306C8F7A301B6012196B5CF2F92E1
:101890003F924F925F926F927F928F929F92AF9200
:1018A000BF92CF92DF92EF92FF920F931F93CF934D
:1018B000DF93CDB7DEB7E1970FB6F894DEBF0FBE6A
:1018C000CDBFC0905802D0905902E0905A02F090DB
:1018D0005B02A701960160913F0B7091400B8091D4
:1018E000410B9091420B0E94A035882341F0C09299
:1018F0003F0BD092400BE092410BF092420B67E31A
:1019000070E080E090E075D890933E0B80933D0BA3
:1019100023E030E03093F70B2093F60B43E050E0E8
:10192000BE016D5D7F4F54D8C0905C02D0905D02C7
:10193000E0905E02F0905F02A70196016091330B88
:101940007091340B8091350B9091360B0E94A0352D
:10195000882341F0C092330BD092340BE092350BC8
:10196000F092360B68E370E080E090E042D890930C
:10197000320B8093310B23E030E03093F70B209350
:10198000F60B43E050E0BE016F5D7F4F21D84091E0
:10199000AC025091AD02ABA1BCA19A010E940640DD
:1019A0004B015C018D8E9E8EAF8EB8A2A9A1BAA10B
:1019B0000E9406406DA37EA38FA398A7698F7A8F9C
:1019C0008B8F9C8F009108021091090220910A02CE
:1019D00030910B0209A71AA72BA73CA720910C0254
:1019E00030910D0240910E0250910F022DA73EA79B
:1019F0004FA758AB89A59AA5ABA5BCA58816990693
:101A0000AA06BB0650F461E08DA19EA1AFA1B8A5C6
:101A100082179307A407B50708F060E070E090E034
:101A200080E00E94D5356B017C01209160023091ED
:101A3000610240916202509163020E9427372B019C
:101A40003C01209164023091650240916602509100
:101A50006702C701B6010E9427376B017C0109A507
:101A60001AA52BA53CA580169106A206B30608F47C
:101A7000E5C361E02DA13EA14FA158A58DA59EA56E
:101A8000AFA5B8A9281739074A075B0708F460E033
:101A900069AB09A51AA52BA53CA5212C801691069A
:101AA000A206B30680F461E02DA13EA14FA158A586
:101AB0008DA59EA5AFA5B8A9281739074A075B07CA
:101AC00008F460E0262E09A51AA52BA53CA5312C0B
:101AD00080169106A206B30680F061E02DA13EA11A
:101AE0004FA158A58DA59EA5AFA5B8A92817390760
:101AF0004A075B0708F060E0362E99A9992309F49C
:101B00009FC3D501C401B501A401211003C040E069
:101B100050E0BA01840F951FA61FB71FB501A4019D
:101B2000311003C040E050E0BA018C019D01040F68
:101B3000151F261F371FC901B8010E94D53520E0A7
:101B400030E040E056E30E942737A30192010E9453
:101B50003C352B013C0119A980E090E0DC01112308
:101B600021F08DA19EA1AFA1B8A540E050E0BA013F
:101B7000222021F04DA15EA16FA178A5840F951FB1
:101B8000A61FB71F40E050E0BA01332021F04DA15D
:101B90005EA16FA178A58C019D01040F151F261F62
:101BA000371FC901B8010E94D53520E030E040E080
:101BB00056E30E942737A70196010E943C352091E9
:101BC00068023091690240916A0250916B020E9452
:101BD00027370E9412366B017C0170D7811105C036
:101BE000C701B60126D7882319F0C12CD12C760164
:101BF00022E030E0AE014F5F5F4FC701B601FBD876
:101C000042E050E060E772E0CE0101964CDA8823B2
:101C100009F41AC388E0E0E7F2E0A6EEBBE0019029
:101C20000D928A95E1F72091680230916902409106
:101C30006A0250916B02C301B2010E9427370E94D1
:101C400012366B017C013AD7811105C0C701B6017C
:101C5000F0D6882319F0C12CD12C760122E030E097
:101C6000AE014F5E5F4FC701B601C5D842E050E0FC
:101C700060E772E0CE01419616DA882309F4F6C2D5
:101C800088E0E0E7F2E0AEEEBBE001900D928A95CD
:101C9000E1F742E050E060E872E086EE9BE003DAB4
:101CA000882309F4F5C288E0E0E8F2E0A8EFBBE0A1
:101CB00001900D928A95E1F76BE070E080E090E092
:101CC0000E94F6027C0190935A0B8093590B50E0CE
:101CD00040E062E070E088EF9BE0F3D92B013C012B
:101CE00020E030E04FE753E40E94A03518160CF4D2
:101CF000E1C220E030E0A901C301B2010E94ED364B
:101D000087FF03C0412C512C3201B301A201C7014E
:101D10000E94BF0242E050E060E972E086EE9BE084
:101D2000C2D9882309F4CDC288E0E0E9F2E0DE01FF
:101D3000519601900D928A95E1F742E050E069EFEB
:101D400072E0CE014196B7D9882309F4CCC242E0B3
:101D500050E060E07CE0CE0141965FDA6AE070E03E
:101D600080E090E00E94F6027C0190934A0B809301
:101D7000490B50E040E062E070E080E09CE0A1D9D7
:101D80002B013C0120E030E04FE753E40E94A035F6
:101D900018160CF4B2C220E030E0A901C301B20170
:101DA0000E94ED3687FF03C0412C512C3201B30154
:101DB000A201C7010E94BF0234E0E32EF12C06EB22
:101DC0001BE022E030E04EEE5BE062E070E080EA93
:101DD00092E064DA44E050E060E172E0C80163D967
:101DE000882309F491C280E1E0E1F2E0A6E9BBE0DA
:101DF00001900D928A95E1F769E070E080E090E053
:101E00000E94F6027C019093620B8093610B50E07C
:101E100040E064E070E086E99BE053D920E030E0E8
:101E200040E850E20E9427372B013C0120E030E0DF
:101E30004FE753E40E94A03518160CF477C220E057
:101E400030E0A901C301B2010E94ED3687FF03C053
:101E5000412C512C3201B301A201C7010E94BF02E3
:101E600044E050E060E372E086EB9BE01CD98823FD
:101E700009F463C280E1E0E3F2E0A6EBBBE001908D
:101E80000D928A95E1F744E050E069EE72E086EB4E
:101E90009BE011D9882309F45FC244E050E066EA70
:101EA0007BE086EB9BE0B9D968E070E080E090E0F1
:101EB0000E94F6027C019093520B8093510B50E0EC
:101EC00040E064E070E086EA9BE0FBD820E030E090
:101ED00040E850E20E9427372B013C0120E030E02F
:101EE0004FE753E40E94A03518160CF43FC220E0DF
:101EF00030E0A901C301B2010E94ED3687FF03C0A3
:101F0000412C512C3201B301A201C7010E94BF0232
:101F100029A53AA54BA55CA582169306A406B5068D
:101F200008F02BC28DA19EA1AFA1B8A50DA51EA53D
:101F30002FA538A980179107A207B30708F01DC283
:101F400011E020E030E0A90160916C0270916D0217
:101F500080916E0290916F020E94A035811110E075
:101F6000F12E60E03110612F6093180C85E30E9420
:101F7000E104211001C010E0612F81E30E94E1041F
:101F800019A9112319F061E0F11001C060E083E3A9
:101F90000E94E104C0905402D0905502E090560295
:101FA000F0905702A701960160911A0B70911B0BDC
:101FB00080911C0B90911D0B0E94A035882341F04D
:101FC000C0921A0BD0921B0BE0921C0BF0921D0BCF
:101FD0008091190B81111092190B60E17CE08091C6
:101FE0001E0B0E949D02C0905002D0905102E090C2
:101FF0005202F0905302A70196016091260B709156
:10200000270B8091280B9091290B0E94A0358823E3
:1020100041F0C092260BD092270BE092280BF09251
:10202000290B8091250B81111092250B64E17CE036
:1020300080912A0B0E949D028091100C9091110CAE
:10204000A091120CB091130C8093080C9093090C82
:10205000A0930A0CB0930B0C4091140C5091150CEA
:102060006091160C7091170C40930C0C50930D0C52
:1020700060930E0C70930F0C4091A8025091A9022E
:102080006091AA027091AB024D8F5E8F6F8F78A323
:10209000898F9A8FAB8FBC8F82E0E82EF12C8E0156
:1020A000075F1F4F21E030E0AE01475E5F4F61E008
:1020B00070E0CE014D96F2D888E0F801A6EDBBE0C5
:1020C00001900D928A95E1F722E030E046EC5BE06A
:1020D0006BE77BE0C80176DB80910C0C90910D0CD6
:1020E000A0910E0CB0910F0C898F9A8FAB8FBC8F83
:1020F00021E030E0AE01475E5F4F61E070E0CE016D
:102100004D96CCD888E0F801AEEDBBE001900D9281
:102110008A95E1F722E030E04EEC5BE063E87BE09B
:10212000C80150DB88E0E6EDFBE0ABE7BBE00190E7
:102130000D928A95E1F788E0EEEDFBE0A3E8BBE0C5
:1021400001900D928A95E1F7C0901504D090160485
:10215000E0901704F09018042FEFC21AD20AE20A96
:10216000F20AC0921504D0921604E0921704F0927D
:102170001804C114D104E104F10499F48091190404
:1021800090911A04A0911B04B0911C040196A11D0A
:10219000B11D8093190490931A04A0931B04B0936B
:1021A0001C0480901D0490901E04A0901F04B09009
:1021B00020046091190470911A0480911B0490917D
:1021C0001C040E94D535A50194010E94273720E008
:1021D00030E040E85FE40E9427372B013C01C70153
:1021E000B6010E94D535A50194010E9427379B01B5
:1021F000AC01C301B2010E943C356093110470939D
:1022000012048093130490931404E1960FB6F8948B
:10221000DEBF0FBECDBFDF91CF911F910F91FF9019
:10222000EF90DF90CF90BF90AF909F908F907F9076
:102230006F905F904F903F902F90089519AA29CCEE
:1022400080E090E0DC015FCC42E050E068E772E0C3
:10225000CE0101960E945B08882321F088E0E8E720
:10226000F2E0DBCC88E0FE013196D7CC42E050E0D2
:1022700068E772E0CE0141960E945B08882321F056
:1022800088E0E8E7F2E0FFCC88E0FE017196FBCC45
:1022900042E050E068E872E086EE9BE00E945B0856
:1022A000882321F088E0E8E8F2E000CD88E0E6EE5F
:1022B000FBE0FCCC412C512C5FE7652E53E4752EDE
:1022C00024CD42E050E068E972E086EE9BE00E9497
:1022D0005B08882321F088E0E8E9F2E028CD88E077
:1022E000E6EEFBE024CD88E0FE017196A0E0BCE0C4
:1022F00001900D928A95E1F731CD412C512C4FE799
:10230000642E43E4742E53CD44E050E060E272E06A
:1023100086EB9BE00E945B08882321F080E1E0E2ED
:10232000F2E064CD80E1E6EBFBE060CD412C512C86
:102330002FE7622E23E4722E8ECD44E050E060E45D
:1023400072E086EB9BE00E945B08882309F49BCD3A
:1023500080E1E0E4F2E091CD80E1E6EBFBE0A6EA8B
:10236000BBE001900D928A95E1F79ECD412C512C56
:102370009FE7692E93E4792EC6CD11E0F1CD8F92BF
:102380009F92AF92BF92DF92EF92FF920F931F93B3
:10239000CF93DF9384E090E015D3EBEFF3E08BE293
:1023A000DF011D928A95E9F780E090E0A0E8BFEB9D
:1023B00086A397A3A0A7B1A78DEC9CECACE4BEE3E9
:1023C00082A393A3A4A3B5A38EEF9BE0A3EABFE7E8
:1023D00084839583A683B78386EB99EAACEFB3EF4A
:1023E00080879187A287B3878EEF96EFA4E4B8E940
:1023F00084879587A687B7878DE59EE0ACE2B2E635
:10240000808B918BA28BB38BAFEEB3E0B383A283AF
:10241000E7EDF3E01196FC93EE9388EE92E0918362
:102420008083938382839583848397838683918734
:102430008087938782879587848797878687918B04
:10244000808B938B828B958B848B978B868B8FE085
:1024500094E015969C938E9314978FEF93E01396C8
:102460009C938E93129781E194E017969C938E93A0
:10247000169783E8E6E9FBE0DF01982F1D929A9515
:10248000E9F7C3E1DBE0DE011D928A95E9F7DD247F
:10249000D394D0928C0B8091580290915902A091C4
:1024A0005A02B0915B028CA79DA7AEA7BFA7812C53
:1024B000912C540183948DA29EA2AFA2B8A667E38B
:1024C00070E080E090E00E943D059BA78AA7D9A616
:1024D000188ED0928B0B80915C0290915D02A0913E
:1024E0005E02B0915F0288A399A3AAA3BBA3898EC1
:1024F0009A8EAB8EBC8E68E370E080E090E00E9424
:102500003D059F8F8E8FDD8E1092530BD092920BD4
:102510008092540B9092550BA092560BB092570B91
:10252000E12CF12C8701A80197016BE070E080E0BD
:1025300090E00E943A0390935A0B8093590BD092EB
:10254000580B18AAD092900B89AA9AAAABAABCAA37
:10255000A80197016AE070E080E090E00E943A03F1
:102560009FAB8EABDDAA10925B0BD092930B809247
:102570005C0B90925D0BA0925E0BB0925F0BA8017A
:10258000970169E070E080E090E00E943A03909348
:10259000620B8093610BD092600B18AED092910BBE
:1025A00089AE9AAEABAEBCAEA801970168E070E010
:1025B00080E090E00E943A039FAF8EAFDDAE1092B4
:1025C000630BD0928D0B8092640B9092650BA0925E
:1025D000660BB092670B61E085E30E94D904D0924C
:1025E000680B1092730BD0928F0B8092740B9092A9
:1025F000750BA092760BB092770B61E081E30E949D
:10260000D904D092780B10926B0BD0928E0B8092E3
:102610006C0B90926D0BA0926E0BB0926F0B61E001
:1026200083E30E94D904D092700B1B861882D0924B
:10263000940B8091540290915502A0915602B09152
:1026400057028F839887A987BA8789829A82AB823B
:10265000BC824EE15BE063E182E10E949401DD8295
:102660001E821F8A1C86D092950B809150029091F9
:102670005102A0915202B09153028B8B9C8BAD8B77
:10268000BE8B8D869E86AF86B88A4AE25BE063E0A9
:1026900082E00E949401D98A1A8A88E0E0E0F2E0A0
:1026A000ABE7BBE001900D928A95E1F788E0E0E0AE
:1026B000F2E0A3E8BBE001900D928A95E1F78B85EB
:1026C0000E94AF028F89DF91CF911F910F91FF90F0
:1026D000EF90DF90BF90AF909F908F900C94AF02DF
:1026E0008091370B81111FC081E08093370B80915F
:1026F000380B9091390BA0913A0BB0913B0B01979D
:10270000A105B10581F480913C0B882361F067E35A
:1027100070E080E090E00E94F90490933E0B80937B
:102720003D0B0E94600580912B0B81111FC081E041
:1027300080932B0B80912C0B90912D0BA0912E0B45
:10274000B0912F0B0197A105B10581F48091300B59
:10275000882361F068E370E080E090E00E94F90473
:102760009093320B8093310B0E9460058091530B44
:1027700081112EC081E08093530B8091540B909176
:10278000550BA091560BB091570B0197A105B105C0
:10279000F9F48091580B8823D9F06BE070E080E069
:1027A00090E00E94F60290935A0B8093590B40E000
:1027B00050E0BA010E94BF026BE070E080E090E060
:1027C0000E94F60290935A0B8093590B0E948B0340
:1027D0008091430B81112EC081E08093430B809147
:1027E000440B9091450BA091460BB091470B01977C
:1027F000A105B105F9F48091480B8823D9F06AE06E
:1028000070E080E090E00E94F60290934A0B809383
:10281000490B40E050E0BA010E94BF026AE070E05C
:1028200080E090E00E94F60290934A0B8093490B5F
:102830000E948B0380915B0B81112EC081E08093FD
:102840005B0B80915C0B90915D0BA0915E0BB09146
:102850005F0B0197A105B105F9F48091600B882306
:10286000D9F069E070E080E090E00E94F602909379
:10287000620B8093610B40E050E0BA010E94BF02FE
:1028800069E070E080E090E00E94F6029093620BB5
:102890008093610B0E948B0380914B0B81112EC0A2
:1028A00081E080934B0B80914C0B90914D0BA0914C
:1028B0004E0BB0914F0B0197A105B105F9F4809132
:1028C000500B8823D9F068E070E080E090E00E942F
:1028D000F6029093520B8093510B40E050E0BA0106
:1028E0000E94BF0268E070E080E090E00E94F60283
:1028F0009093520B8093510B0E948B038091630B3A
:10290000811103C081E08093630B8091730B81116F
:1029100003C081E08093730B80916B0B811103C026
:1029200081E080936B0B8091130B811114C081E0C7
:102930008093130B8091140B9091150BA091160BA3
:10294000B091170B0197A105B10529F48091180BDF
:1029500081110E94BC0280911F0B811114C081E083
:1029600080931F0B8091200B9091210BA091220B43
:10297000B091230B0197A105B10529F48091240B97
:1029800081110C94BC02089560E070E080E89FE73C
:10299000089560E070E080E89FE7089560E070E0EF
:1029A00080E89FEF089560E070E080E89FEF089571
:1029B00060E070E080EC9FEF089560E070E080ECF4
:1029C0009FEF0895F5DF6093250C7093260C80939C
:1029D000270C9093280CF1DF6093190C70931A0C5C
:1029E00080931B0C90931C0CCFDF6093210C709391
:1029F000220C8093230C9093240CCBDF60931D0C4E
:102A000070931E0C80931F0C9093200CC7DF609373
:102A1000290C70932A0C80932B0C90932C0CC3DF01
:102A200060932D0C70932E0C80932F0C9093300C90
:102A30000895CF92DF92EF92FF92CF936B017C01CA
:102A4000AC019B016091210C7091220C8091230CB0
:102A50009091240C0E94A035C1E0882371F0A70159
:102A600096016091290C70912A0C80912B0C909109
:102A70002C0C0E94A0358111C0E08C2FCF91FF90CB
:102A8000EF90DF90CF9008950F931F938B019C01DF
:102A90000027112720783F770115110520483F476F
:102AA00049F4AB01BC016F77772781E0452B462BBA
:102AB000472B09F480E01F910F910895E5CF4F92C5
:102AC0005F926F927F928F929F92AF92BF92CF92BE
:102AD000DF92EF92FF920F931F93F894409032048D
:102AE000509033046090340470903504C0902604F4
:102AF000D0902704E0902804F0902904452B09F099
:102B0000A6C09B01AC0124193509460957092901C2
:102B10003A0100912E0410912F042091300430913D
:102B2000310448015901840C951CA61CB71C801661
:102B30009106A206B306A0F400912A0410912B047A
:102B400020912C0430912D040F5F1F4F2F4F3F4FCA
:102B500000932A0410932B0420932C0430932D040B
:102B600080922E0490922F04A0923004B0923104EF
:102B700000912A0410912B0420912C0430912D04F3
:102B80008092360490923704A0923804B0923904AF
:102B900000933A0410933B0420933C0430933D048B
:102BA000609332047093330480933404909335041B
:102BB000A301920160E47DE083E090E00E94B93FD0
:102BC0006C0D7D1D8E1D9F1D609326047093270440
:102BD00080932804909329040091AE021091AF02D3
:102BE0002091B0023091B1020F3F1F4F2F4F3F4F46
:102BF000F1F00091AE021091AF022091B00230913D
:102C0000B1020E3F1F4F2F4F3F4F89F0C090AE02D1
:102C1000D090AF02E090B002F090B10221E08C14AD
:102C20009D04AE04BF0408F420E02093420478948D
:102C30001F910F91FF90EF90DF90CF90BF90AF90DA
:102C40009F908F907F906F905F904F9008954B0171
:102C50005C0184189508A608B708A3019201261BF9
:102C6000370B480B590B6415750586059705E0F081
:102C700082169306A406B50640F420E030E0A901D0
:102C800081149104A104B104A1F460E47DE083E027
:102C900090E00E94B93FA7019601261B370B480B15
:102CA000590BCA01B901C3CF82169306A406B50613
:102CB00060F7A501940160E47DE083E090E00E946C
:102CC000B93F6C0D7D1D8E1D9F1DB1CFF8CECF93EA
:102CD000DF9300D01F92CDB7DEB71C821B821A8211
:102CE000198210923E0410923F04109240041092F8
:102CF0004104BE016F5F7F4FCE0103960E94623395
:102D000069817A818B819C810E94502C009761F4AB
:102D1000BE016F5F7F4FCE0103960E946E336981C3
:102D20007A818B819C812ED50F900F900F900F9000
:102D3000DF91CF910895FF920F931F93CF93DF936D
:102D4000082F60E070E0CB010E94D339FF24F39498
:102D50000E94392BEC01892B89F010E0CE3F8FEFD8
:102D6000D80769F0002361F160E070E0CB010E94B8
:102D7000D33981E090E0892B59F322C011E025D5A9
:102D8000EC01892B21F0CE3F8FEFD80759F71111B5
:102D90001EC011E0229609F410E00E94E92AEC011D
:102DA000892B21F0CE3F8FEFD807E1F6111111C02A
:102DB00011E0CE3F8FEFD80709F410E001110BC0EE
:102DC000CE01DF91CF911F910F91FF90089511E0F7
:102DD000E4CF11E0F3CF60E070E0CB010E94D33983
:102DE0001F25812F90E0C7CFCF93DF9380914204BE
:102DF000882321F060E070E0CB014CD635D6D0E0DE
:102E0000C0E0892B71F06AE070E080E090E00E9401
:102E1000D33981E090DF28D62196C03D27E0D20744
:102E200081F727D60E94A42C10925A0410925904BC
:102E300010925304109254041092550410925604A8
:102E400010924F04109250041092510410925204A8
:102E500010924B0410924C0410924D0410924E04A8
:102E600010924704109248041092490410924A04A8
:102E700010924304109244041092450410924604A8
:102E80004EEF5FEF6FEF7FEF4093AE025093AF02D4
:102E90006093B0027093B10210924204E6E3F4E052
:102EA00028E0DF011D922A95E9F710923204109272
:102EB0003304109234041092350410922E041092B0
:102EC0002F04109230041092310410922A041092B0
:102ED0002B0410922C0410922D04109226041092B0
:102EE00027041092280410922904DF91CF910895AD
:102EF000109266041092670410926804109269049C
:102F00001092650480916E0490916F049093640414
:102F100080936304109262041092610410925D0425
:102F200010925E0410925F041092600410926B0481
:102F300010926A0490E080E00895CF92DF92EF92C1
:102F4000FF920F931F93CF938C01892B09F055C0EB
:102F500020916E0430916F04809163049091640419
:102F600040916E0450916F04509364044093630445
:102F70002817390781F010926204109261041092B0
:102F80005D0410925E0410925F041092600410922F
:102F90006B0410926A0480916E0490916F04019703
:102FA00061F580916A0490916B04892B21F48091E2
:102FB000B202811112C080916A0490916B04019752
:102FC000E1F480915D0490915E04A0915F04B09162
:102FD00060040197A105B10581F410925D0410927F
:102FE0005E0410925F04109260041092B20282E0BC
:102FF00090E090936B0480936A0480916E049091AA
:103000006F04019709F01CC180918404909185049C
:103010008017910709F014C1809180049091810478
:10302000A0918204B0918304009709F409C1209112
:103030007F0421110DC04091800450918104609162
:10304000820470918304452B462B472B09F4F8C06A
:1030500020916A0430916B042230310509F0F0C0F0
:10306000209161042111ECC0FC01C080D180E2807C
:10307000F38080916504882309F4D3C080917104A2
:1030800090917204892B09F4FDC020917104309154
:10309000720481E02230310509F080E02091710452
:1030A00030917204C1E02130310549F02091710462
:1030B00030917204C1E02230310509F0C0E088236C
:1030C00009F456C020917B0430917C0440917D042A
:1030D00050917E04C701B6010E94ED3687FD14C0F1
:1030E00020917B0430917C0440917D0450917E04BA
:1030F00060916604709167048091680490916904FE
:103100000E94A03587FD22C020917B0430917C0471
:1031100040917D0450917E04C701B6010E94ED36B6
:10312000181634F520917B0430917C0440917D0485
:1031300050917E04609166047091670480916804E8
:10314000909169040E94A035811112C0809173048E
:1031500090917404A0917504B0917604892B8A2B08
:103160008B2B19F481E08093620481E080936104E9
:10317000CC2309F456C020917B0430917C0440910B
:103180007D0450917E04C701B6010E94A03587FFDF
:1031900014C020917B0430917C0440917D045091B7
:1031A0007E04609166047091670480916804909138
:1031B00069040E94ED3687FF22C020917B04309184
:1031C0007C0440917D0450917E04C701B6010E94A9
:1031D000A035811126C020917B0430917C04409160
:1031E0007D0450917E046091660470916704809123
:1031F0006804909169040E94ED36181694F4809149
:10320000730490917404A0917504B0917604892B95
:103210008A2B8B2B19F481E08093620481E08093E8
:10322000610481E090916104911180E080936504D4
:10323000C0926604D0926704E0926804F092690438
:10324000012B09F067C180916A0490916B04892B6E
:10325000D9F410927004109261048091B202882314
:1032600079F082E090E090936B0480936A0410926E
:10327000B20220916E0430916F0481E0232BE9F0BB
:1032800080E01BC081E00ACF1092B20280917004EE
:10329000882349F01092620410926B0410926A0421
:1032A00010927004EDCF80916E0490916F04892B81
:1032B000E1F0809161041092610420916A043091E0
:1032C0006B042230310509F45EC088F42115310504
:1032D00009F448C02130310509F4F3C010926204AA
:1032E000109261041092700438C081E0E6CF233060
:1032F000310509F4B1C02430310581F740915D04F6
:1033000050915E0460915F04709160044115510515
:103310006105710561F041505109610971094093DE
:103320005D0450935E0460935F0470936004409169
:103330005D0450915E0460915F0470916004452BC0
:10334000462B472BD9F420916C0430916D04213029
:10335000310509F046C01092620410926B0410927D
:103360006A040CC08091B202882341F082E090E0B0
:1033700090936B0480936A041092B20210925B04E3
:1033800080916204CEC08823C9F380917304909128
:103390007404A0917504B0917604181619061A06E3
:1033A0001B060CF07DC080916E0490916F04019714
:1033B00009F076C08091730490917404A091750413
:1033C000B091760480935D0490935E04A0935F04B3
:1033D000B093600483E090E090936B0480936A0460
:1033E000CDCF409177045091780460917904709129
:1033F0007A04452B462B472BA9F01092620480914A
:10340000770490917804A0917904B0917A04809324
:103410005D0490935E04A0935F04B093600481E028
:1034200090E0DACF882399F08091B3029091B402B2
:10343000A091B502B091B60280935D0490935E04B2
:10344000A0935F04B093600484E090E0C5CF109235
:10345000620482E090E0C0CF80915D0490915E04B0
:10346000A0915F04B09160040097A105B10559F0E7
:103470000197A109B10980935D0490935E04A09324
:103480005F04B093600480915D0490915E04A0910C
:103490005F04B0916004892B8A2B8B2B09F06ECFCF
:1034A0008091B3029091B402A091B502B091B6029E
:1034B000892B8A2B8B2B09F44ECF81E080936204F9
:1034C000B3CF40915D0450915E0460915F047091B0
:1034D0006004411551056105710561F041505109C4
:1034E0006109710940935D0450935E0460935F0429
:1034F0007093600440915D0450915E0460915F049C
:1035000070916004452B462B472B09F037CF811172
:10351000C7CF9FCF80915B04882309F431CF80917E
:103520005C04CF911F910F91FF90EF90DF90CF90AF
:103530000895109266041092670410926804109225
:1035400069041092650410926B0410926A04109240
:103550006404109263041092850410928404109203
:1035600062041092610410925D0410925E04109245
:103570005F041092600410925C0410925B0410923D
:10358000800410928104109282041092830410929D
:103590007F0410927B0410927C0410927D041092A0
:1035A0007E0488EE93E0A0E0B0E08093B3029093B5
:1035B000B402A093B502B093B602109277041092B1
:1035C00078041092790410927A0410927304109285
:1035D0007404109275041092760410927204109282
:1035E000710481E08093B2021092700410926F0413
:1035F00010926E0410926D0410926C0490E080E0C2
:10360000089580916E0490916F04892B19F5809133
:10361000B202882351F080917004811106C081E0CC
:1036200080935C0480935B04089520917004309132
:10363000B20281E090E0332311F090E080E030E0CE
:1036400082239323892B21F010925C0481E0EACF3E
:1036500010925B04089582E090E0FA0191838083E8
:103660008FEF9FEF0895CF93DF93EA01009711F05A
:103670000E94C42D1982188290E080E0DF91CF91E2
:103680000895DB01009719F48FEF8C9308952EEFC6
:103690002C93FC013F96EF30F10508F034C08827E9
:1036A000EB5AF44E8F4F0C94FE3F811B7F1B7D1B0A
:1036B0007B1B791B751B771B731B711B6F1B6C1B93
:1036C000681B641B6A1B831B80E311968C9308950F
:1036D00089E2FBCF82E2F9CF11961C92089583E232
:1036E000F4CF81E2F2CF81E1F0CF87E2EECF8AE240
:1036F000ECCF80E1EACF84E2E8CF88E2E6CF86E251
:10370000E4CF81E3E2CF80E2E0CF80919204909118
:103710009304089590939304809392040895809164
:103720009104089590919104892B809391040895B8
:10373000982F909580919104892380939104089506
:1037400080919004089580918E0490918F04089543
:103750006115710559F0FB0130E020E070E060E098
:103760002417350719F06115710511F0CB01089583
:10377000A081B181A817B90709F4BF012F5F3F4F9E
:103780003696EECF8091940481111CC060D266D22F
:1037900090938704809386040E94C2250E94D425BA
:1037A00090938B0480938A040E94512A0E94582A85
:1037B000909389048093880481E08093940490E03E
:1037C00080E0089584EF9FEF08958F929F92AF92CB
:1037D000BF92CF92DF92EF92FF920F931F93CF93FE
:1037E000DF9300D000D000D01F92CDB7DEB71A868D
:1037F000198618861F821E821D821C821B821A82D5
:1038000019828091940407EF1FEF882309F49CC06C
:103810008E010D5F1F4F9E012B5F3F4FAE01495F31
:103820005F4FBE01675F7F4F90E080E00E94D52B25
:103830008C01009721F00596029708F0DBC02985DE
:103840003A852115310509F402C1ED80FE804B81D6
:103850005C81B701640F751F8F8198858617970764
:1038600008F4F5C0E20EF31ED7019C91903C09F0DC
:103870007FC04230510508F47BC011968C91409175
:10388000920450919304452B09F49CC0913F08F099
:1038900071C02CE1290F2D3008F48BC02DE2290FC7
:1038A000203108F489C0903C21F48150823008F422
:1038B00083C088E3890F8B3008F481C091E4C92E5E
:1038C0009BE1D92EEBE2FBE16D817E81AE014F5F82
:1038D0005F4F89859A8519955C01C114D104A1F1C6
:1038E00089809A808114910479F18B819C8188155B
:1038F000990508F487C010E000E04B815C8170E01E
:1039000060E0C7010E94284001151105E9F44981D2
:103910005A8169857A858D819E81680F791FC501DD
:10392000F6011995E980FA800D811E812F81388575
:1039300049855A856FEF7FEF81E090E00E94702B00
:103940008C01892B09F056C0C8012A960FB6F8944D
:10395000DEBF0FBECDBFDF91CF911F910F91FF90C2
:10396000EF90DF90CF90BF90AF909F908F90089591
:1039700080E085CF30E020E0220F331FF901EA57C5
:10398000FB4F0190F081E02D309709F497CF892FFC
:1039900090E01995009709F491CFDC011296ED9112
:1039A000FC9113971496CD90DC90309709F08CCF52
:1039B0001FC021E030E0E0CF22E030E0DDCF23E0A7
:1039C00030E0DACFD12CC12CE3E3FBE19F3F09F0DB
:1039D0007BCFE0918604F0918704309721F4C901F0
:1039E00004EF1FEF0CC08FEF90E019950097A9F638
:1039F00004EF1FEF89859A85009709F4A5CF0E94EF
:103A0000C42DA2CF0E949F2C8C0189859A850E948B
:103A1000C42D70E060E0C4010E94382C98878F8329
:103A20000E946D2B9E838D836F8178856115710552
:103A300059F0C8010E94502F9A87898706EF1FEF1F
:103A4000892B09F058CF59CF08EF1FEF56CF08EF59
:103A50001FEFD0CF20919404222319F020E00C9482
:103A6000D92587EF9FEF0895809192049091930458
:103A700008950E945D2A0E94B729F5D0E6E8F4E097
:103A800088E0DF011D928A95E9F71092940490E096
:103A900080E008950C94152821E040E050E0BA0140
:103AA0000C94D92586E090E0FA019183808390E020
:103AB00080E0089547E050E063E073E049CEDF9294
:103AC000EF92FF920F931F93CF93DF938A01EC0144
:103AD000C60FD71FE0909804F0909904D9800E94F7
:103AE000872CD816190678F082E090E0F8019183CF
:103AF00080838EEF9FEFDF91CF911F910F91FF9009
:103B0000EF90DF900895EF2841F482E090E0F80113
:103B10009183808384EF9FEFEECF89818093970418
:103B200090E00196F8019183808390E080E0E3CFFC
:103B3000CF93DF93EA010E94C628882321F00E94D8
:103B4000942C0E94C72882E090E0998388838BEFB1
:103B50009FEFDF91CF910895CF93DF93EB0186E044
:103B6000FB0111928A95E9F78FEF8883D8DD89836D
:103B7000E7DD8A83E8DD9D838C83DF91CF91089513
:103B8000CF93DF93EA010E94C928811109C082E026
:103B900090E09983888385EF9FEFDF91CF9108951F
:103BA00090E080E0B7DD81E090E09983888390E049
:103BB00080E0F3CF0F931F93CF93DF93EA018C0143
:103BC000060F171F0E94C92881110BC082E090E0E8
:103BD0009983888385EF9FEFDF91CF911F910F919C
:103BE0000895F8018181823038F082E090E0998375
:103BF00088838EEF9FEFF0CF81E090E08BDD88E04F
:103C000090E09983888390E080E0E6CFCF93DF93C4
:103C10000097D1F4EB01FB01329686E0DF011D92A3
:103C20008A95E9F78FEF888385E089831A820E945D
:103C3000872C8B830E94862C9D838C8381E08E83CE
:103C40008F83DF91CF910895DF91CF911ACD8AE5CF
:103C50009DE1909396048093950408958091950436
:103C600090919604089510929604109295040895E8
:103C700080919804909199040895411105C06115AF
:103C800071058105910561F0609398047093990422
:103C900080939A0490939B0440939C0481E0089540
:103CA00080E00895FF920F931F93CF93DF938A01D3
:103CB000EC01C60FD71FF9800E94872CF816190651
:103CC00068F082E090E0F801918380838EEF9FEFAF
:103CD000DF91CF911F910F91FF9008956C817D81AD
:103CE0008E819F814B81C9DF811108C082E090E005
:103CF000F8019183808384EF9FEFEACF89818093DD
:103D0000970490E00196F8019183808390E080E031
:103D1000DFCFCF93DF93EA01FC01E60FF71F648149
:103D20007581868197814381A8DF811109C082E076
:103D300090E09983888384EF9FEFDF91CF9108957E
:103D400081E090E09983888390E080E0F6CFE8E915
:103D5000F4E04081518162817381480F511D611DE2
:103D6000711D40835183628373830895CF93C09103
:103D700097044C2F50E0609198047091990401963B
:103D80000E941F408C2FE3DF10929704CF9108957B
:103D9000009799F480919804909199042FEFFB017A
:103DA0002083892B59F02091970430E02F5F3F4FFB
:103DB0002417350719F4CB01D9CF63CC08950097A8
:103DC00099F480919804909199042FEFFB0120833E
:103DD000892B59F02091970430E02F5F3F4F241733
:103DE000350719F4CB01C2CF4CCC089523E1AC01C7
:103DF000249FC001259F900D1124E091A104F09112
:103E0000A204E80FF91F238134812250310981E097
:103E10002230310508F080E008950F931F93CF936F
:103E2000DF930091A3041091A404D0E0C0E080E0EF
:103E30000C171D0749F491E0811190E0892FDF9163
:103E4000CF911F910F9108958111F5CFCE01CEDF53
:103E50002196EECFA091A104B091A204109729F170
:103E60002091A3043091A40482179307F0F453E146
:103E7000589F9001599F300D1124A20FB31FED914F
:103E8000FC911197309789F012968C91681768F41D
:103E90008DE0689FE00DF11D112480819181892BB7
:103EA00021F081E09281491708F080E008959C019B
:103EB00043E1429FC001439F900D1124E091A10472
:103EC000F091A204E80FF91F8385823091F481E01C
:103ED00090E0658176814091B7025091B8026417F5
:103EE000750711F490E080E0892B19F081E0232B15
:103EF00009F080E00895FC01A081B1818DE0689F08
:103F0000A00DB11D112413964D915C918585968568
:103F1000489F9001499F300D589F300D1124C901D1
:103F20000196611103C0478144FD04960895EF9204
:103F3000FF920F931F93CF93DF93EA01FC01E60FEB
:103F4000F71F02811381E480F5804F2D6E2DC8018B
:103F500081DF81110DC082E090E0998388838EEF2C
:103F60009FEFDF91CF911F910F91FF90EF900895F8
:103F7000C8013CDF882339F082E090E09983888390
:103F800088EF9FEFEECF1093BE020093BD02E09248
:103F9000BF02F092C00281E090E09983888390E0B4
:103FA00080E0DFCFCF92DF92EF92FF920F931F93CB
:103FB000CF93DF937A01EC01C60FD71FC090BD02EB
:103FC000D090BE020091BF021091C002412F602F1D
:103FD000C60140DF811110C082E090E0F7019183BB
:103FE00080838AEF9FEFDF91CF911F910F91FF9018
:103FF000EF90DF90CF900895C601F8DE882341F05E
:1040000082E090E0F7019183808388EF9FEFEBCF10
:104010004C815D816E817F819A8189818F3F41F0E2
:1040200082E090E0F701918380838EEF9FEFDBCFFA
:10403000E3E1EC9D9001ED9D300D1124E091A10490
:10404000F091A204E20FF31F0190F081E02D2DE02A
:10405000029FE00DF11D11240190F081E02D27E079
:10406000129FE00DF11D1124808391838B81828347
:1040700043835483658376831F5F1093C00281E07E
:1040800090E0F7019183808390E080E0ACCFEF92E5
:10409000FF920F931F93CF93DF937A018C01060F4A
:1040A000171FC091A104D091A204209781F021E0B4
:1040B00030E0F801828193814091A3045091A404DF
:1040C0008417950710F030E020E0232B71F482E094
:1040D00090E0F701918380838EEF9FEFDF91CF9186
:1040E0001F910F91FF90EF90089543E1489F900139
:1040F000499F300D1124C20FD31F78DE882341F071
:1041000082E090E0F7019183808388EF9FEFE6CF14
:10411000F8012481358120383105C8F68781811165
:10412000D6CF4181842F90E08F7E009741F082E0CE
:1041300090E0F7019183808386EF9FEFCFCF4F838D
:104140003E832D83268128871986223010F421E0B2
:10415000288721E030E0F70131832083BFCF88E05A
:1041600090E0FA019183808390E080E00895FB0164
:104170008FEF808381E181838FEF9FEF9383828331
:1041800080E890E095838483168217820895FB016E
:104190008FEF808391E0918382839383848384E390
:1041A000858381E090E0978386830895DF92EF9284
:1041B000FF920F931F93CF93DF93EA01FC01E60F69
:1041C000F71F8181813071F082E090E099838883CC
:1041D0008FEF9FEFDF91CF911F910F91FF90EF90A5
:1041E000DF90089582819381D4802581E680F780D5
:1041F0000091A1041091A2040115110539F482E087
:1042000090E0998388838CEF9FEFE4CF4091A304E3
:104210005091A4048417950738F082E090E09983C8
:1042200088838EEF9FEFD6CF892B39F082E090E024
:104230009983888386EF9FEFCDCF8D2D8D7FB1F74A
:104240002130A1F781E0D11006C091E0E916F10418
:1042500031F080E004C0E2E0EE16F104D0F38823F0
:1042600029F390E080E0C2DD882339F082E090E01D
:104270009983888388EF9FEFADCFF801D38681E0E3
:104280008487F686E586108A178681E090E0998318
:10429000888390E080E09ECF4CE050E06DE273E0D8
:1042A00057CA8F929F92BF92CF92DF92EF92FF9266
:1042B0000F931F93CF93DF93EA01FC01E60FF71FE3
:1042C000828193810481B580E091A104F091A204E0
:1042D000309791F482E090E0998388838CEF9FEF90
:1042E000DF91CF911F910F91FF90EF90DF90CF90D2
:1042F000BF909F908F9008952091A3043091A404C3
:104300008217930738F082E090E0998388838EEFDC
:104310009FEFE6CF23E1289F6001299FD00C112455
:10432000EC0DFD1DE080F180E114F10499F2828131
:10433000081748F78DE0089F80011124E00EF11E58
:10434000F70180819181892B29F6BB20E1F2F7E00A
:10435000BF9E40011124C4010E948B2DF70191835F
:104360008083E091A104F091A204EC0DFD1D019069
:10437000F081E02DE00FF11F80819181009739F4E9
:1043800082E090E0998388838DEF9FEFA9CFA4010D
:1043900070E060E00E9428408091A1049091A20406
:1043A000C80ED91EF60180819181080F191FF801EE
:1043B000B28281E090E09983888390E080E090CFA2
:1043C000AF92BF92CF92DF92FF920F931F93CF9342
:1043D000DF93EA01FC01E60FF71F82819381F480ED
:1043E0000091A1041091A2040115110581F482E04D
:1043F00090E0998388838CEF9FEFDF91CF911F919D
:104400000F91FF90DF90CF90BF90AF9008952091D3
:10441000A3043091A4048217930738F082E090E05F
:10442000998388838EEF9FEFE8CF2FEF2F0D2C3FDE
:10443000A8F723E1289F6001299FD00C11240C0DBF
:104440001D1DF80180819181892B89F6FDE0FF9E79
:1044500050011124C5010E948B2DF80191838083A6
:10446000E091A104F091A204EC0DFD1D80819181E9
:10447000009739F482E090E0998388838DEF9FEF75
:10448000BCCFA50170E060E00E942840E091A1044B
:10449000F091A204EC0DFD1DF28281E090E0998381
:1044A000888390E080E0A9CFCF92DF92EF92FF92D5
:1044B0000F931F93CF93DF93860F971FFC01028109
:1044C00013818091A1049091A204892B81F082E054
:1044D00090E0FA01918380838CEF9FEFDF91CF9181
:1044E0001F910F91FF90EF90DF90CF900895C8013A
:1044F000B0E0A0E00197A109B1098F3F9F4FA1054E
:10450000B10540F082E090E0FA01918380838EEF64
:104510009FEFE4CF7A0183E1809F6001819FD00CFF
:104520001124C6010E948B2DEC01009741F482E01A
:1045300090E0F701918380838DEF9FEFCFCFA601AD
:1045400070E060E00E942840D093A204C093A104D0
:104550001093A4040093A30490E080E02FEF3FEFBA
:1045600041E061E070E08017910741F481E090E064
:10457000F7019183808390E080E0B0CF3A8B298B64
:104580001B864C877E876D87188A1F8601966396E7
:10459000EACFEF92FF921F93CF93DF93EC0110E0ED
:1045A000F12CE12C6A811617B0F083E0689FB0010E
:1045B0001124AE014F5E5F4FC7010E94F02D00979E
:1045C00021F02FEF3FEF3A8B298BDF91CF911F9195
:1045D000FF90EF900895612FCE018DDC61E070E0D7
:1045E0000E94382CE816F90608F47C011F5FDACF28
:1045F000F89420919F043091A00481E021153105A9
:1046000009F080E0232B09F0789408952F923F92CF
:104610004F925F926F927F928F929F92AF92BF92D2
:10462000CF92DF92EF92FF920F931F93CF93DF937E
:104630003C01660E771EF301828193814C01B12CFF
:10464000A12CC091A104D091A204209769F021E08F
:1046500030E06091A3047091A4048617970710F0CE
:1046600030E020E0232BD1F482E090E0FA01918346
:1046700080838EEF9FEFDF91CF911F910F91FF907D
:10468000EF90DF90CF90BF90AF909F908F907F90F2
:104690006F905F904F903F902F9008958092C1024D
:1046A0009092C202A092C302B092C40263E1689FDA
:1046B0009001699F300D1124C20FD31FF301818136
:1046C000833040F082E090E0FA019183808386EFAE
:1046D0009FEFD1CF2A012B813C81232BF1F428813C
:1046E00039819F8191FF2EC0232B09F46FC0209147
:1046F000A6049A81422F490F5527551FBA0141E060
:1047000050E06138710514F050E040E0452B09F4A9
:104710005DC02A87920F9093A6048150823008F4DE
:1047200081C066DF882309F4D8C0F301818181301C
:1047300009F48DC008F47BC0823009F4C6C090E053
:1047400080E0ADC0232B09F441C02091A5049A81DB
:10475000E22FE90FFF27FF1F41E050E0ED3FF10599
:1047600014F050E040E0452B89F12A87920F909396
:10477000A504D3CFA081B181A20FB31F11966C9174
:10478000060F111D0196295F3F4F8417950794F37B
:104790008D859E85089F1001099F300C189F300C55
:1047A0001124C114D104D1F48F8184FF17C00E9459
:1047B000862CF5E02F0E311C21E08215930508F4BC
:1047C00020E0A701435F5F4F21110EC082E090E01F
:1047D000F2019183808387EF9FEF4DCF0E94862C5B
:1047E0002FEF221A320AE8CF88819981E80EF91E4C
:1047F000F70114830383FFEFCF1ADF0A7A018A815E
:104800008C151D0409F00CF48CCFE881F981EE0DB4
:10481000FF1D428150E030E020E010E000E090E039
:1048200080E0B3CFF12CE12CD12CC12CE8CF81E07A
:1048300090E09C838B83F1DA882309F480CF81E0B8
:1048400090E00E948A1B80E40E94981B78CF89899F
:104850009A89019661F083E090E09C838B8382E0EB
:1048600090E00E948A1B80E40E94921B68CF8D8199
:104870009E812091B7023091B80282179307D1F43C
:104880006091BB027091BC02AE014F5E5F4F8091A0
:10489000B9029091BA020E940F2F0097E1F278942A
:1048A00022E030E0F20131832083892B99F08DEFF3
:1048B0009FEFE1CE89288A288B2869F6892B59F643
:1048C000CE0167DE188A1F86E8CF82E090E09C83E5
:1048D0008B8335CF90E080E0CECE82E090E0F20195
:1048E0009183808385EF9FEFC6CE8F929F92AF9288
:1048F000BF92CF92DF92EF92FF920F931F93CF93CD
:10490000DF93EA018C01060F171FF80181818330C4
:1049100098F082E090E09983888386EF9FEFDF91A3
:10492000CF911F910F91FF90EF90DF90CF90BF90AC
:10493000AF909F908F9008958091A1049091A204D0
:10494000892B61F081E090E02091A3043091A404D0
:10495000232B11F490E080E0892B39F482E090E081
:10496000998388838EEF9FEFDACF42DE882309F4A4
:10497000DFC0F8018181813009F495C0E8F0823010
:1049800099F42091A3043091A404E091A104F09142
:10499000A20490E080E041E050E02817390709F0D8
:1049A000BDC03BDA811117C0789481E090E0998313
:1049B000888390E080E0B3CF2091A3043091A404D9
:1049C000E091A104F091A20490E080E041E050E089
:1049D0002817390741F481E090E00E948A1B80E4A7
:1049E0000E94981BE1CF63817481672B11F054837F
:1049F000438301967396ECCFE091A104F091A20459
:104A0000E00FF11F2381348122303105D9F421894F
:104A100032892F3F3F4FB1F4258136814091B70253
:104A20005091B8022417350761F5AF014F5E5F4F13
:104A30006091BB027091BC028091B9029091BA0260
:104A40000E940F2FEFEFCE1ADE0AEE0AFE0A0D5E6D
:104A50001F4F4091A3045091A40470E060E0C4167D
:104A6000D506E606F7063CF5009731F27894892BD7
:104A700009F49BCF82E090E0998388838DEF9FEFCC
:104A80004ECFC114D104E104F104E1F6232BD1F699
:104A9000CF017FDDE091A104F091A204E00FF11FAE
:104AA000108A1786CFCF10E000E090E080E0C12CA4
:104AB000D12C7601CECF0097C9F610E000E0812C12
:104AC000912C540183E0E82EF12C1AC0E091A1044E
:104AD000F091A204E00FF11F83819481029749F4C1
:104AE000F482E38282E090E00E948A1B80E40E94CC
:104AF000921BFFEF8F1A9F0AAF0ABF0A0D5E1F4F6E
:104B00008091A3049091A404B0E0A0E088169906D7
:104B1000AA06BB06DCF290E080E0A8CF6381748136
:104B20006230710511F4548343830196739635CF37
:104B300082E090E09983888385EF9FEFF0CE009725
:104B4000B9F48FEFFB0180832091C1023091C20242
:104B500043E1429FC001439F900D1124E091A104C5
:104B6000F091A204E80FF91F8285FB01818308956B
:104B70000C94411B88E090E0FA019183808390E0DF
:104B800080E008951092A00410929F04E1EAF4E0FE
:104B900086E0DF011D928A95E9F78CE491E290931B
:104BA0009E0480939D04089580919D0490919E049D
:104BB00008952F923F924F925F926F927F928F92C1
:104BC0009F92AF92BF92CF92DF92EF92FF920F939C
:104BD0001F93CF93DF93CDB7DEB72F970FB6F8941F
:104BE000DEBF0FBECDBFF894E0919F04F091A0040A
:104BF0003196F093A004E0939F0478944090A10430
:104C00005090A2044114510409F40CC2E091A30491
:104C1000F091A404EF2B09F405C22D8749875A8728
:104C20006B877C8798878F831201B12CA12C10E0B1
:104C300000E08091A3049091A404A816B90618F48A
:104C40000115110529F1F89480919F049091A00419
:104C500001979093A00480939F047894C8012F96A5
:104C60000FB6F894DEBF0FBECDBFDF91CF911F917D
:104C70000F91FF90EF90DF90CF90BF90AF909F90FB
:104C80008F907F906F905F904F903F902F900895FE
:104C90007101E418F508D10117968C91179781FDE1
:104CA00054C013968D919C911497039709F04DC0B1
:104CB00015968D919C91EF81F8858E179F0709F0CD
:104CC00044C0B50190E080E07FD48A832091A104A4
:104CD0003091A2043D832C833D85332309F44CC0DD
:104CE0004C815D81452B09F49AC18091A304909178
:104CF000A404A816B90608F092C1C501D8D8882323
:104D0000E9F06C817D816E0D7F1D7D836C83DB01FD
:104D10001F968D919C91892B89F0D12CC12CF12C5F
:104D2000E12CAC81BD8112968C9112978E151F04D7
:104D300009F094F450961C921E921F972A81222308
:104D400021F0B50190E080E041D43FEFA31AB30A0F
:104D500043E1240E311C6DCFAC81BD81ED91FC91FE
:104D6000EC0DFD1D858196810FD7BFEFEB1AFB0A75
:104D7000EDE0CE0ED11CD5CFEC81FD81309709F44A
:104D80004EC18091A3049091A404A816B90608F01E
:104D900046C1EE0DFF1DFF87EE87C50188D88B83C6
:104DA000882339F1AE85BF851F968D919C915097D0
:104DB000019621E01D964D915C918417950709F0AD
:104DC00020E02E831982712C10E000E0AE85BF85B3
:104DD00012968C91781608F45DC0EE85FF85878564
:104DE00090890196658576850E94C83F908B87875C
:104DF000A5CFB1E0BE83E6CF992493946BC08BD648
:104E0000F6019683858382C0D601ED90FC90B7E0D1
:104E10006B9EE00CF11C1124F70163817481808189
:104E20008F3F61F121E030E002C0220F331F8A95ED
:104E3000E2F7C901092E000CAA0BBB0BFB01408154
:104E400051816281738184239523A623B72321E0B6
:104E5000892B8A2B8B2B09F420E0D4012C93D701CA
:104E600011968C91F60123853485820F932F911D25
:104E7000880E991E1486138663949BC0418150E06E
:104E8000C4010E941F40EBCF998206EF1FEFC5C0FF
:104E90001982C3C0F981F111A0CFEDE07E9E7001AF
:104EA0001124AE85BF85CD90DC90CE0CDF1C15D4CF
:104EB0009D838C83BB81BB2309F49ECF81E0EE856B
:104EC000FF8527853089232B09F080E0982E8823E1
:104ED00009F458C0672D8E859F850DD8D601189688
:104EE0009C938E93179761E070E0C2D4EE85FF85A6
:104EF000218932892F3F320709F481CFBC01C901D2
:104F0000CFD7D60116969C938E931597D6011596FA
:104F10008D919C911697009709F4B6CFEC81FD8195
:104F20008E0F9F1F1A969C938E931997AE85BF85FF
:104F3000ED91FC911197EE0EFF1EF7012185328550
:104F4000148613861A968C91870DD9018D93711052
:104F500016C0EE85FF85878184FF11C049855A857B
:104F60006B857C85F9014183528363837483F701E8
:104F7000838594850496A80FB91F14861386F701BC
:104F8000B287A187D60115968D919C911697892B92
:104F900009F443C0EE85FF85258136818091B702F3
:104FA0009091B8022817390779F019968D909C9046
:104FB000612CD60112968C911297681608F424CFB2
:104FC0001A969C928E921997BE81BB2309F460CFEA
:104FD00061E070E0F601878190854AD4D60117968A
:104FE000ED90FC90189715964D915C91E1E0F0E002
:104FF000BA81BB2311F0F0E0E0E00C811D819C013F
:10500000B501882799278E1B9F0B6AD38C01892BAA
:1050100021F0F60185819681B7D57394D7CE0FEF35
:105020001FEF8CCE10E000E00ECE2F923F924F92F9
:105030005F926F927F928F929F92AF92BF92CF9228
:10504000DF92EF92FF920F931F93CF93DF938091A4
:10505000A1049091A20410E000E0892BA9F0C8DA25
:105060000AEF1FEF882381F02090A3043090A4045E
:10507000C091A104D091A204D12CC12C10E000E079
:105080002C143D04A9F47894C801DF91CF911F91AD
:105090000F91FF90EF90DF90CF90BF90AF909F90D7
:1050A0008F907F906F905F904F903F902F900895DA
:1050B000C6010E94571F882309F18B819C810397A9
:1050C000E9F48F859889892BC9F0B60190E080E0DA
:1050D0007BD221E030E0882311F030E020E044244E
:1050E0005524421A530AB12CA12C912C812C8A816F
:1050F0008815190409F038F4188A1F864FEFC41A6E
:10510000D40A6396BDCFE881F981EA0DFB1D858144
:105110009681892BA1F161E070E087819085A8D309
:105120003C01DBD28C01E881F981EA0DFB1D818510
:10513000928525813681200F311FAC01421B530B14
:105140009A0147815085421B530B70E060E00E943A
:105150002840E881F981EA0DFB1DE780F084458154
:1051600056819301B601C201BBD28C01892B39F063
:10517000E881F981EA0DFB1D8581968105D55FEFF8
:10518000851A950A8DE0A80EB11CB1CF31CA78946A
:1051900008952F923F924F925F926F927F929F92CB
:1051A000AF92BF92CF92DF92EF92FF920F931F9335
:1051B000CF93DF9300D000D0CDB7DEB70091A1042C
:1051C0001091A204992493940115110509F43EC08D
:1051D000A090A304B090A4040BDA982E8823B1F118
:1051E0001092A2041092A1041092A4041092A3049D
:1051F0001092A5041092A6048FEF9FEFDC0180931C
:10520000C1029093C202A093C302B093C4027894E7
:105210007FD31E830D83C12CD12C7601C501B0E054
:10522000A0E089839A83AB83BC8322242A94322C06
:1052300089819A81AB81BC81C816D906EA06FB0632
:10524000F4F0C801A1D480E40E94981B892D269611
:105250000FB6F894DEBF0FBECDBFDF91CF911F9187
:105260000F91FF90EF90DF90CF90BF90AF909F9005
:105270007F906F905F904F903F902F900895AD81F9
:10528000BE8115968D919C9116972091B702309111
:10529000B80282179307D1F451968D919C91EED567
:1052A000ED81FE8180819181B12CA12C412C512C6A
:1052B0003201892B89F5BFEFCB1ADB0AEB0AFB0A17
:1052C000ED81FE817396FE83ED83B2CFC114D104CC
:1052D000E104F10429F7892B19F7ED81FE81818919
:1052E00092898F3F980709F029D5AD81BE815296EA
:1052F0003C922E925197D4CF8A0D9B1DDC018D914B
:105300009C91009709F040D4BFEF4B1A5B0A6B0ADF
:105310007B0AEDE0AE0EB11CAD81BE818D919C91FA
:10532000119712964C9150E070E060E044165506DB
:10533000660677060CF328D4BECFCF93DF93EA013D
:1053400028DF811109C082E090E09983888385EF8E
:105350009FEFDF91CF91089581E090E00E948A1B3A
:1053600081E090E09983888390E080E0F2CF11DFC4
:1053700010929E0410929D04089542E050E065E76B
:1053800073E00C94A81BFF920F931F93CF93DF93AE
:105390008A01EC01C60FD71FF980B9D20897F81619
:1053A000190671F068F082E090E0F8019183808343
:1053B0008EEF9FEFDF91CF911F910F91FF90089596
:1053C0006C817D818E819F814B810E943D1E811168
:1053D00008C082E090E0F8019183808384EF9FEF22
:1053E000E9CFF9800E94381E4F2D50E0BE01685F62
:1053F0007F4F0E941F4089810E94A71E81E090E09C
:10540000F8019183808390E080E0D4CFDF92EF9227
:10541000FF920F931F93CF93DF938A01EC01C60F86
:10542000D71F0E94381E7C01D98071D2DD2059F02F
:10543000029721E030E0D816190619F010F030E09C
:1054400020E0232B79F482E090E0F80191838083BF
:105450008EEF9FEFDF91CF911F910F91FF90EF9013
:10546000DF900895EF2841F482E090E0F801918305
:10547000808384EF9FEFEECFF9800E94381E4F2D7E
:1054800050E0BE016E5F7F4F0E941F4089810E94E5
:10549000A71E81E090E0F8019183808390E080E096
:1054A000D9CF8DEB99E29093A8048093A704089537
:1054B0008091A7049091A80408950895FC01118299
:1054C0001082938382830895DB011D921C92DC017C
:1054D0001296ED91FC9113977183608313967C93E0
:1054E0006E9312970895FC0180819181DB018D9369
:1054F0009C93A081B181109741F08D919C919183F3
:105500008083892B11F4F383E2830895FC01808169
:105510009181DB018D939C93892B11F473836283BA
:10552000718360830895FC011182108293838283CA
:105530000895CF93DF931F921F92CDB7DEB71A82E3
:105540001982F894BE016F5F7F4F8EEA94E0CBDF43
:1055500089819A81009709F017D389819A81892BD3
:1055600089F7BE016F5F7F4F82EB94E0BCDF8981DA
:105570009A81009709F008D389819A81892B89F74C
:1055800078940F900F90DF91CF910895CF93DF9390
:105590001F921F92CDB7DEB71A821982F894BE010E
:1055A0006F5F7F4F8AEA94E09EDF89819A8100973E
:1055B00009F0EAD289819A81892B89F778940F9032
:1055C0000F90DF91CF91089581E0089590E080E001
:1055D0000895EF92FF920F931F93CF93DF931F9243
:1055E0001F92CDB7DEB71A8219828091A90407EF06
:1055F0001FEF8823A1F1F894BE016F5F7F4F82EB0C
:1056000094E071DF789489819A81EE24E394F12CFF
:10561000892B51F4F894BE016F5F7F4F8EEA94E0BE
:1056200062DF7894F12CE12C89819A810EEF1FEFD3
:105630000097A9F0FC014281538164E070E076D6C6
:105640008C01892B61F0F89469817A81C701880FF8
:10565000991F880F991F82559B4F58DF7894C80176
:105660000F900F90DF91CF911F910F91FF90EF90CE
:1056700008950F931F93CF93DF9300D01F92CDB760
:10568000DEB71C821B821A8219828091A90407EF5F
:105690001FEF8823C1F0AE014D5F5F4F64E070E003
:1056A000CE010196B6D68C01892B69F4E981FA8185
:1056B0008B819C8193838283F89469817A818AEAC1
:1056C00094E002DF7894C8010F900F900F900F9034
:1056D000DF91CF911F910F910895BBD70496089544
:1056E0008F929F92AF92BF92CF92DF92EF92FF92F2
:1056F0000F931F93CF93DF931F921F92CDB7DEB707
:105700001A821982BC016F5F7F4F6330710598F078
:10571000AA24AA94BA2CC5010F900F90DF91CF91C3
:105720001F910F91FF90EF90DF90CF90BF90AF90BF
:105730009F908F9008954115510551F348015901EB
:105740008A016C01CADF8815990511F7E114F1048B
:10575000F9F28E0D9F1DA816B906D0F28091A9040A
:105760008823F1F0F894B501645071099701AE01F6
:105770004F5F5F4FC8010496E1D65C01892B71F43D
:1057800089819A81F80193838283C601880F991FCA
:10579000880F991FB80182559B4F96DE7894BBCF36
:1057A00087EFA82EBB24BA94B6CFAF92BF92CF9208
:1057B000DF92EF92FF920F931F93CF93DF931F928D
:1057C0001F92CDB7DEB71A821982892B09F047C024
:1057D0006115710509F443C04115510509F43FC035
:1057E0002115310509F43BC001151105C1F1809166
:1057F000A9048823B9F179016A015B01F894BE011B
:105800006F5F7F4F8AEA94E06EDE789489819A8197
:10581000009759F1DC0112966D917C91A8010496D4
:10582000A6D68C01E981FA81D501ED93FC938281A2
:1058300093810496F601918380834FDFD7018D9386
:105840009C93C8010F900F90DF91CF911F910F9102
:10585000FF90EF90DF90CF90BF90AF9008950FEF43
:105860001FEFEFCF07EF1FEFECCF0EEF1FEFE9CFEA
:10587000CF93DF93EC01672B71F4F4D68C179D075F
:1058800060F0E7D62496C80FD91FE6D68C0F9D1F6F
:10589000DF91CF910895E3D6F1CF90E080E0F8CF8B
:1058A0000F931F93CF93DF932091A90421112BC055
:1058B0008B01EC018EEA94E001DE82EB94E0FEDDE8
:1058C0008AEA94E0FBDD97D00097C1F4CBD670E074
:1058D00060E0CEDF45EC52E062E070E081D10097FD
:1058E00069F48091C5029091C602CED6B801CE016E
:1058F00003D5009719F421E02093A904DF91CF91FB
:105900001F910F91089584EF9FEFF8CFA8C6AAC604
:10591000CF93DF93AAD6EC01892B11F40ADE36DE91
:10592000CE01DF91CF910895CF93DF939ED6EC0106
:10593000892B09F4FEDDCE01DF91CF91089580918E
:10594000C5029091C6020895CF93DF938091A90478
:10595000D0E0C0E08823D1F09CD6EC01892BB1F4D3
:10596000E8DD14DE8091C5029091C602E7D1E8D24D
:10597000EC01892B59F48EEA94E0D5DD82EB94E0BA
:10598000D2DD8AEA94E0CFDD1092A904CE01DF9146
:10599000CF910895EF92FF920F931F93CF93DF93D0
:1059A000EC017A018B010F5F1F4F0E9DA0010F9D2F
:1059B000500D1E9D500D112470E060E00E942840A3
:1059C00090E080E0F0E0E0E02FEFE816F90639F42F
:1059D000DF91CF911F910F91FF90EF9008951A8260
:1059E00019822883309711F0D283C1830196FE017A
:1059F000C00FD11FEACFCF92DF92EF92FF920F93A9
:105A00001F93CF93DF9309EB17E00C7F43E050E047
:105A100067EC72E08DEC92E01CD487ECE82E82E01B
:105A2000F82E9DECC92E92E0D92EC8E5D8E0D7011A
:105A30004D915D917D01F601619171916F01198325
:105A400008835D834C835B834A837F836E839B01E2
:105A50002F5F3F4F249FC001259F900D349F900DD5
:105A60001124998788870115110511F0C80192DF6B
:105A700088859985080F191F2A96FDECEF16F2E02C
:105A8000FF06A9F6E8EBF4E08EEF92E0DF019C015F
:105A90001D9221503040E1F71092B7041092B604E5
:105AA000109277081092760810927B0810927A086C
:105AB000109279081092780810927D0810927C0854
:105AC00010927F0810927E08109281081092800830
:105AD0001092850810928408109283081092820810
