:1000000005C100000C944D330C9478330C94A33349
:100010000C94CE330C94F9330C9424340C944F3458
:100020000C947A3424C1000022C1000020C10000D9
:100030001EC100001CC100001AC1000018C1000050
:1000400016C1000014C1000012C1000010C1000060
:100050000EC100000CC100000AC100000C94A534C0
:1000600006C100000C9479380C94AF3800C1000030
:10007000FEC00000FCC00000FAC00000F8C0000094
:10008000F6C00000F4C00000F2C00000F0C00000A4
:100090000C9405390C943B39EAC00000E8C000001C
:1000A000E6C00000E4C00000E2C00000E0C00000C4
:1000B000DEC00000DCC00000DAC00000D8C00000D4
:1000C000D6C00000D4C000000C94CB2E0C94913903
:1000D0000C94C739CCC000000C941D3A0C94533AD0
:1000E000C6C0000000000A0B02090C0D0E08070331
:1000F00004010000000000000000000000000000FB
:1001000000000000000000000000000000000000EF
:1001100012111000000000000000000000000000AC
:100120000000000000000000000001021020200874
:100130000810204010204080020102010804020142
:1001400001020408102040808040201008040201B1
:10015000800402018040201008040201080402010A
:100160000102040810204080010204081020408091
:1001700005050505070508080808020202020A0A23
:100180000808040404040101010101010101030341
:10019000030303030303040707070C0C0C0C0C0CEC
:1001A0000C0C0202020206060606060606060B0BE9
:1001B0000B0B0B0B0B0B000020002300260029006B
:1001C0002C002F003200000100000301060109018C
:1001D00000002200250028002B002E0031003400F2
:1001E00002010000050108010B01000021002400AC
:1001F00027002A002D003000330001010000040117
:1002000007010A01D8386439F0397C3A11241FBE3D
:10021000CFEFD1E2DEBFCDBF00E00CBF13E0A0E026
:10022000B2E0EEE9F6E700E00BBF02C007900D92E6
:10023000A633B107D9F72BE0A6E3B3E001C01D92C6
:10024000A434B207E1F711E0C6E0D1E000E006C057
:1002500021970109802FFE010E941C3BC230D1076B
:1002600080E00807A9F70E94EA2F0C944D3BC8CE06
:10027000FC01A781B0858C9191858923A481B581EA
:100280009C9140815181628173812681922359F032
:1002900081110BC04F5F5F4F6F4F7F4F4083518382
:1002A0006283738308958111F5CF4150510961092B
:1002B0007109F4CF87E393E0DBCF82E493E0D8CFFA
:1002C0008DE493E0D5CF88E593E0D2CFFC01A48103
:1002D000B5818C9196818923A781B0859C914081BD
:1002E0005181628173812185922359F0882359F0CD
:1002F0004F5F5F4F6F4F7F4F4083518362837383A4
:1003000008958823A9F34150510961097109F4CF77
:1003100087E393E0DBCF82E493E0D8CF8DE493E0F2
:10032000D5CF88E593E0D2CF0F931F93CF93DF9380
:10033000D82FC62F8A01A09136038BE0A89FD00149
:100340001124A95CBC4F1D921D921D921C92139703
:1003500081E01A968C931A978D2F90E0FC01E65D50
:10036000FE4FE4911696EC931697FC01E059FE4F70
:10037000E491F0E0EE0FFF1FEA54FE4F8591949157
:1003800015969C938E931497862F90E0FC01E65D62
:10039000FE4FE4911996EC931997FC01E059FE4F3A
:1003A000E491F0E0EE0FFF1FEA54FE4F8591949127
:1003B00018969C938E93179760E08D2F0E94E636D7
:1003C00060E08C2F0E94E63680913603813009F47C
:1003D0003FC0A8F0823009F462C0833009F486C0BF
:1003E0008091360391E0980F90933603F801808353
:1003F00090E080E0DF91CF911F910F91089580E010
:10040000D23049F081E0D33031F08EEE8D0F843060
:10041000D8F487E18D1B41E050E06AE571E00E946D
:10042000D33280E0C23049F081E0C33031F08EEE4B
:100430008C0F843058F487E18C1B41E050E068E871
:1004400071E00E94D332CCCF8FEFE5CF8FEFF5CFA5
:1004500080E0D23049F081E0D33031F08EEE8D0F64
:100460008430C8F487E18D1B41E050E06DE571E018
:100470000E94D33280E0C23049F081E0C33031F0D5
:100480008EEE8C0F843048F487E18C1B41E050E005
:100490006BE871E0D6CF8FEFE7CF8FEFF7CF80E03B
:1004A000D23049F081E0D33031F08EEE8D0F8430C0
:1004B000C8F487E18D1B41E050E060E671E00E94E6
:1004C000D33280E0C23049F081E0C33031F08EEEAB
:1004D0008C0F843048F487E18C1B41E050E06EE8DB
:1004E00071E0AFCF8FEFE7CF8FEFF7CF80E0D23063
:1004F00049F081E0D33031F08EEE8D0F8430C8F4B6
:1005000087E18D1B41E050E063E671E00E94D33249
:1005100080E0C23049F081E0C33031F08EEE8C0FC4
:10052000843048F487E18C1B41E050E061E971E0E0
:1005300088CF8FEFE7CF8FEFF7CF9BE0899FF00158
:100540001124E95CFC4F80819181A281B381FB0180
:1005500080839183A283B38390E080E008959BE041
:10056000899FF0011124E95CFC4F108211821282F4
:10057000138290E080E0089590E080E00895CF92AB
:10058000DF92EF92FF92CF93882351F16A017B01B2
:10059000CFEFC80F20E030E0A901CB01B6010E94E7
:1005A000D83018168CF0C701B60190580E94493116
:1005B0009B01AC016C2F70E090E080E0CF91FF9048
:1005C000EF90DF90CF90B2C0C701B6010E944431D6
:1005D0008C2FCF91FF90EF90DF90CF900C94AC35A3
:1005E000CF91FF90EF90DF90CF9008950F931F93DE
:1005F0008B019C0183E036952795179507958A9581
:10060000D1F70D591C4F462F477021E030E0F9011A
:1006100002C0EE0FFF1F4A95E2F7AF01F8012081FB
:100620002423CB010196211102C090E080E01F91AC
:100630000F9108950F931F938B019C0183E03695D2
:100640002795179507958A95D1F7677081E090E017
:1006500001C0880F6A95EAF7F801ED59FC4F208137
:10066000452B31F48095822380831F910F9108954B
:10067000822BFACF2F923F924F925F926F927F928E
:100680008F929F92AF92BF92CF92DF92EF92FF92A2
:100690000F931F93CF93DF93D62EC72E782E692EFC
:1006A00049015A01280161E08D2D0E94E636CD2DC9
:1006B000DC2D8E010F5F1F4FA8016D2D7C2D872D26
:1006C000962DB8DF20E030E0A901C201B7010E94F9
:1006D0002732181664F4C201B7010E9449312B0178
:1006E000C501B4010E944931A201CE0123D0C80145
:1006F000DF91CF911F910F91FF90EF90DF90CF90FE
:10070000BF90AF909F908F907F906F905F904F9031
:100710003F902F900895882341F08150682F70E01A
:1007200090E080E050E040E085CF0895862FB90149
:100730000C94AC359C01FC01EC51FF4FE491E1506D
:10074000E231E0F4F0E08827E755FC4F8F4F0C943E
:100750001C3BBB03C203C503DC03F103BE03060459
:10076000120416042D04420457046E048304BE03CD
:100770009804AF04C40484B5806884BD60E0822F0F
:100780000C94223784B58062F8CF809180008C7FF2
:1007900082608093800080918100807E8061682BE0
:1007A0006093810050938700409386008091800081
:1007B000806880938000E2CF809180008C7F82608F
:1007C0008093800080918100807E8061682B60939F
:1007D0008100509387004093860080918000806262
:1007E000E8CF809180008C7F826080938000809130
:1007F0008100807E8061682B609381005093870028
:1008000040938600809180008860D3CF8091B000B3
:1008100080688093B0008091B100887F682B6093DE
:10082000B100ACCF8091B0008062F3CF8091900096
:100830008C7F82608093900080919100807E8061A7
:10084000682B60939100509397004093960080919D
:10085000900080688093900091CF809190008C7F71
:1008600082608093900080919100807E8061682BEF
:100870006093910050939700409396008091900070
:100880008062E8CF809190008C7F8260809390009E
:1008900080919100807E8061682B609391005093DD
:1008A000970040939600809190008860D3CF80910C
:1008B000A0008C7F82608093A0008091A100807E48
:1008C0008061682B6093A1005093A7004093A6001D
:1008D0008091A00080688093A00050CF8091A000FC
:1008E0008C7F82608093A0008091A100807E8061D7
:1008F000682B6093A1005093A7004093A6008091BD
:10090000A0008062E8CF8091A0008C7F82608093FD
:10091000A0008091A100807E8061682B6093A1007F
:100920005093A7004093A6008091A0008860D3CF89
:10093000809120018C7F8260809320018091210131
:10094000807E8061682B6093210150932701409342
:100950002601809120018068809320010FCF809133
:1009600020018C7F82608093200180912101807E14
:100970008061682B609321015093270140932601E9
:10098000809120018062E8CF809120018C7F82607D
:100990008093200180912101807E8061682B60938B
:1009A0002101509327014093260180912001886006
:1009B000D3CF90E080E008950F931F93009709F440
:1009C00089C06115710509F485C000916902109113
:1009D0006A0220916B0230916C020E3F1F4F2F4F25
:1009E0003F4F09F068C04FEF5FEFBA0140936902D3
:1009F00050936A0260936B0270936C02409169029B
:100A000050916A0260916B0270916C02DC01129647
:100A1000ED91FC9180819181A281B3818093E20369
:100A20009093E303A093E403B093E503848195815D
:100A3000A681B7818093DE039093DF03A093E00348
:100A4000B093E10380859185A285B3858093DA0315
:100A50009093DB03A093DC03B093DD03848595853D
:100A6000A685B7858093D6039093D703A093D80328
:100A7000B093D9031092D2031092D3031092D403EF
:100A80001092D5030E94B11286ED92E190936D030E
:100A900080936C0390936F0380936E030E94A01168
:100AA000009731F421E030E03093E7032093E60330
:100AB0001F910F9108950091690210916A0220918F
:100AC0006B0230916C02DB010D931D932D933C93CF
:100AD000139794CF8FEF9FEFEBCF8F929F92AF92B0
:100AE000BF92CF92DF92EF92FF921F93CF93DF934B
:100AF0004B015C011091E90382E090E09093E703E1
:100B00008093E60381149104A104B10441F480911F
:100B1000E903811104C08091E803C1E08111C0E0C4
:100B2000C12CD12C76018091E903811106C08091FE
:100B3000E803811102C0CC23D9F083E090E09093C8
:100B4000E7038093E603CC2381F1CCE9DFEF1111B9
:100B500002C00E943A16CE01DF91CF911F91FF9003
:100B6000EF90DF90CF90BF90AF909F908F900895BF
:100B70006AE070E080E090E00E94143580E1C80EE9
:100B800087E2D81EE11CF11C8FEF88169806A80694
:100B9000B80631F0C1E08C149D04AE04BF0408F027
:100BA000C0E080E00E94D411BECFD0E0C0E0CFCF43
:100BB000CF92DF92EF92FF920F931F93CF93DF9329
:100BC0008F3F910511F008F051C02091E60330915C
:100BD000E7032330310539F02091E6033091E70334
:100BE0002130310531F424E030E03093E7032093E5
:100BF000E6036A017B01EC0182309105A8F011E067
:100C0000AE01C701B6010E949F11AB01BC01CE012C
:100C10001123F9F0DF91CF911F910F91FF90EF9089
:100C2000DF90CF900C9463188C01000F111F0459B2
:100C30001C4FD8018D919C91892B09F30E946D184E
:100C40000297E9F6D801ED91FC91CE011995182F84
:100C5000D7CF0E94851890E080E0DF91CF911F915F
:100C60000F91FF90EF90DF90CF9008958FEF9FEF5F
:100C7000F4CF80E00C94D411CF93DF9386E090E022
:100C80009093E7038093E6030E942D12EC01ECE6BB
:100C9000F3E084E0DF011D928A95E9F70E94D21506
:100CA0001092E7031092E603CE01DF91CF910895F1
:100CB0008091E80308958091D103089560936902BB
:100CC00070936A0280936B0290936C0290E080E0D4
:100CD00008952F923F924F925F926F927F928F92E0
:100CE0009F92AF92BF92CF92DF92EF92FF920F93BB
:100CF0001F93CF93DF93CDB7DEB7CB54D1090FB697
:100D0000F894DEBF0FBECDBF26967FAF6EAF26979D
:100D100028965FAF4EAF28973E8B2D8B2C96FFAE5B
:100D2000EEAE2C97FB01E150F04CEE0FFF1FEE0FE3
:100D3000FF1FE80FF91F80809180A280B3808F8A07
:100D4000988EA98EBA8EB501A401442777FD4395EC
:100D500055276627772729964FAF2997F901E15044
:100D6000F04CEE0FFF1FEE0FFF1F2896AEACBFAC8E
:100D70002897EA0DFB1DC080D180E280F380CB8EE6
:100D8000DC8EED8EFE8EB701A601442777FD4395DC
:100D90005527662777272A964FAF2A97188B0F87F4
:100DA000F80130E020E02C96EEACFFAC2C972E152D
:100DB0003F050CF43FC022969FAF8EAF22971A8B4F
:100DC000098B312C212C812C912C540183948D8200
:100DD0009E82AF82B88626968EAC9FAC269728144A
:100DE00039047CF129969FAC29972A96AFAC2A97B3
:100DF00030E020E041E050E060E070E09A10F5C1A2
:100E0000C55BDF4F0FB6F894DEBF0FBECDBFDF91DD
:100E1000CF911F910F91FF90EF90DF90CF90BF90F7
:100E2000AF909F908F907F906F905F904F903F908A
:100E30002F90089511921192119211922F5F3F4FAE
:100E4000B2CF2296EEADFFAD229781919191A19103
:100E5000B1912296FFAFEEAF22978F88988CA98C24
:100E6000BA8CB7FE23C04D815E816F817885415079
:100E70005109610971095A016B01A81AB90ACA0A14
:100E8000DB0AD601C50121E0CD80DE80EF80F88449
:100E90008C159D05AE05BF0508F020E0822E912C33
:100EA000B12CA12C8D829E82AF82B8865D01CC24AC
:100EB000DD24A8A2B9A2CAA2DBA29C01AD014427ED
:100EC00055272CA33DA34EA35FA32C96EEADFFADFB
:100ED0002C97E219F3098D889E888E169F060CF4D4
:100EE000F4012896AEACBFAC28972496BFAEAEAE48
:100EF0002497C988DA88DC8ACB8A1E861D86812CD5
:100F0000912C5401839489869A86AB86BC86812C69
:100F1000912C5401CD84DE84CE16DF0604F1F7FF58
:100F200002C0F0E0E0E0E20DF31D2C96EEACFFAC69
:100F30002C97EE15FF0554F4EE0FFF1FEE0FFF1F69
:100F4000E00FF11F80829182A282B3822FEF221ADA
:100F5000320AE989FA893496FA8BE98B3CCF2496D8
:100F6000AEADBFAD2497CD90DD90ED90FD90249671
:100F7000BFAFAEAF24972B8D3C8D4D8D5E8D57FF4F
:100F800022C089859A85AB85BC850197A109B109E5
:100F9000AC01BD014C195D096E097F096A017B0135
:100FA00081E029853A854B855C85C216D306E40627
:100FB000F50608F080E0482F50E070E060E04987D7
:100FC0005A876B877C87B7018827992768A779A7F5
:100FD0008AA79BA7EE24FF2428A139A14AA15BA1DF
:100FE000C701B6010E94D73A2B013C012CA13DA1BB
:100FF0004EA15FA168A579A58AA59BA50E94D73AB5
:101000006CA77DA78EA79FA7AB89BC894D915D91E9
:101010006D917D91BC8BAB8BDB01CA01880D991D55
:10102000AA1DBB1D89839A83AB83BC8391E09F8FEC
:1010300029813A814B815C81281539054A055B0578
:1010400008F01F8E2CA13DA14EA15FA1C701B601E2
:101050000E94D73A6B017C0189809A80AB80BC806A
:101060008C0C9D1CAE1CBF1C89829A82AB82BC82F8
:1010700052019924882488AA99AAAAAABBAA2981DC
:101080003A814B815C81280D391D4A1D5B1D2CABBB
:101090003DAB4EAB5FAB8CA49DA4AEA4BFA45401EA
:1010A0009924882488AE99AEAAAEBBAE280D391D0E
:1010B0004A1D5B1D2CAF3DAF4EAF5FAFAB89BC8906
:1010C00014972D933D934D935C93139728A139A1C9
:1010D0004AA15BA168A579A58AA59BA50E94D73ADC
:1010E0009F8C690D711D811D911D2301662477243C
:1010F000460E571E681E791E2CA53DA54EA55FA560
:101100004A01AA24BB24840C951CA61CB71C81E0B0
:1011100090E0A0E0B0E049815A816B817C814C1560
:101120005D056E057F0518F080E090E0DC01880D1C
:10113000991DAA1DBB1D41E050E060E070E088A849
:1011400099A8AAA8BBA8CCA8DDA8EEA8FFA8C81497
:10115000D904EA04FB0418F040E050E0BA01840F1F
:10116000951FA61FB71F812C912C54018394C8ACE6
:10117000D9ACEAACFBAC2CAD3DAD4EAD5FAD2C15A2
:101180003D054E055F0518F0812C912C5401880E09
:10119000991EAA1EBB1E4D855E854F5F5F4F5E8701
:1011A0004D87B8CEEF85F889C190D190E190F1904C
:1011B000F88BEF87DB01CA010197A109B1098C19EE
:1011C0009D09AE09BF09349780839183A283B383BD
:1011D000E1E084179507A607B70708F0E0E04E2F77
:1011E00050E070E060E02F5F3F4F2C968EAC9FACDC
:1011F0002C9728153905B4F203CE2F923F924F92C7
:101200005F926F927F928F929F92AF92BF92CF9296
:10121000DF92EF92FF920F931F93CF93DF9300D053
:101220001F92CDB7DEB78B015C834B83FB01E1508E
:10123000F04CEE0FFF1FEE0FFF1FE80FF91F40816C
:1012400051816281738177FD27C04C01B12CA12CA3
:10125000C12CD12C7601A016B10664F5F401619180
:101260007191819191914F010E9475314B815C8107
:101270000E942D329B01AC01C701B6010E9474305F
:101280006B017C012B813C81205E3F4F3C832B8393
:101290003FEFA31AB30ADFCF9A838983312C212C25
:1012A00081E090E0A0E0B0E0C12CD12C76012016C6
:1012B0003106CCF0C701B6010F900F900F900F9040
:1012C000DF91CF911F910F91FF90EF90DF90CF9022
:1012D000BF90AF909F908F907F906F905F904F9056
:1012E0003F902F900895E981FA814190519061904B
:1012F0007190FA83E9834094509460947094530100
:101300004201880E991EAA1EBB1EC501B4010E948F
:1013100075314B815C810E942D329B01AC01C7016C
:10132000B6010E9473306B017C0181E08414950446
:10133000A604B70408F080E090E0B0E0A0E02B81C4
:101340003C81205E3F4F3C832B833FEF231A330ABF
:10135000AECF2F923F924F925F926F927F928F9279
:101360009F92AF92BF92CF92DF92EF92FF920F9334
:101370001F93CF93DF93CDB7DEB7A4970FB6F89442
:10138000DEBF0FBECDBFC0904002D0904102E090C2
:101390004202F0904302A70196016091F70A709112
:1013A000F80A8091F90A9091FA0A0E94D8308823AD
:1013B00041F0C092F70AD092F80AE092F90AF0924E
:1013C000FA0A8091F60A81111092F60A68EE7AE024
:1013D0008091FB0AB2D8C0903C02D0903D02E090D0
:1013E0003E02F0903F02A70196016091030B7091BD
:1013F000040B8091050B9091060B0E94D830882336
:1014000041F0C092030BD092040BE092050BF092D6
:10141000060B8091020B81111092020B6CEE7AE0A8
:101420008091070B8AD88091E80A9091E90AA091EF
:10143000EA0AB091EB0A8093E00A9093E10AA09344
:10144000E20AB093E30A4091EC0A5091ED0A6091F0
:10145000EE0A7091EF0A4093E40A5093E50A609314
:10146000E60A7093E70A4091640250916502609128
:1014700066027091670249875A876B877C878D87E0
:101480009E87AF87B88B62E0E62EF12C8E010F5F4E
:101490001F4F21E030E0AE01435F5F4F61E070E03D
:1014A000CE01099616DC88E0F801A4EABAE00190C2
:1014B0000D928A95E1F760916802062E000C770B79
:1014C000880B990B0E94773120E030E040E850E42F
:1014D0000E9461324B015C0150E040E062E070E04C
:1014E000C8018BDE20E030E040E05AE20E94613229
:1014F000A50194010E9461326D8F7E8F8F8F98A31A
:101500002091280B3091290B40912A0B50912B0BE5
:101510000E9473306093B40A7093B50A8093B60A40
:101520009093B70A8091E40A9091E50AA091E60AA7
:10153000B091E70A8D879E87AF87B88B21E030E0B6
:10154000AE01435F5F4F61E070E0CE010996C1DB01
:1015500088E0F801ACEABAE001900D928A95E1F7D3
:1015600050E040E062E070E0C80147DE20E030E09B
:1015700040E05AE20E946132A50194010E9461326A
:1015800069A37AA38BA39CA320912C0B30912D0BE4
:1015900040912E0B50912F0B0E947330698F7A8FE0
:1015A0008B8F9C8F6093B80A7093B90A8093BA0AA4
:1015B0009093BB0AE090300BF090310B4090A00369
:1015C0005090A1036090A2037090A303D701589696
:1015D0008D909D90AD90BC905B97A3019201C50149
:1015E000B4010E94D83087FF24C21092BC0A109226
:1015F000BD0A1092BE0A1092BF0AA090BC0AB09019
:10160000BD0A0091BE0A1091BF0AC501D80180939E
:10161000C00A9093C10AA093C20AB093C30A8091F2
:10162000B40A9091B50AA091B60AB091B70A809316
:10163000C40A9093C50AA093C60AB093C70A898DBD
:101640009A8DAB8DBC8D8093C80A9093C90AA093E4
:10165000CA0AB093CB0AC501D8018093CC0A9093F3
:10166000CD0AA093CE0AB093CF0AC0904402D09086
:101670004502E0904602F0904702A7019601B501AD
:10168000C8010E942732181694F0C0904802D090EA
:101690004902E0904A02F0904B02A7019601B50181
:1016A000C8010E94D83087FD02C065017801E89426
:1016B000F7F8C092D00AD092D10AE092D20AF09202
:1016C000D30A6AE070E080E090E00E94F6028C01AC
:1016D00090930F0B80930E0BC090D00AD090D10A3C
:1016E000E090D20AF090D30A20E030E04FE753E4D4
:1016F000C701B6010E94D83018160CF496C220E03B
:1017000030E0A901C701B6010E94273287FD94C2CB
:10171000B701A601C8010E94BF02A090BC0AB09008
:10172000BD0A0091BE0A1091BF0AC0904C02D09031
:101730004D02E0904E02F0904F02A7019601B501D4
:10174000C8010E942732181694F0C0905002D09021
:101750005102E0905202F0905302A7019601B501A8
:10176000C8010E94D83087FD02C065017801E89465
:10177000F7F8C092D40AD092D50AE092D60AF09235
:10178000D70A68E070E080E090E00E94F6028C01E9
:101790009093170B8093160BC090D40AD090D50A63
:1017A000E090D60AF090D70A20E030E04FE753E40B
:1017B000C701B6010E94D83018160CF441C220E0CF
:1017C00030E0A901C701B6010E94273287FD3FC260
:1017D000B701A601C8010E94BF02C090BC0AD09008
:1017E000BD0AE090BE0AF090BF0A8090540290902B
:1017F0005502A0905602B0905702A5019401C7016E
:10180000B6010E94273218160CF025C28092D80A21
:101810009092D90AA092DA0AB092DB0A6BE070E0EB
:1018200080E090E00E94F6028C0190931F0B809361
:101830001E0BC090D80AD090D90AE090DA0AF09036
:10184000DB0A20E030E04FE753E4C701B6010E9415
:10185000D83018160CF418C220E030E0A901C701F6
:10186000B6010E94273287FD16C2B701A601C80142
:101870000E94BF02C090BC0AD090BD0AE090BE0A90
:10188000F090BF0A80905C0290905D02A0905E0292
:10189000B0905F02A5019401C701B6010E942732F2
:1018A00018160CF0FCC18092DC0A9092DD0AA0921E
:1018B000DE0AB092DF0A69E070E080E090E00E940A
:1018C000F6028C019093270B8093260BC090DC0AC4
:1018D000D090DD0AE090DE0AF090DF0A20E030E0F0
:1018E0004FE753E4C701B6010E94D83018160CF434
:1018F000EFC120E030E0A901C701B6010E94273204
:1019000087FDEDC1B701A601C8010E94BF028D8D00
:101910009E8DAF8DB8A18093280B9093290BA09337
:101920002A0BB0932B0B89A19AA1ABA1BCA18093E8
:101930002C0B90932D0BA0932E0BB0932F0BC090DC
:10194000A403D090A503E090A603F090A7039FEF17
:10195000C91AD90AE90AF90AC092A403D092A503C8
:10196000E092A603F092A703C114D104E104F104AC
:1019700099F48091A8039091A903A091AA03B09132
:10198000AB030196A11DB11D8093A8039093A903F9
:10199000A093AA03B093AB038090AC039090AD03E7
:1019A000A090AE03B090AF036091A8037091A9031B
:1019B0008091AA039091AB030E947531A501940117
:1019C0000E94613220E030E040E85FE40E94613232
:1019D0002B013C01C701B6010E947531A50194019C
:1019E0000E9461329B01AC01C301B2010E947430BC
:1019F0006093A0037093A1038093A2039093A30329
:101A0000A4960FB6F894DEBF0FBECDBFDF91CF9185
:101A10001F910F91FF90EF90DF90CF90BF90AF900C
:101A20009F908F907F906F905F904F903F902F90FE
:101A30000895A3019201F7016081718182819381F0
:101A40000E94273210E000E087FF38C0A301920116
:101A5000C501B4010E94D83005E010E0181674F5F5
:101A600000913A0B10913B0B6801CC0CDD1CCC0CA7
:101A7000DD1C5701AC0CBD1CA3019201D5016D9179
:101A80007D918D919C910E942732B4E0CB0ED11CA8
:101A9000CE0CDF1C18160CF05DC0E4E0AE1AB108E5
:101AA000A3019201D50114966D917D918D919C9128
:101AB00017970E94273218160CF447C02090320B5B
:101AC0003090330B10933B0B00933A0B000F111F18
:101AD000000F111FF701E00FF11F80809180A2809D
:101AE000B380C80104969A8B898BFC01EE0DFF1D13
:101AF00080819181A281B3818D8B9E8BAF8BB88FBA
:101B00009C01AD01C501B4010E94D83081112FC0E4
:101B1000A5019401C301B2010E94D830020D131D2A
:101B2000F80187FD05C089899A89280E391EF101BF
:101B300080819181A281B3818093BC0A9093BD0A78
:101B4000A093BE0AB093BF0A58CD01501109A5CF8A
:101B50000F5F1F4FF60161917191819191916F011A
:101B6000A30192010E94D830181694F7A7CF020D56
:101B7000131DD801CD90DD90ED90FC90E989FA8994
:101B80002E0E3F1ED1018D919D910D90BC91A02DE7
:101B9000898B9A8BAB8BBC8B9C01AD01C701B601C5
:101BA0000E94D8308823C1F1A30192016D897E89FA
:101BB0008F89988D0E9473302B013C01A5019401FF
:101BC0006D897E898F89988D0E9473309B01AC014D
:101BD000C301B2010E94DC304B015C01AC019B01EE
:101BE00060E070E080E89FE30E94733029893A89C1
:101BF0004B895C890E9461322B013C01A70196014F
:101C0000C501B4010E9461329B01AC01C301B20164
:101C10000E9474306B017C01C092BC0AD092BD0A54
:101C2000E092BE0AF092BF0AE8CCC12CD12C3FE76B
:101C3000E32E33E4F32E6CCDC12CD12C760168CD8C
:101C4000C12CD12C2FE7E22E23E4F22EC1CDC12CE2
:101C5000D12C7601BDCD8090580290905902A09071
:101C60005A02B0905B02A5019401C701B6010E941F
:101C7000D83087FDCBCDC092D80AD092D90AE09255
:101C8000DA0AF092DB0ACACDC12CD12C9FE7E92EEB
:101C900093E4F92EEACDC12CD12C7601E6CD8090CB
:101CA000600290906102A0906202B0906302A50170
:101CB0009401C701B6010E94D83087FDF4CDC092CF
:101CC000DC0AD092DD0AE092DE0AF092DF0AF3CD60
:101CD000C12CD12C8FE7E82E83E4F82E13CEC12C33
:101CE000D12C76010FCE4F925F926F927F92AF927E
:101CF000BF92DF92EF92FF920F931F93CF93DF93E8
:101D0000EAE8F3E08BE2DF011D928A95E9F780E0D3
:101D100090E0A0E2B1E486A397A3A0A7B1A78AE0D0
:101D200097EDA3E2BCE382A393A3A4A3B5A383EAA4
:101D300090E8A6ECB6E984839583A683B78381E215
:101D40009FE4A9E6B5EB80879187A287B38782EAF3
:101D50009AEBA1E2BCEC84879587A687B7878BEDC9
:101D600091EEA2E0B4E9808B918BA28BB38BAEE7AE
:101D7000B3E0B383A283E0E7F3E01196FC93EE9324
:101D800082EA92E091838083938382839583848324
:101D900097838683918780879387828795878487B7
:101DA0008EE993E015969C938E9314978EE893E0BA
:101DB00013969C938E93129780EA93E017969C93C8
:101DC0008E931697E4EAFAE08CE4DF011D928A957F
:101DD000E9F7C0EFDAE082E5FE0111928A95E9F7B2
:101DE000DD24D394D092400B88E3A82E82E0B82E55
:101DF000F50180859185A285B3858F839887A98712
:101E0000BA87412C512C3201439449825A826B8209
:101E10007C824BEF5AE063E182E10E949401DD8213
:101E20001E821F8A1C86D092410BF5018481958108
:101E3000A681B7818B8B9C8BAD8BBE8B4D865E86CE
:101E40006F86788A47E05BE063E082E00E9494015D
:101E5000D98A1A8A8CE192E09093310B8093300BEF
:101E600080E092E09093330B8093320B10923B0B07
:101E700010923A0B188ED0923C0B498E5A8E6B8E74
:101E80007C8EE12CF12C8701A80197016AE070E0BB
:101E900080E090E00E943A039F8F8E8FDD8E18A223
:101EA000D0923D0B49A25AA26BA27CA2A801970135
:101EB00068E070E080E090E00E943A039FA38EA368
:101EC000DDA218A6D0923E0B49A65AA66BA67CA608
:101ED000A80197016BE070E080E090E00E943A0377
:101EE0009FA78EA7DDA618AAD0923F0B49AA5AAA8F
:101EF0006BAA7CAAA801970169E070E080E090E0FD
:101F00000E943A039FAB8EABDDAAF50180819181DF
:101F1000A281B38188AF99AFAAAFBBAF8CAF9DAFA1
:101F2000AEAFBFAF8B850E94AF028F89DF91CF919B
:101F30001F910F91FF90EF90DF90BF90AF907F9037
:101F40006F905F904F900C94AF028091F00A8111D6
:101F500014C081E08093F00A8091F10A9091F20A16
:101F6000A091F30AB091F40A0197A105B10529F4F3
:101F70008091F50A81110E94BC028091FC0A8111B6
:101F800014C081E08093FC0A8091FD0A9091FE0AC2
:101F9000A091FF0AB091000B0197A105B10529F4AA
:101FA0008091010B81110E94BC028091080B81116C
:101FB0002EC081E08093080B8091090B90910A0B51
:101FC000A0910B0BB0910C0B0197A105B105F9F491
:101FD00080910D0B8823D9F06AE070E080E090E0FA
:101FE0000E94F60290930F0B80930E0B40E050E09E
:101FF000BA010E94BF026AE070E080E090E00E94B7
:10200000F60290930F0B80930E0B0E948B0380912E
:10201000100B81112EC081E08093100B8091110B69
:102020009091120BA091130BB091140B0197A10585
:10203000B105F9F48091150B8823D9F068E070E0C0
:1020400080E090E00E94F6029093170B8093160BAD
:1020500040E050E0BA010E94BF0268E070E080E01A
:1020600090E00E94F6029093170B8093160B0E944B
:102070008B038091180B81112EC081E08093180B87
:102080008091190B90911A0BA0911B0BB0911C0B16
:102090000197A105B105F9F480911D0B8823D9F0B2
:1020A0006BE070E080E090E00E94F60290931F0BDE
:1020B00080931E0B40E050E0BA010E94BF026BE02B
:1020C00070E080E090E00E94F60290931F0B8093F6
:1020D0001E0B0E948B038091200B81112EC081E08A
:1020E0008093200B8091210B9091220BA091230BC8
:1020F000B091240B0197A105B105F9F48091250B4E
:102100008823D9F069E070E080E090E00E94F60258
:102110009093270B8093260B40E050E0BA010E9479
:10212000BF0269E070E080E090E00E94F6029093C8
:10213000270B8093260B0C948B0308954F925F928C
:102140006F927F928F929F92AF92BF92CF92DF92C7
:10215000EF92FF920F931F93F8944090C103509019
:10216000C2036090C3037090C403C090B503D090C5
:10217000B603E090B703F090B803452B09F0A4C074
:102180009B01AC01241935094609570929013A0177
:102190000091BD031091BE032091BF033091C00395
:1021A00048015901840C951CA61CB71C8016910689
:1021B000A206B306A0F40091B9031091BA032091CE
:1021C000BB033091BC030F5F1F4F2F4F3F4F009356
:1021D000B9031093BA032093BB033093BC038092DE
:1021E000BD039092BE03A092BF03B092C0030091C2
:1021F000B9031091BA032091BB033091BC038092C4
:10220000C5039092C603A092C703B092C80300937F
:10221000C9031093CA032093CB033093CC0360937C
:10222000C1037093C2038093C3039093C403A0E1DE
:10223000B7E2A30192010E94243B6C0D7D1D8E1D0F
:102240009F1D6093B5037093B6038093B70390937B
:10225000B8030091690210916A0220916B023091DB
:102260006C020F3F1F4F2F4F3F4FF1F0009169025B
:1022700010916A0220916B0230916C020E3F1F4F49
:102280002F4F3F4F89F0C0906902D0906A02E090D2
:102290006B02F0906C0221E08C149D04AE04BF042C
:1022A00008F420E02093D10378941F910F91FF90C0
:1022B000EF90DF90CF90BF90AF909F908F907F90E6
:1022C0006F905F904F9008954B015C0184189508C2
:1022D000A608B708A3019201261B370B480B590B20
:1022E0006415750586059705D0F082169306A40639
:1022F000B50640F420E030E0A90181149104A10466
:10230000B10491F4A0E1B7E20E94243BA701960139
:10231000261B370B480B590BCA01B901C5CF8216D2
:102320009306A406B50670F7A0E1B7E2A5019401F3
:102330000E94243B6C0D7D1D8E1D9F1DB5CFFECED2
:10234000CF93DF9300D01F92CDB7DEB71C821B82E4
:102350001A8219821092CD031092CE031092CF03ED
:102360001092D003BE016F5F7F4FCE0103960E9493
:102370009B2E69817A818B819C810E94892700979D
:1023800061F4BE016F5F7F4FCE0103960E94A72EBE
:1023900069817A818B819C812ED50F900F900F904F
:1023A0000F90DF91CF910895FF920F931F93CF93DA
:1023B000DF93082F60E070E0CB010E941435FF240A
:1023C000F3940E947226EC01892B89F010E0CE3F35
:1023D0008FEFD80769F0002361F160E070E0CB0176
:1023E0000E94143581E090E0892B59F322C011E05E
:1023F00025D5EC01892B21F0CE3F8FEFD80759F777
:1024000011111EC011E0229609F410E00E9422264C
:10241000EC01892B21F0CE3F8FEFD807E1F61111A7
:1024200011C011E0CE3F8FEFD80709F410E0011181
:102430000BC0CE01DF91CF911F910F91FF900895B6
:1024400011E0E4CF11E0F3CF60E070E0CB010E9437
:1024500014351F25812F90E0C7CFCF93DF93809154
:10246000D103882321F060E070E0CB014CD635D653
:10247000D0E0C0E0892B71F06AE070E080E090E08D
:102480000E94143581E090DF28D62196C03D27E0D8
:10249000D20781F727D60E94DD271092E903109218
:1024A000E8031092E2031092E3031092E403109207
:1024B000E5031092DE031092DF031092E003109206
:1024C000E1031092DA031092DB031092DC03109206
:1024D000DD031092D6031092D7031092D803109206
:1024E000D9031092D2031092D3031092D403109206
:1024F000D5034EEF5FEF6FEF7FEF4093690250938C
:102500006A0260936B0270936C021092D103E5EC47
:10251000F3E028E0DF011D922A95E9F71092C1034C
:102520001092C2031092C3031092C4031092BD0311
:102530001092BE031092BF031092C0031092B90311
:102540001092BA031092BB031092BC031092B50311
:102550001092B6031092B7031092B803DF91CF9197
:1025600008951092F5031092F6031092F70310925B
:10257000F8031092F4038091FD039091FE03909371
:10258000F3038093F2031092F1031092F003109280
:10259000EC031092ED031092EE031092EF031092F1
:1025A000FA031092F90390E080E00895CF92DF9251
:1025B000EF92FF920F931F93CF938C01892B09F019
:1025C00055C02091FD033091FE038091F20390915C
:1025D000F3034091FD035091FE035093F3034093A6
:1025E000F2032817390781F01092F1031092F003DB
:1025F0001092EC031092ED031092EE031092EF0391
:102600001092FA031092F9038091FD039091FE035A
:10261000019761F58091F9039091FA03892B21F4D8
:1026200080916D02811112C08091F9039091FA039B
:102630000197E1F48091EC039091ED03A091EE03FA
:10264000B091EF030197A105B10581F41092EC035D
:102650001092ED031092EE031092EF0310926D02B0
:1026600082E090E09093FA038093F9038091FD0358
:102670009091FE03019709F01CC180911304909181
:1026800014048017910709F014C180910F049091F0
:102690001004A0911104B0911204009709F409C12B
:1026A00020910E0421110DC040910F04509110048F
:1026B0006091110470911204452B462B472B09F4AD
:1026C000F8C02091F9033091FA032230310509F066
:1026D000F0C02091F0032111ECC0FC01C080D1803A
:1026E000E280F3808091F403882309F4D3C08091C1
:1026F000000490910104892B09F4FDC0209100048D
:102700003091010481E02230310509F080E0209110
:10271000000430910104C1E02130310549F02091DD
:10272000000430910104C1E02230310509F0C0E01D
:10273000882309F456C020910A0430910B0440917B
:102740000C0450910D04C701B6010E94273287FD89
:1027500014C020910A0430910B0440910C04509154
:102760000D046091F5037091F6038091F703909149
:10277000F8030E94D83087FD22C020910A043091CE
:102780000B0440910C0450910D04C701B6010E9446
:102790002732181634F520910A0430910B04409129
:1027A0000C0450910D046091F5037091F603809133
:1027B000F7039091F8030E94D830811112C08091E4
:1027C000020490910304A0910404B0910504892BA4
:1027D0008A2B8B2B19F481E08093F10381E08093A5
:1027E000F003CC2309F456C020910A0430910B0465
:1027F00040910C0450910D04C701B6010E94D830DD
:1028000087FF14C020910A0430910B0440910C04FE
:1028100050910D046091F5037091F6038091F703D8
:102820009091F8030E94273287FF22C020910A046A
:1028300030910B0440910C0450910D04C701B60176
:102840000E94D830811126C020910A0430910B04D7
:1028500040910C0450910D046091F5037091F603C2
:102860008091F7039091F8030E942732181694F490
:102870008091020490910304A0910404B091050496
:10288000892B8A2B8B2B19F481E08093F10381E053
:102890008093F00381E09091F003911180E08093A8
:1028A000F403C092F503D092F603E092F703F0929E
:1028B000F803012B09F067C18091F9039091FA03A5
:1028C000892BD9F41092FF031092F00380916D02CE
:1028D000882379F082E090E09093FA038093F903E3
:1028E00010926D022091FD033091FE0381E0232BB5
:1028F000E9F080E01BC081E00ACF10926D02809168
:10290000FF03882349F01092F1031092FA0310920A
:10291000F9031092FF03EDCF8091FD039091FE0328
:10292000892BE1F08091F0031092F0032091F903DC
:102930003091FA032230310509F45EC088F4211584
:10294000310509F448C02130310509F4F3C0109273
:10295000F1031092F0031092FF0338C081E0E6CF3C
:102960002330310509F4B1C02430310581F740919D
:10297000EC035091ED036091EE037091EF0341156C
:1029800051056105710561F04150510961097109F5
:102990004093EC035093ED036093EE037093EF03C9
:1029A0004091EC035091ED036091EE037091EF03C1
:1029B000452B462B472BD9F42091FB033091FC0388
:1029C0002130310509F046C01092F1031092FA034C
:1029D0001092F9030CC080916D02882341F082E0CF
:1029E00090E09093FA038093F90310926D02109295
:1029F000EA038091F103CEC08823C9F380910204D9
:102A000090910304A0910404B091050418161906CE
:102A10001A061B060CF07DC08091FD039091FE0309
:102A2000019709F076C08091020490910304A0916F
:102A30000404B09105048093EC039093ED03A093FC
:102A4000EE03B093EF0383E090E09093FA0380935A
:102A5000F903CDCF4091060450910704609108041A
:102A600070910904452B462B472BA9F01092F103D6
:102A70008091060490910704A0910804B091090484
:102A80008093EC039093ED03A093EE03B093EF03D8
:102A900081E090E0DACF882399F080916E029091E6
:102AA0006F02A0917002B09171028093EC03909339
:102AB000ED03A093EE03B093EF0384E090E0C5CF65
:102AC0001092F10382E090E0C0CF8091EC039091EE
:102AD000ED03A091EE03B091EF030097A105B105BE
:102AE00059F00197A109B1098093EC039093ED038C
:102AF000A093EE03B093EF038091EC039091ED036C
:102B0000A091EE03B091EF03892B8A2B8B2B09F058
:102B10006ECF80916E0290916F02A0917002B09181
:102B20007102892B8A2B8B2B09F44ECF81E0809385
:102B3000F103B3CF4091EC035091ED036091EE03AC
:102B40007091EF03411551056105710561F0415028
:102B50005109610971094093EC035093ED036093AF
:102B6000EE037093EF034091EC035091ED036091FD
:102B7000EE037091EF03452B462B472B09F037CF1F
:102B80008111C7CF9FCF8091EA03882309F431CF09
:102B90008091EB03CF911F910F91FF90EF90DF9009
:102BA000CF9008951092F5031092F6031092F70358
:102BB0001092F8031092F4031092FA031092F903A2
:102BC0001092F3031092F203109214041092130463
:102BD0001092F1031092F0031092EC031092ED03A7
:102BE0001092EE031092EF031092EB031092EA039F
:102BF00010920F04109210041092110410921204FB
:102C000010920E0410920A0410920B0410920C04FD
:102C100010920D0488EE93E0A0E0B0E080936E0285
:102C200090936F02A0937002B09371021092060409
:102C300010920704109208041092090410920204E2
:102C400010920304109204041092050410920104DF
:102C50001092000481E080936D021092FF031092A5
:102C6000FE031092FD031092FC031092FB0390E010
:102C700080E008958091FD039091FE03892B19F562
:102C800080916D02882351F08091FF03811106C06D
:102C900081E08093EB038093EA0308952091FF0382
:102CA00030916D0281E090E0332311F090E080E0FC
:102CB00030E082239323892B21F01092EB0381E0F3
:102CC000EACF1092EA03089582E090E0FA0191833E
:102CD00080838FEF9FEF0895CF93DF93EA010097F2
:102CE00011F00E94FD281982188290E080E0DF91A7
:102CF000CF910895DB01009719F48FEF8C9308951D
:102D00002EEF2C93FC013F96EF30F10508F034C014
:102D10008827E257F94E8F4F0C941C3BBA16B81611
:102D2000B616B416B216AE16B016AC16AA16A8167B
:102D3000A516A1169D16A316BC1680E311968C93BA
:102D4000089589E2FBCF82E2F9CF11961C92089593
:102D500083E2F4CF81E2F2CF81E1F0CF87E2EECFE0
:102D60008AE2ECCF80E1EACF84E2E8CF88E2E6CFE6
:102D700086E2E4CF81E3E2CF80E2E0CF80912104DC
:102D80009091220408959093220480932104089541
:102D900080912004089590912004892B8093200431
:102DA0000895982F90958091200489238093200482
:102DB000089580911F04089580911D0490911E0430
:102DC00008956115710559F0FB0130E020E070E0D5
:102DD00060E02417350719F06115710511F0CB017A
:102DE0000895A081B181A817B90709F4BF012F5F29
:102DF0003F4F3696EECF8091230481111CC060D2E4
:102E000066D290931604809315040E94FB200E94C2
:102E10000D2190931A04809319040E948A250E9420
:102E20009125909318048093170481E080932304E4
:102E300090E080E0089584EF9FEF08958F929F9235
:102E4000AF92BF92CF92DF92EF92FF920F931F93B8
:102E5000CF93DF9300D000D000D01F92CDB7DEB764
:102E60001A86198618861F821E821D821C821B826A
:102E70001A8219828091230407EF1FEF882309F437
:102E80009CC08E010D5F1F4F9E012B5F3F4FAE0117
:102E9000495F5F4FBE01675F7F4F90E080E00E9417
:102EA0000E278C01009721F00596029708F0DBC0F1
:102EB00029853A852115310509F402C1ED80FE808E
:102EC0004B815C81B701640F751F8F8198858617D0
:102ED000970708F4F5C0E20EF31ED7019C91903CD1
:102EE00009F07FC04230510508F47BC011968C91E7
:102EF0004091210450912204452B09F49CC0913F3C
:102F000008F071C02CE1290F2D3008F48BC02DE2A0
:102F1000290F203108F489C0903C21F4815082307F
:102F200008F483C088E3890F8B3008F481C09AE7E6
:102F3000C92E96E1D92EE4E6F6E16D817E81AE01DF
:102F40004F5F5F4F89859A8519955C01C114D10443
:102F5000A1F189809A808114910479F18B819C81FF
:102F60008815990508F487C010E000E04B815C816A
:102F700070E060E0C7010E94463B01151105E9F4CD
:102F800049815A8169857A858D819E81680F791F73
:102F9000C501F6011995E980FA800D811E812F8106
:102FA000388549855A856FEF7FEF81E090E00E9478
:102FB000A9268C01892B09F056C0C8012A960FB6A4
:102FC000F894DEBF0FBECDBFDF91CF911F910F915F
:102FD000FF90EF90DF90CF90BF90AF909F908F9039
:102FE000089580E085CF30E020E0220F331FF90103
:102FF000EB5EFB4F0190F081E02D309709F497CF05
:10300000892F90E01995009709F491CFDC01129671
:10301000ED91FC9113971496CD90DC90309709F0C8
:103020008CCF1FC021E030E0E0CF22E030E0DDCFE8
:1030300023E030E0DACFD12CC12CECE6F6E19F3F63
:1030400009F07BCFE0911504F0911604309721F43C
:10305000C90104EF1FEF0CC08FEF90E019950097A6
:10306000A9F604EF1FEF89859A85009709F4A5CF8B
:103070000E94FD28A2CF0E94D8278C0189859A85BD
:103080000E94FD2870E060E0C4010E9471279887CB
:103090008F830E94A6269E838D836F81788561151C
:1030A000710559F0C8010E94892A9A87898706EF1D
:1030B0001FEF892B09F058CF59CF08EF1FEF56CFDC
:1030C00008EF1FEFD0CF20912304222319F020E036
:1030D0000C94122187EF9FEF089580912104909125
:1030E000220408950E9496250E94F024F5D0E5E17F
:1030F000F4E088E0DF011D928A95E9F7109223043D
:1031000090E080E008950C944E2321E040E050E0F0
:10311000BA010C94122186E090E0FA019183808339
:1031200090E080E0089547E050E065EA72E049CE23
:10313000DF92EF92FF920F931F93CF93DF938A0159
:10314000EC01C60FD71FE0902704F0902804D98027
:103150000E94C027D816190678F082E090E0F801A6
:10316000918380838EEF9FEFDF91CF911F910F911D
:10317000FF90EF90DF900895EF2841F482E090E017
:10318000F8019183808384EF9FEFEECF8981809354
:10319000260490E00196F8019183808390E080E01E
:1031A000E3CFCF93DF93EA010E94FF23882321F02E
:1031B0000E94CD270E94002482E090E099838883BA
:1031C0008BEF9FEFDF91CF910895CF93DF93EB01CA
:1031D00086E0FB0111928A95E9F78FEF8883D8DDAD
:1031E0008983E7DD8A83E8DD9D838C83DF91CF913E
:1031F0000895CF93DF93EA010E940224811109C050
:1032000082E090E09983888385EF9FEFDF91CF91F3
:10321000089590E080E0B7DD81E090E099838883B5
:1032200090E080E0F3CF0F931F93CF93DF93EA01F9
:103230008C01060F171F0E94022481110BC082E02F
:1032400090E09983888385EF9FEFDF91CF911F9165
:103250000F910895F8018181823038F082E090E08A
:10326000998388838EEF9FEFF0CF81E090E08BDD34
:1032700088E090E09983888390E080E0E6CFCF9368
:10328000DF930097D1F4EB01FB01329686E0DF017A
:103290001D928A95E9F78FEF888385E089831A82EA
:1032A0000E94C0278B830E94BF279D838C8381E06F
:1032B0008E838F83DF91CF910895DF91CF911ACDC7
:1032C00083E998E1909325048093240408958091E4
:1032D000240490912504089510922504109224044A
:1032E000089580912704909128040895411105C004
:1032F000611571058105910561F060932704709354
:1033000028048093290490932A0440932B0481E09D
:10331000089580E00895FF920F931F93CF93DF935A
:103320008A01EC01C60FD71FF9800E94C027F8164A
:10333000190668F082E090E0F801918380838EEFB7
:103340009FEFDF91CF911F910F91FF9008956C81B6
:103350007D818E819F814B81C9DF811108C082E010
:1033600090E0F8019183808384EF9FEFEACF898119
:103370008093260490E00196F8019183808390E089
:1033800080E0DFCFCF93DF93EA01FC01E60FF71F68
:1033900064817581868197814381A8DF811109C08D
:1033A00082E090E09983888384EF9FEFDF91CF9153
:1033B000089581E090E09983888390E080E0F6CFE3
:1033C000E7E2F4E04081518162817381480F511D31
:1033D000611D711D40835183628373830895CF9370
:1033E000C09126044C2F50E060912704709128046E
:1033F00001960E943D3B8C2FE3DF10922604CF9173
:103400000895009799F480912704909128042FEF54
:10341000FB012083892B59F02091260430E02F5F97
:103420003F4F2417350719F4CB01D9CF63CC08954A
:10343000009799F480912704909128042FEFFB01C5
:103440002083892B59F02091260430E02F5F3F4FD5
:103450002417350719F4CB01C2CF4CCC089523E1D2
:10346000AC01249FC001259F900D1124E0913004F0
:10347000F0913104E80FF91F238134812250310982
:1034800081E02230310508F080E008950F931F930A
:10349000CF93DF930091320410913304D0E0C0E069
:1034A00080E00C171D0749F491E0811190E0892F0D
:1034B000DF91CF911F910F9108958111F5CFCE012A
:1034C000CEDF2196EECFA0913004B0913104109759
:1034D00029F1209132043091330482179307F0F4DC
:1034E00053E1589F9001599F300D1124A20FB31F33
:1034F000ED91FC911197309789F012968C91681795
:1035000068F48DE0689FE00DF11D112480819181A8
:10351000892B21F081E09281491708F080E008951D
:103520009C0143E1429FC001439F900D1124E09113
:103530003004F0913104E80FF91F8385823091F453
:1035400081E090E065817681409172025091730232
:103550006417750711F490E080E0892B19F081E081
:10356000232B09F080E00895FC01A081B1818DE05A
:10357000689FA00DB11D112413964D915C91858516
:103580009685489F9001499F300D589F300D11241A
:10359000C9010196611103C0478144FD0496089555
:1035A000EF92FF920F931F93CF93DF93EA01FC01F9
:1035B000E60FF71F02811381E480F5804F2D6E2DF9
:1035C000C80181DF81110DC082E090E0998388837A
:1035D0008EEF9FEFDF91CF911F910F91FF90EF90B2
:1035E0000895C8013CDF882339F082E090E0998398
:1035F000888388EF9FEFEECF1093790200937802D3
:10360000E0927A02F0927B0281E090E099838883D5
:1036100090E080E0DFCFCF92DF92EF92FF920F93A6
:103620001F93CF93DF937A01EC01C60FD71FC09091
:103630007802D090790200917A0210917B02412F9A
:10364000602FC60140DF811110C082E090E0F701D9
:10365000918380838AEF9FEFDF91CF911F910F912C
:10366000FF90EF90DF90CF900895C601F8DE882399
:1036700041F082E090E0F7019183808388EF9FEF33
:10368000EBCF4C815D816E817F819A8189818F3FF3
:1036900041F082E090E0F701918380838EEF9FEF0D
:1036A000DBCFE3E1EC9D9001ED9D300D1124E09125
:1036B0003004F0913104E20FF31F0190F081E02D0E
:1036C0002DE0029FE00DF11D11240190F081E02D0D
:1036D00027E0129FE00DF11D1124808391838B81DF
:1036E000828343835483658376831F5F10937B02B9
:1036F00081E090E0F7019183808390E080E0ACCF9F
:10370000EF92FF920F931F93CF93DF937A018C0177
:10371000060F171FC0913004D0913104209781F01B
:1037200021E030E0F8018281938140913204509190
:1037300033048417950710F030E020E0232B71F458
:1037400082E090E0F701918380838EEF9FEFDF911D
:10375000CF911F910F91FF90EF90089543E1489F03
:103760009001499F300D1124C20FD31F78DE8823AA
:1037700041F082E090E0F7019183808388EF9FEF32
:10378000E6CFF8012481358120383105C8F68781DC
:103790008111D6CF4181842F90E08F7E009741F038
:1037A00082E090E0F7019183808386EF9FEFCFCF97
:1037B0004F833E832D83268128871986223010F47B
:1037C00021E0288721E030E0F70131832083BFCF5B
:1037D00088E090E0FA019183808390E080E0089592
:1037E000FB018FEF808381E181838FEF9FEF9383D4
:1037F000828380E890E095838483168217820895FF
:10380000FB018FEF808391E0918382839383848394
:1038100084E3858381E090E0978386830895DF9237
:10382000EF92FF920F931F93CF93DF93EA01FC0176
:10383000E60FF71F8181813071F082E090E099837B
:1038400088838FEF9FEFDF91CF911F910F91FF90B2
:10385000EF90DF90089582819381D4802581E68066
:10386000F78000913004109131040115110539F4ED
:1038700082E090E0998388838CEF9FEFE4CF4091C2
:103880003204509133048417950738F082E090E0B9
:10389000998388838EEF9FEFD6CF892B39F082E012
:1038A00090E09983888386EF9FEFCDCF8D2D8D7F1C
:1038B000B1F72130A1F781E0D11006C091E0E916FF
:1038C000F10431F080E004C0E2E0EE16F104D0F340
:1038D000882329F390E080E0C2DD882339F082E07C
:1038E00090E09983888388EF9FEFADCFF801D3866E
:1038F00081E08487F686E586108A178681E090E06D
:103900009983888390E080E09ECF4CE050E06FEC9C
:1039100072E057CA8F929F92BF92CF92DF92EF923E
:10392000FF920F931F93CF93DF93EA01FC01E60F01
:10393000F71F828193810481B580E0913004F0917A
:103940003104309791F482E090E0998388838CEF82
:103950009FEFDF91CF911F910F91FF90EF90DF903C
:10396000CF90BF909F908F90089520913204309116
:1039700033048217930738F082E090E099838883BC
:103980008EEF9FEFE6CF23E1289F6001299FD00CA7
:103990001124EC0DFD1DE080F180E114F10499F299
:1039A0008281081748F78DE0089F80011124E00EFE
:1039B000F11EF70180819181892B29F6BB20E1F26C
:1039C000F7E0BF9E40011124C4010E94C428F70102
:1039D00091838083E0913004F0913104EC0DFD1D62
:1039E0000190F081E02DE00FF11F8081918100971F
:1039F00039F482E090E0998388838DEF9FEFA9CF1F
:103A0000A40170E060E00E94463B809130049091F8
:103A10003104C80ED91EF60180819181080F191F4B
:103A2000F801B28281E090E09983888390E080E0A1
:103A300090CFAF92BF92CF92DF92FF920F931F93DE
:103A4000CF93DF93EA01FC01E60FF71F8281938198
:103A5000F48000913004109131040115110581F4B6
:103A600082E090E0998388838CEF9FEFDF91CF9184
:103A70001F910F91FF90DF90CF90BF90AF9008956E
:103A800020913204309133048217930738F082E09A
:103A900090E0998388838EEF9FEFE8CF2FEF2F0D73
:103AA0002C3FA8F723E1289F6001299FD00C112407
:103AB0000C0D1D1DF80180819181892B89F6FDE097
:103AC000FF9E50011124C5010E94C428F801918372
:103AD0008083E0913004F0913104EC0DFD1D808174
:103AE0009181009739F482E090E0998388838DEF8B
:103AF0009FEFBCCFA50170E060E00E94463BE091E3
:103B00003004F0913104EC0DFD1DF28281E090E073
:103B10009983888390E080E0A9CFCF92DF92EF92E3
:103B2000FF920F931F93CF93DF93860F971FFC0194
:103B3000028113818091300490913104892B81F0AE
:103B400082E090E0FA01918380838CEF9FEFDF9118
:103B5000CF911F910F91FF90EF90DF90CF9008953C
:103B6000C801B0E0A0E00197A109B1098F3F9F4FC4
:103B7000A105B10540F082E090E0FA0191838083D5
:103B80008EEF9FEFE4CF7A0183E1809F6001819FF8
:103B9000D00C1124C6010E94C428EC01009741F406
:103BA00082E090E0F701918380838DEF9FEFCFCF8C
:103BB000A60170E060E00E94463BD0933104C093C0
:103BC0003004109333040093320490E080E02FEF30
:103BD0003FEF41E061E070E08017910741F481E040
:103BE00090E0F7019183808390E080E0B0CF3A8B42
:103BF000298B1B864C877E876D87188A1F860196C6
:103C00006396EACFEF92FF921F93CF93DF93EC017D
:103C100010E0F12CE12C6A811617B0F083E0689F68
:103C2000B0011124AE014F5E5F4FC7010E942929E8
:103C3000009721F02FEF3FEF3A8B298BDF91CF9147
:103C40001F91FF90EF900895612FCE018DDC61E010
:103C500070E00E947127E816F90608F47C011F5FE6
:103C6000DACFF89420912E0430912F0481E02115B1
:103C7000310509F080E0232B09F0789408952F9204
:103C80003F924F925F926F927F928F929F92AF92EC
:103C9000BF92CF92DF92EF92FF920F931F93CF9339
:103CA000DF933C01660E771EF301828193814C0104
:103CB000B12CA12CC0913004D0913104209769F02F
:103CC00021E030E060913204709133048617970749
:103CD00010F030E020E0232BD1F482E090E0FA01F4
:103CE000918380838EEF9FEFDF91CF911F910F9192
:103CF000FF90EF90DF90CF90BF90AF909F908F900C
:103D00007F906F905F904F903F902F90089580929A
:103D10007C0290927D02A0927E02B0927F0263E1CB
:103D2000689F9001699F300D1124C20FD31FF301CA
:103D30008181833040F082E090E0FA0191838083BA
:103D400086EF9FEFD1CF2A012B813C81232BF1F409
:103D5000288139819F8191FF2EC0232B09F46FC0E8
:103D6000209135049A81422F490F5527551FBA01DA
:103D700041E050E06138710514F050E040E0452B1F
:103D800009F45DC02A87920F9093350481508230E8
:103D900008F481C066DF882309F4D8C0F30181816B
:103DA000813009F48DC008F47BC0823009F4C6C0AC
:103DB00090E080E0ADC0232B09F441C02091340491
:103DC0009A81E22FE90FFF27FF1F41E050E0ED3F0E
:103DD000F10514F050E040E0452B89F12A87920F5D
:103DE00090933404D3CFA081B181A20FB31F119659
:103DF0006C91060F111D0196295F3F4F841795079F
:103E000094F38D859E85089F1001099F300C189FA3
:103E1000300C1124C114D104D1F48F8184FF17C058
:103E20000E94BF27F5E02F0E311C21E0821593057B
:103E300008F420E0A701435F5F4F21110EC082E02C
:103E400090E0F2019183808387EF9FEF4DCF0E9436
:103E5000BF272FEF221A320AE8CF88819981E80E16
:103E6000F91EF70114830383FFEFCF1ADF0A7A01EB
:103E70008A818C151D0409F00CF48CCFE881F9813E
:103E8000EE0DFF1D428150E030E020E010E000E048
:103E900090E080E0B3CFF12CE12CD12CC12CE8CF05
:103EA00081E090E09C838B83F1DA882309F480CF52
:103EB00081E090E00E94C31680E40E94D11678CF82
:103EC00089899A89019661F083E090E09C838B83D5
:103ED00082E090E00E94C31680E40E94CB1668CF77
:103EE0008D819E8120917202309173028217930717
:103EF000D1F46091760270917702AE014F5E5F4F10
:103F000080917402909175020E94482A0097E1F214
:103F1000789422E030E0F20131832083892B99F0FC
:103F20008DEF9FEFE1CE89288A288B2869F6892BAF
:103F300059F6CE0167DE188A1F86E8CF82E090E04E
:103F40009C838B8335CF90E080E0CECE82E090E002
:103F5000F2019183808385EF9FEFC6CE8F929F926F
:103F6000AF92BF92CF92DF92EF92FF920F931F9387
:103F7000CF93DF93EA018C01060F171FF8018181AF
:103F8000833098F082E090E09983888386EF9FEFFA
:103F9000DF91CF911F910F91FF90EF90DF90CF9025
:103FA000BF90AF909F908F90089580913004909132
:103FB0003104892B61F081E090E02091320430914E
:103FC0003304232B11F490E080E0892B39F482E054
:103FD00090E0998388838EEF9FEFDACF42DE8823CB
:103FE00009F4DFC0F8018181813009F495C0E8F05F
:103FF000823099F42091320430913304E0913004FE
:10400000F091310490E080E041E050E0281739075A
:1040100009F0BDC03BDA811117C0789481E090E0CF
:104020009983888390E080E0B3CF2091320430916F
:104030003304E0913004F091310490E080E041E0FD
:1040400050E02817390741F481E090E00E94C31640
:1040500080E40E94D116E1CF63817481672B11F057
:104060005483438301967396ECCFE0913004F09132
:104070003104E00FF11F2381348122303105D9F45E
:10408000218932892F3F3F4FB1F4258136814091FC
:104090007202509173022417350761F5AF014F5E2C
:1040A0005F4F6091760270917702809174029091D7
:1040B00075020E94482AEFEFCE1ADE0AEE0AFE0AC7
:1040C0000D5E1F4F409132045091330470E060E068
:1040D000C416D506E606F7063CF5009731F278944B
:1040E000892B09F49BCF82E090E0998388838DEF40
:1040F0009FEF4ECFC114D104E104F104E1F6232B6C
:10410000D1F6CF017FDDE0913004F0913104E00F72
:10411000F11F108A1786CFCF10E000E090E080E01A
:10412000C12CD12C7601CECF0097C9F610E000E06B
:10413000812C912C540183E0E82EF12C1AC0E091DF
:104140003004F0913104E00FF11F838194810297D4
:1041500049F4F482E38282E090E00E94C31680E496
:104160000E94CB16FFEF8F1A9F0AAF0ABF0A0D5E9F
:104170001F4F8091320490913304B0E0A0E0881684
:104180009906AA06BB06DCF290E080E0A8CF638126
:1041900074816230710511F45483438301967396E0
:1041A00035CF82E090E09983888385EF9FEFF0CE52
:1041B0000097B9F48FEFFB01808320917C0230914E
:1041C0007D0243E1429FC001439F900D1124E09185
:1041D0003004F0913104E80FF91F8285FB018183DF
:1041E00008950C947A1688E090E0FA019183808318
:1041F00090E080E0089510922F0410922E04E0E3E6
:10420000F4E086E0DF011D928A95E9F785E89CE1FC
:1042100090932D0480932C04089580912C04909108
:104220002D0408952F923F924F925F926F927F924A
:104230008F929F92AF92BF92CF92DF92EF92FF92B6
:104240000F931F93CF93DF93CDB7DEB72F970FB6A2
:10425000F894DEBF0FBECDBFF894E0912E04F0912C
:104260002F043196F0932F04E0932E04789440901D
:104270003004509031044114510409F40CC2E0910F
:104280003204F0913304EF2B09F405C22D874987DE
:104290005A876B877C8798878F831201B12CA12C5A
:1042A00010E000E08091320490913304A816B90622
:1042B00018F40115110529F1F89480912E049091BC
:1042C0002F04019790932F0480932E047894C801B3
:1042D0002F960FB6F894DEBF0FBECDBFDF91CF9102
:1042E0001F910F91FF90EF90DF90CF90BF90AF9014
:1042F0009F908F907F906F905F904F903F902F9006
:1043000008957101E418F508D10117968C9117975B
:1043100081FD54C013968D919C911497039709F0D9
:104320004DC015968D919C91EF81F8858E179F0752
:1043300009F044C0B50190E080E07FD48A832091E9
:104340003004309131043D832C833D85332309F4BF
:104350004CC04C815D81452B09F49AC18091320497
:1043600090913304A816B90608F092C1C501D8D8B7
:104370008823E9F06C817D816E0D7F1D7D836C83C8
:10438000DB011F968D919C91892B89F0D12CC12C3A
:10439000F12CE12CAC81BD8112968C9112978E1577
:1043A0001F0409F094F450961C921E921F972A81C4
:1043B000222321F0B50190E080E041D43FEFA31A21
:1043C000B30A43E1240E311C6DCFAC81BD81ED9168
:1043D000FC91EC0DFD1D858196810FD7BFEFEB1A87
:1043E000FB0AEDE0CE0ED11CD5CFEC81FD813097DC
:1043F00009F44EC18091320490913304A816B90695
:1044000008F046C1EE0DFF1DFF87EE87C50188D875
:104410008B83882339F1AE85BF851F968D919C9142
:104420005097019621E01D964D915C918417950758
:1044300009F020E02E831982712C10E000E0AE8597
:10444000BF8512968C91781608F45DC0EE85FF85C5
:10445000878590890196658576850E94E63A908BDE
:104460008787A5CFB1E0BE83E6CF992493946BC034
:104470008BD6F6019683858382C0D601ED90FC90A1
:10448000B7E06B9EE00CF11C1124F701638174818D
:1044900080818F3F61F121E030E002C0220F331FA5
:1044A0008A95E2F7C901092E000CAA0BBB0BFB0190
:1044B000408151816281738184239523A623B72390
:1044C00021E0892B8A2B8B2B09F420E0D4012C933B
:1044D000D70111968C91F60123853485820F932F95
:1044E000911D880E991E1486138663949BC041818A
:1044F00050E0C4010E943D3BEBCF998206EF1FEFD5
:10450000C5C01982C3C0F981F111A0CFEDE07E9E34
:1045100070011124AE85BF85CD90DC90CE0CDF1CE0
:1045200015D49D838C83BB81BB2309F49ECF81E08E
:10453000EE85FF8527853089232B09F080E0982EB2
:10454000882309F458C0672D8E859F850DD8D60124
:1045500018969C938E93179761E070E0C2D4EE8515
:10456000FF85218932892F3F320709F481CFBC01B1
:10457000C901CFD7D60116969C938E931597D60175
:1045800015968D919C911697009709F4B6CFEC8102
:10459000FD818E0F9F1F1A969C938E931997AE855F
:1045A000BF85ED91FC911197EE0EFF1EF70121855D
:1045B0003285148613861A968C91870DD9018D93B6
:1045C000711016C0EE85FF85878184FF11C0498573
:1045D0005A856B857C85F90141835283638374839B
:1045E000F701838594850496A80FB91F1486138656
:1045F000F701B287A187D60115968D919C911697E8
:10460000892B09F443C0EE85FF8525813681809191
:104610007202909173022817390779F019968D90DC
:104620009C90612CD60112968C911297681608F412
:1046300024CF1A969C928E921997BE81BB2309F4BF
:1046400060CF61E070E0F601878190854AD4D601A1
:104650001796ED90FC90189715964D915C91E1E0BE
:10466000F0E0BA81BB2311F0F0E0E0E00C811D81A5
:104670009C01B501882799278E1B9F0B6AD38C015B
:10468000892B21F0F60185819681B7D57394D7CE19
:104690000FEF1FEF8CCE10E000E00ECE2F923F9276
:1046A0004F925F926F927F928F929F92AF92BF9242
:1046B000CF92DF92EF92FF920F931F93CF93DF93EE
:1046C000809130049091310410E000E0892BA9F032
:1046D000C8DA0AEF1FEF882381F02090320430906F
:1046E0003304C0913004D0913104D12CC12C10E09E
:1046F00000E02C143D04A9F47894C801DF91CF9117
:104700001F910F91FF90EF90DF90CF90BF90AF90EF
:104710009F908F907F906F905F904F903F902F90E1
:104720000895C6010E94901A882309F18B819C810B
:104730000397E9F48F859889892BC9F0B60190E039
:1047400080E07BD221E030E0882311F030E020E0EF
:1047500044245524421A530AB12CA12C912C812CAB
:104760008A818815190409F038F4188A1F864FEFDA
:10477000C41AD40A6396BDCFE881F981EA0DFB1D06
:1047800085819681892BA1F161E070E08781908518
:10479000A8D33C01DBD28C01E881F981EA0DFB1D35
:1047A0008185928525813681200F311FAC01421B06
:1047B000530B9A0147815085421B530B70E060E018
:1047C0000E94463BE881F981EA0DFB1DE780F084F9
:1047D000458156819301B601C201BBD28C01892B60
:1047E00039F0E881F981EA0DFB1D8581968105D5B7
:1047F0005FEF851A950A8DE0A80EB11CB1CF31CAC2
:10480000789408952F923F924F925F926F927F9289
:104810009F92AF92BF92CF92DF92EF92FF920F934F
:104820001F93CF93DF9300D000D0CDB7DEB70091B8
:10483000300410913104992493940115110509F461
:104840003EC0A0903204B09033040BDA982E882337
:10485000B1F110923104109230041092330410928E
:10486000320410923404109235048FEF9FEFDC0174
:1048700080937C0290937D02A0937E02B0937F028E
:1048800078947FD31E830D83C12CD12C7601C50172
:10489000B0E0A0E089839A83AB83BC8322242A946E
:1048A000322C89819A81AB81BC81C816D906EA066F
:1048B000FB06F4F0C801A1D480E40E94D116892D32
:1048C00026960FB6F894DEBF0FBECDBFDF91CF9115
:1048D0001F910F91FF90EF90DF90CF90BF90AF901E
:1048E0009F907F906F905F904F903F902F90089592
:1048F000AD81BE8115968D919C9116972091720283
:104900003091730282179307D1F451968D919C9147
:10491000EED5ED81FE8180819181B12CA12C412CBD
:10492000512C3201892B89F5BFEFCB1ADB0AEB0A38
:10493000FB0AED81FE817396FE83ED83B2CFC11435
:10494000D104E104F10429F7892B19F7ED81FE81E7
:10495000818992898F3F980709F029D5AD81BE8161
:1049600052963C922E925197D4CF8A0D9B1DDC011A
:104970008D919C91009709F040D4BFEF4B1A5B0AD0
:104980006B0A7B0AEDE0AE0EB11CAD81BE818D914C
:104990009C91119712964C9150E070E060E04416A3
:1049A0005506660677060CF328D4BECFCF93DF9367
:1049B000EA0128DF811109C082E090E099838883B1
:1049C00085EF9FEFDF91CF91089581E090E00E9405
:1049D000C31681E090E09983888390E080E0F2CF75
:1049E00011DF10922D0410922C04089542E050E043
:1049F00067E173E00C94E116FF920F931F93CF933E
:104A0000DF938A01EC01C60FD71FF980B9D208974E
:104A1000F816190671F068F082E090E0F8019183D1
:104A200080838EEF9FEFDF91CF911F910F91FF90C9
:104A300008956C817D818E819F814B810E947619C2
:104A4000811108C082E090E0F8019183808384EFB7
:104A50009FEFE9CFF9800E9471194F2D50E0BE0100
:104A6000685F7F4F0E943D3B89810E94E01981E091
:104A700090E0F8019183808390E080E0D4CFDF92D2
:104A8000EF92FF920F931F93CF93DF938A01EC0174
:104A9000C60FD71F0E9471197C01D98071D2DD2009
:104AA00059F0029721E030E0D816190619F010F0FD
:104AB00030E020E0232B79F482E090E0F80191834C
:104AC00080838EEF9FEFDF91CF911F910F91FF9029
:104AD000EF90DF900895EF2841F482E090E0F80134
:104AE0009183808384EF9FEFEECFF9800E9471194C
:104AF0004F2D50E0BE016E5F7F4F0E943D3B89818C
:104B00000E94E01981E090E0F8019183808390E0B9
:104B100080E0D9CF86EF94E29093370480933604F7
:104B20000895809136049091370408950895FC010A
:104B300011821082938382830895DB011D921C925F
:104B4000DC011296ED91FC911397718360831396AB
:104B50007C936E9312970895FC0180819181DB0113
:104B60008D939C93A081B181109741F08D919C9180
:104B700091838083892B11F4F383E2830895FC01F0
:104B800080819181DB018D939C93892B11F4738338
:104B90006283718360830895FC0111821082938384
:104BA00082830895CF93DF931F921F92CDB7DEB714
:104BB0001A821982F894BE016F5F7F4F8DE394E0F3
:104BC000CBDF89819A81009709F017D389819A8177
:104BD000892B89F7BE016F5F7F4F81E494E0BCDFD2
:104BE00089819A81009709F008D389819A81892B5C
:104BF00089F778940F900F90DF91CF910895CF931C
:104C0000DF931F921F92CDB7DEB71A821982F894F4
:104C1000BE016F5F7F4F89E394E09EDF89819A81B7
:104C2000009709F0EAD289819A81892B89F77894D3
:104C30000F900F90DF91CF91089581E0089590E05B
:104C400080E00895EF92FF920F931F93CF93DF932D
:104C50001F921F92CDB7DEB71A8219828091380455
:104C600007EF1FEF8823A1F1F894BE016F5F7F4F1C
:104C700081E494E071DF789489819A81EE24E39451
:104C8000F12C892B51F4F894BE016F5F7F4F8DE3B7
:104C900094E062DF7894F12CE12C89819A810EEF07
:104CA0001FEF0097A9F0FC014281538164E070E09E
:104CB00076D68C01892B61F0F89469817A81C701DD
:104CC000880F991F880F991F835C9B4F58DF78943A
:104CD000C8010F900F90DF91CF911F910F91FF901E
:104CE000EF9008950F931F93CF93DF9300D01F92FF
:104CF000CDB7DEB71C821B821A82198280913804DC
:104D000007EF1FEF8823C1F0AE014D5F5F4F64E0F6
:104D100070E0CE010196B6D68C01892B69F4E98149
:104D2000FA818B819C8193838283F89469817A8153
:104D300089E394E002DF7894C8010F900F900F9000
:104D40000F90DF91CF911F910F910895BBD70496DB
:104D500008958F929F92AF92BF92CF92DF92EF927F
:104D6000FF920F931F93CF93DF931F921F92CDB7A4
:104D7000DEB71A821982BC016F5F7F4F6330710505
:104D800098F0AA24AA94BA2CC5010F900F90DF9135
:104D9000CF911F910F91FF90EF90DF90CF90BF9038
:104DA000AF909F908F9008954115510551F34801A0
:104DB00059018A016C01CADF8815990511F7E114C0
:104DC000F104F9F28E0D9F1DA816B906D0F280915C
:104DD00038048823F1F0F894B50164507109970103
:104DE000AE014F5F5F4FC8010496E1D65C01892B8D
:104DF00071F489819A81F80193838283C601880FB7
:104E0000991F880F991FB801835C9B4F96DE789499
:104E1000BBCF87EFA82EBB24BA94B6CFAF92BF9278
:104E2000CF92DF92EF92FF920F931F93CF93DF9376
:104E30001F921F92CDB7DEB71A821982892B09F013
:104E400047C06115710509F443C04115510509F4C6
:104E50003FC02115310509F43BC001151105C1F111
:104E6000809138048823B9F179016A015B01F894D3
:104E7000BE016F5F7F4F89E394E06EDE7894898195
:104E80009A81009759F1DC0112966D917C91A801ED
:104E90000496A6D68C01E981FA81D501ED93FC93A5
:104EA000828193810496F601918380834FDFD7013D
:104EB0008D939C93C8010F900F90DF91CF911F911C
:104EC0000F91FF90EF90DF90CF90BF90AF9008953B
:104ED0000FEF1FEFEFCF07EF1FEFECCF0EEF1FEF3E
:104EE000E9CFCF93DF93EC01672B71F4F4D68C17E5
:104EF0009D0760F0E7D62496C80FD91FE6D68C0F21
:104F00009D1FDF91CF910895E3D6F1CF90E080E02F
:104F1000F8CF0F931F93CF93DF9320913804211183
:104F20002BC08B01EC018DE394E001DE81E494E081
:104F3000FEDD89E394E0FBDD97D00097C1F4CBD68A
:104F400070E060E0CEDF40E852E062E070E081D1E6
:104F5000009769F48091800290918102CED6B801C9
:104F6000CE0103D5009719F421E020933804DF9196
:104F7000CF911F910F91089584EF9FEFF8CFA8C6AE
:104F8000AAC6CF93DF93AAD6EC01892B11F40ADECF
:104F900036DECE01DF91CF910895CF93DF939ED679
:104FA000EC01892B09F4FEDDCE01DF91CF9108954C
:104FB00080918002909181020895CF93DF93809138
:104FC0003804D0E0C0E08823D1F09CD6EC01892BD6
:104FD000B1F4E8DD14DE8091800290918102E7D186
:104FE000E8D2EC01892B59F48DE394E0D5DD81E41E
:104FF00094E0D2DD89E394E0CFDD10923804CE0155
:10500000DF91CF910895EF92FF920F931F93CF936B
:10501000DF93EC017A018B010F5F1F4F0E9DA00102
:105020000F9D500D1E9D500D112470E060E00E94F8
:10503000463B90E080E0F0E0E0E02FEFE816F90674
:1050400039F4DF91CF911F910F91FF90EF90089568
:105050001A8219822883309711F0D283C183019676
:10506000FE01C00FD11FEACFCF92DF92EF92FF92E5
:105070000F931F93CF93DF930AE217E00C7F43E077
:1050800050E062E872E088E892E01CD482E8E82E02
:1050900082E0F82E98E8C92E92E0D92EC9EED7E02A
:1050A000D7014D915D917D01F601619171916F0183
:1050B000198308835D834C835B834A837F836E837C
:1050C0009B012F5F3F4F249FC001259F900D349F70
:1050D000900D1124998788870115110511F0C801D9
:1050E00092DF88859985080F191F2A96F8E8EF1630
:1050F000F2E0FF06A9F6E7E4F4E080EE92E0DF01DB
:105100009C011D9221503040E1F71092460410920C
:105110004504109208081092070810920C0810928B
:105120000B0810920A081092090810920E081092AB
:105130000D081092100810920F0810921208109289
:105140001108109216081092150810921408109267
:105150001308109218081092170810921A0810924B
:1051600019081092E6071092E5071092E8071092CE
:10517000E70790E080E0DF91CF911F910F91FF90C2
:10518000EF90DF90CF9008950097F1F0F894A8E8A1
:10519000B2E0E9EEF7E030E020E04D915D91481794
:1051A0005907A8F0428153814115510581F08AE0E9
:1051B000829FF001839FF00D1124E751F84F808109
:1051C0009181009759F4789490E080E008952F5FE2
:1051D0003F4F3A962330310501F7F5CFDC011196A8
:1051E0006D917C9171836083415051095383428357
:1051F000FC012193CF0178940895009749F1DC01D7
:105200008E91853041F4E091E707F091E8073097FF
:10521000F9F0CD0119948530D8F4282F30E0F894B6
:105220008FEF8C938AE0829FF001839FF00D112411
:10523000E751F84F8081918112969C938E9311973C
:10524000B183A08382819381019693838283789432
:105250000895CF92DF92EF92FF920F931F93CF9317
:10526000DF939C018AE494E08C7F4115510509F499
:105270009BC02115310509F497C06115710509F42A
:1052800093C07A01AB01B9016D5F7F4F6C7F9B01C9
:105290002F5F3F4F249F8001259F100D349F100DDD
:1052A0001124F8942091070830910808232B59F411
:1052B00020910F08309110082115310569F1201750
:1052C000310708F058C02091110830911208232BA3
:1052D00091F420910F0830911008820F931F2091B4
:1052E000190830911A082115310509F441C0201719
:1052F000310708F056C07894CFEFDFEF86EF9FEFCD
:10530000F701D183C083DF91CF911F910F91FF905F
:10531000EF90DF90CF900895C3E0D0E0C0904504B7
:10532000D09046042DED32E02C193D0920173107AD
:1053300010F32AE02C9FF0012D9FF00D1124E7516E
:10534000F84F9183808355834483538342837783CB
:10535000668311870087009709F055DE0C0D1D1D2F
:105360001093460400934504789490E080E0C8CF01
:10537000C4E0D0E0D3CFC3E0D0E02AE02C9FF0011E
:105380002D9FF00D1124E751F84F918380835583B1
:1053900044835383428377836683009729F333DE04
:1053A000E3CFC4E0D0E0E9CF8FEF9FEFACCF9C011B
:1053B0000397029708F069C0F89484E09AE0482FB8
:1053C00050E0241735070CF44DC091E08AE0829F2D
:1053D000F001839FF00D1124E751F84F11821082E4
:1053E0001582148213821282178216829923B1F1D8
:1053F0008091070890910808892BA9F420910F0843
:10540000309110082115310571F08091450490917B
:105410004604821B930B909346048093450410929C
:10542000100810920F088091110890911208892B92
:10543000A9F42091190830911A082115310571F04D
:105440008091450490914604821B930B90934604EF
:105450008093450410921A0810921908789490E0ED
:1054600080E00895949FF001959FF00D1124E7517D
:10547000F84F40815181452B31F440855185452BB2
:1054800011F481509CCF90E0A1CF8FEF9FEF089552
:105490004115510549F1009739F16115710521F167
:1054A000F8942091E5073091E607232BB9F4209179
:1054B000E7073091E807232B89F49093E607809360
:1054C000E5077093E8076093E707789425E030E0FC
:1054D00090E080E0FA0131832083089578942FEFE3
:1054E0003FEF86EF9FEFF6CF8FEF9FEF0895059781
:1054F00069F4F8941092E6071092E5071092E80715
:105500001092E707789490E080E008958FEF9FEF86
:1055100008956115710519F4F0E0E0E011C08530DF
:10552000910581F4E091E507F091E6073097A1F34A
:10553000CB0101961995009779F3FC0185E08193E1
:10554000CF0108959C01235031092230310520F705
:105550002AE0289FD001299FB00D1124A751B84FF0
:105560002D913C911197232BB9F216962D913C91D8
:1055700017972617370780F2F89412962D913C91D1
:1055800013972115310529F0ED91FC911197309772
:1055900011F47894C1CF4181528111965C934E935E
:1055A0002150310913963C932E931297819378944E
:1055B000C7CFE7E2F7E08EEBDF011D928A95E9F7AE
:1055C000E7E4F4E080EE92E0DF019C011D922150BF
:1055D0003040E1F71092460410924504E9EEF7E0FE
:1055E00082E3DF011D928A95E9F7E5EEF7E084E0BA
:1055F000DF011D928A95E9F790E080E00895CF934E
:10560000DF93C0918E02D0918F02CF3FDC0759F417
:1056100023D490938F0280938E0297FF09C0D0937A
:105620008F02C0938E0284EF9FEFDF91CF91089598
:1056300090E080E0FACF8230910528F480931B0837
:1056400090E080E008958FEF9FEF08954F925F9272
:105650006F927F92AF92BF92CF92DF92EF92FF92C2
:105660000F931F93CF93DF931F921F92CDB7DEB797
:105670001A821982009709F479C06115710509F43D
:1056800075C020918E0230918F0207EF1FEF2F3FE0
:105690003F4F09F445C06B015C01412C512C320194
:1056A000F12CE12C10E000E09E012F5F3F4FA6019E
:1056B0004E195F09B5016E0D7F1D80918E0290918C
:1056C0008F022CD4892B09F04BC089819A810097D5
:1056D00041F4E114F10429F420911B08222309F478
:1056E00042C0E80EF91EEC14FD04D0F480E8481620
:1056F00084E858068EE16806710420F560E070E0E9
:10570000CB010E9414352AE0420E511C611C711C11
:105710000A3F4FEF140721F0043F8FEF1807A1F461
:10572000C8010F900F90DF91CF911F910F91FF90C3
:10573000EF90DF90CF90BF90AF907F906F905F9091
:105740004F90089501EF1FEF81E090E0013F2FEFB0
:10575000120711F090E080E0892B09F4A5CFE0CF8B
:1057600004EF1FEFDDCF0AEF1FEFDACF0FEF1FEFD0
:10577000D7CF4F925F926F927F92AF92BF92CF92AC
:10578000DF92EF92FF920F931F93CF93DF931F92BD
:105790001F92CDB7DEB71A821982009709F479C03B
:1057A0006115710509F475C020918E0230918F0248
:1057B00007EF1FEF2F3F3F4F09F445C06B015C011E
:1057C000412C512C3201F12CE12C10E000E09E0123
:1057D0002F5F3F4FA6014E195F09B5016E0D7F1D6A
:1057E00080918E0290918F024ED3892B09F04BC08D
:1057F00089819A81009741F4E114F10429F4209100
:105800001B08222309F442C0E80EF91EEC14FD0423
:10581000D0F480E4481682E458068FE068067104EC
:1058200020F560E070E0CB010E9414352AE0420EC2
:10583000511C611C711C0E3F4FEF140721F0043FF7
:105840008FEF1807A1F4C8010F900F90DF91CF914F
:105850001F910F91FF90EF90DF90CF90BF90AF908E
:105860007F906F905F904F90089502EF1FEF81E05F
:1058700090E0023F2FEF120711F090E080E0892BBB
:1058800009F4A5CFE0CF04EF1FEFDDCF0EEF1FEF40
:10589000DACF0FEF1FEFD7CF80918E0290918F025A
:1058A0008F3F980749F0D0D2892B49F48FEF9FEFB3
:1058B00090938F0280938E0290E080E0089584EFB1
:1058C0009FEF0895CF92DF92EF92FF920F931F9375
:1058D000CF93DF9321E04115510509F020E04150BD
:1058E000510921112CC0DC01FB01D12CC12C21E07C
:1058F00022C03FEFC31AD30A7D010D911D91E7012C
:10590000EA80FB80E016F106A8F420813181E28074
:10591000F380F182E08233832283ED90FC90119733
:105920009D0122503109E901F982E88211961C9308
:105930000E9320E03296C416D506D8F2D2CFDF916E
:10594000CF911F910F91FF90EF90DF90CF9008952E
:10595000FC01680F791F90E080E0E617F70709F473
:1059600008952191820F911DF8CF20911C082111DB
:1059700013C045DE009791F410922208109221087E
:105980001092200810921F0810921E0810921D08F5
:1059900021E020931C08089584EF9FEF0895AF92B3
:1059A000BF92CF92DF92EF92FF920F931F93CF930C
:1059B000DF93009709F460C04630510508F45CC0DD
:1059C00020911C08C7EFDFEF222309F449C08C01A6
:1059D000060F171FF801C080D180C114D10409F44B
:1059E0004EC096012A5F3F4F4217530708F447C045
:1059F0007C01809121089091220893838283B601D3
:105A00006C5F7F4F5801A60EB71EC801A1DFF501DC
:105A10009183808364E070E0C80118DEEC01892B7B
:105A2000F9F481E090E007DEB601C80104960EDECD
:105A3000EC01892B91F462E070E0C50107DEEC0116
:105A4000892B59F4C701D9DB809121089091220854
:105A50000196909322088093210890E080E0EBDD8E
:105A6000CE01DF91CF911F910F91FF90EF90DF90CA
:105A7000CF90BF90AF900895CFEFDFEFF1CFC9EF98
:105A8000DFEFEECF6F927F928F929F92AF92BF9295
:105A9000CF92DF92EF92FF920F931F93CF93DF93FA
:105AA00000D01F92CDB7DEB7009709F47AC0411538
:105AB000510509F476C020911C0807EF1FEF22233F
:105AC00009F44DC03A017B015C0164E070E0CE0155
:105AD00001964FDE8C01892B09F041C009811A81A2
